{
  "address": "0x5F88BC7535eEe75882ed656Bb10801Dd8b948132",
  "abi": [
    {
      "inputs": [
        {
          "internalType": "address",
          "name": "_initialManager",
          "type": "address"
        },
        {
          "internalType": "address",
          "name": "_initialPauser",
          "type": "address"
        }
      ],
      "stateMutability": "nonpayable",
      "type": "constructor"
    },
    {
      "inputs": [],
      "name": "AccessControlBadConfirmation",
      "type": "error"
    },
    {
      "inputs": [
        {
          "internalType": "address",
          "name": "account",
          "type": "address"
        },
        {
          "internalType": "bytes32",
          "name": "neededRole",
          "type": "bytes32"
        }
      ],
      "name": "AccessControlUnauthorizedAccount",
      "type": "error"
    },
    {
      "inputs": [],
      "name": "EnforcedPause",
      "type": "error"
    },
    {
      "inputs": [],
      "name": "ExpectedPause",
      "type": "error"
    },
    {
      "inputs": [],
      "name": "MathOverflowedMulDiv",
      "type": "error"
    },
    {
      "inputs": [],
      "name": "ReentrancyGuardReentrantCall",
      "type": "error"
    },
    {
      "anonymous": false,
      "inputs": [
        {
          "indexed": true,
          "internalType": "uint256",
          "name": "projectId",
          "type": "uint256"
        },
        {
          "indexed": false,
          "internalType": "uint256",
          "name": "amount",
          "type": "uint256"
        }
      ],
      "name": "FundsDeposited",
      "type": "event"
    },
    {
      "anonymous": false,
      "inputs": [
        {
          "indexed": true,
          "internalType": "uint256",
          "name": "projectId",
          "type": "uint256"
        },
        {
          "indexed": true,
          "internalType": "address",
          "name": "contributor",
          "type": "address"
        },
        {
          "indexed": false,
          "internalType": "uint256",
          "name": "amount",
          "type": "uint256"
        }
      ],
      "name": "FundsWithdrawn",
      "type": "event"
    },
    {
      "anonymous": false,
      "inputs": [
        {
          "indexed": false,
          "internalType": "address",
          "name": "account",
          "type": "address"
        }
      ],
      "name": "Paused",
      "type": "event"
    },
    {
      "anonymous": false,
      "inputs": [
        {
          "indexed": true,
          "internalType": "bytes32",
          "name": "role",
          "type": "bytes32"
        },
        {
          "indexed": true,
          "internalType": "bytes32",
          "name": "previousAdminRole",
          "type": "bytes32"
        },
        {
          "indexed": true,
          "internalType": "bytes32",
          "name": "newAdminRole",
          "type": "bytes32"
        }
      ],
      "name": "RoleAdminChanged",
      "type": "event"
    },
    {
      "anonymous": false,
      "inputs": [
        {
          "indexed": true,
          "internalType": "bytes32",
          "name": "role",
          "type": "bytes32"
        },
        {
          "indexed": true,
          "internalType": "address",
          "name": "account",
          "type": "address"
        },
        {
          "indexed": true,
          "internalType": "address",
          "name": "sender",
          "type": "address"
        }
      ],
      "name": "RoleGranted",
      "type": "event"
    },
    {
      "anonymous": false,
      "inputs": [
        {
          "indexed": true,
          "internalType": "bytes32",
          "name": "role",
          "type": "bytes32"
        },
        {
          "indexed": true,
          "internalType": "address",
          "name": "account",
          "type": "address"
        },
        {
          "indexed": true,
          "internalType": "address",
          "name": "sender",
          "type": "address"
        }
      ],
      "name": "RoleRevoked",
      "type": "event"
    },
    {
      "anonymous": false,
      "inputs": [
        {
          "indexed": false,
          "internalType": "address",
          "name": "account",
          "type": "address"
        }
      ],
      "name": "Unpaused",
      "type": "event"
    },
    {
      "anonymous": false,
      "inputs": [
        {
          "indexed": true,
          "internalType": "uint256",
          "name": "projectId",
          "type": "uint256"
        }
      ],
      "name": "VaultClosed",
      "type": "event"
    },
    {
      "inputs": [],
      "name": "DEFAULT_ADMIN_ROLE",
      "outputs": [
        {
          "internalType": "bytes32",
          "name": "",
          "type": "bytes32"
        }
      ],
      "stateMutability": "view",
      "type": "function"
    },
    {
      "inputs": [],
      "name": "PAUSER_ROLE",
      "outputs": [
        {
          "internalType": "bytes32",
          "name": "",
          "type": "bytes32"
        }
      ],
      "stateMutability": "view",
      "type": "function"
    },
    {
      "inputs": [],
      "name": "TICKET_MANAGER_ROLE",
      "outputs": [
        {
          "internalType": "bytes32",
          "name": "",
          "type": "bytes32"
        }
      ],
      "stateMutability": "view",
      "type": "function"
    },
    {
      "inputs": [
        {
          "internalType": "uint256",
          "name": "_projectId",
          "type": "uint256"
        }
      ],
      "name": "closeVault",
      "outputs": [],
      "stateMutability": "nonpayable",
      "type": "function"
    },
    {
      "inputs": [
        {
          "internalType": "uint256",
          "name": "_projectId",
          "type": "uint256"
        },
        {
          "internalType": "address[]",
          "name": "_investors",
          "type": "address[]"
        },
        {
          "internalType": "uint256[]",
          "name": "_investmentAmounts",
          "type": "uint256[]"
        },
        {
          "internalType": "uint256",
          "name": "_fundingGoal",
          "type": "uint256"
        },
        {
          "internalType": "uint256",
          "name": "_profitSharePercentage",
          "type": "uint256"
        },
        {
          "internalType": "address",
          "name": "_creator",
          "type": "address"
        }
      ],
      "name": "createProjectVault",
      "outputs": [],
      "stateMutability": "nonpayable",
      "type": "function"
    },
    {
      "inputs": [
        {
          "internalType": "uint256",
          "name": "_projectId",
          "type": "uint256"
        }
      ],
      "name": "depositSaleFunds",
      "outputs": [],
      "stateMutability": "payable",
      "type": "function"
    },
    {
      "inputs": [
        {
          "internalType": "bytes32",
          "name": "role",
          "type": "bytes32"
        }
      ],
      "name": "getRoleAdmin",
      "outputs": [
        {
          "internalType": "bytes32",
          "name": "",
          "type": "bytes32"
        }
      ],
      "stateMutability": "view",
      "type": "function"
    },
    {
      "inputs": [
        {
          "internalType": "uint256",
          "name": "_projectId",
          "type": "uint256"
        }
      ],
      "name": "getTotalFunds",
      "outputs": [
        {
          "internalType": "uint256",
          "name": "",
          "type": "uint256"
        }
      ],
      "stateMutability": "view",
      "type": "function"
    },
    {
      "inputs": [
        {
          "internalType": "address",
          "name": "_address",
          "type": "address"
        }
      ],
      "name": "getTotalWithdrawableEth",
      "outputs": [
        {
          "internalType": "uint256",
          "name": "",
          "type": "uint256"
        }
      ],
      "stateMutability": "view",
      "type": "function"
    },
    {
      "inputs": [
        {
          "internalType": "address",
          "name": "_address",
          "type": "address"
        }
      ],
      "name": "getWithdrawableEthBreakdown",
      "outputs": [
        {
          "internalType": "uint256[]",
          "name": "projectIds",
          "type": "uint256[]"
        },
        {
          "internalType": "uint256[]",
          "name": "amounts",
          "type": "uint256[]"
        }
      ],
      "stateMutability": "view",
      "type": "function"
    },
    {
      "inputs": [
        {
          "internalType": "bytes32",
          "name": "role",
          "type": "bytes32"
        },
        {
          "internalType": "address",
          "name": "account",
          "type": "address"
        }
      ],
      "name": "grantRole",
      "outputs": [],
      "stateMutability": "nonpayable",
      "type": "function"
    },
    {
      "inputs": [
        {
          "internalType": "bytes32",
          "name": "role",
          "type": "bytes32"
        },
        {
          "internalType": "address",
          "name": "account",
          "type": "address"
        }
      ],
      "name": "hasRole",
      "outputs": [
        {
          "internalType": "bool",
          "name": "",
          "type": "bool"
        }
      ],
      "stateMutability": "view",
      "type": "function"
    },
    {
      "inputs": [
        {
          "internalType": "uint256",
          "name": "",
          "type": "uint256"
        },
        {
          "internalType": "address",
          "name": "",
          "type": "address"
        }
      ],
      "name": "investorAmounts",
      "outputs": [
        {
          "internalType": "uint256",
          "name": "",
          "type": "uint256"
        }
      ],
      "stateMutability": "view",
      "type": "function"
    },
    {
      "inputs": [
        {
          "internalType": "uint256",
          "name": "_projectId",
          "type": "uint256"
        }
      ],
      "name": "isVaultOpen",
      "outputs": [
        {
          "internalType": "bool",
          "name": "",
          "type": "bool"
        }
      ],
      "stateMutability": "view",
      "type": "function"
    },
    {
      "inputs": [
        {
          "internalType": "uint256",
          "name": "",
          "type": "uint256"
        }
      ],
      "name": "launchedProjects",
      "outputs": [
        {
          "internalType": "uint256",
          "name": "",
          "type": "uint256"
        }
      ],
      "stateMutability": "view",
      "type": "function"
    },
    {
      "inputs": [],
      "name": "pause",
      "outputs": [],
      "stateMutability": "nonpayable",
      "type": "function"
    },
    {
      "inputs": [],
      "name": "paused",
      "outputs": [
        {
          "internalType": "bool",
          "name": "",
          "type": "bool"
        }
      ],
      "stateMutability": "view",
      "type": "function"
    },
    {
      "inputs": [
        {
          "internalType": "uint256",
          "name": "",
          "type": "uint256"
        }
      ],
      "name": "projectVaults",
      "outputs": [
        {
          "internalType": "uint256",
          "name": "raisedFunds",
          "type": "uint256"
        },
        {
          "internalType": "uint256",
          "name": "ticketSales",
          "type": "uint256"
        },
        {
          "internalType": "bool",
          "name": "isOpen",
          "type": "bool"
        },
        {
          "internalType": "uint256",
          "name": "profitSharePercentage",
          "type": "uint256"
        },
        {
          "internalType": "address",
          "name": "creator",
          "type": "address"
        }
      ],
      "stateMutability": "view",
      "type": "function"
    },
    {
      "inputs": [
        {
          "internalType": "bytes32",
          "name": "role",
          "type": "bytes32"
        },
        {
          "internalType": "address",
          "name": "callerConfirmation",
          "type": "address"
        }
      ],
      "name": "renounceRole",
      "outputs": [],
      "stateMutability": "nonpayable",
      "type": "function"
    },
    {
      "inputs": [
        {
          "internalType": "bytes32",
          "name": "role",
          "type": "bytes32"
        },
        {
          "internalType": "address",
          "name": "account",
          "type": "address"
        }
      ],
      "name": "revokeRole",
      "outputs": [],
      "stateMutability": "nonpayable",
      "type": "function"
    },
    {
      "inputs": [
        {
          "internalType": "bytes4",
          "name": "interfaceId",
          "type": "bytes4"
        }
      ],
      "name": "supportsInterface",
      "outputs": [
        {
          "internalType": "bool",
          "name": "",
          "type": "bool"
        }
      ],
      "stateMutability": "view",
      "type": "function"
    },
    {
      "inputs": [],
      "name": "unpause",
      "outputs": [],
      "stateMutability": "nonpayable",
      "type": "function"
    },
    {
      "inputs": [
        {
          "internalType": "uint256",
          "name": "_projectId",
          "type": "uint256"
        }
      ],
      "name": "withdrawCreatorShare",
      "outputs": [],
      "stateMutability": "nonpayable",
      "type": "function"
    },
    {
      "inputs": [
        {
          "internalType": "uint256",
          "name": "_projectId",
          "type": "uint256"
        }
      ],
      "name": "withdrawFunds",
      "outputs": [],
      "stateMutability": "nonpayable",
      "type": "function"
    },
    {
      "inputs": [
        {
          "internalType": "uint256",
          "name": "",
          "type": "uint256"
        },
        {
          "internalType": "address",
          "name": "",
          "type": "address"
        }
      ],
      "name": "withdrawableEth",
      "outputs": [
        {
          "internalType": "uint256",
          "name": "",
          "type": "uint256"
        }
      ],
      "stateMutability": "view",
      "type": "function"
    },
    {
      "inputs": [
        {
          "internalType": "uint256",
          "name": "",
          "type": "uint256"
        },
        {
          "internalType": "address",
          "name": "",
          "type": "address"
        }
      ],
      "name": "withdrawnShares",
      "outputs": [
        {
          "internalType": "uint256",
          "name": "",
          "type": "uint256"
        }
      ],
      "stateMutability": "view",
      "type": "function"
    }
  ],
  "transactionHash": "0xf34ea128f7e2abc46e23ce72ad8d70383e5b27de9aa203263114b4c46c813681",
  "args": [
    "0xc609039aB9266a558ac84AA0067aaf26B24264b9",
    "0xc609039aB9266a558ac84AA0067aaf26B24264b9"
  ],
  "numDeployments": 1,
  "solcInputHash": "7e507dc1a78ce0d5cd265b44c752572c",
  "bytecode": "0x6080346200009c57601f620018cc38819003918201601f19168301916001600160401b03831184841017620000a15780849260409485528339810103126200009c5780620000846200006360206200005b6200008b95620000b7565b9301620000b7565b916001805560ff19600254166002556200007d33620000cc565b506200014c565b50620001ee565b5060405161162090816200028c8239f35b600080fd5b634e487b7160e01b600052604160045260246000fd5b51906001600160a01b03821682036200009c57565b6001600160a01b031660008181527fad3228b676f7d3cd4284a5443f17f1962b36e491b30a40b2405849e597ba5fb5602052604081205490919060ff166200014857818052816020526040822081835260205260408220600160ff198254161790553391600080516020620018ac8339815191528180a4600190565b5090565b6001600160a01b031660008181527fe77b38a45fc87dd27e6de0c8b91466c88f8619e2055e2cdd69f12e5e6845510360205260408120549091907f98ae625c3998c6848a872606bd884f5d161d9b4a7cb22f7f77e6ae9e1f9d122f9060ff16620001e957808352826020526040832082845260205260408320600160ff19825416179055600080516020620018ac833981519152339380a4600190565b505090565b6001600160a01b031660008181527ff7c9542c591017a21c74b6f3fab6263c7952fc0aaf9db4c22a2a04ddc7f8674f60205260408120549091907f65d7a28e3265b37a6474929f336521b332c1681b933f6cb9f3376673440d862a9060ff16620001e957808352826020526040832082845260205260408320600160ff19825416179055600080516020620018ac833981519152339380a460019056fe6080604081815260048036101561001557600080fd5b600092833560e01c90816301ffc9a714610f6b575080630df59e8114610f33578063155dd5ee14610e17578063248a9ca314610dee578063260a6a2314610d8f578063278da36414610af95780632f2ff15d14610ad0578063360c328814610a7757806336568abe14610a305780633f4ba83a146109c757806342bc1573146106e65780635c975abb146106c25780638456cb59146106675780638f7bdeb51461052c57806391d14854146104e7578063a217fddf146104cc578063ae0a68c814610491578063b063135914610450578063c973ebf0146103dc578063cc84ad02146103b6578063d4c7e02014610271578063d547741f14610233578063d6dfd200146101f2578063da62ec8f146101b1578063e63ab1e9146101725763f457305f1461014157600080fd5b3461016e57602036600319011261016e576002826020948360ff9435825286522001541690519015158152f35b8280fd5b5050346101ad57816003193601126101ad57602090517f65d7a28e3265b37a6474929f336521b332c1681b933f6cb9f3376673440d862a8152f35b5080fd5b503461016e578160031936011261016e5760209282916101cf611024565b90358252600785528282206001600160a01b039091168252845220549051908152f35b503461016e578160031936011261016e576020928291610210611024565b90358252600585528282206001600160a01b039091168252845220549051908152f35b50903461016e578060031936011261016e5761026d91356102686001610257611024565b9383875286602052862001546111e7565b61128b565b5080f35b509190346101ad5760208060031936011261016e578335906102916113ae565b610299611390565b818452848152828420946102b360ff600288015416611300565b8285526007825283852095810180546001600160a01b0390811680885297845285872054929091908315610367575061031f87808080877ff440aec6b52895984d061d622e6edeba6210f7c3e059be920663140c084560d79a9b9c9d5af161031961147d565b506114bd565b85885260068452868820828254168952845286882061033f84825461134b565b9055858852600784528688208282541689528452878781205554169451908152a36001805580f35b865162461bcd60e51b8152908101859052602360248201527f4e6f20776974686472617761626c652045544820666f722074686520637265616044820152623a37b960e91b6064820152608490fd5b503461016e57602036600319011261016e57602092818392358252845220549051908152f35b82843461044d57602091826003193601126101ad576103f961103f565b600354839182906001600160a01b03165b82841061041b575050505051908152f35b9091929461043f61044591878552600789528685208486528952868520549061134b565b95611381565b92919061040a565b80fd5b503461016e578160031936011261016e57602092829161046e611024565b90358252600685528282206001600160a01b039091168252845220549051908152f35b5050346101ad57816003193601126101ad57602090517f98ae625c3998c6848a872606bd884f5d161d9b4a7cb22f7f77e6ae9e1f9d122f8152f35b5050346101ad57816003193601126101ad5751908152602090f35b503461016e578160031936011261016e578160209360ff92610507611024565b903582528186528282206001600160a01b039091168252855220549151911615158152f35b82843461044d57602091826003193601126101ad5761054961103f565b600380549094916001600160a01b03169084805b82811061061e57506105776105718761150f565b9661150f565b928197825b8481106105ab578751888152806105a7898961059a848e018f6110dd565b91848303908501526110dd565b0390f35b6105b481610fbf565b905490831b1c845260078088528885208486528852888520546105e1575b506105dc90611381565b61057c565b8a61061791836105f56105dc959e8e6114fb565b528c87528952898620858752895289862054610611828a6114fb565b52611381565b99906105d2565b61062781610fbf565b905490891b1c825260078552858220848352855285822054610652575b61064d90611381565b61055d565b9561065f61064d91611381565b969050610644565b5050346101ad57816003193601126101ad5760207f62e78cea01bee320cd4e420270b5ea74000d11b0c9f74754ebdbfc544b05a258916106a561118b565b6106ad611390565b600160ff19600254161760025551338152a180f35b5050346101ad57816003193601126101ad5760209060ff6002541690519015158152f35b50903461016e5760c036600319011261016e5781359060249283359167ffffffffffffffff918284116109c357366023850112156109c357838101359561072c876110c5565b96610739845198896110a3565b80885260209586890183600593841b83010191368311610998578401905b8282106109a05750505060443594851161099c573660238601121561099c578483013594610784866110c5565b95610791865197886110a3565b8087528388880191841b830101913683116109985784899101915b838310610988575050505060a4359360018060a01b0396878616809603610984576107d5611111565b888b5284815260ff6002838d2001541661093557888b52848152818b209860028a019960019a8b60ff1982541617905560039760843589830155878201906bffffffffffffffffffffffff60a01b825416179055606435905586549a680100000000000000009b8c81101561092357808c61085292018a55610fbf565b8154600019918b1b91821b19169084901b1790558c8b5b610871578d80f35b8d825182101561091e578d87878d938f8661089891610890828b6114fb565b5116966114fb565b51888252838a528282208683528a526108b583832091825461134b565b90558781528c8952200180549182101561090a576108fe928f9a999897969594928f92818f92918e6108e99301815561100c565b81949154921b92831b921b1916179055611381565b90919293949596610869565b5050634e487b7160e01b8f5260418952878ffd5b508d80f35b634e487b7160e01b8e5260418852868efd5b6025848692608494519362461bcd60e51b85528401528201527f5661756c7420616c72656164792065786973747320666f7220746869732070726044820152641bda9958dd60da1b6064820152fd5b8a80fd5b82358152918101918991016107ac565b8b80fd5b8880fd5b81356001600160a01b03811681036109bf578152908801908801610757565b8c80fd5b8680fd5b503461016e578260031936011261016e576109e061118b565b6002549060ff821615610a22575060ff1916600255513381527f5db9ee0a495bf2e6ff9c91a7834c1ba4fdd244a5e8aa4e537bd38aeae4b073aa90602090a180f35b8251638dfc202b60e01b8152fd5b509190346101ad57806003193601126101ad57610a4b611024565b90336001600160a01b03831603610a68575061026d91923561128b565b5163334bd91960e11b81528390fd5b50903461016e57602036600319011261016e57600290823592610a98611111565b838552602052832001805460ff191690557f4ef41257ba66fe15e89bff4221410f2c2a555d82f884ca0b3b29898d28635a8f8280a280f35b50903461016e578060031936011261016e5761026d9135610af46001610257611024565b61120d565b5090602080600319360112610d8b57823591610b13611111565b610b1b6113ae565b610b23611390565b82855283825280852093610b3d60ff600287015416611300565b600194858101610b4e34825461134b565b90556003808201918254906064918203828111610d7857918995918695949282610b798e963461136e565b0493610ba78a51610b8981611055565b600d81526c43726561746f7220536861726560981b8d82015261157c565b610bb085611541565b8b8652600794858c528a872060018060a01b0380948601541688528c52610bdb8b882091825461134b565b9055858c6005978886019b5b610c1c575b908a907f26679fa1f3868c950e9362f1106cf73f3318de0280e0411a3c68e4b463eadd4f8f8f51348152a2805580f35b8b54831015610d735790898d8f9385948f610c3b610cf3988b9261100c565b9054908a1b1c1690828085518381019063161765e160e11b8252602486818301528152610c6781611087565b51906a636f6e736f6c652e6c6f675afa50610c9f8451610c8681611055565b600881526724b73b32b9ba37b960c11b8382015261157c565b8583528d8152838320828452815283832054610cd68551610cbf81611055565b6006815265185b5bdd5b9d60d21b8482015261157c565b610cdf81611541565b8c81610cfb575b5050505050505050611381565b8c8f8a610be7565b610d0d610d1792610d6198549061136e565b048c5490346113d1565b95610d438551610d2681611055565b600c81526b0c2d8d8dec6c2e8cac88ae8d60a31b8482015261157c565b610d4c87611541565b83528c8152838320918352522091825461134b565b90558f898f918f908f9180388c610ce6565b610bec565b634e487b7160e01b8b526011865260248bfd5b8380fd5b503461016e57602036600319011261016e578160a0938235815282602052209081549260018301549260ff60028201541690600381015493600180891b0391015416938251958652602086015215159084015260608301526080820152f35b503461016e57602036600319011261016e57816020936001923581528085522001549051908152f35b50903461016e57602080600319360112610d8b57823591610e366113ae565b610e3e611390565b828552838252610e5660ff6002838820015416611300565b82855260078252808520338652825280852054938415610ee85750907ff440aec6b52895984d061d622e6edeba6210f7c3e059be920663140c084560d7918386526007825280862033875282528581812055610ebb8680808089335af161031961147d565b838652600682528086203387528252808620610ed886825461134b565b9055519384523393a36001805580f35b82608492519162461bcd60e51b8352820152602160248201527f4e6f20776974686472617761626c652045544820666f722074686973207573656044820152603960f91b6064820152fd5b503461016e57602036600319011261016e57359160035483101561044d5750610f5d602092610fbf565b90549060031b1c9051908152f35b9250503461016e57602036600319011261016e573563ffffffff60e01b811680910361016e5760209250637965db0b60e01b8114908115610fae575b5015158152f35b6301ffc9a760e01b14905038610fa7565b600354811015610ff65760036000527fc2575a0e9e593c00f959f8c92f12db2869c3395a3b0502d05e2516446f71f85b0190600090565b634e487b7160e01b600052603260045260246000fd5b8054821015610ff65760005260206000200190600090565b602435906001600160a01b038216820361103a57565b600080fd5b600435906001600160a01b038216820361103a57565b6040810190811067ffffffffffffffff82111761107157604052565b634e487b7160e01b600052604160045260246000fd5b6060810190811067ffffffffffffffff82111761107157604052565b90601f8019910116810190811067ffffffffffffffff82111761107157604052565b67ffffffffffffffff81116110715760051b60200190565b90815180825260208080930193019160005b8281106110fd575050505090565b8351855293810193928101926001016110ef565b3360009081527fe77b38a45fc87dd27e6de0c8b91466c88f8619e2055e2cdd69f12e5e6845510360205260409020547f98ae625c3998c6848a872606bd884f5d161d9b4a7cb22f7f77e6ae9e1f9d122f9060ff161561116d5750565b6044906040519063e2517d3f60e01b82523360048301526024820152fd5b3360009081527ff7c9542c591017a21c74b6f3fab6263c7952fc0aaf9db4c22a2a04ddc7f8674f60205260409020547f65d7a28e3265b37a6474929f336521b332c1681b933f6cb9f3376673440d862a9060ff161561116d5750565b80600052600060205260406000203360005260205260ff604060002054161561116d5750565b9060009180835282602052604083209160018060a01b03169182845260205260ff6040842054161560001461128657808352826020526040832082845260205260408320600160ff198254161790557f2f8788117e7eff1d82e926ec794901d17c78024a50270940304540a733656f0d339380a4600190565b505090565b9060009180835282602052604083209160018060a01b03169182845260205260ff6040842054166000146112865780835282602052604083208284526020526040832060ff1981541690557ff6391f5c32d9c69d2a47ea670b442974b53935d1edc7fd64eb21e047a839171b339380a4600190565b1561130757565b606460405162461bcd60e51b815260206004820152602060248201527f5661756c7420697320636c6f73656420666f7220746869732070726f6a6563746044820152fd5b9190820180921161135857565b634e487b7160e01b600052601160045260246000fd5b8181029291811591840414171561135857565b60001981146113585760010190565b60ff6002541661139c57565b60405163d93c066560e01b8152600490fd5b6002600154146113bf576002600155565b604051633ee5aeb560e01b8152600490fd5b9091828202916000198482099383808610950394808603951461145957848311156114475782910981600003821680920460028082600302188083028203028083028203028083028203028083028203028083028203028092029003029360018380600003040190848311900302920304170290565b60405163227bc15360e01b8152600490fd5b505080925015611467570490565b634e487b7160e01b600052601260045260246000fd5b3d156114b8573d9067ffffffffffffffff821161107157604051916114ac601f8201601f1916602001846110a3565b82523d6000602084013e565b606090565b156114c457565b60405162461bcd60e51b815260206004820152600f60248201526e151c985b9cd9995c8819985a5b1959608a1b6044820152606490fd5b8051821015610ff65760209160051b010190565b90611519826110c5565b61152660405191826110a3565b8281528092611537601f19916110c5565b0190602036910137565b60008091604051602081019163f82c50f160e01b835260248201526024815261156981611087565b51906a636f6e736f6c652e6c6f675afa50565b6040516020918282019263104c13eb60e21b845280602484015281519182604485015260005b8381106115d65750505091816115696064828660008381998299010152601f801991011681010360448101845201826110a3565b8181018301518582016064015282016115a256fea26469706673582212201d6b2f4ab0acac4f02c3dabf4a942e7b36703a29d9c3947037b08b00a6b7cf4c64736f6c634300081400332f8788117e7eff1d82e926ec794901d17c78024a50270940304540a733656f0d",
  "devdoc": {
    "errors": {
      "AccessControlBadConfirmation()": [
        {
          "details": "The caller of a function is not the expected one. NOTE: Don't confuse with {AccessControlUnauthorizedAccount}."
        }
      ],
      "AccessControlUnauthorizedAccount(address,bytes32)": [
        {
          "details": "The `account` is missing a role."
        }
      ],
      "EnforcedPause()": [
        {
          "details": "The operation failed because the contract is paused."
        }
      ],
      "ExpectedPause()": [
        {
          "details": "The operation failed because the contract is not paused."
        }
      ],
      "MathOverflowedMulDiv()": [
        {
          "details": "Muldiv operation overflow."
        }
      ],
      "ReentrancyGuardReentrantCall()": [
        {
          "details": "Unauthorized reentrant call."
        }
      ]
    },
    "events": {
      "Paused(address)": {
        "details": "Emitted when the pause is triggered by `account`."
      },
      "RoleAdminChanged(bytes32,bytes32,bytes32)": {
        "details": "Emitted when `newAdminRole` is set as ``role``'s admin role, replacing `previousAdminRole` `DEFAULT_ADMIN_ROLE` is the starting admin for all roles, despite {RoleAdminChanged} not being emitted signaling this."
      },
      "RoleGranted(bytes32,address,address)": {
        "details": "Emitted when `account` is granted `role`. `sender` is the account that originated the contract call, an admin role bearer except when using {AccessControl-_setupRole}."
      },
      "RoleRevoked(bytes32,address,address)": {
        "details": "Emitted when `account` is revoked `role`. `sender` is the account that originated the contract call:   - if using `revokeRole`, it is the admin role bearer   - if using `renounceRole`, it is the role bearer (i.e. `account`)"
      },
      "Unpaused(address)": {
        "details": "Emitted when the pause is lifted by `account`."
      }
    },
    "kind": "dev",
    "methods": {
      "getRoleAdmin(bytes32)": {
        "details": "Returns the admin role that controls `role`. See {grantRole} and {revokeRole}. To change a role's admin, use {_setRoleAdmin}."
      },
      "grantRole(bytes32,address)": {
        "details": "Grants `role` to `account`. If `account` had not been already granted `role`, emits a {RoleGranted} event. Requirements: - the caller must have ``role``'s admin role. May emit a {RoleGranted} event."
      },
      "hasRole(bytes32,address)": {
        "details": "Returns `true` if `account` has been granted `role`."
      },
      "paused()": {
        "details": "Returns true if the contract is paused, and false otherwise."
      },
      "renounceRole(bytes32,address)": {
        "details": "Revokes `role` from the calling account. Roles are often managed via {grantRole} and {revokeRole}: this function's purpose is to provide a mechanism for accounts to lose their privileges if they are compromised (such as when a trusted device is misplaced). If the calling account had been revoked `role`, emits a {RoleRevoked} event. Requirements: - the caller must be `callerConfirmation`. May emit a {RoleRevoked} event."
      },
      "revokeRole(bytes32,address)": {
        "details": "Revokes `role` from `account`. If `account` had been granted `role`, emits a {RoleRevoked} event. Requirements: - the caller must have ``role``'s admin role. May emit a {RoleRevoked} event."
      },
      "supportsInterface(bytes4)": {
        "details": "See {IERC165-supportsInterface}."
      }
    },
    "version": 1
  },
  "userdoc": {
    "kind": "user",
    "methods": {},
    "version": 1
  },
  "storageLayout": {
    "storage": [
      {
        "astId": 26,
        "contract": "contracts/CrowdFlixVault.sol:CrowdFlixVault",
        "label": "_roles",
        "offset": 0,
        "slot": "0",
        "type": "t_mapping(t_bytes32,t_struct(RoleData)21_storage)"
      },
      {
        "astId": 653,
        "contract": "contracts/CrowdFlixVault.sol:CrowdFlixVault",
        "label": "_status",
        "offset": 0,
        "slot": "1",
        "type": "t_uint256"
      },
      {
        "astId": 534,
        "contract": "contracts/CrowdFlixVault.sol:CrowdFlixVault",
        "label": "_paused",
        "offset": 0,
        "slot": "2",
        "type": "t_bool"
      },
      {
        "astId": 1842,
        "contract": "contracts/CrowdFlixVault.sol:CrowdFlixVault",
        "label": "launchedProjects",
        "offset": 0,
        "slot": "3",
        "type": "t_array(t_uint256)dyn_storage"
      },
      {
        "astId": 1847,
        "contract": "contracts/CrowdFlixVault.sol:CrowdFlixVault",
        "label": "projectVaults",
        "offset": 0,
        "slot": "4",
        "type": "t_mapping(t_uint256,t_struct(ProjectVault)1839_storage)"
      },
      {
        "astId": 1853,
        "contract": "contracts/CrowdFlixVault.sol:CrowdFlixVault",
        "label": "investorAmounts",
        "offset": 0,
        "slot": "5",
        "type": "t_mapping(t_uint256,t_mapping(t_address,t_uint256))"
      },
      {
        "astId": 1859,
        "contract": "contracts/CrowdFlixVault.sol:CrowdFlixVault",
        "label": "withdrawnShares",
        "offset": 0,
        "slot": "6",
        "type": "t_mapping(t_uint256,t_mapping(t_address,t_uint256))"
      },
      {
        "astId": 1865,
        "contract": "contracts/CrowdFlixVault.sol:CrowdFlixVault",
        "label": "withdrawableEth",
        "offset": 0,
        "slot": "7",
        "type": "t_mapping(t_uint256,t_mapping(t_address,t_uint256))"
      }
    ],
    "types": {
      "t_address": {
        "encoding": "inplace",
        "label": "address",
        "numberOfBytes": "20"
      },
      "t_array(t_address)dyn_storage": {
        "base": "t_address",
        "encoding": "dynamic_array",
        "label": "address[]",
        "numberOfBytes": "32"
      },
      "t_array(t_uint256)dyn_storage": {
        "base": "t_uint256",
        "encoding": "dynamic_array",
        "label": "uint256[]",
        "numberOfBytes": "32"
      },
      "t_bool": {
        "encoding": "inplace",
        "label": "bool",
        "numberOfBytes": "1"
      },
      "t_bytes32": {
        "encoding": "inplace",
        "label": "bytes32",
        "numberOfBytes": "32"
      },
      "t_mapping(t_address,t_bool)": {
        "encoding": "mapping",
        "key": "t_address",
        "label": "mapping(address => bool)",
        "numberOfBytes": "32",
        "value": "t_bool"
      },
      "t_mapping(t_address,t_uint256)": {
        "encoding": "mapping",
        "key": "t_address",
        "label": "mapping(address => uint256)",
        "numberOfBytes": "32",
        "value": "t_uint256"
      },
      "t_mapping(t_bytes32,t_struct(RoleData)21_storage)": {
        "encoding": "mapping",
        "key": "t_bytes32",
        "label": "mapping(bytes32 => struct AccessControl.RoleData)",
        "numberOfBytes": "32",
        "value": "t_struct(RoleData)21_storage"
      },
      "t_mapping(t_uint256,t_mapping(t_address,t_uint256))": {
        "encoding": "mapping",
        "key": "t_uint256",
        "label": "mapping(uint256 => mapping(address => uint256))",
        "numberOfBytes": "32",
        "value": "t_mapping(t_address,t_uint256)"
      },
      "t_mapping(t_uint256,t_struct(ProjectVault)1839_storage)": {
        "encoding": "mapping",
        "key": "t_uint256",
        "label": "mapping(uint256 => struct CrowdFlixVault.ProjectVault)",
        "numberOfBytes": "32",
        "value": "t_struct(ProjectVault)1839_storage"
      },
      "t_struct(ProjectVault)1839_storage": {
        "encoding": "inplace",
        "label": "struct CrowdFlixVault.ProjectVault",
        "members": [
          {
            "astId": 1827,
            "contract": "contracts/CrowdFlixVault.sol:CrowdFlixVault",
            "label": "raisedFunds",
            "offset": 0,
            "slot": "0",
            "type": "t_uint256"
          },
          {
            "astId": 1829,
            "contract": "contracts/CrowdFlixVault.sol:CrowdFlixVault",
            "label": "ticketSales",
            "offset": 0,
            "slot": "1",
            "type": "t_uint256"
          },
          {
            "astId": 1831,
            "contract": "contracts/CrowdFlixVault.sol:CrowdFlixVault",
            "label": "isOpen",
            "offset": 0,
            "slot": "2",
            "type": "t_bool"
          },
          {
            "astId": 1833,
            "contract": "contracts/CrowdFlixVault.sol:CrowdFlixVault",
            "label": "profitSharePercentage",
            "offset": 0,
            "slot": "3",
            "type": "t_uint256"
          },
          {
            "astId": 1835,
            "contract": "contracts/CrowdFlixVault.sol:CrowdFlixVault",
            "label": "creator",
            "offset": 0,
            "slot": "4",
            "type": "t_address"
          },
          {
            "astId": 1838,
            "contract": "contracts/CrowdFlixVault.sol:CrowdFlixVault",
            "label": "investors",
            "offset": 0,
            "slot": "5",
            "type": "t_array(t_address)dyn_storage"
          }
        ],
        "numberOfBytes": "192"
      },
      "t_struct(RoleData)21_storage": {
        "encoding": "inplace",
        "label": "struct AccessControl.RoleData",
        "members": [
          {
            "astId": 18,
            "contract": "contracts/CrowdFlixVault.sol:CrowdFlixVault",
            "label": "hasRole",
            "offset": 0,
            "slot": "0",
            "type": "t_mapping(t_address,t_bool)"
          },
          {
            "astId": 20,
            "contract": "contracts/CrowdFlixVault.sol:CrowdFlixVault",
            "label": "adminRole",
            "offset": 0,
            "slot": "1",
            "type": "t_bytes32"
          }
        ],
        "numberOfBytes": "64"
      },
      "t_uint256": {
        "encoding": "inplace",
        "label": "uint256",
        "numberOfBytes": "32"
      }
    }
  }
}