{
  "address": "0x18aE00a04eF7A3DC33687485c3971956b7576DfF",
  "abi": [
    {
      "inputs": [
        {
          "internalType": "string",
          "name": "_name",
          "type": "string"
        },
        {
          "internalType": "contract IVotes",
          "name": "_token",
          "type": "address"
        },
        {
          "internalType": "contract TimelockController",
          "name": "_timelock",
          "type": "address"
        },
        {
          "internalType": "uint256",
          "name": "_quorumNumeratorValue",
          "type": "uint256"
        },
        {
          "internalType": "uint48",
          "name": "_initialVoteExtension",
          "type": "uint48"
        }
      ],
      "stateMutability": "nonpayable",
      "type": "constructor"
    },
    {
      "inputs": [],
      "name": "CheckpointUnorderedInsertion",
      "type": "error"
    },
    {
      "inputs": [],
      "name": "FailedInnerCall",
      "type": "error"
    },
    {
      "inputs": [
        {
          "internalType": "address",
          "name": "voter",
          "type": "address"
        }
      ],
      "name": "GovernorAlreadyCastVote",
      "type": "error"
    },
    {
      "inputs": [
        {
          "internalType": "uint256",
          "name": "proposalId",
          "type": "uint256"
        }
      ],
      "name": "GovernorAlreadyQueuedProposal",
      "type": "error"
    },
    {
      "inputs": [],
      "name": "GovernorDisabledDeposit",
      "type": "error"
    },
    {
      "inputs": [
        {
          "internalType": "address",
          "name": "proposer",
          "type": "address"
        },
        {
          "internalType": "uint256",
          "name": "votes",
          "type": "uint256"
        },
        {
          "internalType": "uint256",
          "name": "threshold",
          "type": "uint256"
        }
      ],
      "name": "GovernorInsufficientProposerVotes",
      "type": "error"
    },
    {
      "inputs": [
        {
          "internalType": "uint256",
          "name": "targets",
          "type": "uint256"
        },
        {
          "internalType": "uint256",
          "name": "calldatas",
          "type": "uint256"
        },
        {
          "internalType": "uint256",
          "name": "values",
          "type": "uint256"
        }
      ],
      "name": "GovernorInvalidProposalLength",
      "type": "error"
    },
    {
      "inputs": [
        {
          "internalType": "uint256",
          "name": "quorumNumerator",
          "type": "uint256"
        },
        {
          "internalType": "uint256",
          "name": "quorumDenominator",
          "type": "uint256"
        }
      ],
      "name": "GovernorInvalidQuorumFraction",
      "type": "error"
    },
    {
      "inputs": [
        {
          "internalType": "address",
          "name": "voter",
          "type": "address"
        }
      ],
      "name": "GovernorInvalidSignature",
      "type": "error"
    },
    {
      "inputs": [],
      "name": "GovernorInvalidVoteType",
      "type": "error"
    },
    {
      "inputs": [
        {
          "internalType": "uint256",
          "name": "votingPeriod",
          "type": "uint256"
        }
      ],
      "name": "GovernorInvalidVotingPeriod",
      "type": "error"
    },
    {
      "inputs": [
        {
          "internalType": "uint256",
          "name": "proposalId",
          "type": "uint256"
        }
      ],
      "name": "GovernorNonexistentProposal",
      "type": "error"
    },
    {
      "inputs": [
        {
          "internalType": "uint256",
          "name": "proposalId",
          "type": "uint256"
        }
      ],
      "name": "GovernorNotQueuedProposal",
      "type": "error"
    },
    {
      "inputs": [
        {
          "internalType": "address",
          "name": "account",
          "type": "address"
        }
      ],
      "name": "GovernorOnlyExecutor",
      "type": "error"
    },
    {
      "inputs": [
        {
          "internalType": "address",
          "name": "account",
          "type": "address"
        }
      ],
      "name": "GovernorOnlyProposer",
      "type": "error"
    },
    {
      "inputs": [],
      "name": "GovernorQueueNotImplemented",
      "type": "error"
    },
    {
      "inputs": [
        {
          "internalType": "address",
          "name": "proposer",
          "type": "address"
        }
      ],
      "name": "GovernorRestrictedProposer",
      "type": "error"
    },
    {
      "inputs": [
        {
          "internalType": "uint256",
          "name": "proposalId",
          "type": "uint256"
        },
        {
          "internalType": "enum IGovernor.ProposalState",
          "name": "current",
          "type": "uint8"
        },
        {
          "internalType": "bytes32",
          "name": "expectedStates",
          "type": "bytes32"
        }
      ],
      "name": "GovernorUnexpectedProposalState",
      "type": "error"
    },
    {
      "inputs": [
        {
          "internalType": "address",
          "name": "account",
          "type": "address"
        },
        {
          "internalType": "uint256",
          "name": "currentNonce",
          "type": "uint256"
        }
      ],
      "name": "InvalidAccountNonce",
      "type": "error"
    },
    {
      "inputs": [],
      "name": "InvalidShortString",
      "type": "error"
    },
    {
      "inputs": [],
      "name": "QueueEmpty",
      "type": "error"
    },
    {
      "inputs": [],
      "name": "QueueFull",
      "type": "error"
    },
    {
      "inputs": [
        {
          "internalType": "uint8",
          "name": "bits",
          "type": "uint8"
        },
        {
          "internalType": "uint256",
          "name": "value",
          "type": "uint256"
        }
      ],
      "name": "SafeCastOverflowedUintDowncast",
      "type": "error"
    },
    {
      "inputs": [
        {
          "internalType": "string",
          "name": "str",
          "type": "string"
        }
      ],
      "name": "StringTooLong",
      "type": "error"
    },
    {
      "anonymous": false,
      "inputs": [],
      "name": "EIP712DomainChanged",
      "type": "event"
    },
    {
      "anonymous": false,
      "inputs": [
        {
          "indexed": false,
          "internalType": "uint64",
          "name": "oldVoteExtension",
          "type": "uint64"
        },
        {
          "indexed": false,
          "internalType": "uint64",
          "name": "newVoteExtension",
          "type": "uint64"
        }
      ],
      "name": "LateQuorumVoteExtensionSet",
      "type": "event"
    },
    {
      "anonymous": false,
      "inputs": [
        {
          "indexed": false,
          "internalType": "uint256",
          "name": "proposalId",
          "type": "uint256"
        }
      ],
      "name": "ProposalCanceled",
      "type": "event"
    },
    {
      "anonymous": false,
      "inputs": [
        {
          "indexed": false,
          "internalType": "uint256",
          "name": "proposalId",
          "type": "uint256"
        },
        {
          "indexed": false,
          "internalType": "address",
          "name": "proposer",
          "type": "address"
        },
        {
          "indexed": false,
          "internalType": "address[]",
          "name": "targets",
          "type": "address[]"
        },
        {
          "indexed": false,
          "internalType": "uint256[]",
          "name": "values",
          "type": "uint256[]"
        },
        {
          "indexed": false,
          "internalType": "string[]",
          "name": "signatures",
          "type": "string[]"
        },
        {
          "indexed": false,
          "internalType": "bytes[]",
          "name": "calldatas",
          "type": "bytes[]"
        },
        {
          "indexed": false,
          "internalType": "uint256",
          "name": "voteStart",
          "type": "uint256"
        },
        {
          "indexed": false,
          "internalType": "uint256",
          "name": "voteEnd",
          "type": "uint256"
        },
        {
          "indexed": false,
          "internalType": "string",
          "name": "description",
          "type": "string"
        }
      ],
      "name": "ProposalCreated",
      "type": "event"
    },
    {
      "anonymous": false,
      "inputs": [
        {
          "indexed": false,
          "internalType": "uint256",
          "name": "proposalId",
          "type": "uint256"
        }
      ],
      "name": "ProposalExecuted",
      "type": "event"
    },
    {
      "anonymous": false,
      "inputs": [
        {
          "indexed": true,
          "internalType": "uint256",
          "name": "proposalId",
          "type": "uint256"
        },
        {
          "indexed": false,
          "internalType": "uint64",
          "name": "extendedDeadline",
          "type": "uint64"
        }
      ],
      "name": "ProposalExtended",
      "type": "event"
    },
    {
      "anonymous": false,
      "inputs": [
        {
          "indexed": false,
          "internalType": "uint256",
          "name": "proposalId",
          "type": "uint256"
        },
        {
          "indexed": false,
          "internalType": "uint256",
          "name": "etaSeconds",
          "type": "uint256"
        }
      ],
      "name": "ProposalQueued",
      "type": "event"
    },
    {
      "anonymous": false,
      "inputs": [
        {
          "indexed": false,
          "internalType": "uint256",
          "name": "oldProposalThreshold",
          "type": "uint256"
        },
        {
          "indexed": false,
          "internalType": "uint256",
          "name": "newProposalThreshold",
          "type": "uint256"
        }
      ],
      "name": "ProposalThresholdSet",
      "type": "event"
    },
    {
      "anonymous": false,
      "inputs": [
        {
          "indexed": false,
          "internalType": "uint256",
          "name": "oldQuorumNumerator",
          "type": "uint256"
        },
        {
          "indexed": false,
          "internalType": "uint256",
          "name": "newQuorumNumerator",
          "type": "uint256"
        }
      ],
      "name": "QuorumNumeratorUpdated",
      "type": "event"
    },
    {
      "anonymous": false,
      "inputs": [
        {
          "indexed": false,
          "internalType": "address",
          "name": "oldTimelock",
          "type": "address"
        },
        {
          "indexed": false,
          "internalType": "address",
          "name": "newTimelock",
          "type": "address"
        }
      ],
      "name": "TimelockChange",
      "type": "event"
    },
    {
      "anonymous": false,
      "inputs": [
        {
          "indexed": true,
          "internalType": "address",
          "name": "voter",
          "type": "address"
        },
        {
          "indexed": false,
          "internalType": "uint256",
          "name": "proposalId",
          "type": "uint256"
        },
        {
          "indexed": false,
          "internalType": "uint8",
          "name": "support",
          "type": "uint8"
        },
        {
          "indexed": false,
          "internalType": "uint256",
          "name": "weight",
          "type": "uint256"
        },
        {
          "indexed": false,
          "internalType": "string",
          "name": "reason",
          "type": "string"
        }
      ],
      "name": "VoteCast",
      "type": "event"
    },
    {
      "anonymous": false,
      "inputs": [
        {
          "indexed": true,
          "internalType": "address",
          "name": "voter",
          "type": "address"
        },
        {
          "indexed": false,
          "internalType": "uint256",
          "name": "proposalId",
          "type": "uint256"
        },
        {
          "indexed": false,
          "internalType": "uint8",
          "name": "support",
          "type": "uint8"
        },
        {
          "indexed": false,
          "internalType": "uint256",
          "name": "weight",
          "type": "uint256"
        },
        {
          "indexed": false,
          "internalType": "string",
          "name": "reason",
          "type": "string"
        },
        {
          "indexed": false,
          "internalType": "bytes",
          "name": "params",
          "type": "bytes"
        }
      ],
      "name": "VoteCastWithParams",
      "type": "event"
    },
    {
      "anonymous": false,
      "inputs": [
        {
          "indexed": false,
          "internalType": "uint256",
          "name": "oldVotingDelay",
          "type": "uint256"
        },
        {
          "indexed": false,
          "internalType": "uint256",
          "name": "newVotingDelay",
          "type": "uint256"
        }
      ],
      "name": "VotingDelaySet",
      "type": "event"
    },
    {
      "anonymous": false,
      "inputs": [
        {
          "indexed": false,
          "internalType": "uint256",
          "name": "oldVotingPeriod",
          "type": "uint256"
        },
        {
          "indexed": false,
          "internalType": "uint256",
          "name": "newVotingPeriod",
          "type": "uint256"
        }
      ],
      "name": "VotingPeriodSet",
      "type": "event"
    },
    {
      "inputs": [],
      "name": "BALLOT_TYPEHASH",
      "outputs": [
        {
          "internalType": "bytes32",
          "name": "",
          "type": "bytes32"
        }
      ],
      "stateMutability": "view",
      "type": "function"
    },
    {
      "inputs": [],
      "name": "CLOCK_MODE",
      "outputs": [
        {
          "internalType": "string",
          "name": "",
          "type": "string"
        }
      ],
      "stateMutability": "view",
      "type": "function"
    },
    {
      "inputs": [],
      "name": "COUNTING_MODE",
      "outputs": [
        {
          "internalType": "string",
          "name": "",
          "type": "string"
        }
      ],
      "stateMutability": "pure",
      "type": "function"
    },
    {
      "inputs": [],
      "name": "EXTENDED_BALLOT_TYPEHASH",
      "outputs": [
        {
          "internalType": "bytes32",
          "name": "",
          "type": "bytes32"
        }
      ],
      "stateMutability": "view",
      "type": "function"
    },
    {
      "inputs": [
        {
          "internalType": "uint256",
          "name": "proposalId",
          "type": "uint256"
        }
      ],
      "name": "cancel",
      "outputs": [],
      "stateMutability": "nonpayable",
      "type": "function"
    },
    {
      "inputs": [
        {
          "internalType": "address[]",
          "name": "targets",
          "type": "address[]"
        },
        {
          "internalType": "uint256[]",
          "name": "values",
          "type": "uint256[]"
        },
        {
          "internalType": "bytes[]",
          "name": "calldatas",
          "type": "bytes[]"
        },
        {
          "internalType": "bytes32",
          "name": "descriptionHash",
          "type": "bytes32"
        }
      ],
      "name": "cancel",
      "outputs": [
        {
          "internalType": "uint256",
          "name": "",
          "type": "uint256"
        }
      ],
      "stateMutability": "nonpayable",
      "type": "function"
    },
    {
      "inputs": [
        {
          "internalType": "uint256",
          "name": "proposalId",
          "type": "uint256"
        },
        {
          "internalType": "uint8",
          "name": "support",
          "type": "uint8"
        }
      ],
      "name": "castVote",
      "outputs": [
        {
          "internalType": "uint256",
          "name": "",
          "type": "uint256"
        }
      ],
      "stateMutability": "nonpayable",
      "type": "function"
    },
    {
      "inputs": [
        {
          "internalType": "uint256",
          "name": "proposalId",
          "type": "uint256"
        },
        {
          "internalType": "uint8",
          "name": "support",
          "type": "uint8"
        },
        {
          "internalType": "address",
          "name": "voter",
          "type": "address"
        },
        {
          "internalType": "bytes",
          "name": "signature",
          "type": "bytes"
        }
      ],
      "name": "castVoteBySig",
      "outputs": [
        {
          "internalType": "uint256",
          "name": "",
          "type": "uint256"
        }
      ],
      "stateMutability": "nonpayable",
      "type": "function"
    },
    {
      "inputs": [
        {
          "internalType": "uint256",
          "name": "proposalId",
          "type": "uint256"
        },
        {
          "internalType": "uint8",
          "name": "support",
          "type": "uint8"
        },
        {
          "internalType": "string",
          "name": "reason",
          "type": "string"
        }
      ],
      "name": "castVoteWithReason",
      "outputs": [
        {
          "internalType": "uint256",
          "name": "",
          "type": "uint256"
        }
      ],
      "stateMutability": "nonpayable",
      "type": "function"
    },
    {
      "inputs": [
        {
          "internalType": "uint256",
          "name": "proposalId",
          "type": "uint256"
        },
        {
          "internalType": "uint8",
          "name": "support",
          "type": "uint8"
        },
        {
          "internalType": "string",
          "name": "reason",
          "type": "string"
        },
        {
          "internalType": "bytes",
          "name": "params",
          "type": "bytes"
        }
      ],
      "name": "castVoteWithReasonAndParams",
      "outputs": [
        {
          "internalType": "uint256",
          "name": "",
          "type": "uint256"
        }
      ],
      "stateMutability": "nonpayable",
      "type": "function"
    },
    {
      "inputs": [
        {
          "internalType": "uint256",
          "name": "proposalId",
          "type": "uint256"
        },
        {
          "internalType": "uint8",
          "name": "support",
          "type": "uint8"
        },
        {
          "internalType": "address",
          "name": "voter",
          "type": "address"
        },
        {
          "internalType": "string",
          "name": "reason",
          "type": "string"
        },
        {
          "internalType": "bytes",
          "name": "params",
          "type": "bytes"
        },
        {
          "internalType": "bytes",
          "name": "signature",
          "type": "bytes"
        }
      ],
      "name": "castVoteWithReasonAndParamsBySig",
      "outputs": [
        {
          "internalType": "uint256",
          "name": "",
          "type": "uint256"
        }
      ],
      "stateMutability": "nonpayable",
      "type": "function"
    },
    {
      "inputs": [],
      "name": "clock",
      "outputs": [
        {
          "internalType": "uint48",
          "name": "",
          "type": "uint48"
        }
      ],
      "stateMutability": "view",
      "type": "function"
    },
    {
      "inputs": [],
      "name": "eip712Domain",
      "outputs": [
        {
          "internalType": "bytes1",
          "name": "fields",
          "type": "bytes1"
        },
        {
          "internalType": "string",
          "name": "name",
          "type": "string"
        },
        {
          "internalType": "string",
          "name": "version",
          "type": "string"
        },
        {
          "internalType": "uint256",
          "name": "chainId",
          "type": "uint256"
        },
        {
          "internalType": "address",
          "name": "verifyingContract",
          "type": "address"
        },
        {
          "internalType": "bytes32",
          "name": "salt",
          "type": "bytes32"
        },
        {
          "internalType": "uint256[]",
          "name": "extensions",
          "type": "uint256[]"
        }
      ],
      "stateMutability": "view",
      "type": "function"
    },
    {
      "inputs": [
        {
          "internalType": "address[]",
          "name": "targets",
          "type": "address[]"
        },
        {
          "internalType": "uint256[]",
          "name": "values",
          "type": "uint256[]"
        },
        {
          "internalType": "bytes[]",
          "name": "calldatas",
          "type": "bytes[]"
        },
        {
          "internalType": "bytes32",
          "name": "descriptionHash",
          "type": "bytes32"
        }
      ],
      "name": "execute",
      "outputs": [
        {
          "internalType": "uint256",
          "name": "",
          "type": "uint256"
        }
      ],
      "stateMutability": "payable",
      "type": "function"
    },
    {
      "inputs": [
        {
          "internalType": "uint256",
          "name": "proposalId",
          "type": "uint256"
        }
      ],
      "name": "execute",
      "outputs": [],
      "stateMutability": "payable",
      "type": "function"
    },
    {
      "inputs": [
        {
          "internalType": "address",
          "name": "account",
          "type": "address"
        },
        {
          "internalType": "uint256",
          "name": "timepoint",
          "type": "uint256"
        }
      ],
      "name": "getVotes",
      "outputs": [
        {
          "internalType": "uint256",
          "name": "",
          "type": "uint256"
        }
      ],
      "stateMutability": "view",
      "type": "function"
    },
    {
      "inputs": [
        {
          "internalType": "address",
          "name": "account",
          "type": "address"
        },
        {
          "internalType": "uint256",
          "name": "timepoint",
          "type": "uint256"
        },
        {
          "internalType": "bytes",
          "name": "params",
          "type": "bytes"
        }
      ],
      "name": "getVotesWithParams",
      "outputs": [
        {
          "internalType": "uint256",
          "name": "",
          "type": "uint256"
        }
      ],
      "stateMutability": "view",
      "type": "function"
    },
    {
      "inputs": [
        {
          "internalType": "uint256",
          "name": "proposalId",
          "type": "uint256"
        },
        {
          "internalType": "address",
          "name": "account",
          "type": "address"
        }
      ],
      "name": "hasVoted",
      "outputs": [
        {
          "internalType": "bool",
          "name": "",
          "type": "bool"
        }
      ],
      "stateMutability": "view",
      "type": "function"
    },
    {
      "inputs": [
        {
          "internalType": "address[]",
          "name": "targets",
          "type": "address[]"
        },
        {
          "internalType": "uint256[]",
          "name": "values",
          "type": "uint256[]"
        },
        {
          "internalType": "bytes[]",
          "name": "calldatas",
          "type": "bytes[]"
        },
        {
          "internalType": "bytes32",
          "name": "descriptionHash",
          "type": "bytes32"
        }
      ],
      "name": "hashProposal",
      "outputs": [
        {
          "internalType": "uint256",
          "name": "",
          "type": "uint256"
        }
      ],
      "stateMutability": "pure",
      "type": "function"
    },
    {
      "inputs": [],
      "name": "lateQuorumVoteExtension",
      "outputs": [
        {
          "internalType": "uint48",
          "name": "",
          "type": "uint48"
        }
      ],
      "stateMutability": "view",
      "type": "function"
    },
    {
      "inputs": [],
      "name": "name",
      "outputs": [
        {
          "internalType": "string",
          "name": "",
          "type": "string"
        }
      ],
      "stateMutability": "view",
      "type": "function"
    },
    {
      "inputs": [
        {
          "internalType": "address",
          "name": "owner",
          "type": "address"
        }
      ],
      "name": "nonces",
      "outputs": [
        {
          "internalType": "uint256",
          "name": "",
          "type": "uint256"
        }
      ],
      "stateMutability": "view",
      "type": "function"
    },
    {
      "inputs": [
        {
          "internalType": "address",
          "name": "",
          "type": "address"
        },
        {
          "internalType": "address",
          "name": "",
          "type": "address"
        },
        {
          "internalType": "uint256[]",
          "name": "",
          "type": "uint256[]"
        },
        {
          "internalType": "uint256[]",
          "name": "",
          "type": "uint256[]"
        },
        {
          "internalType": "bytes",
          "name": "",
          "type": "bytes"
        }
      ],
      "name": "onERC1155BatchReceived",
      "outputs": [
        {
          "internalType": "bytes4",
          "name": "",
          "type": "bytes4"
        }
      ],
      "stateMutability": "nonpayable",
      "type": "function"
    },
    {
      "inputs": [
        {
          "internalType": "address",
          "name": "",
          "type": "address"
        },
        {
          "internalType": "address",
          "name": "",
          "type": "address"
        },
        {
          "internalType": "uint256",
          "name": "",
          "type": "uint256"
        },
        {
          "internalType": "uint256",
          "name": "",
          "type": "uint256"
        },
        {
          "internalType": "bytes",
          "name": "",
          "type": "bytes"
        }
      ],
      "name": "onERC1155Received",
      "outputs": [
        {
          "internalType": "bytes4",
          "name": "",
          "type": "bytes4"
        }
      ],
      "stateMutability": "nonpayable",
      "type": "function"
    },
    {
      "inputs": [
        {
          "internalType": "address",
          "name": "",
          "type": "address"
        },
        {
          "internalType": "address",
          "name": "",
          "type": "address"
        },
        {
          "internalType": "uint256",
          "name": "",
          "type": "uint256"
        },
        {
          "internalType": "bytes",
          "name": "",
          "type": "bytes"
        }
      ],
      "name": "onERC721Received",
      "outputs": [
        {
          "internalType": "bytes4",
          "name": "",
          "type": "bytes4"
        }
      ],
      "stateMutability": "nonpayable",
      "type": "function"
    },
    {
      "inputs": [],
      "name": "proposalCount",
      "outputs": [
        {
          "internalType": "uint256",
          "name": "",
          "type": "uint256"
        }
      ],
      "stateMutability": "view",
      "type": "function"
    },
    {
      "inputs": [
        {
          "internalType": "uint256",
          "name": "proposalId",
          "type": "uint256"
        }
      ],
      "name": "proposalDeadline",
      "outputs": [
        {
          "internalType": "uint256",
          "name": "",
          "type": "uint256"
        }
      ],
      "stateMutability": "view",
      "type": "function"
    },
    {
      "inputs": [
        {
          "internalType": "uint256",
          "name": "proposalId",
          "type": "uint256"
        }
      ],
      "name": "proposalDetails",
      "outputs": [
        {
          "internalType": "address[]",
          "name": "",
          "type": "address[]"
        },
        {
          "internalType": "uint256[]",
          "name": "",
          "type": "uint256[]"
        },
        {
          "internalType": "bytes[]",
          "name": "",
          "type": "bytes[]"
        },
        {
          "internalType": "bytes32",
          "name": "",
          "type": "bytes32"
        }
      ],
      "stateMutability": "view",
      "type": "function"
    },
    {
      "inputs": [
        {
          "internalType": "uint256",
          "name": "index",
          "type": "uint256"
        }
      ],
      "name": "proposalDetailsAt",
      "outputs": [
        {
          "internalType": "uint256",
          "name": "",
          "type": "uint256"
        },
        {
          "internalType": "address[]",
          "name": "",
          "type": "address[]"
        },
        {
          "internalType": "uint256[]",
          "name": "",
          "type": "uint256[]"
        },
        {
          "internalType": "bytes[]",
          "name": "",
          "type": "bytes[]"
        },
        {
          "internalType": "bytes32",
          "name": "",
          "type": "bytes32"
        }
      ],
      "stateMutability": "view",
      "type": "function"
    },
    {
      "inputs": [
        {
          "internalType": "uint256",
          "name": "proposalId",
          "type": "uint256"
        }
      ],
      "name": "proposalEta",
      "outputs": [
        {
          "internalType": "uint256",
          "name": "",
          "type": "uint256"
        }
      ],
      "stateMutability": "view",
      "type": "function"
    },
    {
      "inputs": [
        {
          "internalType": "uint256",
          "name": "proposalId",
          "type": "uint256"
        }
      ],
      "name": "proposalNeedsQueuing",
      "outputs": [
        {
          "internalType": "bool",
          "name": "",
          "type": "bool"
        }
      ],
      "stateMutability": "view",
      "type": "function"
    },
    {
      "inputs": [
        {
          "internalType": "uint256",
          "name": "proposalId",
          "type": "uint256"
        }
      ],
      "name": "proposalProposer",
      "outputs": [
        {
          "internalType": "address",
          "name": "",
          "type": "address"
        }
      ],
      "stateMutability": "view",
      "type": "function"
    },
    {
      "inputs": [
        {
          "internalType": "uint256",
          "name": "proposalId",
          "type": "uint256"
        }
      ],
      "name": "proposalSnapshot",
      "outputs": [
        {
          "internalType": "uint256",
          "name": "",
          "type": "uint256"
        }
      ],
      "stateMutability": "view",
      "type": "function"
    },
    {
      "inputs": [],
      "name": "proposalThreshold",
      "outputs": [
        {
          "internalType": "uint256",
          "name": "",
          "type": "uint256"
        }
      ],
      "stateMutability": "view",
      "type": "function"
    },
    {
      "inputs": [
        {
          "internalType": "uint256",
          "name": "proposalId",
          "type": "uint256"
        }
      ],
      "name": "proposalVotes",
      "outputs": [
        {
          "internalType": "uint256",
          "name": "againstVotes",
          "type": "uint256"
        },
        {
          "internalType": "uint256",
          "name": "forVotes",
          "type": "uint256"
        },
        {
          "internalType": "uint256",
          "name": "abstainVotes",
          "type": "uint256"
        }
      ],
      "stateMutability": "view",
      "type": "function"
    },
    {
      "inputs": [
        {
          "internalType": "address[]",
          "name": "targets",
          "type": "address[]"
        },
        {
          "internalType": "uint256[]",
          "name": "values",
          "type": "uint256[]"
        },
        {
          "internalType": "bytes[]",
          "name": "calldatas",
          "type": "bytes[]"
        },
        {
          "internalType": "string",
          "name": "description",
          "type": "string"
        }
      ],
      "name": "propose",
      "outputs": [
        {
          "internalType": "uint256",
          "name": "",
          "type": "uint256"
        }
      ],
      "stateMutability": "nonpayable",
      "type": "function"
    },
    {
      "inputs": [
        {
          "internalType": "address[]",
          "name": "targets",
          "type": "address[]"
        },
        {
          "internalType": "uint256[]",
          "name": "values",
          "type": "uint256[]"
        },
        {
          "internalType": "bytes[]",
          "name": "calldatas",
          "type": "bytes[]"
        },
        {
          "internalType": "bytes32",
          "name": "descriptionHash",
          "type": "bytes32"
        }
      ],
      "name": "queue",
      "outputs": [
        {
          "internalType": "uint256",
          "name": "",
          "type": "uint256"
        }
      ],
      "stateMutability": "nonpayable",
      "type": "function"
    },
    {
      "inputs": [
        {
          "internalType": "uint256",
          "name": "proposalId",
          "type": "uint256"
        }
      ],
      "name": "queue",
      "outputs": [],
      "stateMutability": "nonpayable",
      "type": "function"
    },
    {
      "inputs": [
        {
          "internalType": "uint256",
          "name": "blockNumber",
          "type": "uint256"
        }
      ],
      "name": "quorum",
      "outputs": [
        {
          "internalType": "uint256",
          "name": "",
          "type": "uint256"
        }
      ],
      "stateMutability": "view",
      "type": "function"
    },
    {
      "inputs": [],
      "name": "quorumDenominator",
      "outputs": [
        {
          "internalType": "uint256",
          "name": "",
          "type": "uint256"
        }
      ],
      "stateMutability": "view",
      "type": "function"
    },
    {
      "inputs": [
        {
          "internalType": "uint256",
          "name": "timepoint",
          "type": "uint256"
        }
      ],
      "name": "quorumNumerator",
      "outputs": [
        {
          "internalType": "uint256",
          "name": "",
          "type": "uint256"
        }
      ],
      "stateMutability": "view",
      "type": "function"
    },
    {
      "inputs": [],
      "name": "quorumNumerator",
      "outputs": [
        {
          "internalType": "uint256",
          "name": "",
          "type": "uint256"
        }
      ],
      "stateMutability": "view",
      "type": "function"
    },
    {
      "inputs": [
        {
          "internalType": "address",
          "name": "target",
          "type": "address"
        },
        {
          "internalType": "uint256",
          "name": "value",
          "type": "uint256"
        },
        {
          "internalType": "bytes",
          "name": "data",
          "type": "bytes"
        }
      ],
      "name": "relay",
      "outputs": [],
      "stateMutability": "payable",
      "type": "function"
    },
    {
      "inputs": [
        {
          "internalType": "uint48",
          "name": "newVoteExtension",
          "type": "uint48"
        }
      ],
      "name": "setLateQuorumVoteExtension",
      "outputs": [],
      "stateMutability": "nonpayable",
      "type": "function"
    },
    {
      "inputs": [
        {
          "internalType": "uint256",
          "name": "newProposalThreshold",
          "type": "uint256"
        }
      ],
      "name": "setProposalThreshold",
      "outputs": [],
      "stateMutability": "nonpayable",
      "type": "function"
    },
    {
      "inputs": [
        {
          "internalType": "uint48",
          "name": "newVotingDelay",
          "type": "uint48"
        }
      ],
      "name": "setVotingDelay",
      "outputs": [],
      "stateMutability": "nonpayable",
      "type": "function"
    },
    {
      "inputs": [
        {
          "internalType": "uint32",
          "name": "newVotingPeriod",
          "type": "uint32"
        }
      ],
      "name": "setVotingPeriod",
      "outputs": [],
      "stateMutability": "nonpayable",
      "type": "function"
    },
    {
      "inputs": [
        {
          "internalType": "uint256",
          "name": "proposalId",
          "type": "uint256"
        }
      ],
      "name": "state",
      "outputs": [
        {
          "internalType": "enum IGovernor.ProposalState",
          "name": "",
          "type": "uint8"
        }
      ],
      "stateMutability": "view",
      "type": "function"
    },
    {
      "inputs": [
        {
          "internalType": "bytes4",
          "name": "interfaceId",
          "type": "bytes4"
        }
      ],
      "name": "supportsInterface",
      "outputs": [
        {
          "internalType": "bool",
          "name": "",
          "type": "bool"
        }
      ],
      "stateMutability": "view",
      "type": "function"
    },
    {
      "inputs": [],
      "name": "timelock",
      "outputs": [
        {
          "internalType": "address",
          "name": "",
          "type": "address"
        }
      ],
      "stateMutability": "view",
      "type": "function"
    },
    {
      "inputs": [],
      "name": "token",
      "outputs": [
        {
          "internalType": "contract IERC5805",
          "name": "",
          "type": "address"
        }
      ],
      "stateMutability": "view",
      "type": "function"
    },
    {
      "inputs": [
        {
          "internalType": "uint256",
          "name": "newQuorumNumerator",
          "type": "uint256"
        }
      ],
      "name": "updateQuorumNumerator",
      "outputs": [],
      "stateMutability": "nonpayable",
      "type": "function"
    },
    {
      "inputs": [
        {
          "internalType": "contract TimelockController",
          "name": "newTimelock",
          "type": "address"
        }
      ],
      "name": "updateTimelock",
      "outputs": [],
      "stateMutability": "nonpayable",
      "type": "function"
    },
    {
      "inputs": [],
      "name": "version",
      "outputs": [
        {
          "internalType": "string",
          "name": "",
          "type": "string"
        }
      ],
      "stateMutability": "view",
      "type": "function"
    },
    {
      "inputs": [],
      "name": "votingDelay",
      "outputs": [
        {
          "internalType": "uint256",
          "name": "",
          "type": "uint256"
        }
      ],
      "stateMutability": "view",
      "type": "function"
    },
    {
      "inputs": [],
      "name": "votingPeriod",
      "outputs": [
        {
          "internalType": "uint256",
          "name": "",
          "type": "uint256"
        }
      ],
      "stateMutability": "view",
      "type": "function"
    },
    {
      "stateMutability": "payable",
      "type": "receive"
    }
  ],
  "transactionHash": "0xdc20821095d4af35d2f512febd10bb6146fcdc216bfdcc6005f74df28bea7588",
  "args": [
    "Crowd Flix DAO",
    "0x6DDc4b74C370129cEB84AD566db1AfD0d1A2ab02",
    "0x3dfB313627Bc0Ba3D958F72D086adeF2ecb2Ac64",
    2,
    100
  ],
  "numDeployments": 1,
  "solcInputHash": "81c5a4f8304b2725219f7fa618b5b8c4",
  "bytecode": "0x61018060405234620000a9576200002362000019620001a1565b9392909262000260565b60405161451e908162000cac823960805181612e0e015260a05181612ec3015260c05181612dd8015260e05181612e5d01526101005181612e830152610120518161147e015261014051816114aa0152610160518181816116fc01528181611bfb01528181611d2f01528181611dd101528181611f4701528181612c1e01526139930152f35b600080fd5b634e487b7160e01b600052604160045260246000fd5b604081019081106001600160401b03821117620000e057604052565b620000ae565b60c081019081106001600160401b03821117620000e057604052565b601f909101601f19168101906001600160401b03821190821017620000e057604052565b604051906200013582620000c4565b565b6001600160401b038111620000e057601f01601f191660200190565b60005b838110620001675750506000910152565b818101518382015260200162000156565b51906001600160a01b0382168203620000a957565b519065ffffffffffff82168203620000a957565b6200520a908138038060405193620001ba828662000102565b843982019160a081840312620000a95780516001600160401b038111620000a957810183601f82011215620000a9578051620001f68162000137565b9462000206604051968762000102565b81865260208284010111620000a95762000227916020808701910162000153565b620002356020820162000178565b92620002446040830162000178565b92620002586080606085015194016200018d565b919493929190565b620001359462000360939492620003296200035a936040516200028381620000c4565b6001815260208101603160f81b81526200029d83620007eb565b61012052620002ac82620008fc565b6101405282516020840120918260e05251902080610100524660a0526040519060208201927f8b73c3c69bb8fe3d512ecc4cf759cc79239f7b179b0ffacaa9a75d522b39400f8452604083015260608201524660808201523060a082015260a081526200031981620000e6565b5190206080523060c052620004b0565b62000333620005f1565b6200033d6200063a565b6200034762000690565b6001600160a01b031661016052620005a3565b62000719565b620006ca565b90600182811c9216801562000398575b60208310146200038257565b634e487b7160e01b600052602260045260246000fd5b91607f169162000376565b601f8111620003b0575050565b6000906003825260208220906020601f850160051c83019410620003f1575b601f0160051c01915b828110620003e557505050565b818155600101620003d8565b9092508290620003cf565b601f811162000409575050565b60009081805260208220906020601f850160051c8301941062000449575b601f0160051c01915b8281106200043d57505050565b81815560010162000430565b909250829062000427565b90601f821162000462575050565b60019160009083825260208220906020601f850160051c83019410620004a5575b601f0160051c01915b8281106200049a5750505050565b81815583016200048c565b909250829062000483565b80519091906001600160401b038111620000e057620004dc81620004d660035462000366565b620003a3565b602080601f83116001146200051b57508192936000926200050f575b50508160011b916000199060031b1c191617600355565b015190503880620004f8565b6003600052601f198316949091907fc2575a0e9e593c00f959f8c92f12db2869c3395a3b0502d05e2516446f71f85b926000905b8782106200058a57505083600195961062000570575b505050811b01600355565b015160001960f88460031b161c1916905538808062000565565b806001859682949686015181550195019301906200054f565b600c547f7ca4ac117ed3cdce75c1161d8207c440389b1a15d69d096831664657c07dafc2604080519365ffffffffffff9081851686521693846020820152a165ffffffffffff191617600c55565b6008547fc565b045403dc03c2eea82b81a0465edad9e2e7fc4d97e11421c209da93d7a936040805165ffffffffffff8416815260006020820152a165ffffffffffff1916600855565b671c200000000000006008547f7e3f7f0708a84de9203036abaa450dccc85ad5ff52f78c170f3edb55cf5e88286040805163ffffffff8460301c168152611c206020820152a163ffffffff60301b191617600855565b7fccb45da8d5717e6c4544694297c4ba5cf151d455c9bb0ed4fc7a38411bc054616040600754815190815260006020820152a16000600755565b600f547f08f74ea46ef7894f65eabfb5e6e695de773a000b47c529ab559178069b226401604060018060a01b038094169381519084168152846020820152a16001600160a01b03191617600f55565b9060648211620007cb57600e546000929080620007845750600080516020620051ea83398151915291925060005b62000765620007568362000a5f565b65ffffffffffff421662000b68565b5050604080516001600160d01b039290921682526020820192909252a1565b600019908082810111620007b757602085600e600080516020620051ea8339815191529697522001015460301c62000747565b634e487b7160e01b85526011600452602485fd5b60405163243e544560e01b81526004810183905260646024820152604490fd5b9081516020908181106000146200080d575050906200080a90620009f0565b90565b6001600160401b038111620000e057600091620008368262000830855462000366565b620003fc565b80601f831160011462000875575082939482939262000869575b50508160011b916000199060031b1c191617905560ff90565b01519050388062000850565b60008052601f198316957f290decd9548b62a8d60345a988386fc84ba6bc95484008f6362f93160ef3e563929185905b888210620008e357505083600195969710620008c9575b505050811b01905560ff90565b015160001960f88460031b161c19169055388080620008bc565b80600185968294968601518155019501930190620008a5565b9081516020908181106000146200091b575050906200080a90620009f0565b6001600160401b038111620000e05760019162000944826200093e855462000366565b62000454565b80601f83116001146200098357508192939460009262000977575b5050600019600383901b1c191690821b17905560ff90565b0151905038806200095f565b6001600052601f198316959091907fb10e2d527612073b26eecdfd717e6a320cf44b4afac2b0732d9fcbe2b7fa0cf6926000905b888210620009d85750508385969710620008c957505050811b01905560ff90565b808785968294968601518155019501930190620009b7565b601f81511162000a1e57602081519101516020821062000a0e571790565b6000198260200360031b1b161790565b6044604051809263305a27a960e01b82526020600483015262000a51815180928160248601526020868601910162000153565b601f01601f19168101030190fd5b6001600160d01b039081811162000a74571690565b604490604051906306dfcc6560e41b825260d060048301526024820152fd5b60001981019190821162000aa357565b634e487b7160e01b600052601160045260246000fd5b600e549068010000000000000000821015620000e0576001820180600e5582101562000b1b57600e60005280516020919091015160301b65ffffffffffff191665ffffffffffff9190911617600080516020620051ca83398151915290910155565b634e487b7160e01b600052603260045260246000fd5b604080519192919081016001600160401b03811182821017620000e057604052915465ffffffffffff8116835260301c6020830152565b600e5491929190811562000c7c5762000ba862000ba262000b898462000a93565b600e600052600080516020620051ca8339815191520190565b62000b31565b805165ffffffffffff838116949116841062000c6a578560209362000c289562000be762000bdc865165ffffffffffff1690565b65ffffffffffff1690565b0362000c2c575062000c0162000b8962000c1a9362000a93565b9065ffffffffffff82549181199060301b169116179055565b01516001600160d01b031690565b9190565b905062000c64915062000c5062000c4262000126565b65ffffffffffff9092168252565b6001600160d01b0387168185015262000ab9565b62000c1a565b604051632520601d60e01b8152600490fd5b62000ca5915062000c9062000c4262000126565b6001600160d01b038416602082015262000ab9565b6000919056fe60806040526004361015610023575b361561001957600080fd5b610021611e46565b005b60003560e01c806301ffc9a7146103a357806302a251a31461039e57806306f3f9e61461039957806306fdde0314610394578063143489d01461038f578063150b7a021461038a578063160cbed71461038557806316e9eaec146103805780632656227d1461037b5780632d63f693146103765780632e82db94146103715780632fe3e2611461036c57806332b8113e14610367578063330df7ff146103625780633932abb11461035d5780633e4f49e61461035857806340e58ee514610353578063438596321461034e578063452115d6146103495780634bf5d7e914610344578063544ffc9c1461033f57806354fd4d501461033a57806356781388146103355780635b8d0e0d146103305780635f398a141461032b57806360c4247f1461032657806379051887146103215780637b3c71d31461031c5780637d5e81e2146103175780637ecebe001461031257806384b0196e1461030d5780638ff262e31461030857806391ddadf41461030357806397c3d334146102fe5780639a802a6d146102f9578063a7713a70146102f4578063a890c910146102ef578063a9a95294146102ea578063ab58fb8e146102e5578063b58131b0146102e0578063bc197c81146102db578063c01f9e37146102d6578063c28bc2fa146102d1578063c59057e4146102cc578063d33219b4146102c7578063da35c664146102c2578063dd4e2ba5146102bd578063ddf0b009146102b8578063deaaa7cc146102b3578063e540d01d146102ae578063eb9019d4146102a9578063ece40cc1146102a4578063f23a6e611461029f578063f8ce560a1461029a578063fc0c546a146102955763fe0d94c10361000e57611e00565b611dbb565b611cff565b611c94565b611c3f565b611b9f565b611af6565b611abb565b611a70565b611a12565b6119f4565b6119cb565b6119af565b611943565b611925565b611885565b611867565b611830565b611814565b6117a0565b611774565b61168e565b611672565b61164f565b61152f565b611465565b611428565b61138f565b61133d565b6112d9565b6112bb565b611084565b610fec565b610f87565b610f35565b610ee8565b610e99565b610e7d565b610e24565b610dd2565b610da5565b610d4d565b610ce9565b610ca2565b610c67565b610bc5565b610b8e565b610b77565b610b48565b610a1f565b6107e3565b610647565b610562565b610448565b610421565b346104115760203660031901126104115760043563ffffffff60e01b8116809103610411576020906332a2ad4360e11b8114908115610400575b81156103ef575b506040519015158152f35b6301ffc9a760e01b149050386103e4565b630271189760e51b811491506103dd565b600080fd5b600091031261041157565b3461041157600036600319011261041157602063ffffffff60085460301c16604051908152f35b34610411576020366003190112610411576004356104646126a1565b606481116104ef576001600160d01b03908161047e6133e1565b168282116104cf576104bb7f0553476bf02ef2726e8ce5ced78d63e26e602e4a2257b1f559418e24b463399793831665ffffffffffff42166134e1565b5050604080519182526020820192909252a1005b6040516306dfcc6560e41b815260d0600482015260248101839052604490fd5b6044906040519063243e544560e01b8252600482015260646024820152fd5b919082519283825260005b84811061053a575050826000602080949584010152601f8019910116010190565b602081830181015184830182015201610519565b90602061055f92818152019061050e565b90565b346104115760008060031936011261064457604051908060035461058581611e5a565b8085529160019180831690811561061a57506001146105bf575b6105bb856105af81870382610727565b6040519182918261054e565b0390f35b9250600383527fc2575a0e9e593c00f959f8c92f12db2869c3395a3b0502d05e2516446f71f85b5b8284106106025750505081016020016105af826105bb61059f565b805460208587018101919091529093019281016105e7565b8695506105bb969350602092506105af94915060ff191682840152151560051b820101929361059f565b80fd5b34610411576020366003190112610411576004356000526004602052602060018060a01b0360406000205416604051908152f35b6001600160a01b0381160361041157565b634e487b7160e01b600052604160045260246000fd5b6001600160401b0381116106b557604052565b61068c565b604081019081106001600160401b038211176106b557604052565b602081019081106001600160401b038211176106b557604052565b60c081019081106001600160401b038211176106b557604052565b61010081019081106001600160401b038211176106b557604052565b90601f801991011681019081106001600160401b038211176106b557604052565b60405190610755826106ba565b565b60405190608082018281106001600160401b038211176106b557604052565b6001600160401b0381116106b557601f01601f191660200190565b92919261079d82610776565b916107ab6040519384610727565b829481845281830111610411578281602093846000960137010152565b9080601f830112156104115781602061055f93359101610791565b34610411576080366003190112610411576107ff60043561067b565b61080a60243561067b565b6064356001600160401b038111610411576108299036906004016107c8565b50600f546001600160a01b0316300361084e57604051630a85bd0160e11b8152602090f35b604051637485328f60e11b8152600490fd5b6001600160401b0381116106b55760051b60200190565b81601f820112156104115780359161088e83610860565b9261089c6040519485610727565b808452602092838086019260051b820101928311610411578301905b8282106108c6575050505090565b83809183356108d48161067b565b8152019101906108b8565b81601f82011215610411578035916108f683610860565b926109046040519485610727565b808452602092838086019260051b820101928311610411578301905b82821061092e575050505090565b81358152908301908301610920565b9080601f830112156104115781359061095582610860565b926109636040519485610727565b828452602092838086019160051b8301019280841161041157848301915b8483106109915750505050505090565b82356001600160401b0381116104115786916109b2848480948901016107c8565b815201920191610981565b6080600319820112610411576001600160401b039160043583811161041157826109e991600401610877565b926024358181116104115783610a01916004016108df565b9260443591821161041157610a189160040161093d565b9060643590565b34610411576020610a3b610a32366109bd565b92919091611ff9565b604051908152f35b90815180825260208080930193019160005b828110610a63575050505090565b83516001600160a01b031685529381019392810192600101610a55565b90815180825260208080930193019160005b828110610aa0575050505090565b835185529381019392810192600101610a92565b90815180825260208092019182818360051b85019501936000915b848310610adf5750505050505090565b9091929394958480610af983856001950387528a5161050e565b9801930193019194939290610acf565b949392610b35606093610b27610b439460808a5260808a0190610a43565b9088820360208a0152610a80565b908682036040880152610ab4565b930152565b34610411576020366003190112610411576105bb610b67600435612b38565b9060409492945194859485610b09565b6020610a3b610b85366109bd565b9291909161224e565b34610411576020366003190112610411576004356000526004602052602065ffffffffffff60406000205460a01c16604051908152f35b3461041157602036600319011261041157600435600a54811015610c6257610c4a90600a6000527fc65a7bb8d6351c1cf70c95a316cc6a92839c986682d98bc35f958f4883f9d2a80154610c58610c1b82612b38565b9392959091610c3c604051978897885260a0602089015260a0880190610a43565b908682036040880152610a80565b908482036060860152610ab4565b9060808301520390f35b612224565b346104115760003660031901126104115760206040517f3e83946653575f9a39005e1545185629e92736b7528ab20ca3816f315424a8118152f35b3461041157600036600319011261041157602065ffffffffffff600c5416604051908152f35b60209060031901126104115760043565ffffffffffff811681036104115790565b3461041157610cf736610cc8565b610cff6126a1565b600c547f7ca4ac117ed3cdce75c1161d8207c440389b1a15d69d096831664657c07dafc2604080519365ffffffffffff9081851686521693846020820152a165ffffffffffff191617600c55005b3461041157600036600319011261041157602065ffffffffffff60085416604051908152f35b634e487b7160e01b600052602160045260246000fd5b60081115610d9357565b610d73565b906008821015610d935752565b34610411576020366003190112610411576020610dc3600435613718565b610dd06040518092610d98565bf35b3461041157602036600319011261041157600435600052600b6020526100216040600020600381015490610e05816129b4565b90610e1e6002610e1760018401612a0c565b9201612a5b565b916123a2565b3461041157604036600319011261041157602060ff610e71602435610e488161067b565b6004356000526009845260036040600020019060018060a01b0316600052602052604060002090565b54166040519015158152f35b34610411576020610a3b610e90366109bd565b929190916123a2565b34610411576000366003190112610411576105bb604051610eb9816106ba565b600e81526d06d6f64653d74696d657374616d760941b602082015260405191829160208352602083019061050e565b34610411576020366003190112610411576004356000526009602052604060002080546105bb60026001840154930154604051938493846040919493926060820195825260208201520152565b34610411576000366003190112610411576105bb604051610f55816106ba565b60018152603160f81b602082015260405191829160208352602083019061050e565b6024359060ff8216820361041157565b34610411576040366003190112610411576020610a3b610fa5610f77565b60405190610fb2826106d5565b6000825233600435612534565b9181601f84011215610411578235916001600160401b038311610411576020838186019501011161041157565b346104115760c036600319011261041157611005610f77565b604435906110128261067b565b6001600160401b039060643582811161041157611033903690600401610fbf565b6084358481116104115761104b9036906004016107c8565b9160a435948511610411576105bb9561106b6110749636906004016107c8565b9460043561243e565b6040519081529081906020820190565b34610411576080366003190112610411576004356110a0610f77565b6001600160401b0391604435838111610411576110c1903690600401610fbf565b929093606435908111610411576105bb946110e36110eb9236906004016107c8565b943691610791565b6110f483612752565b5082600052600460205261112d61112761111c604060002065ffffffffffff905460a01c1690565b65ffffffffffff1690565b33612bed565b9361113a8584338761438b565b805161127e57506111767fb8e138887d0aa13bab447e82de9d5c1777041ecd21ca36ba824ff1e6c07ddda4916040519182918733968885614365565b0390a25b65ffffffffffff806111a561119984600052600d602052604060002090565b5465ffffffffffff1690565b16158061126f575b6111c4575b50506040519081529081906020820190565b611209611222926111e76111df600c5465ffffffffffff1690565b844216614305565b926111f182614478565b9084161161122957600052600d602052604060002090565b9065ffffffffffff1665ffffffffffff19825416179055565b38806111b2565b60405165ffffffffffff8416815281907f541f725fb9f7c98a30cc9c0ff32fbb14358cd7159c847a3aa20a2bdc442ba51190602090a2600052600d602052604060002090565b506112798261394c565b6111ad565b7fe2babfbac5889a709b63bb7f598b324e08bc5a4fb9ec647fb3cbc9ec07eb8712916112b3604051928392883397898661432b565b0390a261117a565b34610411576020366003190112610411576020610a3b600435612c6a565b34610411576112e736610cc8565b6112ef6126a1565b6008547fc565b045403dc03c2eea82b81a0465edad9e2e7fc4d97e11421c209da93d7a93604080519365ffffffffffff9081851686521693846020820152a165ffffffffffff191617600855005b3461041157606036600319011261041157611356610f77565b6044356001600160401b0381116104115760209161138561137e610a3b933690600401610fbf565b3691610791565b9033600435612534565b34610411576080366003190112610411576001600160401b03600435818111610411576113c0903690600401610877565b90602435818111610411576113d99036906004016108df565b91604435828111610411576113f290369060040161093d565b6064359283116104115736602384011215610411576105bb93611422611074943690602481600401359101610791565b92611eeb565b34610411576020366003190112610411576004356114458161067b565b60018060a01b031660005260026020526020604060002054604051908152f35b34610411576000366003190112610411576115006114a27f0000000000000000000000000000000000000000000000000000000000000000612ee9565b6105bb6114ce7f0000000000000000000000000000000000000000000000000000000000000000612fe0565b61150e604051916114de836106d5565b60008352604051958695600f60f81b875260e0602088015260e087019061050e565b90858203604087015261050e565b90466060850152306080850152600060a085015283820360c0850152610a80565b346104115760803660031901126104115760043561154b610f77565b90604435916115598361067b565b6064356001600160401b0381116104115761160b61157e61160f9236906004016107c8565b6001600160a01b03861660009081526002602052604090208054600181019091556116059060405160208101917ff2aad550cf55f045cb27e9c559f9889fdfb6e6cdaa032301d6ea397784ae51d7835288604083015260ff8816606083015260018060a01b038a16608083015260a082015260a081526115fd816106f0565b519020612daf565b86613098565b1590565b61162a5790611074916105bb93611624611e94565b92612534565b6040516394ab6c0760e01b81526001600160a01b0384166004820152602490fd5b0390fd5b3461041157600036600319011261041157602060405165ffffffffffff42168152f35b3461041157600036600319011261041157602060405160648152f35b34610411576060366003190112610411576004356116ab8161067b565b6044356001600160401b038111610411576044916116cf60209236906004016107c8565b50604051630748d63560e31b81526001600160a01b039182166004820152602480359082015292839182907f0000000000000000000000000000000000000000000000000000000000000000165afa801561176f576105bb91600091611741575b506040519081529081906020820190565b611762915060203d8111611768575b61175a8183610727565b810190612bd2565b38611730565b503d611750565b612be1565b346104115760003660031901126104115760206001600160d01b036117976133e1565b16604051908152f35b34610411576020366003190112610411576004356117bd8161067b565b6117c56126a1565b600f547f08f74ea46ef7894f65eabfb5e6e695de773a000b47c529ab559178069b226401604060018060a01b038094169381519084168152846020820152a16001600160a01b03191617600f55005b3461041157602036600319011261041157602060405160018152f35b34610411576020366003190112610411576004356000526004602052602065ffffffffffff60016040600020015416604051908152f35b34610411576000366003190112610411576020600754604051908152f35b346104115760a0366003190112610411576118a160043561067b565b6118ac60243561067b565b6001600160401b03604435818111610411576118cc9036906004016108df565b50606435818111610411576118e59036906004016108df565b50608435908111610411576118fe9036906004016107c8565b506105bb61190a612715565b6040516001600160e01b031990911681529081906020820190565b34610411576020366003190112610411576020610a3b600435614478565b60603660031901126104115760043561195b8161067b565b604435906001600160401b0382116104115760008091611982610021943690600401610fbf565b9061198b6126a1565b81604051928392833781018481520391602435905af16119a9612671565b90612d86565b34610411576020610a3b6119c2366109bd565b92919091611ea7565b3461041157600036600319011261041157600f546040516001600160a01b039091168152602090f35b34610411576000366003190112610411576020600a54604051908152f35b34610411576000366003190112610411576105bb604051611a32816106ba565b602081527f737570706f72743d627261766f2671756f72756d3d666f722c6162737461696e602082015260405191829160208352602083019061050e565b3461041157602036600319011261041157600435600052600b6020526100216040600020600381015490611aa3816129b4565b90611ab56002610e1760018401612a0c565b91611ff9565b346104115760003660031901126104115760206040517ff2aad550cf55f045cb27e9c559f9889fdfb6e6cdaa032301d6ea397784ae51d78152f35b346104115760203660031901126104115760043563ffffffff8082169182810361041157611b226126a1565b8215611b86577f7e3f7f0708a84de9203036abaa450dccc85ad5ff52f78c170f3edb55cf5e8828604069ffffffff00000000000093600854958251918760301c1682526020820152a160301b169069ffffffff000000000000191617600855600080f35b60405163f1cfbf0560e01b815260006004820152602490fd5b346104115760403660031901126104115760446020600435611bc08161067b565b6000604051611bce816106d5565b52604051630748d63560e31b81526001600160a01b039182166004820152602480359082015292839182907f0000000000000000000000000000000000000000000000000000000000000000165afa801561176f576105bb9160009161174157506040519081529081906020820190565b3461041157602036600319011261041157600435611c5b6126a1565b60075460408051918252602082018390527fccb45da8d5717e6c4544694297c4ba5cf151d455c9bb0ed4fc7a38411bc0546191a1600755005b346104115760a036600319011261041157611cb060043561067b565b611cbb60243561067b565b6084356001600160401b03811161041157611cda9036906004016107c8565b50600f546001600160a01b0316300361084e5760405163f23a6e6160e01b8152602090f35b3461041157602036600319011261041157604051632394e7a360e21b8152600480359082018190526020826024817f00000000000000000000000000000000000000000000000000000000000000006001600160a01b03165afa91821561176f57600092611d97575b50611d7290612c6a565b90818102918183041490151715611d925760405160649091048152602090f35b611ed5565b611d72919250611db49060203d81116117685761175a8183610727565b9190611d68565b34610411576000366003190112610411576040517f00000000000000000000000000000000000000000000000000000000000000006001600160a01b03168152602090f35b602036600319011261041157600435600052600b6020526100216040600020600381015490611e2e816129b4565b90611e406002610e1760018401612a0c565b9161224e565b600f546001600160a01b0316300361084e57565b90600182811c92168015611e8a575b6020831014611e7457565b634e487b7160e01b600052602260045260246000fd5b91607f1691611e69565b60405190611ea1826106d5565b60008252565b9290611ec1611ecf92604051948593602085019788610b09565b03601f198101835282610727565b51902090565b634e487b7160e01b600052601160045260246000fd5b9193929093611efa8233612877565b15611fe15765ffffffffffff946000198642160195808711611d92576000604051611f24816106d5565b52604051630748d63560e31b8152336004820152961660248701526020866044817f00000000000000000000000000000000000000000000000000000000000000006001600160a01b03165afa95861561176f57600096611fc1575b5060075495868110611f9a575061055f9495503393613d83565b604051636121770b60e11b8152336004820152602481019190915260448101879052606490fd5b611fda91965060203d81116117685761175a8183610727565b9438611f80565b60405163d9b3955760e01b8152336004820152602490fd5b9290919261200982858584611ea7565b93612013856127a4565b50600f54612031906001600160a01b03165b6001600160a01b031690565b936040519363793d064960e11b855260209081866004818a5afa95861561176f576000966121f6575b506bffffffffffffffffffffffff193060601b16189581604051809263b1c5f42760e01b825281806120928c8a8a8d600486016140c1565b03915afa91821561176f576000926121d9575b50506120bb876000526010602052604060002090565b55600f546120d1906001600160a01b0316612025565b90813b1561041157600080946120fe87604051998a97889687956308f2a0bb60e41b8752600487016140eb565b03925af190811561176f576121229261211d926121c0575b5042613262565b613222565b65ffffffffffff8116156121ae576121a8816121897f9a2e42fd6722813d69113e7d0079d3d940171428df7373df9c7f7617cfda289293600161216f876000526004602052604060002090565b019065ffffffffffff1665ffffffffffff19825416179055565b6040805185815265ffffffffffff909216602083015290918291820190565b0390a190565b604051634844252360e11b8152600490fd5b806121cd6121d3926106a2565b80610416565b38612116565b6121ef9250803d106117685761175a8183610727565b38806120a5565b61220e919650823d84116117685761175a8183610727565b943861205a565b6000198114611d925760010190565b634e487b7160e01b600052603260045260246000fd5b8051821015610c625760209160051b010190565b9192909261225e82828686611ea7565b93612268856127f6565b50612293612280866000526004602052604060002090565b805460ff60f01b1916600160f01b179055565b600f546001600160a01b03949085163003612334575b906122b693929186614139565b600f543091166001600160a01b0316141580612313575b612304575b6040518181527f712ae1383f79ac853f8d882153778e0260ef8f03b504e2866e0593e04d2b291f9080602081016121a8565b61230e6000600555565b6122d2565b5061232f61160b6005546001600160801b0381169060801c1490565b6122cd565b93909491959260005b855181101561239657612372903061236861202561235b848b61223a565b516001600160a01b031690565b1461237757612215565b61233d565b612391612384828b61223a565b516020815191012061364f565b612215565b509295919490936122a9565b9291906123b183838387611ea7565b6123ba81613718565b6008811015610d935760018060ff83161b161561241157506000908152600460205260409020546001600160a01b031633036123f95761055f936141c4565b60405163233d98e360e01b8152336004820152602490fd5b90612435606492604051926331b75e4d60e01b845260048401526024830190610d98565b60016044820152fd5b93909291969561160b6124f8916124f28a6124748160018060a01b03166000526002602052604060002080549060018201905590565b61247f36888a610791565b602081519101208b5160208d0120906040519260208401947f3e83946653575f9a39005e1545185629e92736b7528ab20ca3816f315424a81186528d604086015260ff8d16606086015260018060a01b0316608085015260a084015260c083015260e082015260e081526115fd8161070b565b8a613098565b6125135761055f95969161250d913691610791565b9261431f565b6040516394ab6c0760e01b81526001600160a01b0388166004820152602490fd5b919092604051612543816106d5565b6000815261255084612752565b5083600052600460205261257e61257861111c604060002065ffffffffffff905460a01c1690565b86612bed565b94859161258d8386848961438b565b805161262d57506125cf7fb8e138887d0aa13bab447e82de9d5c1777041ecd21ca36ba824ff1e6c07ddda49360405193849360018060a01b0316968885614365565b0390a25b65ffffffffffff806125f261119984600052600d602052604060002090565b16158061261e575b61260357505090565b61120961055f926111e76111df600c5465ffffffffffff1690565b506126288261394c565b6125fa565b612669907fe2babfbac5889a709b63bb7f598b324e08bc5a4fb9ec647fb3cbc9ec07eb87129460405194859460018060a01b031697898661432b565b0390a26125d3565b3d1561269c573d9061268282610776565b916126906040519384610727565b82523d6000602084013e565b606090565b600f546001600160a01b03163381036126fd5730036126bc57565b6126c536610776565b6126d26040519182610727565b368152602081019036600083376000602036830101525190205b806126f56136a9565b036126ec5750565b6040516347096e4760e01b8152336004820152602490fd5b600f546001600160a01b0316300361084e5763bc197c8160e01b90565b60409061274e6000939594606083019683526020830190610d98565b0152565b61275b81613718565b906008821015610d93576002600160ff84161b1615612778575090565b61279b606492604051926331b75e4d60e01b845260048401526024830190610d98565b60026044820152fd5b6127ad81613718565b906008821015610d93576010600160ff84161b16156127ca575090565b6127ed606492604051926331b75e4d60e01b845260048401526024830190610d98565b60106044820152fd5b6127ff81613718565b906008821015610d93576030600160ff84161b161561281c575090565b61283f606492604051926331b75e4d60e01b845260048401526024830190610d98565b60306044820152fd5b602719810191908211611d9257565b600019810191908211611d9257565b908151811015610c62570160200190565b81516034811061292e5760131981840101516001600160a01b0319166b1b91f1b211f2119351b859f160a31b0161292e57916000926128b581612848565b915b8183106128d2575050506001600160a01b0391821691161490565b9091936128f86128f36128e58785612866565b516001600160f81b03191690565b612936565b9190156129235760041b6010600160a01b031660ff91909116179361291c90612215565b91906128b7565b505050505050600190565b505050600190565b60f81c9081602f10806129aa575b1561295657600191602f190160ff1690565b81604010806129a0575b15612972576001916036190160ff1690565b8160601080612996575b1561298e576001916056190160ff1690565b600091508190565b506067821061297c565b5060478210612960565b50603a8210612944565b9060405191828154918282526020928383019160005283600020936000905b8282106129e95750505061075592500383610727565b85546001600160a01b0316845260019586019588955093810193909101906129d3565b9060405191828154918282526020928383019160005283600020936000905b828210612a415750505061075592500383610727565b855484526001958601958895509381019390910190612a2b565b90815491612a6883610860565b92604091612a7883519586610727565b81855260009081526020808220938291908188015b858410612a9d5750505050505050565b8151838692895492612aae84611e5a565b808252600194808616908115612b1c5750600114612ae4575b50612ad6816001960382610727565b815201970193019295612a8d565b8b8a52838a20955089905b808210612b055750810183019450612ad6612ac7565b865483830186015295850195889490910190612aef565b60ff19168584015250151560051b810183019450612ad6612ac7565b80600052600b60205260406000209160405190608082018281106001600160401b038211176106b557604052612b6d846129b4565b8252612b7b60018501612a0c565b91602081019283526003612b9160028701612a5b565b9560408301968752015493606082019480865215612bb85750519151935192519193929190565b604051636ad0607560e01b81526004810191909152602490fd5b90816020910312610411575190565b6040513d6000823e3d90fd5b604051630748d63560e31b81526001600160a01b0391821660048201526024810192909252602090829060449082907f0000000000000000000000000000000000000000000000000000000000000000165afa90811561176f57600091612c52575090565b61055f915060203d81116117685761175a8183610727565b600e546000198101818111611d9257811115610c6257600e6000527fbb7b4a454dc3493923482f07822329ed19e8244eff582cc204f8554c3620c3fc8101549165ffffffffffff92818482161115612d7c5750612cc690613222565b6000908260058111612d26575b50612cde93506135e6565b80612cf3575060005b6001600160d01b031690565b612d1a612d02612d2192612857565b600e6000526000805160206144c98339815191520190565b5460301c90565b612ce7565b9092612d318261328f565b8203918211611d9257612cde94600e845280836000805160206144c983398151915201541690851610600014612d6a5750915b38612cd3565b929150612d7690613254565b90612d64565b9250505060301c90565b9091906107555750805115612d9d57805190602001fd5b604051630a12f52160e11b8152600490fd5b604290612dba612dd5565b906040519161190160f01b8352600283015260228201522090565b307f00000000000000000000000000000000000000000000000000000000000000006001600160a01b03161480612ec0575b15612e30577f000000000000000000000000000000000000000000000000000000000000000090565b60405160208101907f8b73c3c69bb8fe3d512ecc4cf759cc79239f7b179b0ffacaa9a75d522b39400f82527f000000000000000000000000000000000000000000000000000000000000000060408201527f000000000000000000000000000000000000000000000000000000000000000060608201524660808201523060a082015260a08152611ecf816106f0565b507f00000000000000000000000000000000000000000000000000000000000000004614612e07565b60ff8114612f275760ff811690601f8211612f155760405191612f0b836106ba565b8252602082015290565b604051632cd44ac360e21b8152600490fd5b50604051600081815491612f3a83611e5a565b80835292600190818116908115612fbe5750600114612f61575b5061055f92500382610727565b600080805291507f290decd9548b62a8d60345a988386fc84ba6bc95484008f6362f93160ef3e5635b848310612fa3575061055f935050810160200138612f54565b81935090816020925483858901015201910190918492612f8a565b90506020925061055f94915060ff191682840152151560051b82010138612f54565b60ff81146130025760ff811690601f8211612f155760405191612f0b836106ba565b5060405160008160019182549261301884611e5a565b80845293818116908115612fbe575060011461303b575061055f92500382610727565b600081815291507fb10e2d527612073b26eecdfd717e6a320cf44b4afac2b0732d9fcbe2b7fa0cf65b84831061307d575061055f935050810160200138612f54565b81935090816020925483858901015201910190918492613064565b6130a28383613162565b506004819592951015610d935715938461314c575b5083156130c5575b50505090565b60009293509082916040516130fe81611ec16020820194630b135d3f60e11b998a8752602484015260406044840152606483019061050e565b51915afa9061310b612671565b8261313e575b82613121575b50503880806130bf565b61313691925060208082518301019101612bd2565b143880613117565b915060208251101591613111565b6001600160a01b038381169116149350386130b7565b81519190604183036131935761318c92506020820151906060604084015193015160001a9061319e565b9192909190565b505060009160029190565b91907f7fffffffffffffffffffffffffffffff5d576e7357a4501ddfe92f46681b20a0841161321657926020929160ff608095604051948552168484015260408301526060820152600092839182805260015afa1561176f5780516001600160a01b0381161561320d57918190565b50809160019190565b50505060009160039190565b65ffffffffffff90818111613235571690565b604490604051906306dfcc6560e41b8252603060048301526024820152fd5b9060018201809211611d9257565b91908201809211611d9257565b8115613279570490565b634e487b7160e01b600052601260045260246000fd5b80156133c9578061336261335b61335161334761333d61333361332961331f600161055f9a6000908b60801c806133bd575b508060401c806133b0575b508060201c806133a3575b508060101c80613396575b508060081c80613389575b508060041c8061337c575b508060021c8061336f575b50821c613368575b811c1b613318818b61326f565b0160011c90565b613318818a61326f565b613318818961326f565b613318818861326f565b613318818761326f565b613318818661326f565b613318818561326f565b809261326f565b906133cf565b810161330b565b6002915091019038613303565b60049150910190386132f8565b60089150910190386132ed565b60109150910190386132e2565b60209150910190386132d7565b60409150910190386132cc565b915050608090386132c1565b50600090565b90808210156133dc575090565b905090565b600e54600090806133f3575050600090565b80600019810111611d9257600e7fbb7b4a454dc3493923482f07822329ed19e8244eff582cc204f8554c3620c3fc9252015460301c90565b600e5490600160401b8210156106b5576001820180600e55821015610c625761075591600e6000526000805160206144c9833981519152019061348b65ffffffffffff825116839065ffffffffffff1665ffffffffffff19825416179055565b60200151815465ffffffffffff1660309190911b65ffffffffffff1916179055565b90604051604081018181106001600160401b038211176106b557604052915465ffffffffffff8116835260301c6020830152565b600e549192919081156135bc576135026134fd612d0284612857565b6134ad565b805165ffffffffffff83811694911684106135aa578560209361356e9561353261111c865165ffffffffffff1690565b036135725750613547612d0261356093612857565b9065ffffffffffff82549181199060301b169116179055565b01516001600160d01b031690565b9190565b90506135a59150613592613584610748565b65ffffffffffff9092168252565b6001600160d01b0387168185015261342b565b613560565b604051632520601d60e01b8152600490fd5b6135e091506135cc613584610748565b6001600160d01b038416602082015261342b565b60009190565b905b8281106135f457505090565b90918082169080831860011c8201809211611d9257600e60005265ffffffffffff80836000805160206144c98339815191520154169085161060001461363d5750915b906135e8565b92915061364990613254565b90613637565b6005548060801c9160018301926001600160801b0380931683851614613697576000526006602052604060002055600554916001600160801b03199060801b16911617600555565b604051638acb5f2760e01b8152600490fd5b600554906001600160801b038083169260801c83146136ee57826000526006602052600160406000209360008554955501166001600160801b03196005541617600555565b6040516375e52f4f60e01b8152600490fd5b90816020910312610411575180151581036104115790565b6137218161382a565b9061372b82610d89565b600582036138265761374891506000526010602052604060002090565b54600f5461375e906001600160a01b0316612025565b604051632c258a9f60e11b81526004810183905260209291908381602481855afa90811561176f57600091613809575b501561379c57505050600590565b604051632ab0f52960e01b815260048101929092528290829060249082905afa91821561176f576000926137dc575b5050156137d757600790565b600290565b6137fb9250803d10613802575b6137f38183610727565b810190613700565b38806137cb565b503d6137e9565b6138209150843d8611613802576137f38183610727565b3861378e565b5090565b61383e816000526004602052604060002090565b5460ff8160f01c166139455760f81c61393f5761387a61111c61386b836000526004602052604060002090565b5460a01c65ffffffffffff1690565b80156139265765ffffffffffff42168091101561391f5761389a82614478565b106138a55750600190565b6138b161160b8261394c565b80156138fa575b156138c35750600390565b61111c60016138df6138ec936000526004602052604060002090565b015465ffffffffffff1690565b6138f557600490565b600590565b5061391a61160b8260005260096020526040600020600181015490541090565b6138b8565b5050600090565b604051636ad0607560e01b815260048101839052602490fd5b50600290565b5050600790565b60005260096020526040600020600460205265ffffffffffff60406000205460a01c169060405191632394e7a360e21b835280600484015260208360248160018060a01b037f0000000000000000000000000000000000000000000000000000000000000000165afa92831561176f576000936139fc575b506139ce90612c6a565b91828102928184041490151715611d92576139f58160026001606494015491015490613262565b9104111590565b6139ce919350613a199060203d81116117685761175a8183610727565b92906139c4565b600a54600160401b8110156106b5576001810180600a55811015610c6257600a6000527fc65a7bb8d6351c1cf70c95a316cc6a92839c986682d98bc35f958f4883f9d2a80155565b818110613a73575050565b60008155600101613a68565b91818110613a8c57505050565b6107559260005260206000209182019101613a68565b8151916001600160401b0383116106b557600160401b83116106b557613acd83835481855584613a7f565b602080910191600052806000209060005b848110613aec575050505050565b83518382015592810192600101613ade565b9190601f8111613b0d57505050565b610755926000526020600020906020601f840160051c83019310613b39575b601f0160051c0190613a68565b9091508190613b2c565b91909182516001600160401b0381116106b557613b6a81613b648454611e5a565b84613afe565b602080601f8311600114613ba6575081929394600092613b9b575b50508160011b916000199060031b1c1916179055565b015190503880613b85565b90601f19831695613bbc85600052602060002090565b926000905b888210613bf957505083600195969710613be0575b505050811b019055565b015160001960f88460031b161c19169055388080613bd6565b80600185968294968601518155019501930190613bc1565b815191600160401b83116106b5578154838355808410613c6f575b50613c41602080920192600052602060002090565b6000925b848410613c53575050505050565b60018382613c6383945186613b43565b01920193019290613c45565b6000838152846020822092830192015b828110613c8d575050613c2c565b80613c9a60019254611e5a565b80613ca7575b5001613c7f565b601f908181118414613cbf5750508281555b38613ca0565b83613ce192613cd385600052602060002090565b920160051c82019101613a68565b60008181526020812081835555613cb9565b90805180516001600160401b0381116106b557600160401b81116106b557613d2081855481875586613a7f565b6020809201846000528260002060005b838110613d68575050505081613d50606092600394015160018601613aa2565b613d61604082015160028601613c11565b0151910155565b82516001600160a01b03168282015591840191600101613d30565b919493948351613d9b60208601918220838587611ea7565b948451845190818114801590613f6e575b8015613f66575b613f3d57505065ffffffffffff80613dd861386b896000526004602052604060002090565b16613f165786979861055f97613ed384897f7d84a6263ae0d98d3329bd7b46bb4e8d6f98cd35a7adb45c274c8b7fd5ebd5e0958963ffffffff613e2360085493808516904216613262565b9260301c16613eb1613e3f886000526004602052604060002090565b80546001600160a01b0319166001600160a01b038b16178155613e88613e6486613222565b825465ffffffffffff60a01b191660a09190911b65ffffffffffff60a01b16178255565b613e9183614091565b815463ffffffff60d01b191660d09190911b63ffffffff60d01b16179055565b8c613ec6613ebf8651613f79565b9285613262565b94604051998a998a613fc3565b0390a1613edf87613a20565b51902091613eeb610757565b938452602084015260408301526060820152613f1183600052600b602052604060002090565b613cf3565b86613f2081613718565b6040516331b75e4d60e01b815291829161164b9160048401612732565b8451604051630447b05d60e41b8152600481019290925260248201526044810191909152606490fd5b508015613db3565b508451811415613dac565b90613f8382610860565b613f906040519182610727565b8281528092613fa1601f1991610860565b019060005b828110613fb257505050565b806060602080938501015201613fa6565b9592613ff690614004939b9a9899969592885260209b60018060a01b03168c8901526101208060408a0152880190610a43565b908682036060880152610a80565b9784890360808601528251808a52818a019180808360051b8d01019501926000905b83821061406357505050505061055f9697509061404a9184820360a0860152610ab4565b9360c083015260e082015261010081840391015261050e565b909192939583806140828f93600194601f199082030186528a5161050e565b98019201920190939291614026565b63ffffffff908181116140a2571690565b604490604051906306dfcc6560e41b8252602060048301526024820152fd5b949392610b35608093610b276140df9460a08a5260a08a0190610a43565b93600060608201520152565b919261411a60a09461410c614128949998979960c0875260c0870190610a43565b908582036020870152610a80565b908382036040850152610ab4565b946000606083015260808201520152565b9290939160018060a01b03600f541690813b15610411576000936141886040519788958694859463e38335e560e01b86526bffffffffffffffffffffffff193060601b161892600486016140c1565b039134905af190811561176f576000926141b2926141b5575b506000526010602052604060002090565b55565b6141be906106a2565b386141a1565b906141d0939291611ea7565b6141d981613718565b6008811015610d9357603b600160ff83161b16156142d8575061421e614209826000526004602052604060002090565b80546001600160f81b0316600160f81b179055565b6040518181527f789cf55be980739dad1d0699b93b58e806b51c9d96619bfa8fe0a28abaa7b30c90602090a161425e816000526010602052604060002090565b5480614268575090565b600f5461427d906001600160a01b0316612025565b803b156104115760405163c4d252f560e01b815260048101929092526000908290602490829084905af1801561176f576142c5575b5060008181526010602052604081205590565b806121cd6142d2926106a2565b386142b2565b906142fc606492604051926331b75e4d60e01b845260048401526024830190610d98565b603b6044820152fd5b91909165ffffffffffff80809416911601918211611d9257565b92909361255084612752565b93909260ff6143579361055f97958752166020860152604085015260a0606085015260a084019061050e565b91608081840391015261050e565b909260ff60809361055f969584521660208301526040820152816060820152019061050e565b6143a2909291926000526009602052604060002090565b91600383016143cd6143c683839060018060a01b0316600052602052604060002090565b5460ff1690565b614457576143f360ff9392614400929060018060a01b0316600052602052604060002090565b805460ff19166001179055565b1680614417575090614413908254613262565b9055565b6001810361442f575060016144139101918254613262565b6002036144455760026144139101918254613262565b6040516303599be160e11b8152600490fd5b6040516371c6af4960e01b81526001600160a01b0383166004820152602490fd5b8060005260046020526144a960406000205465ffffffffffff91818363ffffffff819460d01c169160a01c16614305565b1691600052600d602052604060002054168082116000146133dc57509056febb7b4a454dc3493923482f07822329ed19e8244eff582cc204f8554c3620c3fda2646970667358221220e242b7e3619d8efed3cafdb418fa2eb3e059e42ff992454e35550c74bfe9634564736f6c63430008140033bb7b4a454dc3493923482f07822329ed19e8244eff582cc204f8554c3620c3fd0553476bf02ef2726e8ce5ced78d63e26e602e4a2257b1f559418e24b4633997",
  "devdoc": {
    "details": "OZGovernor is a smart contract that extends OpenZeppelin's Governor with additional features for voting, timelock, and quorum.",
    "errors": {
      "CheckpointUnorderedInsertion()": [
        {
          "details": "A value was attempted to be inserted on a past checkpoint."
        }
      ],
      "FailedInnerCall()": [
        {
          "details": "A call to an address target failed. The target may have reverted."
        }
      ],
      "GovernorAlreadyCastVote(address)": [
        {
          "details": "The vote was already cast."
        }
      ],
      "GovernorAlreadyQueuedProposal(uint256)": [
        {
          "details": "The proposal has already been queued."
        }
      ],
      "GovernorDisabledDeposit()": [
        {
          "details": "Token deposits are disabled in this contract."
        }
      ],
      "GovernorInsufficientProposerVotes(address,uint256,uint256)": [
        {
          "details": "The `proposer` does not have the required votes to create a proposal."
        }
      ],
      "GovernorInvalidProposalLength(uint256,uint256,uint256)": [
        {
          "details": "Empty proposal or a mismatch between the parameters length for a proposal call."
        }
      ],
      "GovernorInvalidQuorumFraction(uint256,uint256)": [
        {
          "details": "The quorum set is not a valid fraction."
        }
      ],
      "GovernorInvalidSignature(address)": [
        {
          "details": "The provided signature is not valid for the expected `voter`. If the `voter` is a contract, the signature is not valid using {IERC1271-isValidSignature}."
        }
      ],
      "GovernorInvalidVoteType()": [
        {
          "details": "The vote type used is not valid for the corresponding counting module."
        }
      ],
      "GovernorInvalidVotingPeriod(uint256)": [
        {
          "details": "The voting period set is not a valid period."
        }
      ],
      "GovernorNonexistentProposal(uint256)": [
        {
          "details": "The `proposalId` doesn't exist."
        }
      ],
      "GovernorNotQueuedProposal(uint256)": [
        {
          "details": "The proposal hasn't been queued yet."
        }
      ],
      "GovernorOnlyExecutor(address)": [
        {
          "details": "The `account` is not the governance executor."
        }
      ],
      "GovernorOnlyProposer(address)": [
        {
          "details": "The `account` is not a proposer."
        }
      ],
      "GovernorQueueNotImplemented()": [
        {
          "details": "Queue operation is not implemented for this governor. Execute should be called directly."
        }
      ],
      "GovernorRestrictedProposer(address)": [
        {
          "details": "The `proposer` is not allowed to create a proposal."
        }
      ],
      "GovernorUnexpectedProposalState(uint256,uint8,bytes32)": [
        {
          "details": "The current state of a proposal is not the required for performing an operation. The `expectedStates` is a bitmap with the bits enabled for each ProposalState enum position counting from right to left. NOTE: If `expectedState` is `bytes32(0)`, the proposal is expected to not be in any state (i.e. not exist). This is the case when a proposal that is expected to be unset is already initiated (the proposal is duplicated). See {Governor-_encodeStateBitmap}."
        }
      ],
      "InvalidAccountNonce(address,uint256)": [
        {
          "details": "The nonce used for an `account` is not the expected current nonce."
        }
      ],
      "QueueEmpty()": [
        {
          "details": "An operation (e.g. {front}) couldn't be completed due to the queue being empty."
        }
      ],
      "QueueFull()": [
        {
          "details": "A push operation couldn't be completed due to the queue being full."
        }
      ],
      "SafeCastOverflowedUintDowncast(uint8,uint256)": [
        {
          "details": "Value doesn't fit in an uint of `bits` size."
        }
      ]
    },
    "events": {
      "EIP712DomainChanged()": {
        "details": "MAY be emitted to signal that the domain could have changed."
      },
      "LateQuorumVoteExtensionSet(uint64,uint64)": {
        "details": "Emitted when the {lateQuorumVoteExtension} parameter is changed."
      },
      "ProposalCanceled(uint256)": {
        "details": "Emitted when a proposal is canceled."
      },
      "ProposalCreated(uint256,address,address[],uint256[],string[],bytes[],uint256,uint256,string)": {
        "details": "Emitted when a proposal is created."
      },
      "ProposalExecuted(uint256)": {
        "details": "Emitted when a proposal is executed."
      },
      "ProposalExtended(uint256,uint64)": {
        "details": "Emitted when a proposal deadline is pushed back due to reaching quorum late in its voting period."
      },
      "ProposalQueued(uint256,uint256)": {
        "details": "Emitted when a proposal is queued."
      },
      "TimelockChange(address,address)": {
        "details": "Emitted when the timelock controller used for proposal execution is modified."
      },
      "VoteCast(address,uint256,uint8,uint256,string)": {
        "details": "Emitted when a vote is cast without params. Note: `support` values should be seen as buckets. Their interpretation depends on the voting module used."
      },
      "VoteCastWithParams(address,uint256,uint8,uint256,string,bytes)": {
        "details": "Emitted when a vote is cast with params. Note: `support` values should be seen as buckets. Their interpretation depends on the voting module used. `params` are additional encoded parameters. Their interpepretation also depends on the voting module used."
      }
    },
    "kind": "dev",
    "methods": {
      "CLOCK_MODE()": {
        "details": "Returns the clock mode as a string.",
        "returns": {
          "_0": "The clock mode."
        }
      },
      "COUNTING_MODE()": {
        "details": "See {IGovernor-COUNTING_MODE}."
      },
      "cancel(address[],uint256[],bytes[],bytes32)": {
        "details": "See {IGovernor-cancel}."
      },
      "cancel(uint256)": {
        "details": "ProposalId version of {IGovernor-cancel}."
      },
      "castVote(uint256,uint8)": {
        "details": "See {IGovernor-castVote}."
      },
      "castVoteBySig(uint256,uint8,address,bytes)": {
        "details": "See {IGovernor-castVoteBySig}."
      },
      "castVoteWithReason(uint256,uint8,string)": {
        "details": "See {IGovernor-castVoteWithReason}."
      },
      "castVoteWithReasonAndParams(uint256,uint8,string,bytes)": {
        "details": "See {IGovernor-castVoteWithReasonAndParams}."
      },
      "castVoteWithReasonAndParamsBySig(uint256,uint8,address,string,bytes,bytes)": {
        "details": "See {IGovernor-castVoteWithReasonAndParamsBySig}."
      },
      "clock()": {
        "details": "Returns the current timestamp as a `uint48`.",
        "returns": {
          "_0": "The current timestamp."
        }
      },
      "constructor": {
        "details": "Initializes the OZGovernor contract.",
        "params": {
          "_initialVoteExtension": ",",
          "_name": "The name of the governor.",
          "_quorumNumeratorValue": ", 4, numerator value for quorum",
          "_timelock": "The timelock controller.",
          "_token": "The voting token."
        }
      },
      "eip712Domain()": {
        "details": "See {IERC-5267}."
      },
      "execute(address[],uint256[],bytes[],bytes32)": {
        "details": "See {IGovernor-execute}."
      },
      "execute(uint256)": {
        "details": "Version of {IGovernor-execute} with only `proposalId` as an argument."
      },
      "getVotes(address,uint256)": {
        "details": "See {IGovernor-getVotes}."
      },
      "getVotesWithParams(address,uint256,bytes)": {
        "details": "See {IGovernor-getVotesWithParams}."
      },
      "hasVoted(uint256,address)": {
        "details": "See {IGovernor-hasVoted}."
      },
      "hashProposal(address[],uint256[],bytes[],bytes32)": {
        "details": "See {IGovernor-hashProposal}. The proposal id is produced by hashing the ABI encoded `targets` array, the `values` array, the `calldatas` array and the descriptionHash (bytes32 which itself is the keccak256 hash of the description string). This proposal id can be produced from the proposal data which is part of the {ProposalCreated} event. It can even be computed in advance, before the proposal is submitted. Note that the chainId and the governor address are not part of the proposal id computation. Consequently, the same proposal (with same operation and same description) will have the same id if submitted on multiple governors across multiple networks. This also means that in order to execute the same operation twice (on the same governor) the proposer will have to change the description in order to avoid proposal id conflicts."
      },
      "lateQuorumVoteExtension()": {
        "details": "Returns the current value of the vote extension parameter: the number of blocks that are required to pass from the time a proposal reaches quorum until its voting period ends."
      },
      "name()": {
        "details": "See {IGovernor-name}."
      },
      "nonces(address)": {
        "details": "Returns the next unused nonce for an address."
      },
      "onERC1155BatchReceived(address,address,uint256[],uint256[],bytes)": {
        "details": "See {IERC1155Receiver-onERC1155BatchReceived}. Receiving tokens is disabled if the governance executor is other than the governor itself (eg. when using with a timelock)."
      },
      "onERC1155Received(address,address,uint256,uint256,bytes)": {
        "details": "See {IERC1155Receiver-onERC1155Received}. Receiving tokens is disabled if the governance executor is other than the governor itself (eg. when using with a timelock)."
      },
      "onERC721Received(address,address,uint256,bytes)": {
        "details": "See {IERC721Receiver-onERC721Received}. Receiving tokens is disabled if the governance executor is other than the governor itself (eg. when using with a timelock)."
      },
      "proposalCount()": {
        "details": "Returns the number of stored proposals."
      },
      "proposalDeadline(uint256)": {
        "params": {
          "proposalId": "The ID of the proposal to query."
        },
        "returns": {
          "_0": "The deadline for submitting proposals."
        }
      },
      "proposalDetails(uint256)": {
        "details": "Returns the details of a proposalId. Reverts if `proposalId` is not a known proposal."
      },
      "proposalDetailsAt(uint256)": {
        "details": "Returns the details (including the proposalId) of a proposal given its sequential index."
      },
      "proposalEta(uint256)": {
        "details": "See {IGovernor-proposalEta}."
      },
      "proposalNeedsQueuing(uint256)": {
        "params": {
          "proposalId": "The ID of the proposal to check."
        },
        "returns": {
          "_0": "A boolean indicating whether the proposal needs to be queued."
        }
      },
      "proposalProposer(uint256)": {
        "details": "See {IGovernor-proposalProposer}."
      },
      "proposalSnapshot(uint256)": {
        "details": "See {IGovernor-proposalSnapshot}."
      },
      "proposalThreshold()": {
        "returns": {
          "_0": "The threshold required for a proposal to be enacted."
        }
      },
      "proposalVotes(uint256)": {
        "details": "Accessor to the internal vote counts."
      },
      "propose(address[],uint256[],bytes[],string)": {
        "details": "See {IGovernor-propose}. This function has opt-in frontrunning protection, described in {_isValidDescriptionForProposer}."
      },
      "queue(address[],uint256[],bytes[],bytes32)": {
        "details": "See {IGovernor-queue}."
      },
      "queue(uint256)": {
        "details": "Version of {IGovernorTimelock-queue} with only `proposalId` as an argument."
      },
      "quorum(uint256)": {
        "params": {
          "blockNumber": "The block number for which to determine the quorum."
        },
        "returns": {
          "_0": "The required quorum at the given block number."
        }
      },
      "quorumDenominator()": {
        "details": "Returns the quorum denominator. Defaults to 100, but may be overridden."
      },
      "quorumNumerator()": {
        "details": "Returns the current quorum numerator. See {quorumDenominator}."
      },
      "quorumNumerator(uint256)": {
        "details": "Returns the quorum numerator at a specific timepoint. See {quorumDenominator}."
      },
      "relay(address,uint256,bytes)": {
        "details": "Relays a transaction or function call to an arbitrary target. In cases where the governance executor is some contract other than the governor itself, like when using a timelock, this function can be invoked in a governance proposal to recover tokens or Ether that was sent to the governor contract by mistake. Note that if the executor is simply the governor itself, use of `relay` is redundant."
      },
      "setLateQuorumVoteExtension(uint48)": {
        "details": "Changes the {lateQuorumVoteExtension}. This operation can only be performed by the governance executor, generally through a governance proposal. Emits a {LateQuorumVoteExtensionSet} event."
      },
      "setProposalThreshold(uint256)": {
        "details": "Update the proposal threshold. This operation can only be performed through a governance proposal. Emits a {ProposalThresholdSet} event."
      },
      "setVotingDelay(uint48)": {
        "details": "Update the voting delay. This operation can only be performed through a governance proposal. Emits a {VotingDelaySet} event."
      },
      "setVotingPeriod(uint32)": {
        "details": "Update the voting period. This operation can only be performed through a governance proposal. Emits a {VotingPeriodSet} event."
      },
      "state(uint256)": {
        "params": {
          "proposalId": "The ID of the proposal to query."
        },
        "returns": {
          "_0": "The current state of the proposal (e.g., Pending, Active, Canceled, Defeated, Succeeded, Queued, Executed)."
        }
      },
      "supportsInterface(bytes4)": {
        "details": "See {IERC165-supportsInterface}."
      },
      "timelock()": {
        "details": "Public accessor to check the address of the timelock"
      },
      "token()": {
        "details": "The token that voting power is sourced from."
      },
      "updateQuorumNumerator(uint256)": {
        "details": "Changes the quorum numerator. Emits a {QuorumNumeratorUpdated} event. Requirements: - Must be called through a governance proposal. - New numerator must be smaller or equal to the denominator."
      },
      "updateTimelock(address)": {
        "details": "Public endpoint to update the underlying timelock instance. Restricted to the timelock itself, so updates must be proposed, scheduled, and executed through governance proposals. CAUTION: It is not recommended to change the timelock while there are other queued governance proposals."
      },
      "version()": {
        "details": "See {IGovernor-version}."
      },
      "votingDelay()": {
        "returns": {
          "_0": "The configured voting delay."
        }
      },
      "votingPeriod()": {
        "returns": {
          "_0": "The configured voting period."
        }
      }
    },
    "title": "OZGovernor",
    "version": 1
  },
  "userdoc": {
    "kind": "user",
    "methods": {
      "proposalDeadline(uint256)": {
        "notice": "Retrieves the deadline for submitting proposals."
      },
      "proposalNeedsQueuing(uint256)": {
        "notice": "Checks if a proposal needs to be queued."
      },
      "proposalThreshold()": {
        "notice": "Retrieves the threshold required for a proposal to be enacted."
      },
      "quorum(uint256)": {
        "notice": "Retrieves the quorum required for a vote to succeed."
      },
      "state(uint256)": {
        "notice": "Retrieves the current state of a proposal."
      },
      "votingDelay()": {
        "notice": "Retrieves the voting delay configured in the settings."
      },
      "votingPeriod()": {
        "notice": "Retrieves the voting period configured in the settings."
      }
    },
    "version": 1
  },
  "storageLayout": {
    "storage": [
      {
        "astId": 6796,
        "contract": "contracts/CrowdFlixDaoGovernor.sol:CrowdFlixDaoGovernor",
        "label": "_nameFallback",
        "offset": 0,
        "slot": "0",
        "type": "t_string_storage"
      },
      {
        "astId": 6798,
        "contract": "contracts/CrowdFlixDaoGovernor.sol:CrowdFlixDaoGovernor",
        "label": "_versionFallback",
        "offset": 0,
        "slot": "1",
        "type": "t_string_storage"
      },
      {
        "astId": 5775,
        "contract": "contracts/CrowdFlixDaoGovernor.sol:CrowdFlixDaoGovernor",
        "label": "_nonces",
        "offset": 0,
        "slot": "2",
        "type": "t_mapping(t_address,t_uint256)"
      },
      {
        "astId": 468,
        "contract": "contracts/CrowdFlixDaoGovernor.sol:CrowdFlixDaoGovernor",
        "label": "_name",
        "offset": 0,
        "slot": "3",
        "type": "t_string_storage"
      },
      {
        "astId": 473,
        "contract": "contracts/CrowdFlixDaoGovernor.sol:CrowdFlixDaoGovernor",
        "label": "_proposals",
        "offset": 0,
        "slot": "4",
        "type": "t_mapping(t_uint256,t_struct(ProposalCore)446_storage)"
      },
      {
        "astId": 476,
        "contract": "contracts/CrowdFlixDaoGovernor.sol:CrowdFlixDaoGovernor",
        "label": "_governanceCall",
        "offset": 0,
        "slot": "5",
        "type": "t_struct(Bytes32Deque)11705_storage"
      },
      {
        "astId": 4066,
        "contract": "contracts/CrowdFlixDaoGovernor.sol:CrowdFlixDaoGovernor",
        "label": "_proposalThreshold",
        "offset": 0,
        "slot": "7",
        "type": "t_uint256"
      },
      {
        "astId": 4068,
        "contract": "contracts/CrowdFlixDaoGovernor.sol:CrowdFlixDaoGovernor",
        "label": "_votingDelay",
        "offset": 0,
        "slot": "8",
        "type": "t_uint48"
      },
      {
        "astId": 4070,
        "contract": "contracts/CrowdFlixDaoGovernor.sol:CrowdFlixDaoGovernor",
        "label": "_votingPeriod",
        "offset": 6,
        "slot": "8",
        "type": "t_uint32"
      },
      {
        "astId": 3689,
        "contract": "contracts/CrowdFlixDaoGovernor.sol:CrowdFlixDaoGovernor",
        "label": "_proposalVotes",
        "offset": 0,
        "slot": "9",
        "type": "t_mapping(t_uint256,t_struct(ProposalVote)3684_storage)"
      },
      {
        "astId": 4260,
        "contract": "contracts/CrowdFlixDaoGovernor.sol:CrowdFlixDaoGovernor",
        "label": "_proposalIds",
        "offset": 0,
        "slot": "10",
        "type": "t_array(t_uint256)dyn_storage"
      },
      {
        "astId": 4265,
        "contract": "contracts/CrowdFlixDaoGovernor.sol:CrowdFlixDaoGovernor",
        "label": "_proposalDetails",
        "offset": 0,
        "slot": "11",
        "type": "t_mapping(t_uint256,t_struct(ProposalDetails)4257_storage)"
      },
      {
        "astId": 3900,
        "contract": "contracts/CrowdFlixDaoGovernor.sol:CrowdFlixDaoGovernor",
        "label": "_voteExtension",
        "offset": 0,
        "slot": "12",
        "type": "t_uint48"
      },
      {
        "astId": 3904,
        "contract": "contracts/CrowdFlixDaoGovernor.sol:CrowdFlixDaoGovernor",
        "label": "_extendedDeadlines",
        "offset": 0,
        "slot": "13",
        "type": "t_mapping(t_uint256,t_uint48)"
      },
      {
        "astId": 4981,
        "contract": "contracts/CrowdFlixDaoGovernor.sol:CrowdFlixDaoGovernor",
        "label": "_quorumNumeratorHistory",
        "offset": 0,
        "slot": "14",
        "type": "t_struct(Trace208)10645_storage"
      },
      {
        "astId": 4519,
        "contract": "contracts/CrowdFlixDaoGovernor.sol:CrowdFlixDaoGovernor",
        "label": "_timelock",
        "offset": 0,
        "slot": "15",
        "type": "t_contract(TimelockController)3661"
      },
      {
        "astId": 4523,
        "contract": "contracts/CrowdFlixDaoGovernor.sol:CrowdFlixDaoGovernor",
        "label": "_timelockIds",
        "offset": 0,
        "slot": "16",
        "type": "t_mapping(t_uint256,t_bytes32)"
      }
    ],
    "types": {
      "t_address": {
        "encoding": "inplace",
        "label": "address",
        "numberOfBytes": "20"
      },
      "t_array(t_address)dyn_storage": {
        "base": "t_address",
        "encoding": "dynamic_array",
        "label": "address[]",
        "numberOfBytes": "32"
      },
      "t_array(t_bytes_storage)dyn_storage": {
        "base": "t_bytes_storage",
        "encoding": "dynamic_array",
        "label": "bytes[]",
        "numberOfBytes": "32"
      },
      "t_array(t_struct(Checkpoint208)10650_storage)dyn_storage": {
        "base": "t_struct(Checkpoint208)10650_storage",
        "encoding": "dynamic_array",
        "label": "struct Checkpoints.Checkpoint208[]",
        "numberOfBytes": "32"
      },
      "t_array(t_uint256)dyn_storage": {
        "base": "t_uint256",
        "encoding": "dynamic_array",
        "label": "uint256[]",
        "numberOfBytes": "32"
      },
      "t_bool": {
        "encoding": "inplace",
        "label": "bool",
        "numberOfBytes": "1"
      },
      "t_bytes32": {
        "encoding": "inplace",
        "label": "bytes32",
        "numberOfBytes": "32"
      },
      "t_bytes_storage": {
        "encoding": "bytes",
        "label": "bytes",
        "numberOfBytes": "32"
      },
      "t_contract(TimelockController)3661": {
        "encoding": "inplace",
        "label": "contract TimelockController",
        "numberOfBytes": "20"
      },
      "t_mapping(t_address,t_bool)": {
        "encoding": "mapping",
        "key": "t_address",
        "label": "mapping(address => bool)",
        "numberOfBytes": "32",
        "value": "t_bool"
      },
      "t_mapping(t_address,t_uint256)": {
        "encoding": "mapping",
        "key": "t_address",
        "label": "mapping(address => uint256)",
        "numberOfBytes": "32",
        "value": "t_uint256"
      },
      "t_mapping(t_uint128,t_bytes32)": {
        "encoding": "mapping",
        "key": "t_uint128",
        "label": "mapping(uint128 => bytes32)",
        "numberOfBytes": "32",
        "value": "t_bytes32"
      },
      "t_mapping(t_uint256,t_bytes32)": {
        "encoding": "mapping",
        "key": "t_uint256",
        "label": "mapping(uint256 => bytes32)",
        "numberOfBytes": "32",
        "value": "t_bytes32"
      },
      "t_mapping(t_uint256,t_struct(ProposalCore)446_storage)": {
        "encoding": "mapping",
        "key": "t_uint256",
        "label": "mapping(uint256 => struct Governor.ProposalCore)",
        "numberOfBytes": "32",
        "value": "t_struct(ProposalCore)446_storage"
      },
      "t_mapping(t_uint256,t_struct(ProposalDetails)4257_storage)": {
        "encoding": "mapping",
        "key": "t_uint256",
        "label": "mapping(uint256 => struct GovernorStorage.ProposalDetails)",
        "numberOfBytes": "32",
        "value": "t_struct(ProposalDetails)4257_storage"
      },
      "t_mapping(t_uint256,t_struct(ProposalVote)3684_storage)": {
        "encoding": "mapping",
        "key": "t_uint256",
        "label": "mapping(uint256 => struct GovernorCountingSimple.ProposalVote)",
        "numberOfBytes": "32",
        "value": "t_struct(ProposalVote)3684_storage"
      },
      "t_mapping(t_uint256,t_uint48)": {
        "encoding": "mapping",
        "key": "t_uint256",
        "label": "mapping(uint256 => uint48)",
        "numberOfBytes": "32",
        "value": "t_uint48"
      },
      "t_string_storage": {
        "encoding": "bytes",
        "label": "string",
        "numberOfBytes": "32"
      },
      "t_struct(Bytes32Deque)11705_storage": {
        "encoding": "inplace",
        "label": "struct DoubleEndedQueue.Bytes32Deque",
        "members": [
          {
            "astId": 11698,
            "contract": "contracts/CrowdFlixDaoGovernor.sol:CrowdFlixDaoGovernor",
            "label": "_begin",
            "offset": 0,
            "slot": "0",
            "type": "t_uint128"
          },
          {
            "astId": 11700,
            "contract": "contracts/CrowdFlixDaoGovernor.sol:CrowdFlixDaoGovernor",
            "label": "_end",
            "offset": 16,
            "slot": "0",
            "type": "t_uint128"
          },
          {
            "astId": 11704,
            "contract": "contracts/CrowdFlixDaoGovernor.sol:CrowdFlixDaoGovernor",
            "label": "_data",
            "offset": 0,
            "slot": "1",
            "type": "t_mapping(t_uint128,t_bytes32)"
          }
        ],
        "numberOfBytes": "64"
      },
      "t_struct(Checkpoint208)10650_storage": {
        "encoding": "inplace",
        "label": "struct Checkpoints.Checkpoint208",
        "members": [
          {
            "astId": 10647,
            "contract": "contracts/CrowdFlixDaoGovernor.sol:CrowdFlixDaoGovernor",
            "label": "_key",
            "offset": 0,
            "slot": "0",
            "type": "t_uint48"
          },
          {
            "astId": 10649,
            "contract": "contracts/CrowdFlixDaoGovernor.sol:CrowdFlixDaoGovernor",
            "label": "_value",
            "offset": 6,
            "slot": "0",
            "type": "t_uint208"
          }
        ],
        "numberOfBytes": "32"
      },
      "t_struct(ProposalCore)446_storage": {
        "encoding": "inplace",
        "label": "struct Governor.ProposalCore",
        "members": [
          {
            "astId": 435,
            "contract": "contracts/CrowdFlixDaoGovernor.sol:CrowdFlixDaoGovernor",
            "label": "proposer",
            "offset": 0,
            "slot": "0",
            "type": "t_address"
          },
          {
            "astId": 437,
            "contract": "contracts/CrowdFlixDaoGovernor.sol:CrowdFlixDaoGovernor",
            "label": "voteStart",
            "offset": 20,
            "slot": "0",
            "type": "t_uint48"
          },
          {
            "astId": 439,
            "contract": "contracts/CrowdFlixDaoGovernor.sol:CrowdFlixDaoGovernor",
            "label": "voteDuration",
            "offset": 26,
            "slot": "0",
            "type": "t_uint32"
          },
          {
            "astId": 441,
            "contract": "contracts/CrowdFlixDaoGovernor.sol:CrowdFlixDaoGovernor",
            "label": "executed",
            "offset": 30,
            "slot": "0",
            "type": "t_bool"
          },
          {
            "astId": 443,
            "contract": "contracts/CrowdFlixDaoGovernor.sol:CrowdFlixDaoGovernor",
            "label": "canceled",
            "offset": 31,
            "slot": "0",
            "type": "t_bool"
          },
          {
            "astId": 445,
            "contract": "contracts/CrowdFlixDaoGovernor.sol:CrowdFlixDaoGovernor",
            "label": "etaSeconds",
            "offset": 0,
            "slot": "1",
            "type": "t_uint48"
          }
        ],
        "numberOfBytes": "64"
      },
      "t_struct(ProposalDetails)4257_storage": {
        "encoding": "inplace",
        "label": "struct GovernorStorage.ProposalDetails",
        "members": [
          {
            "astId": 4248,
            "contract": "contracts/CrowdFlixDaoGovernor.sol:CrowdFlixDaoGovernor",
            "label": "targets",
            "offset": 0,
            "slot": "0",
            "type": "t_array(t_address)dyn_storage"
          },
          {
            "astId": 4251,
            "contract": "contracts/CrowdFlixDaoGovernor.sol:CrowdFlixDaoGovernor",
            "label": "values",
            "offset": 0,
            "slot": "1",
            "type": "t_array(t_uint256)dyn_storage"
          },
          {
            "astId": 4254,
            "contract": "contracts/CrowdFlixDaoGovernor.sol:CrowdFlixDaoGovernor",
            "label": "calldatas",
            "offset": 0,
            "slot": "2",
            "type": "t_array(t_bytes_storage)dyn_storage"
          },
          {
            "astId": 4256,
            "contract": "contracts/CrowdFlixDaoGovernor.sol:CrowdFlixDaoGovernor",
            "label": "descriptionHash",
            "offset": 0,
            "slot": "3",
            "type": "t_bytes32"
          }
        ],
        "numberOfBytes": "128"
      },
      "t_struct(ProposalVote)3684_storage": {
        "encoding": "inplace",
        "label": "struct GovernorCountingSimple.ProposalVote",
        "members": [
          {
            "astId": 3675,
            "contract": "contracts/CrowdFlixDaoGovernor.sol:CrowdFlixDaoGovernor",
            "label": "againstVotes",
            "offset": 0,
            "slot": "0",
            "type": "t_uint256"
          },
          {
            "astId": 3677,
            "contract": "contracts/CrowdFlixDaoGovernor.sol:CrowdFlixDaoGovernor",
            "label": "forVotes",
            "offset": 0,
            "slot": "1",
            "type": "t_uint256"
          },
          {
            "astId": 3679,
            "contract": "contracts/CrowdFlixDaoGovernor.sol:CrowdFlixDaoGovernor",
            "label": "abstainVotes",
            "offset": 0,
            "slot": "2",
            "type": "t_uint256"
          },
          {
            "astId": 3683,
            "contract": "contracts/CrowdFlixDaoGovernor.sol:CrowdFlixDaoGovernor",
            "label": "hasVoted",
            "offset": 0,
            "slot": "3",
            "type": "t_mapping(t_address,t_bool)"
          }
        ],
        "numberOfBytes": "128"
      },
      "t_struct(Trace208)10645_storage": {
        "encoding": "inplace",
        "label": "struct Checkpoints.Trace208",
        "members": [
          {
            "astId": 10644,
            "contract": "contracts/CrowdFlixDaoGovernor.sol:CrowdFlixDaoGovernor",
            "label": "_checkpoints",
            "offset": 0,
            "slot": "0",
            "type": "t_array(t_struct(Checkpoint208)10650_storage)dyn_storage"
          }
        ],
        "numberOfBytes": "32"
      },
      "t_uint128": {
        "encoding": "inplace",
        "label": "uint128",
        "numberOfBytes": "16"
      },
      "t_uint208": {
        "encoding": "inplace",
        "label": "uint208",
        "numberOfBytes": "26"
      },
      "t_uint256": {
        "encoding": "inplace",
        "label": "uint256",
        "numberOfBytes": "32"
      },
      "t_uint32": {
        "encoding": "inplace",
        "label": "uint32",
        "numberOfBytes": "4"
      },
      "t_uint48": {
        "encoding": "inplace",
        "label": "uint48",
        "numberOfBytes": "6"
      }
    }
  }
}