{
  "address": "0x680CB1c26DEa1075bf02469fCf2007520C656689",
  "abi": [
    {
      "inputs": [
        {
          "internalType": "address",
          "name": "defaultAdmin",
          "type": "address"
        },
        {
          "internalType": "address",
          "name": "pauser",
          "type": "address"
        },
        {
          "internalType": "address",
          "name": "minter",
          "type": "address"
        }
      ],
      "stateMutability": "nonpayable",
      "type": "constructor"
    },
    {
      "inputs": [],
      "name": "AccessControlBadConfirmation",
      "type": "error"
    },
    {
      "inputs": [
        {
          "internalType": "address",
          "name": "account",
          "type": "address"
        },
        {
          "internalType": "bytes32",
          "name": "neededRole",
          "type": "bytes32"
        }
      ],
      "name": "AccessControlUnauthorizedAccount",
      "type": "error"
    },
    {
      "inputs": [],
      "name": "CheckpointUnorderedInsertion",
      "type": "error"
    },
    {
      "inputs": [],
      "name": "ECDSAInvalidSignature",
      "type": "error"
    },
    {
      "inputs": [
        {
          "internalType": "uint256",
          "name": "length",
          "type": "uint256"
        }
      ],
      "name": "ECDSAInvalidSignatureLength",
      "type": "error"
    },
    {
      "inputs": [
        {
          "internalType": "bytes32",
          "name": "s",
          "type": "bytes32"
        }
      ],
      "name": "ECDSAInvalidSignatureS",
      "type": "error"
    },
    {
      "inputs": [
        {
          "internalType": "uint256",
          "name": "increasedSupply",
          "type": "uint256"
        },
        {
          "internalType": "uint256",
          "name": "cap",
          "type": "uint256"
        }
      ],
      "name": "ERC20ExceededSafeSupply",
      "type": "error"
    },
    {
      "inputs": [
        {
          "internalType": "address",
          "name": "spender",
          "type": "address"
        },
        {
          "internalType": "uint256",
          "name": "allowance",
          "type": "uint256"
        },
        {
          "internalType": "uint256",
          "name": "needed",
          "type": "uint256"
        }
      ],
      "name": "ERC20InsufficientAllowance",
      "type": "error"
    },
    {
      "inputs": [
        {
          "internalType": "address",
          "name": "sender",
          "type": "address"
        },
        {
          "internalType": "uint256",
          "name": "balance",
          "type": "uint256"
        },
        {
          "internalType": "uint256",
          "name": "needed",
          "type": "uint256"
        }
      ],
      "name": "ERC20InsufficientBalance",
      "type": "error"
    },
    {
      "inputs": [
        {
          "internalType": "address",
          "name": "approver",
          "type": "address"
        }
      ],
      "name": "ERC20InvalidApprover",
      "type": "error"
    },
    {
      "inputs": [
        {
          "internalType": "address",
          "name": "receiver",
          "type": "address"
        }
      ],
      "name": "ERC20InvalidReceiver",
      "type": "error"
    },
    {
      "inputs": [
        {
          "internalType": "address",
          "name": "sender",
          "type": "address"
        }
      ],
      "name": "ERC20InvalidSender",
      "type": "error"
    },
    {
      "inputs": [
        {
          "internalType": "address",
          "name": "spender",
          "type": "address"
        }
      ],
      "name": "ERC20InvalidSpender",
      "type": "error"
    },
    {
      "inputs": [
        {
          "internalType": "uint256",
          "name": "deadline",
          "type": "uint256"
        }
      ],
      "name": "ERC2612ExpiredSignature",
      "type": "error"
    },
    {
      "inputs": [
        {
          "internalType": "address",
          "name": "signer",
          "type": "address"
        },
        {
          "internalType": "address",
          "name": "owner",
          "type": "address"
        }
      ],
      "name": "ERC2612InvalidSigner",
      "type": "error"
    },
    {
      "inputs": [
        {
          "internalType": "uint256",
          "name": "timepoint",
          "type": "uint256"
        },
        {
          "internalType": "uint48",
          "name": "clock",
          "type": "uint48"
        }
      ],
      "name": "ERC5805FutureLookup",
      "type": "error"
    },
    {
      "inputs": [],
      "name": "ERC6372InconsistentClock",
      "type": "error"
    },
    {
      "inputs": [],
      "name": "EnforcedPause",
      "type": "error"
    },
    {
      "inputs": [],
      "name": "ExpectedPause",
      "type": "error"
    },
    {
      "inputs": [
        {
          "internalType": "address",
          "name": "account",
          "type": "address"
        },
        {
          "internalType": "uint256",
          "name": "currentNonce",
          "type": "uint256"
        }
      ],
      "name": "InvalidAccountNonce",
      "type": "error"
    },
    {
      "inputs": [],
      "name": "InvalidShortString",
      "type": "error"
    },
    {
      "inputs": [
        {
          "internalType": "uint8",
          "name": "bits",
          "type": "uint8"
        },
        {
          "internalType": "uint256",
          "name": "value",
          "type": "uint256"
        }
      ],
      "name": "SafeCastOverflowedUintDowncast",
      "type": "error"
    },
    {
      "inputs": [
        {
          "internalType": "string",
          "name": "str",
          "type": "string"
        }
      ],
      "name": "StringTooLong",
      "type": "error"
    },
    {
      "inputs": [
        {
          "internalType": "uint256",
          "name": "expiry",
          "type": "uint256"
        }
      ],
      "name": "VotesExpiredSignature",
      "type": "error"
    },
    {
      "anonymous": false,
      "inputs": [
        {
          "indexed": true,
          "internalType": "address",
          "name": "owner",
          "type": "address"
        },
        {
          "indexed": true,
          "internalType": "address",
          "name": "spender",
          "type": "address"
        },
        {
          "indexed": false,
          "internalType": "uint256",
          "name": "value",
          "type": "uint256"
        }
      ],
      "name": "Approval",
      "type": "event"
    },
    {
      "anonymous": false,
      "inputs": [
        {
          "indexed": true,
          "internalType": "address",
          "name": "delegator",
          "type": "address"
        },
        {
          "indexed": true,
          "internalType": "address",
          "name": "fromDelegate",
          "type": "address"
        },
        {
          "indexed": true,
          "internalType": "address",
          "name": "toDelegate",
          "type": "address"
        }
      ],
      "name": "DelegateChanged",
      "type": "event"
    },
    {
      "anonymous": false,
      "inputs": [
        {
          "indexed": true,
          "internalType": "address",
          "name": "delegate",
          "type": "address"
        },
        {
          "indexed": false,
          "internalType": "uint256",
          "name": "previousVotes",
          "type": "uint256"
        },
        {
          "indexed": false,
          "internalType": "uint256",
          "name": "newVotes",
          "type": "uint256"
        }
      ],
      "name": "DelegateVotesChanged",
      "type": "event"
    },
    {
      "anonymous": false,
      "inputs": [],
      "name": "EIP712DomainChanged",
      "type": "event"
    },
    {
      "anonymous": false,
      "inputs": [
        {
          "indexed": false,
          "internalType": "address",
          "name": "account",
          "type": "address"
        }
      ],
      "name": "Paused",
      "type": "event"
    },
    {
      "anonymous": false,
      "inputs": [
        {
          "indexed": true,
          "internalType": "bytes32",
          "name": "role",
          "type": "bytes32"
        },
        {
          "indexed": true,
          "internalType": "bytes32",
          "name": "previousAdminRole",
          "type": "bytes32"
        },
        {
          "indexed": true,
          "internalType": "bytes32",
          "name": "newAdminRole",
          "type": "bytes32"
        }
      ],
      "name": "RoleAdminChanged",
      "type": "event"
    },
    {
      "anonymous": false,
      "inputs": [
        {
          "indexed": true,
          "internalType": "bytes32",
          "name": "role",
          "type": "bytes32"
        },
        {
          "indexed": true,
          "internalType": "address",
          "name": "account",
          "type": "address"
        },
        {
          "indexed": true,
          "internalType": "address",
          "name": "sender",
          "type": "address"
        }
      ],
      "name": "RoleGranted",
      "type": "event"
    },
    {
      "anonymous": false,
      "inputs": [
        {
          "indexed": true,
          "internalType": "bytes32",
          "name": "role",
          "type": "bytes32"
        },
        {
          "indexed": true,
          "internalType": "address",
          "name": "account",
          "type": "address"
        },
        {
          "indexed": true,
          "internalType": "address",
          "name": "sender",
          "type": "address"
        }
      ],
      "name": "RoleRevoked",
      "type": "event"
    },
    {
      "anonymous": false,
      "inputs": [
        {
          "indexed": true,
          "internalType": "address",
          "name": "from",
          "type": "address"
        },
        {
          "indexed": true,
          "internalType": "address",
          "name": "to",
          "type": "address"
        },
        {
          "indexed": false,
          "internalType": "uint256",
          "name": "value",
          "type": "uint256"
        }
      ],
      "name": "Transfer",
      "type": "event"
    },
    {
      "anonymous": false,
      "inputs": [
        {
          "indexed": false,
          "internalType": "address",
          "name": "account",
          "type": "address"
        }
      ],
      "name": "Unpaused",
      "type": "event"
    },
    {
      "inputs": [],
      "name": "CLOCK_MODE",
      "outputs": [
        {
          "internalType": "string",
          "name": "",
          "type": "string"
        }
      ],
      "stateMutability": "pure",
      "type": "function"
    },
    {
      "inputs": [],
      "name": "DEFAULT_ADMIN_ROLE",
      "outputs": [
        {
          "internalType": "bytes32",
          "name": "",
          "type": "bytes32"
        }
      ],
      "stateMutability": "view",
      "type": "function"
    },
    {
      "inputs": [],
      "name": "DOMAIN_SEPARATOR",
      "outputs": [
        {
          "internalType": "bytes32",
          "name": "",
          "type": "bytes32"
        }
      ],
      "stateMutability": "view",
      "type": "function"
    },
    {
      "inputs": [],
      "name": "MINTER_ROLE",
      "outputs": [
        {
          "internalType": "bytes32",
          "name": "",
          "type": "bytes32"
        }
      ],
      "stateMutability": "view",
      "type": "function"
    },
    {
      "inputs": [],
      "name": "PAUSER_ROLE",
      "outputs": [
        {
          "internalType": "bytes32",
          "name": "",
          "type": "bytes32"
        }
      ],
      "stateMutability": "view",
      "type": "function"
    },
    {
      "inputs": [
        {
          "internalType": "address",
          "name": "owner",
          "type": "address"
        },
        {
          "internalType": "address",
          "name": "spender",
          "type": "address"
        }
      ],
      "name": "allowance",
      "outputs": [
        {
          "internalType": "uint256",
          "name": "",
          "type": "uint256"
        }
      ],
      "stateMutability": "view",
      "type": "function"
    },
    {
      "inputs": [
        {
          "internalType": "address",
          "name": "spender",
          "type": "address"
        },
        {
          "internalType": "uint256",
          "name": "value",
          "type": "uint256"
        }
      ],
      "name": "approve",
      "outputs": [
        {
          "internalType": "bool",
          "name": "",
          "type": "bool"
        }
      ],
      "stateMutability": "nonpayable",
      "type": "function"
    },
    {
      "inputs": [
        {
          "internalType": "address",
          "name": "account",
          "type": "address"
        }
      ],
      "name": "balanceOf",
      "outputs": [
        {
          "internalType": "uint256",
          "name": "",
          "type": "uint256"
        }
      ],
      "stateMutability": "view",
      "type": "function"
    },
    {
      "inputs": [
        {
          "internalType": "uint256",
          "name": "value",
          "type": "uint256"
        }
      ],
      "name": "burn",
      "outputs": [],
      "stateMutability": "nonpayable",
      "type": "function"
    },
    {
      "inputs": [
        {
          "internalType": "address",
          "name": "account",
          "type": "address"
        },
        {
          "internalType": "uint256",
          "name": "value",
          "type": "uint256"
        }
      ],
      "name": "burnFrom",
      "outputs": [],
      "stateMutability": "nonpayable",
      "type": "function"
    },
    {
      "inputs": [
        {
          "internalType": "address",
          "name": "account",
          "type": "address"
        },
        {
          "internalType": "uint32",
          "name": "pos",
          "type": "uint32"
        }
      ],
      "name": "checkpoints",
      "outputs": [
        {
          "components": [
            {
              "internalType": "uint48",
              "name": "_key",
              "type": "uint48"
            },
            {
              "internalType": "uint208",
              "name": "_value",
              "type": "uint208"
            }
          ],
          "internalType": "struct Checkpoints.Checkpoint208",
          "name": "",
          "type": "tuple"
        }
      ],
      "stateMutability": "view",
      "type": "function"
    },
    {
      "inputs": [],
      "name": "clock",
      "outputs": [
        {
          "internalType": "uint48",
          "name": "",
          "type": "uint48"
        }
      ],
      "stateMutability": "view",
      "type": "function"
    },
    {
      "inputs": [],
      "name": "decimals",
      "outputs": [
        {
          "internalType": "uint8",
          "name": "",
          "type": "uint8"
        }
      ],
      "stateMutability": "view",
      "type": "function"
    },
    {
      "inputs": [
        {
          "internalType": "address",
          "name": "delegatee",
          "type": "address"
        }
      ],
      "name": "delegate",
      "outputs": [],
      "stateMutability": "nonpayable",
      "type": "function"
    },
    {
      "inputs": [
        {
          "internalType": "address",
          "name": "delegatee",
          "type": "address"
        },
        {
          "internalType": "uint256",
          "name": "nonce",
          "type": "uint256"
        },
        {
          "internalType": "uint256",
          "name": "expiry",
          "type": "uint256"
        },
        {
          "internalType": "uint8",
          "name": "v",
          "type": "uint8"
        },
        {
          "internalType": "bytes32",
          "name": "r",
          "type": "bytes32"
        },
        {
          "internalType": "bytes32",
          "name": "s",
          "type": "bytes32"
        }
      ],
      "name": "delegateBySig",
      "outputs": [],
      "stateMutability": "nonpayable",
      "type": "function"
    },
    {
      "inputs": [
        {
          "internalType": "address",
          "name": "account",
          "type": "address"
        }
      ],
      "name": "delegates",
      "outputs": [
        {
          "internalType": "address",
          "name": "",
          "type": "address"
        }
      ],
      "stateMutability": "view",
      "type": "function"
    },
    {
      "inputs": [],
      "name": "eip712Domain",
      "outputs": [
        {
          "internalType": "bytes1",
          "name": "fields",
          "type": "bytes1"
        },
        {
          "internalType": "string",
          "name": "name",
          "type": "string"
        },
        {
          "internalType": "string",
          "name": "version",
          "type": "string"
        },
        {
          "internalType": "uint256",
          "name": "chainId",
          "type": "uint256"
        },
        {
          "internalType": "address",
          "name": "verifyingContract",
          "type": "address"
        },
        {
          "internalType": "bytes32",
          "name": "salt",
          "type": "bytes32"
        },
        {
          "internalType": "uint256[]",
          "name": "extensions",
          "type": "uint256[]"
        }
      ],
      "stateMutability": "view",
      "type": "function"
    },
    {
      "inputs": [
        {
          "internalType": "uint256",
          "name": "timepoint",
          "type": "uint256"
        }
      ],
      "name": "getPastTotalSupply",
      "outputs": [
        {
          "internalType": "uint256",
          "name": "",
          "type": "uint256"
        }
      ],
      "stateMutability": "view",
      "type": "function"
    },
    {
      "inputs": [
        {
          "internalType": "address",
          "name": "account",
          "type": "address"
        },
        {
          "internalType": "uint256",
          "name": "timepoint",
          "type": "uint256"
        }
      ],
      "name": "getPastVotes",
      "outputs": [
        {
          "internalType": "uint256",
          "name": "",
          "type": "uint256"
        }
      ],
      "stateMutability": "view",
      "type": "function"
    },
    {
      "inputs": [
        {
          "internalType": "bytes32",
          "name": "role",
          "type": "bytes32"
        }
      ],
      "name": "getRoleAdmin",
      "outputs": [
        {
          "internalType": "bytes32",
          "name": "",
          "type": "bytes32"
        }
      ],
      "stateMutability": "view",
      "type": "function"
    },
    {
      "inputs": [
        {
          "internalType": "address",
          "name": "account",
          "type": "address"
        }
      ],
      "name": "getVotes",
      "outputs": [
        {
          "internalType": "uint256",
          "name": "",
          "type": "uint256"
        }
      ],
      "stateMutability": "view",
      "type": "function"
    },
    {
      "inputs": [
        {
          "internalType": "bytes32",
          "name": "role",
          "type": "bytes32"
        },
        {
          "internalType": "address",
          "name": "account",
          "type": "address"
        }
      ],
      "name": "grantRole",
      "outputs": [],
      "stateMutability": "nonpayable",
      "type": "function"
    },
    {
      "inputs": [
        {
          "internalType": "bytes32",
          "name": "role",
          "type": "bytes32"
        },
        {
          "internalType": "address",
          "name": "account",
          "type": "address"
        }
      ],
      "name": "hasRole",
      "outputs": [
        {
          "internalType": "bool",
          "name": "",
          "type": "bool"
        }
      ],
      "stateMutability": "view",
      "type": "function"
    },
    {
      "inputs": [
        {
          "internalType": "address",
          "name": "to",
          "type": "address"
        },
        {
          "internalType": "uint256",
          "name": "amount",
          "type": "uint256"
        }
      ],
      "name": "mint",
      "outputs": [],
      "stateMutability": "nonpayable",
      "type": "function"
    },
    {
      "inputs": [],
      "name": "name",
      "outputs": [
        {
          "internalType": "string",
          "name": "",
          "type": "string"
        }
      ],
      "stateMutability": "view",
      "type": "function"
    },
    {
      "inputs": [
        {
          "internalType": "address",
          "name": "owner",
          "type": "address"
        }
      ],
      "name": "nonces",
      "outputs": [
        {
          "internalType": "uint256",
          "name": "",
          "type": "uint256"
        }
      ],
      "stateMutability": "view",
      "type": "function"
    },
    {
      "inputs": [
        {
          "internalType": "address",
          "name": "account",
          "type": "address"
        }
      ],
      "name": "numCheckpoints",
      "outputs": [
        {
          "internalType": "uint32",
          "name": "",
          "type": "uint32"
        }
      ],
      "stateMutability": "view",
      "type": "function"
    },
    {
      "inputs": [],
      "name": "pause",
      "outputs": [],
      "stateMutability": "nonpayable",
      "type": "function"
    },
    {
      "inputs": [],
      "name": "paused",
      "outputs": [
        {
          "internalType": "bool",
          "name": "",
          "type": "bool"
        }
      ],
      "stateMutability": "view",
      "type": "function"
    },
    {
      "inputs": [
        {
          "internalType": "address",
          "name": "owner",
          "type": "address"
        },
        {
          "internalType": "address",
          "name": "spender",
          "type": "address"
        },
        {
          "internalType": "uint256",
          "name": "value",
          "type": "uint256"
        },
        {
          "internalType": "uint256",
          "name": "deadline",
          "type": "uint256"
        },
        {
          "internalType": "uint8",
          "name": "v",
          "type": "uint8"
        },
        {
          "internalType": "bytes32",
          "name": "r",
          "type": "bytes32"
        },
        {
          "internalType": "bytes32",
          "name": "s",
          "type": "bytes32"
        }
      ],
      "name": "permit",
      "outputs": [],
      "stateMutability": "nonpayable",
      "type": "function"
    },
    {
      "inputs": [
        {
          "internalType": "bytes32",
          "name": "role",
          "type": "bytes32"
        },
        {
          "internalType": "address",
          "name": "callerConfirmation",
          "type": "address"
        }
      ],
      "name": "renounceRole",
      "outputs": [],
      "stateMutability": "nonpayable",
      "type": "function"
    },
    {
      "inputs": [
        {
          "internalType": "bytes32",
          "name": "role",
          "type": "bytes32"
        },
        {
          "internalType": "address",
          "name": "account",
          "type": "address"
        }
      ],
      "name": "revokeRole",
      "outputs": [],
      "stateMutability": "nonpayable",
      "type": "function"
    },
    {
      "inputs": [
        {
          "internalType": "bytes4",
          "name": "interfaceId",
          "type": "bytes4"
        }
      ],
      "name": "supportsInterface",
      "outputs": [
        {
          "internalType": "bool",
          "name": "",
          "type": "bool"
        }
      ],
      "stateMutability": "view",
      "type": "function"
    },
    {
      "inputs": [],
      "name": "symbol",
      "outputs": [
        {
          "internalType": "string",
          "name": "",
          "type": "string"
        }
      ],
      "stateMutability": "view",
      "type": "function"
    },
    {
      "inputs": [],
      "name": "totalSupply",
      "outputs": [
        {
          "internalType": "uint256",
          "name": "",
          "type": "uint256"
        }
      ],
      "stateMutability": "view",
      "type": "function"
    },
    {
      "inputs": [
        {
          "internalType": "address",
          "name": "to",
          "type": "address"
        },
        {
          "internalType": "uint256",
          "name": "value",
          "type": "uint256"
        }
      ],
      "name": "transfer",
      "outputs": [
        {
          "internalType": "bool",
          "name": "",
          "type": "bool"
        }
      ],
      "stateMutability": "nonpayable",
      "type": "function"
    },
    {
      "inputs": [
        {
          "internalType": "address",
          "name": "from",
          "type": "address"
        },
        {
          "internalType": "address",
          "name": "to",
          "type": "address"
        },
        {
          "internalType": "uint256",
          "name": "value",
          "type": "uint256"
        }
      ],
      "name": "transferFrom",
      "outputs": [
        {
          "internalType": "bool",
          "name": "",
          "type": "bool"
        }
      ],
      "stateMutability": "nonpayable",
      "type": "function"
    },
    {
      "inputs": [],
      "name": "unpause",
      "outputs": [],
      "stateMutability": "nonpayable",
      "type": "function"
    }
  ],
  "transactionHash": "0x0ef1f0805ce591f6e148bb14301b8103f76e5420c36aa69cc2d0f3ea70e2c630",
  "args": [
    "0xc609039aB9266a558ac84AA0067aaf26B24264b9",
    "0xc609039aB9266a558ac84AA0067aaf26B24264b9",
    "0xc609039aB9266a558ac84AA0067aaf26B24264b9"
  ],
  "numDeployments": 1,
  "solcInputHash": "7ecb9f75ac9d2afd906f1440db208927",
  "bytecode": "0x610160346200053857601f6200320738819003918201601f19168301916001600160401b03831184841017620002e05780849260609460405283398101031262000538576200004e8162000559565b906200006b6040620000636020840162000559565b920162000559565b604051906200007a826200053d565b6009825268086e4deeec88cd8d2f60bb1b9081602084015260405191620000a1836200053d565b600983526020830152604051620000b8816200053d565b60058152640868c9892b60db1b602082015260405192620000d9846200053d565b60018452603160f81b60208501528051906001600160401b038211620002e05760035490600182811c921680156200052d575b6020831014620003ff5781601f849311620004bb575b50602090601f83116001146200042c5760009262000420575b50508160011b916000199060031b1c1916176003555b8051906001600160401b038211620002e05760045490600182811c9216801562000415575b6020831014620003ff5781601f8493116200038d575b50602090601f83116001146200030257600092620002f6575b50508160011b916000199060031b1c1916176004555b60ff1960055416600555620001d08362000730565b93610120948552620001e283620008f7565b9361014094855260208151910120928360e0526020815191012090610100968288524660a0526040519260208401957f8b73c3c69bb8fe3d512ecc4cf759cc79239f7b179b0ffacaa9a75d522b39400f8752604085015260608401524660808401523060a084015260a0835260c083019083821060018060401b03831117620002e05762000295956200028e9462000287936040525190206080523060c0526200056e565b50620005ef565b5062000692565b5060405191612737938462000ab0853960805184611cc9015260a05184611d84015260c05184611c93015260e05184611d1801525183611d3e01525182610aa801525181610ad10152f35b634e487b7160e01b600052604160045260246000fd5b015190503880620001a5565b600460009081527f8a35acfbc15ff81a39ae7d344fd709f28e8600b4aa8c65c6b64bfe7fe36bd19b9350601f198516905b8181106200037457509084600195949392106200035a575b505050811b01600455620001bb565b015160001960f88460031b161c191690553880806200034b565b9293602060018192878601518155019501930162000333565b60046000529091507f8a35acfbc15ff81a39ae7d344fd709f28e8600b4aa8c65c6b64bfe7fe36bd19b601f840160051c810160208510620003f7575b90849392915b601f830160051c82018110620003e75750506200018c565b60008155859450600101620003cf565b5080620003c9565b634e487b7160e01b600052602260045260246000fd5b91607f169162000176565b0151905038806200013b565b6003600090815293507fc2575a0e9e593c00f959f8c92f12db2869c3395a3b0502d05e2516446f71f85b91905b601f19841685106200049f576001945083601f1981161062000485575b505050811b0160035562000151565b015160001960f88460031b161c1916905538808062000476565b8181015183556020948501946001909301929091019062000459565b60036000529091507fc2575a0e9e593c00f959f8c92f12db2869c3395a3b0502d05e2516446f71f85b601f840160051c81016020851062000525575b90849392915b601f830160051c820181106200051557505062000122565b60008155859450600101620004fd565b5080620004f7565b91607f16916200010c565b600080fd5b604081019081106001600160401b03821117620002e057604052565b51906001600160a01b03821682036200053857565b6001600160a01b031660008181527f54cdd369e4e8a8515e52ca72ec816c2101831ad1f18bf44102ed171459c9b4f8602052604081205490919060ff16620005eb5781805260066020526040822081835260205260408220600160ff198254161790553391600080516020620031e78339815191528180a4600190565b5090565b6001600160a01b031660008181527fe09f975e15f8f53f24cbbc282b13c40b84df485fcdb8d3997fa103dc5a4ef84160205260408120549091907f65d7a28e3265b37a6474929f336521b332c1681b933f6cb9f3376673440d862a9060ff166200068d5780835260066020526040832082845260205260408320600160ff19825416179055600080516020620031e7833981519152339380a4600190565b505090565b6001600160a01b031660008181527f3195c024b2ddd6d9b8f6c836aa52f67fe69376c8903d009b80229b3ce4425f5160205260408120549091907f9f2df0fed2c77648de5860a4cc508cd0818c85b8b8a1ab4ceeef8d981c8956a69060ff166200068d5780835260066020526040832082845260205260408320600160ff19825416179055600080516020620031e7833981519152339380a4600190565b805160209081811015620007cd5750601f8251116200076c57808251920151908083106200075d57501790565b82600019910360031b1b161790565b90604051809263305a27a960e01b82528060048301528251908160248401526000935b828510620007b3575050604492506000838284010152601f80199101168101030190fd5b84810182015186860160440152938101938593506200078f565b906001600160401b038211620002e057600754926001938481811c91168015620008ec575b83821014620003ff57601f8111620008b2575b5081601f84116001146200084657509282939183926000946200083a575b50501b916000199060031b1c19161760075560ff90565b01519250388062000823565b919083601f198116600760005284600020946000905b888383106200089757505050106200087d575b505050811b0160075560ff90565b015160001960f88460031b161c191690553880806200086f565b8587015188559096019594850194879350908101906200085c565b600760005284601f84600020920160051c820191601f860160051c015b828110620008df57505062000805565b60008155018590620008cf565b90607f1690620007f2565b805160209081811015620009855750601f8251116200092457808251920151908083106200075d57501790565b90604051809263305a27a960e01b82528060048301528251908160248401526000935b8285106200096b575050604492506000838284010152601f80199101168101030190fd5b848101820151868601604401529381019385935062000947565b906001600160401b038211620002e057600854926001938481811c9116801562000aa4575b83821014620003ff57601f811162000a6a575b5081601f8411600114620009fe5750928293918392600094620009f2575b50501b916000199060031b1c19161760085560ff90565b015192503880620009db565b919083601f198116600860005284600020946000905b8883831062000a4f575050501062000a35575b505050811b0160085560ff90565b015160001960f88460031b161c1916905538808062000a27565b85870151885590960195948501948793509081019062000a14565b600860005284601f84600020920160051c820191601f860160051c015b82811062000a97575050620009bd565b6000815501859062000a87565b90607f1690620009aa56fe6080604052600436101561001257600080fd5b60003560e01c806301ffc9a71461027757806306fdde0314610272578063095ea7b31461026d57806318160ddd1461026857806323b872dd14610263578063248a9ca31461025e5780632f2ff15d14610259578063313ce567146102545780633644e5151461024f57806336568abe1461024a5780633a46b1a8146102455780633f4ba83a1461024057806340c10f191461023b57806342966c68146102365780634bf5d7e914610231578063587cde1e1461022c5780635c19a95c146102275780635c975abb146102225780636fcfff451461021d57806370a082311461021857806379cc6790146102135780637ecebe001461020e5780638456cb591461020957806384b0196e146102045780638e539e8c146101ff57806391d14854146101fa57806391ddadf4146101f557806395d89b41146101f05780639ab24eb0146101eb578063a217fddf146101e6578063a9059cbb146101e1578063c3cda520146101dc578063d505accf146101d7578063d5391393146101d2578063d547741f146101cd578063dd62ed3e146101c8578063e63ab1e9146101c35763f1127ed8146101be57600080fd5b611140565b611105565b6110ad565b61106e565b611033565b610eff565b610e36565b610df0565b610dd4565b610d8b565b610ce4565b610cc1565b610c6f565b610b85565b610a8d565b610a33565b6109f9565b6109c9565b610990565b610928565b610905565b6108e3565b6108a8565b610859565b61083c565b61074a565b6106e0565b6105b4565b61056d565b61054a565b61052e565b6104ed565b6104be565b610486565b610468565b610437565b610326565b346102cd5760203660031901126102cd5760043563ffffffff60e01b81168091036102cd57602090637965db0b60e01b81149081156102bc575b506040519015158152f35b6301ffc9a760e01b149050386102b1565b600080fd5b919082519283825260005b8481106102fe575050826000602080949584010152601f8019910116010190565b6020818301810151848301820152016102dd565b9060206103239281815201906102d2565b90565b346102cd5760008060031936011261040857604051908060035461034981611727565b808552916001918083169081156103de5750600114610383575b61037f8561037381870382611481565b60405191829182610312565b0390f35b9250600383527fc2575a0e9e593c00f959f8c92f12db2869c3395a3b0502d05e2516446f71f85b5b8284106103c65750505081016020016103738261037f610363565b805460208587018101919091529093019281016103ab565b86955061037f9693506020925061037394915060ff191682840152151560051b8201019293610363565b80fd5b600435906001600160a01b03821682036102cd57565b602435906001600160a01b03821682036102cd57565b346102cd5760403660031901126102cd5761045d61045361040b565b6024359033611862565b602060405160018152f35b346102cd5760003660031901126102cd576020600254604051908152f35b346102cd5760603660031901126102cd5761045d6104a261040b565b6104aa610421565b604435916104b9833383611916565b611761565b346102cd5760203660031901126102cd5760043560005260066020526020600160406000200154604051908152f35b346102cd5760403660031901126102cd5761052c60043561050c610421565b908060005260066020526105276001604060002001546112a9565b6112ca565b005b346102cd5760003660031901126102cd57602060405160128152f35b346102cd5760003660031901126102cd576020610565611c90565b604051908152f35b346102cd5760403660031901126102cd57610586610421565b336001600160a01b038216036105a25761052c90600435611364565b60405163334bd91960e11b8152600490fd5b346102cd5760403660031901126102cd576105cd61040b565b65ffffffffffff90602435428316808210156106b9575060009160018060a01b03168252600b6020526106036040832091611fb6565b9281549383918560058111610661575b5050936106249161037f9584612578565b806106465750505b6040516001600160d01b0390911681529081906020820190565b9161065360209293611fe8565b92815220015460301c61062c565b61066d81949294612032565b81039081116106b45761037f9661062494868852808360208a20015416908516106000146106a25750915b9195819350610613565b9291506106ae90611ff7565b90610698565b611711565b604051637669fc0f60e11b8152600481019290925265ffffffffffff166024820152604490fd5b346102cd5760003660031901126102cd576106f96111d5565b60055460ff8116156107385760ff19166005557f5db9ee0a495bf2e6ff9c91a7834c1ba4fdd244a5e8aa4e537bd38aeae4b073aa6020604051338152a1005b604051638dfc202b60e01b8152600490fd5b346102cd5760403660031901126102cd5761076361040b565b60243561076e611251565b6001600160a01b0382168015610823576107866125df565b61079a61079583600254612005565b600255565b6001600160a01b038316600090815260208181526040808320805486019055518481527fddf252ad1be2c89b69c2b068fc378daa952ba7f163c4a11628f55a4df523b3ef9190a3600254916001600160d01b0383116107fd5761052c92506125fd565b604051630e58ae9360e11b8152600481018490526001600160d01b036024820152604490fd5b60405163ec442f0560e01b815260006004820152602490fd5b346102cd5760203660031901126102cd5761052c600435336119c4565b346102cd5760003660031901126102cd5761037f6040516108798161140c565b600e81526d06d6f64653d74696d657374616d760941b60208201526040519182916020835260208301906102d2565b346102cd5760203660031901126102cd5760206001600160a01b03806108cc61040b565b16600052600a825260406000205416604051908152f35b346102cd5760203660031901126102cd5761052c6108ff61040b565b336114a3565b346102cd5760003660031901126102cd57602060ff600554166040519015158152f35b346102cd5760203660031901126102cd576001600160a01b0361094961040b565b16600052600b60205260406000205463ffffffff908181116109715760209160405191168152f35b604490604051906306dfcc6560e41b8252602060048301526024820152fd5b346102cd5760203660031901126102cd5760206105656109ae61040b565b6001600160a01b031660009081526020819052604090205490565b346102cd5760403660031901126102cd5761052c6109e561040b565b602435906109f4823383611916565b6119c4565b346102cd5760203660031901126102cd576001600160a01b03610a1a61040b565b1660005260096020526020604060002054604051908152f35b346102cd5760003660031901126102cd57610a4c6111d5565b610a546125df565b600160ff1960055416176005557f62e78cea01bee320cd4e420270b5ea74000d11b0c9f74754ebdbfc544b05a2586020604051338152a1005b346102cd5760008060031936011261040857610b3790610acc7f0000000000000000000000000000000000000000000000000000000000000000611dd0565b610af57f0000000000000000000000000000000000000000000000000000000000000000611ec9565b9160405191610b038361142d565b818352604051948594600f60f81b8652610b2960209360e08589015260e08801906102d2565b9086820360408801526102d2565b904660608601523060808601528260a086015284820360c08601528080855193848152019401925b828110610b6e57505050500390f35b835185528695509381019392810192600101610b5f565b346102cd5760203660031901126102cd5765ffffffffffff600435428216808210156106b95750610bb590611fb6565b600c54906000908260058111610c19575b50610bd1935061250f565b600081610bf1575050602060005b6040516001600160d01b039091168152f35b600c610bfe602093611fe8565b91526000805160206126e2833981519152015460301c610bdf565b9092610c2482612032565b82039182116106b457610bd194600c845280836000805160206126e283398151915201541690851610600014610c5d5750915b38610bc6565b929150610c6990611ff7565b90610c57565b346102cd5760403660031901126102cd57602060ff610cb5610c8f610421565b6004356000526006845260406000209060018060a01b0316600052602052604060002090565b54166040519015158152f35b346102cd5760003660031901126102cd57602060405165ffffffffffff42168152f35b346102cd57600080600319360112610408576040519080600454610d0781611727565b808552916001918083169081156103de5750600114610d305761037f8561037381870382611481565b9250600483527f8a35acfbc15ff81a39ae7d344fd709f28e8600b4aa8c65c6b64bfe7fe36bd19b5b828410610d735750505081016020016103738261037f610363565b80546020858701810191909152909301928101610d58565b346102cd5760203660031901126102cd576001600160a01b03610dac61040b565b16600052600b602052602060018060d01b03610dcb60406000206121ce565b16604051908152f35b346102cd5760003660031901126102cd57602060405160008152f35b346102cd5760403660031901126102cd5761045d610e0c61040b565b6024359033611761565b6064359060ff821682036102cd57565b6084359060ff821682036102cd57565b346102cd5760c03660031901126102cd57610e4f61040b565b60443590602435610e5e610e16565b834211610ee657610eda61052c94610ee1926040519060208201927fe48329057bfd03d55e49b547132e39cffd9c1820ad7b9d4c5307691425d15adf845260018060a01b0388166040840152866060840152608083015260808252610ec282611449565b610ed560a4359360843593519020611daa565b611b3b565b9182611ae5565b6114a3565b604051632341d78760e11b815260048101859052602490fd5b346102cd5760e03660031901126102cd57610f1861040b565b610f20610421565b60443590606435610f2f610e26565b81421161101a576001600160a01b0385811660008181526009602090815260409182902080546001810190915582517f6e71edae12b1b97f4d1f60370fef10105fa2faae0126114a169c64845d6126c99281019283529283019390935292861660608201526080810187905260a081019190915260c080820194909452928352610fd3929091610fc060e083611481565b610ed560c4359360a43593519020611daa565b6001600160a01b0384811690821603610ff0575061052c92611862565b6040516325c0072360e11b81526001600160a01b0391821660048201529084166024820152604490fd5b60405163313c898160e11b815260048101839052602490fd5b346102cd5760003660031901126102cd5760206040517f9f2df0fed2c77648de5860a4cc508cd0818c85b8b8a1ab4ceeef8d981c8956a68152f35b346102cd5760403660031901126102cd5761052c60043561108d610421565b908060005260066020526110a86001604060002001546112a9565b611364565b346102cd5760403660031901126102cd5760206110fc6110cb61040b565b6110d3610421565b6001600160a01b0391821660009081526001855260408082209290931681526020919091522090565b54604051908152f35b346102cd5760003660031901126102cd5760206040517f65d7a28e3265b37a6474929f336521b332c1681b933f6cb9f3376673440d862a8152f35b346102cd5760403660031901126102cd5761115961040b565b60243563ffffffff811681036102cd576111a96111af9160409361117b611acc565b50611184611acc565b506001600160a01b03166000908152600b6020528490206111a3611acc565b506121fc565b5061222a565b8151815165ffffffffffff1681526020918201516001600160d01b031691810191909152f35b3360009081527fe09f975e15f8f53f24cbbc282b13c40b84df485fcdb8d3997fa103dc5a4ef841602052604090207f65d7a28e3265b37a6474929f336521b332c1681b933f6cb9f3376673440d862a9060ff905b5416156112335750565b6044906040519063e2517d3f60e01b82523360048301526024820152fd5b3360009081527f3195c024b2ddd6d9b8f6c836aa52f67fe69376c8903d009b80229b3ce4425f51602052604090207f9f2df0fed2c77648de5860a4cc508cd0818c85b8b8a1ab4ceeef8d981c8956a69060ff90611229565b6000818152600660209081526040808320338452909152902060ff90611229565b600090808252600660205260ff6112f684604085209060018060a01b0316600052602052604060002090565b541661135e578082526006602090815260408084206001600160a01b038616600090815292529020805460ff1916600117905533926001600160a01b0316917f2f8788117e7eff1d82e926ec794901d17c78024a50270940304540a733656f0d9080a4600190565b50905090565b600090808252600660205260ff61139084604085209060018060a01b0316600052602052604060002090565b54161561135e578082526006602090815260408084206001600160a01b038616600090815292529020805460ff1916905533926001600160a01b0316917ff6391f5c32d9c69d2a47ea670b442974b53935d1edc7fd64eb21e047a839171b9080a4600190565b634e487b7160e01b600052604160045260246000fd5b6040810190811067ffffffffffffffff82111761142857604052565b6113f6565b6020810190811067ffffffffffffffff82111761142857604052565b60a0810190811067ffffffffffffffff82111761142857604052565b60c0810190811067ffffffffffffffff82111761142857604052565b90601f8019910116810190811067ffffffffffffffff82111761142857604052565b6001600160a01b038181166000818152600a6020526040812080548685166001600160a01b031982168117909255611526969416946115209390928691907f3134e8a2e6d97e929a7e54011ea5485d7d196dd5f0ba4d4ef95803e8e3fc257f9080a46001600160a01b031660009081526020819052604090205490565b91611528565b565b6001600160a01b03808316939291908116908185141580611670575b611550575b5050505050565b816115d5575b505082611565575b8080611549565b6001600160a01b03166000908152600b602052604090207fdec2bacdd2f05b59de34da9b523dff8be42e5e38e818c82fdb0bae774387a724916115b2916115ac9091611f83565b90611679565b604080516001600160d01b039384168152919092166020820152a238808061155e565b6001600160a01b03166000908152600b602052604090206115f584611f83565b6001600160d01b03908180611609856121ce565b16911690038181116106b45761164d611666917fdec2bacdd2f05b59de34da9b523dff8be42e5e38e818c82fdb0bae774387a7249465ffffffffffff42169061242d565b6040805192851683529316602082015291829190820190565b0390a23880611556565b50831515611544565b906001600160d01b0390818061168e856121ce565b169116019081116106b4576116ac9165ffffffffffff42169061242d565b9091565b6001600160d01b039081806116c3612184565b169116019081116106b4576116ac9065ffffffffffff4216612305565b6001600160d01b039081806116f3612184565b1691169003908111611711576116ac9065ffffffffffff4216612305565b634e487b7160e01b600052601160045260246000fd5b90600182811c92168015611757575b602083101461174157565b634e487b7160e01b600052602260045260246000fd5b91607f1691611736565b6001600160a01b03808216949392919085156118495782168015610823576117876125df565b6001600160a01b0382166000908152602081905260409020549584871061181a57846115269697036117cb8460018060a01b03166000526000602052604060002090565b556001600160a01b0384166000908152602081815260409182902080548801905590518681527fddf252ad1be2c89b69c2b068fc378daa952ba7f163c4a11628f55a4df523b3ef9190a3612676565b60405163391434e360e21b81526001600160a01b03841660048201526024810188905260448101869052606490fd5b604051634b637e8f60e11b815260006004820152602490fd5b6001600160a01b0380821692919083156118fd5782169384156118e457806118da7f8c5be1e5ebec7d5bd14f71427d1e84f3dd0314c0f7b2291e5b200ac8c7c3b925946118c360209560018060a01b03166000526001602052604060002090565b9060018060a01b0316600052602052604060002090565b55604051908152a3565b604051634a1406b160e11b815260006004820152602490fd5b60405163e602df0560e01b815260006004820152602490fd5b6001600160a01b038181166000818152600160208181526040808420888716855290915290912054939594939291908301611954575b505050505050565b84831061199557156118fd578216156118e457611989926118c391039360018060a01b03166000526001602052604060002090565b5538808080808061194c565b604051637dc7a0d960e11b81526001600160a01b03851660048201526024810184905260448101869052606490fd5b91906001600160a01b038084168015611849576119df6125df565b6001600160a01b03851660009081526020819052604090205494838610611a8e579060209291611a28856115269798039160018060a01b03166000526000602052604060002090565b558360025403600255604051848152817fddf252ad1be2c89b69c2b068fc378daa952ba7f163c4a11628f55a4df523b3ef6000958693a3611a70611a6b85611f83565b6116e0565b50508252600a60205260408181842054169280805220541690611528565b60405163391434e360e21b81526001600160a01b039190911660048201526024810186905260448101849052606490fd5b604051906115268261140c565b60405190611ad98261140c565b60006020838281520152565b6001600160a01b03811660009081526009602052604090208054600181019091559091819003611b13575050565b6040516301d4b62360e61b81526001600160a01b039092166004830152602482015260449150fd5b916103239391611b4a93611b53565b90929192611c03565b91907f7fffffffffffffffffffffffffffffff5d576e7357a4501ddfe92f46681b20a08411611bd757926020929160ff608095604051948552168484015260408301526060820152600092839182805260015afa15611bcb5780516001600160a01b03811615611bc257918190565b50809160019190565b604051903d90823e3d90fd5b50505060009160039190565b60041115611bed57565b634e487b7160e01b600052602160045260246000fd5b611c0c81611be3565b80611c15575050565b611c1e81611be3565b60018103611c385760405163f645eedf60e01b8152600490fd5b611c4181611be3565b60028103611c625760405163fce698f760e01b815260048101839052602490fd5b80611c6e600392611be3565b14611c765750565b6040516335e2f38360e21b81526004810191909152602490fd5b307f00000000000000000000000000000000000000000000000000000000000000006001600160a01b03161480611d81575b15611ceb577f000000000000000000000000000000000000000000000000000000000000000090565b60405160208101907f8b73c3c69bb8fe3d512ecc4cf759cc79239f7b179b0ffacaa9a75d522b39400f82527f000000000000000000000000000000000000000000000000000000000000000060408201527f000000000000000000000000000000000000000000000000000000000000000060608201524660808201523060a082015260a08152611d7b81611465565b51902090565b507f00000000000000000000000000000000000000000000000000000000000000004614611cc2565b604290611db5611c90565b906040519161190160f01b8352600283015260228201522090565b60ff8114611e0e5760ff811690601f8211611dfc5760405191611df28361140c565b8252602082015290565b604051632cd44ac360e21b8152600490fd5b50604051600754816000611e2183611727565b80835292600190818116908115611ea75750600114611e48575b5061032392500382611481565b6007600090815291507fa66cc928b5edb82af9bd49922954155ab7b0942694bea4ce44661d9a8736c6885b848310611e8c5750610323935050810160200138611e3b565b81935090816020925483858901015201910190918492611e73565b90506020925061032394915060ff191682840152151560051b82010138611e3b565b60ff8114611eeb5760ff811690601f8211611dfc5760405191611df28361140c565b50604051600854816000611efe83611727565b80835292600190818116908115611ea75750600114611f24575061032392500382611481565b6008600090815291507ff3f7a9fe364faab93b216da50a3214154f22a0a2b415b23a84c8169e8b636ee35b848310611f685750610323935050810160200138611e3b565b81935090816020925483858901015201910190918492611f4f565b6001600160d01b0390818111611f97571690565b604490604051906306dfcc6560e41b825260d060048301526024820152fd5b65ffffffffffff90818111611fc9571690565b604490604051906306dfcc6560e41b8252603060048301526024820152fd5b6000198101919082116106b457565b90600182018092116106b457565b919082018092116106b457565b811561201c570490565b634e487b7160e01b600052601260045260246000fd5b801561216c57806121056120fe6120f46120ea6120e06120d66120cc6120c260016103239a6000908b60801c80612160575b508060401c80612153575b508060201c80612146575b508060101c80612139575b508060081c8061212c575b508060041c8061211f575b508060021c80612112575b50821c61210b575b811c1b6120bb818b612012565b0160011c90565b6120bb818a612012565b6120bb8189612012565b6120bb8188612012565b6120bb8187612012565b6120bb8186612012565b6120bb8185612012565b8092612012565b90612172565b81016120ae565b60029150910190386120a6565b600491509101903861209b565b6008915091019038612090565b6010915091019038612085565b602091509101903861207a565b604091509101903861206f565b91505060809038612064565b50600090565b908082101561217f575090565b905090565b600c5460009080612196575050600090565b806000198101116106b457600c7fdf6966c971051c3d54ec59162606531493a51404a002842f56009d7e5cf4a8c69252015460301c90565b8054600091816121e057505050600090565b6000199282848101116106b45760209181522001015460301c90565b80548210156122145760005260206000200190600090565b634e487b7160e01b600052603260045260246000fd5b906040516122378161140c565b915465ffffffffffff8116835260301c6020830152565b600c5490600160401b821015611428576001820180600c5582101561221457600c600052805160209091015160301b65ffffffffffff191665ffffffffffff91909116176000805160206126e283398151915290910155565b8054600160401b811015611428576122c4916001820181556121fc565b6122ef57815160209092015160301b65ffffffffffff191665ffffffffffff92909216919091179055565b634e487b7160e01b600052600060045260246000fd5b600c549192919081156124035761233e61233961232184611fe8565b600c6000526000805160206126e28339815191520190565b61222a565b805165ffffffffffff83811694911684106123f157856020936123b59561237961236e865165ffffffffffff1690565b65ffffffffffff1690565b036123b9575061238e6123216123a793611fe8565b9065ffffffffffff82549181199060301b169116179055565b01516001600160d01b031690565b9190565b90506123ec91506123d96123cb611abf565b65ffffffffffff9092168252565b6001600160d01b0387168185015261224e565b6123a7565b604051632520601d60e01b8152600490fd5b61242791506124136123cb611abf565b6001600160d01b038416602082015261224e565b60009190565b8054929392919082156124eb5761245661233961244985611fe8565b8360005260206000200190565b90612467825165ffffffffffff1690565b65ffffffffffff848116911681106123f1576123b594602094889261249561236e875165ffffffffffff1690565b036124b857506123a7926124ab61238e92611fe8565b9060005260206000200190565b9150506123ec916124d86124ca611abf565b65ffffffffffff9093168352565b6001600160d01b038816828601526122a7565b61242792506124fb6124ca611abf565b6001600160d01b03851660208301526122a7565b905b82811061251d57505090565b90918082169080831860011c82018092116106b457600c60005265ffffffffffff80836000805160206126e2833981519152015416908516106000146125665750915b90612511565b92915061257290611ff7565b90612560565b90915b8381106125885750505090565b9091928082169080831860011c82018092116106b45781602060008681528265ffffffffffff92839220015416908716106000146125cb575050925b919061257b565b909492506125d99150611ff7565b906125c4565b60ff600554166125eb57565b60405163d93c066560e01b8152600490fd5b906115269161261361260e83611f83565b6116b0565b50506001600160a01b03908116908115612663575b600a6020527f13da86008ba1c6922daee3e07db95305ef49ebced9f5467a0b8613fcc6b343e354600092835260409092205481169116611528565b61266f611a6b84611f83565b5050612628565b61152692916001600160a01b039182169190819083156126ce575b169182156126bb575b600052600a6020528060406000205416916000526040600020541690611528565b6126c7611a6b85611f83565b505061269a565b6126da61260e86611f83565b505061269156fedf6966c971051c3d54ec59162606531493a51404a002842f56009d7e5cf4a8c7a26469706673582212204d4e8fecd7dc918923d240d73f4f359cf4fcaee88e2685f8fa68de13999c7f8064736f6c634300081400332f8788117e7eff1d82e926ec794901d17c78024a50270940304540a733656f0d",
  "devdoc": {
    "custom:security-contact": "crash@web108.xyz",
    "errors": {
      "AccessControlBadConfirmation()": [
        {
          "details": "The caller of a function is not the expected one. NOTE: Don't confuse with {AccessControlUnauthorizedAccount}."
        }
      ],
      "AccessControlUnauthorizedAccount(address,bytes32)": [
        {
          "details": "The `account` is missing a role."
        }
      ],
      "CheckpointUnorderedInsertion()": [
        {
          "details": "A value was attempted to be inserted on a past checkpoint."
        }
      ],
      "ECDSAInvalidSignature()": [
        {
          "details": "The signature derives the `address(0)`."
        }
      ],
      "ECDSAInvalidSignatureLength(uint256)": [
        {
          "details": "The signature has an invalid length."
        }
      ],
      "ECDSAInvalidSignatureS(bytes32)": [
        {
          "details": "The signature has an S value that is in the upper half order."
        }
      ],
      "ERC20ExceededSafeSupply(uint256,uint256)": [
        {
          "details": "Total supply cap has been exceeded, introducing a risk of votes overflowing."
        }
      ],
      "ERC20InsufficientAllowance(address,uint256,uint256)": [
        {
          "details": "Indicates a failure with the `spender`s `allowance`. Used in transfers.",
          "params": {
            "allowance": "Amount of tokens a `spender` is allowed to operate with.",
            "needed": "Minimum amount required to perform a transfer.",
            "spender": "Address that may be allowed to operate on tokens without being their owner."
          }
        }
      ],
      "ERC20InsufficientBalance(address,uint256,uint256)": [
        {
          "details": "Indicates an error related to the current `balance` of a `sender`. Used in transfers.",
          "params": {
            "balance": "Current balance for the interacting account.",
            "needed": "Minimum amount required to perform a transfer.",
            "sender": "Address whose tokens are being transferred."
          }
        }
      ],
      "ERC20InvalidApprover(address)": [
        {
          "details": "Indicates a failure with the `approver` of a token to be approved. Used in approvals.",
          "params": {
            "approver": "Address initiating an approval operation."
          }
        }
      ],
      "ERC20InvalidReceiver(address)": [
        {
          "details": "Indicates a failure with the token `receiver`. Used in transfers.",
          "params": {
            "receiver": "Address to which tokens are being transferred."
          }
        }
      ],
      "ERC20InvalidSender(address)": [
        {
          "details": "Indicates a failure with the token `sender`. Used in transfers.",
          "params": {
            "sender": "Address whose tokens are being transferred."
          }
        }
      ],
      "ERC20InvalidSpender(address)": [
        {
          "details": "Indicates a failure with the `spender` to be approved. Used in approvals.",
          "params": {
            "spender": "Address that may be allowed to operate on tokens without being their owner."
          }
        }
      ],
      "ERC2612ExpiredSignature(uint256)": [
        {
          "details": "Permit deadline has expired."
        }
      ],
      "ERC2612InvalidSigner(address,address)": [
        {
          "details": "Mismatched signature."
        }
      ],
      "ERC5805FutureLookup(uint256,uint48)": [
        {
          "details": "Lookup to future votes is not available."
        }
      ],
      "ERC6372InconsistentClock()": [
        {
          "details": "The clock was incorrectly modified."
        }
      ],
      "EnforcedPause()": [
        {
          "details": "The operation failed because the contract is paused."
        }
      ],
      "ExpectedPause()": [
        {
          "details": "The operation failed because the contract is not paused."
        }
      ],
      "InvalidAccountNonce(address,uint256)": [
        {
          "details": "The nonce used for an `account` is not the expected current nonce."
        }
      ],
      "SafeCastOverflowedUintDowncast(uint8,uint256)": [
        {
          "details": "Value doesn't fit in an uint of `bits` size."
        }
      ],
      "VotesExpiredSignature(uint256)": [
        {
          "details": "The signature used has expired."
        }
      ]
    },
    "events": {
      "Approval(address,address,uint256)": {
        "details": "Emitted when the allowance of a `spender` for an `owner` is set by a call to {approve}. `value` is the new allowance."
      },
      "DelegateChanged(address,address,address)": {
        "details": "Emitted when an account changes their delegate."
      },
      "DelegateVotesChanged(address,uint256,uint256)": {
        "details": "Emitted when a token transfer or delegate change results in changes to a delegate's number of voting units."
      },
      "EIP712DomainChanged()": {
        "details": "MAY be emitted to signal that the domain could have changed."
      },
      "Paused(address)": {
        "details": "Emitted when the pause is triggered by `account`."
      },
      "RoleAdminChanged(bytes32,bytes32,bytes32)": {
        "details": "Emitted when `newAdminRole` is set as ``role``'s admin role, replacing `previousAdminRole` `DEFAULT_ADMIN_ROLE` is the starting admin for all roles, despite {RoleAdminChanged} not being emitted signaling this."
      },
      "RoleGranted(bytes32,address,address)": {
        "details": "Emitted when `account` is granted `role`. `sender` is the account that originated the contract call, an admin role bearer except when using {AccessControl-_setupRole}."
      },
      "RoleRevoked(bytes32,address,address)": {
        "details": "Emitted when `account` is revoked `role`. `sender` is the account that originated the contract call:   - if using `revokeRole`, it is the admin role bearer   - if using `renounceRole`, it is the role bearer (i.e. `account`)"
      },
      "Transfer(address,address,uint256)": {
        "details": "Emitted when `value` tokens are moved from one account (`from`) to another (`to`). Note that `value` may be zero."
      },
      "Unpaused(address)": {
        "details": "Emitted when the pause is lifted by `account`."
      }
    },
    "kind": "dev",
    "methods": {
      "CLOCK_MODE()": {
        "details": "Machine-readable description of the clock as specified in EIP-6372."
      },
      "DOMAIN_SEPARATOR()": {
        "details": "Returns the domain separator used in the encoding of the signature for {permit}, as defined by {EIP712}."
      },
      "allowance(address,address)": {
        "details": "See {IERC20-allowance}."
      },
      "approve(address,uint256)": {
        "details": "See {IERC20-approve}. NOTE: If `value` is the maximum `uint256`, the allowance is not updated on `transferFrom`. This is semantically equivalent to an infinite approval. Requirements: - `spender` cannot be the zero address."
      },
      "balanceOf(address)": {
        "details": "See {IERC20-balanceOf}."
      },
      "burn(uint256)": {
        "details": "Destroys a `value` amount of tokens from the caller. See {ERC20-_burn}."
      },
      "burnFrom(address,uint256)": {
        "details": "Destroys a `value` amount of tokens from `account`, deducting from the caller's allowance. See {ERC20-_burn} and {ERC20-allowance}. Requirements: - the caller must have allowance for ``accounts``'s tokens of at least `value`."
      },
      "checkpoints(address,uint32)": {
        "details": "Get the `pos`-th checkpoint for `account`."
      },
      "clock()": {
        "details": "Clock used for flagging checkpoints. Can be overridden to implement timestamp based checkpoints (and voting), in which case {CLOCK_MODE} should be overridden as well to match."
      },
      "decimals()": {
        "details": "Returns the number of decimals used to get its user representation. For example, if `decimals` equals `2`, a balance of `505` tokens should be displayed to a user as `5.05` (`505 / 10 ** 2`). Tokens usually opt for a value of 18, imitating the relationship between Ether and Wei. This is the default value returned by this function, unless it's overridden. NOTE: This information is only used for _display_ purposes: it in no way affects any of the arithmetic of the contract, including {IERC20-balanceOf} and {IERC20-transfer}."
      },
      "delegate(address)": {
        "details": "Delegates votes from the sender to `delegatee`."
      },
      "delegateBySig(address,uint256,uint256,uint8,bytes32,bytes32)": {
        "details": "Delegates votes from signer to `delegatee`."
      },
      "delegates(address)": {
        "details": "Returns the delegate that `account` has chosen."
      },
      "eip712Domain()": {
        "details": "See {IERC-5267}."
      },
      "getPastTotalSupply(uint256)": {
        "details": "Returns the total supply of votes available at a specific moment in the past. If the `clock()` is configured to use block numbers, this will return the value at the end of the corresponding block. NOTE: This value is the sum of all available votes, which is not necessarily the sum of all delegated votes. Votes that have not been delegated are still part of total supply, even though they would not participate in a vote. Requirements: - `timepoint` must be in the past. If operating using block numbers, the block must be already mined."
      },
      "getPastVotes(address,uint256)": {
        "details": "Returns the amount of votes that `account` had at a specific moment in the past. If the `clock()` is configured to use block numbers, this will return the value at the end of the corresponding block. Requirements: - `timepoint` must be in the past. If operating using block numbers, the block must be already mined."
      },
      "getRoleAdmin(bytes32)": {
        "details": "Returns the admin role that controls `role`. See {grantRole} and {revokeRole}. To change a role's admin, use {_setRoleAdmin}."
      },
      "getVotes(address)": {
        "details": "Returns the current amount of votes that `account` has."
      },
      "grantRole(bytes32,address)": {
        "details": "Grants `role` to `account`. If `account` had not been already granted `role`, emits a {RoleGranted} event. Requirements: - the caller must have ``role``'s admin role. May emit a {RoleGranted} event."
      },
      "hasRole(bytes32,address)": {
        "details": "Returns `true` if `account` has been granted `role`."
      },
      "name()": {
        "details": "Returns the name of the token."
      },
      "numCheckpoints(address)": {
        "details": "Get number of checkpoints for `account`."
      },
      "paused()": {
        "details": "Returns true if the contract is paused, and false otherwise."
      },
      "permit(address,address,uint256,uint256,uint8,bytes32,bytes32)": {
        "details": "Sets `value` as the allowance of `spender` over ``owner``'s tokens, given ``owner``'s signed approval. IMPORTANT: The same issues {IERC20-approve} has related to transaction ordering also apply here. Emits an {Approval} event. Requirements: - `spender` cannot be the zero address. - `deadline` must be a timestamp in the future. - `v`, `r` and `s` must be a valid `secp256k1` signature from `owner` over the EIP712-formatted function arguments. - the signature must use ``owner``'s current nonce (see {nonces}). For more information on the signature format, see the https://eips.ethereum.org/EIPS/eip-2612#specification[relevant EIP section]. CAUTION: See Security Considerations above."
      },
      "renounceRole(bytes32,address)": {
        "details": "Revokes `role` from the calling account. Roles are often managed via {grantRole} and {revokeRole}: this function's purpose is to provide a mechanism for accounts to lose their privileges if they are compromised (such as when a trusted device is misplaced). If the calling account had been revoked `role`, emits a {RoleRevoked} event. Requirements: - the caller must be `callerConfirmation`. May emit a {RoleRevoked} event."
      },
      "revokeRole(bytes32,address)": {
        "details": "Revokes `role` from `account`. If `account` had been granted `role`, emits a {RoleRevoked} event. Requirements: - the caller must have ``role``'s admin role. May emit a {RoleRevoked} event."
      },
      "supportsInterface(bytes4)": {
        "details": "See {IERC165-supportsInterface}."
      },
      "symbol()": {
        "details": "Returns the symbol of the token, usually a shorter version of the name."
      },
      "totalSupply()": {
        "details": "See {IERC20-totalSupply}."
      },
      "transfer(address,uint256)": {
        "details": "See {IERC20-transfer}. Requirements: - `to` cannot be the zero address. - the caller must have a balance of at least `value`."
      },
      "transferFrom(address,address,uint256)": {
        "details": "See {IERC20-transferFrom}. Emits an {Approval} event indicating the updated allowance. This is not required by the EIP. See the note at the beginning of {ERC20}. NOTE: Does not update the allowance if the current allowance is the maximum `uint256`. Requirements: - `from` and `to` cannot be the zero address. - `from` must have a balance of at least `value`. - the caller must have allowance for ``from``'s tokens of at least `value`."
      }
    },
    "version": 1
  },
  "userdoc": {
    "kind": "user",
    "methods": {},
    "version": 1
  },
  "storageLayout": {
    "storage": [
      {
        "astId": 8607,
        "contract": "contracts/CrowdFlixToken.sol:CrowdFlixToken",
        "label": "_balances",
        "offset": 0,
        "slot": "0",
        "type": "t_mapping(t_address,t_uint256)"
      },
      {
        "astId": 8613,
        "contract": "contracts/CrowdFlixToken.sol:CrowdFlixToken",
        "label": "_allowances",
        "offset": 0,
        "slot": "1",
        "type": "t_mapping(t_address,t_mapping(t_address,t_uint256))"
      },
      {
        "astId": 8615,
        "contract": "contracts/CrowdFlixToken.sol:CrowdFlixToken",
        "label": "_totalSupply",
        "offset": 0,
        "slot": "2",
        "type": "t_uint256"
      },
      {
        "astId": 8617,
        "contract": "contracts/CrowdFlixToken.sol:CrowdFlixToken",
        "label": "_name",
        "offset": 0,
        "slot": "3",
        "type": "t_string_storage"
      },
      {
        "astId": 8619,
        "contract": "contracts/CrowdFlixToken.sol:CrowdFlixToken",
        "label": "_symbol",
        "offset": 0,
        "slot": "4",
        "type": "t_string_storage"
      },
      {
        "astId": 10187,
        "contract": "contracts/CrowdFlixToken.sol:CrowdFlixToken",
        "label": "_paused",
        "offset": 0,
        "slot": "5",
        "type": "t_bool"
      },
      {
        "astId": 2408,
        "contract": "contracts/CrowdFlixToken.sol:CrowdFlixToken",
        "label": "_roles",
        "offset": 0,
        "slot": "6",
        "type": "t_mapping(t_bytes32,t_struct(RoleData)2403_storage)"
      },
      {
        "astId": 11331,
        "contract": "contracts/CrowdFlixToken.sol:CrowdFlixToken",
        "label": "_nameFallback",
        "offset": 0,
        "slot": "7",
        "type": "t_string_storage"
      },
      {
        "astId": 11333,
        "contract": "contracts/CrowdFlixToken.sol:CrowdFlixToken",
        "label": "_versionFallback",
        "offset": 0,
        "slot": "8",
        "type": "t_string_storage"
      },
      {
        "astId": 10124,
        "contract": "contracts/CrowdFlixToken.sol:CrowdFlixToken",
        "label": "_nonces",
        "offset": 0,
        "slot": "9",
        "type": "t_mapping(t_address,t_uint256)"
      },
      {
        "astId": 7663,
        "contract": "contracts/CrowdFlixToken.sol:CrowdFlixToken",
        "label": "_delegatee",
        "offset": 0,
        "slot": "10",
        "type": "t_mapping(t_address,t_address)"
      },
      {
        "astId": 7668,
        "contract": "contracts/CrowdFlixToken.sol:CrowdFlixToken",
        "label": "_delegateCheckpoints",
        "offset": 0,
        "slot": "11",
        "type": "t_mapping(t_address,t_struct(Trace208)15180_storage)"
      },
      {
        "astId": 7671,
        "contract": "contracts/CrowdFlixToken.sol:CrowdFlixToken",
        "label": "_totalCheckpoints",
        "offset": 0,
        "slot": "12",
        "type": "t_struct(Trace208)15180_storage"
      }
    ],
    "types": {
      "t_address": {
        "encoding": "inplace",
        "label": "address",
        "numberOfBytes": "20"
      },
      "t_array(t_struct(Checkpoint208)15185_storage)dyn_storage": {
        "base": "t_struct(Checkpoint208)15185_storage",
        "encoding": "dynamic_array",
        "label": "struct Checkpoints.Checkpoint208[]",
        "numberOfBytes": "32"
      },
      "t_bool": {
        "encoding": "inplace",
        "label": "bool",
        "numberOfBytes": "1"
      },
      "t_bytes32": {
        "encoding": "inplace",
        "label": "bytes32",
        "numberOfBytes": "32"
      },
      "t_mapping(t_address,t_address)": {
        "encoding": "mapping",
        "key": "t_address",
        "label": "mapping(address => address)",
        "numberOfBytes": "32",
        "value": "t_address"
      },
      "t_mapping(t_address,t_bool)": {
        "encoding": "mapping",
        "key": "t_address",
        "label": "mapping(address => bool)",
        "numberOfBytes": "32",
        "value": "t_bool"
      },
      "t_mapping(t_address,t_mapping(t_address,t_uint256))": {
        "encoding": "mapping",
        "key": "t_address",
        "label": "mapping(address => mapping(address => uint256))",
        "numberOfBytes": "32",
        "value": "t_mapping(t_address,t_uint256)"
      },
      "t_mapping(t_address,t_struct(Trace208)15180_storage)": {
        "encoding": "mapping",
        "key": "t_address",
        "label": "mapping(address => struct Checkpoints.Trace208)",
        "numberOfBytes": "32",
        "value": "t_struct(Trace208)15180_storage"
      },
      "t_mapping(t_address,t_uint256)": {
        "encoding": "mapping",
        "key": "t_address",
        "label": "mapping(address => uint256)",
        "numberOfBytes": "32",
        "value": "t_uint256"
      },
      "t_mapping(t_bytes32,t_struct(RoleData)2403_storage)": {
        "encoding": "mapping",
        "key": "t_bytes32",
        "label": "mapping(bytes32 => struct AccessControl.RoleData)",
        "numberOfBytes": "32",
        "value": "t_struct(RoleData)2403_storage"
      },
      "t_string_storage": {
        "encoding": "bytes",
        "label": "string",
        "numberOfBytes": "32"
      },
      "t_struct(Checkpoint208)15185_storage": {
        "encoding": "inplace",
        "label": "struct Checkpoints.Checkpoint208",
        "members": [
          {
            "astId": 15182,
            "contract": "contracts/CrowdFlixToken.sol:CrowdFlixToken",
            "label": "_key",
            "offset": 0,
            "slot": "0",
            "type": "t_uint48"
          },
          {
            "astId": 15184,
            "contract": "contracts/CrowdFlixToken.sol:CrowdFlixToken",
            "label": "_value",
            "offset": 6,
            "slot": "0",
            "type": "t_uint208"
          }
        ],
        "numberOfBytes": "32"
      },
      "t_struct(RoleData)2403_storage": {
        "encoding": "inplace",
        "label": "struct AccessControl.RoleData",
        "members": [
          {
            "astId": 2400,
            "contract": "contracts/CrowdFlixToken.sol:CrowdFlixToken",
            "label": "hasRole",
            "offset": 0,
            "slot": "0",
            "type": "t_mapping(t_address,t_bool)"
          },
          {
            "astId": 2402,
            "contract": "contracts/CrowdFlixToken.sol:CrowdFlixToken",
            "label": "adminRole",
            "offset": 0,
            "slot": "1",
            "type": "t_bytes32"
          }
        ],
        "numberOfBytes": "64"
      },
      "t_struct(Trace208)15180_storage": {
        "encoding": "inplace",
        "label": "struct Checkpoints.Trace208",
        "members": [
          {
            "astId": 15179,
            "contract": "contracts/CrowdFlixToken.sol:CrowdFlixToken",
            "label": "_checkpoints",
            "offset": 0,
            "slot": "0",
            "type": "t_array(t_struct(Checkpoint208)15185_storage)dyn_storage"
          }
        ],
        "numberOfBytes": "32"
      },
      "t_uint208": {
        "encoding": "inplace",
        "label": "uint208",
        "numberOfBytes": "26"
      },
      "t_uint256": {
        "encoding": "inplace",
        "label": "uint256",
        "numberOfBytes": "32"
      },
      "t_uint48": {
        "encoding": "inplace",
        "label": "uint48",
        "numberOfBytes": "6"
      }
    }
  }
}