{
  "address": "0xa3a708f2dac3F94789E98639Fb604437bf75FE38",
  "abi": [
    {
      "inputs": [
        {
          "internalType": "address",
          "name": "_crowdFlixToken",
          "type": "address"
        }
      ],
      "stateMutability": "nonpayable",
      "type": "constructor"
    },
    {
      "inputs": [],
      "name": "claim",
      "outputs": [],
      "stateMutability": "nonpayable",
      "type": "function"
    },
    {
      "inputs": [],
      "name": "claimLimit",
      "outputs": [
        {
          "internalType": "uint256",
          "name": "",
          "type": "uint256"
        }
      ],
      "stateMutability": "view",
      "type": "function"
    },
    {
      "inputs": [],
      "name": "crowdFlixToken",
      "outputs": [
        {
          "internalType": "contract IERC20",
          "name": "",
          "type": "address"
        }
      ],
      "stateMutability": "view",
      "type": "function"
    },
    {
      "inputs": [
        {
          "internalType": "address",
          "name": "",
          "type": "address"
        }
      ],
      "name": "lastClaimTime",
      "outputs": [
        {
          "internalType": "uint256",
          "name": "",
          "type": "uint256"
        }
      ],
      "stateMutability": "view",
      "type": "function"
    }
  ],
  "transactionHash": "0x0f2668cead0bfcf3d78228324d43849dad03293da9e762a2fadb6fe9a6927afa",
  "args": [
    "0x680CB1c26DEa1075bf02469fCf2007520C656689"
  ],
  "numDeployments": 1,
  "solcInputHash": "cab52373be9389c76f3b4aed797e399f",
  "bytecode": "0x60a03461007f57601f6103d338819003918201601f19168301916001600160401b038311848410176100845780849260209460405283398101031261007f57516001600160a01b0381169081900361007f5768120d4da7b0bd140000600055608052604051610338908161009b823960805181818160f2015261029b0152f35b600080fd5b634e487b7160e01b600052604160045260246000fdfe608060408181526004918236101561001657600080fd5b600092833560e01c9182634657e0c414610287575081634e71d92d146100ae578163b77cf9c614610070575063be6106761461005157600080fd5b3461006c578160031936011261006c57602091549051908152f35b5080fd5b9050346100aa5760203660031901126100aa57356001600160a01b038116908190036100aa57828291602094526001845220549051908152f35b8280fd5b9050346100aa57826003193601126100aa573383526020906001825282842054420342811161027457610e10116102335782516370a0823160e01b815230818301527f00000000000000000000000000000000000000000000000000000000000000006001600160a01b0316918382602481865afa9182156102295786926101f6575b5085548092106101bd579060448492878751958694859363a9059cbb60e01b8552339085015260248401525af180156101b057610179575b5060019033845252429082205580f35b8181813d83116101a9575b61018e81836102ca565b810103126101a55751801515036100aa5738610169565b8380fd5b503d610184565b50505051903d90823e3d90fd5b845162461bcd60e51b81529081018490526013602482015272496e73756666696369656e7420746f6b656e7360681b6044820152606490fd5b9091508381813d8311610222575b61020e81836102ca565b8101031261021e57519038610131565b8580fd5b503d610204565b85513d88823e3d90fd5b915162461bcd60e51b815291820152601760248201527f436f6f6c646f776e20706572696f64206e6f74206d65740000000000000000006044820152606490fd5b634e487b7160e01b855260118252602485fd5b84903461006c578160031936011261006c577f00000000000000000000000000000000000000000000000000000000000000006001600160a01b03168152602090f35b90601f8019910116810190811067ffffffffffffffff8211176102ec57604052565b634e487b7160e01b600052604160045260246000fdfea2646970667358221220226c2a65a0127950d5e450c913a87fa41a90b647ea3666dcd9deb8230630eb0164736f6c63430008140033",
  "devdoc": {
    "kind": "dev",
    "methods": {},
    "version": 1
  },
  "userdoc": {
    "kind": "user",
    "methods": {},
    "version": 1
  },
  "storageLayout": {
    "storage": [
      {
        "astId": 90,
        "contract": "contracts/CrowdFlixFaucet.sol:CrowdFlixFaucet",
        "label": "claimLimit",
        "offset": 0,
        "slot": "0",
        "type": "t_uint256"
      },
      {
        "astId": 94,
        "contract": "contracts/CrowdFlixFaucet.sol:CrowdFlixFaucet",
        "label": "lastClaimTime",
        "offset": 0,
        "slot": "1",
        "type": "t_mapping(t_address,t_uint256)"
      }
    ],
    "types": {
      "t_address": {
        "encoding": "inplace",
        "label": "address",
        "numberOfBytes": "20"
      },
      "t_mapping(t_address,t_uint256)": {
        "encoding": "mapping",
        "key": "t_address",
        "label": "mapping(address => uint256)",
        "numberOfBytes": "32",
        "value": "t_uint256"
      },
      "t_uint256": {
        "encoding": "inplace",
        "label": "uint256",
        "numberOfBytes": "32"
      }
    }
  }
}