{
  "address": "0x82C6a8E9bC2f932a2015a2eb2f68ca37C6EaC3Df",
  "abi": [
    {
      "inputs": [
        {
          "internalType": "contract IERC20",
          "name": "_fundingToken",
          "type": "address"
        },
        {
          "internalType": "address",
          "name": "initialAuthority",
          "type": "address"
        }
      ],
      "stateMutability": "nonpayable",
      "type": "constructor"
    },
    {
      "inputs": [
        {
          "internalType": "address",
          "name": "authority",
          "type": "address"
        }
      ],
      "name": "AccessManagedInvalidAuthority",
      "type": "error"
    },
    {
      "inputs": [
        {
          "internalType": "address",
          "name": "caller",
          "type": "address"
        },
        {
          "internalType": "uint32",
          "name": "delay",
          "type": "uint32"
        }
      ],
      "name": "AccessManagedRequiredDelay",
      "type": "error"
    },
    {
      "inputs": [
        {
          "internalType": "address",
          "name": "caller",
          "type": "address"
        }
      ],
      "name": "AccessManagedUnauthorized",
      "type": "error"
    },
    {
      "inputs": [],
      "name": "EnforcedPause",
      "type": "error"
    },
    {
      "inputs": [],
      "name": "ExpectedPause",
      "type": "error"
    },
    {
      "inputs": [],
      "name": "ReentrancyGuardReentrantCall",
      "type": "error"
    },
    {
      "anonymous": false,
      "inputs": [
        {
          "indexed": false,
          "internalType": "address",
          "name": "authority",
          "type": "address"
        }
      ],
      "name": "AuthorityUpdated",
      "type": "event"
    },
    {
      "anonymous": false,
      "inputs": [
        {
          "indexed": true,
          "internalType": "uint256",
          "name": "projectId",
          "type": "uint256"
        },
        {
          "indexed": true,
          "internalType": "address",
          "name": "contributor",
          "type": "address"
        },
        {
          "indexed": false,
          "internalType": "uint256",
          "name": "amount",
          "type": "uint256"
        }
      ],
      "name": "Contributed",
      "type": "event"
    },
    {
      "anonymous": false,
      "inputs": [
        {
          "indexed": false,
          "internalType": "address",
          "name": "account",
          "type": "address"
        }
      ],
      "name": "Paused",
      "type": "event"
    },
    {
      "anonymous": false,
      "inputs": [
        {
          "indexed": true,
          "internalType": "uint256",
          "name": "projectId",
          "type": "uint256"
        },
        {
          "indexed": false,
          "internalType": "string",
          "name": "name",
          "type": "string"
        },
        {
          "indexed": false,
          "internalType": "uint256",
          "name": "fundingGoal",
          "type": "uint256"
        },
        {
          "indexed": false,
          "internalType": "uint256",
          "name": "startTime",
          "type": "uint256"
        },
        {
          "indexed": false,
          "internalType": "uint256",
          "name": "endTime",
          "type": "uint256"
        },
        {
          "indexed": false,
          "internalType": "address",
          "name": "teamWallet",
          "type": "address"
        }
      ],
      "name": "ProjectCreated",
      "type": "event"
    },
    {
      "anonymous": false,
      "inputs": [
        {
          "indexed": true,
          "internalType": "uint256",
          "name": "projectId",
          "type": "uint256"
        },
        {
          "indexed": false,
          "internalType": "bool",
          "name": "success",
          "type": "bool"
        }
      ],
      "name": "ProjectFinalized",
      "type": "event"
    },
    {
      "anonymous": false,
      "inputs": [
        {
          "indexed": false,
          "internalType": "address",
          "name": "account",
          "type": "address"
        }
      ],
      "name": "Unpaused",
      "type": "event"
    },
    {
      "anonymous": false,
      "inputs": [
        {
          "indexed": true,
          "internalType": "uint256",
          "name": "projectId",
          "type": "uint256"
        },
        {
          "indexed": true,
          "internalType": "address",
          "name": "recipient",
          "type": "address"
        },
        {
          "indexed": false,
          "internalType": "uint256",
          "name": "amount",
          "type": "uint256"
        }
      ],
      "name": "Withdrawn",
      "type": "event"
    },
    {
      "inputs": [],
      "name": "authority",
      "outputs": [
        {
          "internalType": "address",
          "name": "",
          "type": "address"
        }
      ],
      "stateMutability": "view",
      "type": "function"
    },
    {
      "inputs": [
        {
          "internalType": "uint256",
          "name": "_projectId",
          "type": "uint256"
        },
        {
          "internalType": "uint256",
          "name": "_amount",
          "type": "uint256"
        }
      ],
      "name": "contribute",
      "outputs": [],
      "stateMutability": "nonpayable",
      "type": "function"
    },
    {
      "inputs": [
        {
          "internalType": "string",
          "name": "_name",
          "type": "string"
        },
        {
          "internalType": "string",
          "name": "_description",
          "type": "string"
        },
        {
          "internalType": "uint256",
          "name": "_fundingGoal",
          "type": "uint256"
        },
        {
          "internalType": "uint256",
          "name": "_startTime",
          "type": "uint256"
        },
        {
          "internalType": "uint256",
          "name": "_endTime",
          "type": "uint256"
        },
        {
          "internalType": "address",
          "name": "_teamWallet",
          "type": "address"
        }
      ],
      "name": "createProject",
      "outputs": [],
      "stateMutability": "nonpayable",
      "type": "function"
    },
    {
      "inputs": [
        {
          "internalType": "uint256",
          "name": "_projectId",
          "type": "uint256"
        },
        {
          "internalType": "string",
          "name": "_newName",
          "type": "string"
        },
        {
          "internalType": "string",
          "name": "_newDescription",
          "type": "string"
        },
        {
          "internalType": "uint256",
          "name": "_newFundingGoal",
          "type": "uint256"
        },
        {
          "internalType": "uint256",
          "name": "_newStartTime",
          "type": "uint256"
        },
        {
          "internalType": "uint256",
          "name": "_newEndTime",
          "type": "uint256"
        },
        {
          "internalType": "address",
          "name": "_newTeamWallet",
          "type": "address"
        }
      ],
      "name": "editProject",
      "outputs": [],
      "stateMutability": "nonpayable",
      "type": "function"
    },
    {
      "inputs": [
        {
          "internalType": "uint256",
          "name": "_projectId",
          "type": "uint256"
        }
      ],
      "name": "finalizeProject",
      "outputs": [],
      "stateMutability": "nonpayable",
      "type": "function"
    },
    {
      "inputs": [],
      "name": "fundingToken",
      "outputs": [
        {
          "internalType": "contract IERC20",
          "name": "",
          "type": "address"
        }
      ],
      "stateMutability": "view",
      "type": "function"
    },
    {
      "inputs": [],
      "name": "isConsumingScheduledOp",
      "outputs": [
        {
          "internalType": "bytes4",
          "name": "",
          "type": "bytes4"
        }
      ],
      "stateMutability": "view",
      "type": "function"
    },
    {
      "inputs": [],
      "name": "pause",
      "outputs": [],
      "stateMutability": "nonpayable",
      "type": "function"
    },
    {
      "inputs": [],
      "name": "paused",
      "outputs": [
        {
          "internalType": "bool",
          "name": "",
          "type": "bool"
        }
      ],
      "stateMutability": "view",
      "type": "function"
    },
    {
      "inputs": [],
      "name": "projectCount",
      "outputs": [
        {
          "internalType": "uint256",
          "name": "",
          "type": "uint256"
        }
      ],
      "stateMutability": "view",
      "type": "function"
    },
    {
      "inputs": [
        {
          "internalType": "uint256",
          "name": "",
          "type": "uint256"
        },
        {
          "internalType": "address",
          "name": "",
          "type": "address"
        }
      ],
      "name": "projectInvestments",
      "outputs": [
        {
          "internalType": "uint256",
          "name": "",
          "type": "uint256"
        }
      ],
      "stateMutability": "view",
      "type": "function"
    },
    {
      "inputs": [
        {
          "internalType": "uint256",
          "name": "",
          "type": "uint256"
        }
      ],
      "name": "projects",
      "outputs": [
        {
          "internalType": "string",
          "name": "name",
          "type": "string"
        },
        {
          "internalType": "string",
          "name": "description",
          "type": "string"
        },
        {
          "internalType": "uint256",
          "name": "fundingGoal",
          "type": "uint256"
        },
        {
          "internalType": "uint256",
          "name": "startTime",
          "type": "uint256"
        },
        {
          "internalType": "uint256",
          "name": "endTime",
          "type": "uint256"
        },
        {
          "internalType": "address",
          "name": "teamWallet",
          "type": "address"
        },
        {
          "internalType": "uint256",
          "name": "totalFunded",
          "type": "uint256"
        },
        {
          "internalType": "bool",
          "name": "isActive",
          "type": "bool"
        }
      ],
      "stateMutability": "view",
      "type": "function"
    },
    {
      "inputs": [
        {
          "internalType": "address",
          "name": "newAuthority",
          "type": "address"
        }
      ],
      "name": "setAuthority",
      "outputs": [],
      "stateMutability": "nonpayable",
      "type": "function"
    },
    {
      "inputs": [],
      "name": "unpause",
      "outputs": [],
      "stateMutability": "nonpayable",
      "type": "function"
    },
    {
      "inputs": [
        {
          "internalType": "uint256",
          "name": "_projectId",
          "type": "uint256"
        }
      ],
      "name": "withdraw",
      "outputs": [],
      "stateMutability": "nonpayable",
      "type": "function"
    }
  ],
  "transactionHash": "0x40126470b394c6572b805127cf03ccbdefb9c3bcc8462c30babb49d2a60de150",
  "args": [
    "0xb39D7Ce665FdE0bdE627155Ff56FBE5B10008b95",
    "0x800D73eBa2F78550A5242c42776A404d210d248C"
  ],
  "numDeployments": 1,
  "solcInputHash": "3552770a911cad239e8069e465730774",
  "bytecode": "0x60806040523480156200001157600080fd5b5060405162001a4538038062001a458339810160408190526200003491620000eb565b6000805460ff19169055806200004a8162000076565b505060018055600480546001600160a01b0319166001600160a01b03929092169190911790556200012a565b60008054610100600160a81b0319166101006001600160a01b038416908102919091179091556040519081527f2f658b440c35314f52658ea8a740e05b284cdc84dc9ae01e891f21b8933e7cad9060200160405180910390a150565b6001600160a01b0381168114620000e857600080fd5b50565b60008060408385031215620000ff57600080fd5b82516200010c81620000d2565b60208401519092506200011f81620000d2565b809150509250929050565b61190b806200013a6000396000f3fe608060405234801561001057600080fd5b50600436106100f55760003560e01c80635c975abb116100975780638c590917116100665780638c590917146101f35780638fb3603714610206578063bf7e214f14610227578063c14e56561461023d57600080fd5b80635c975abb1461019757806378065f27146101ad5780637a9e5e4b146101d85780638456cb59146101eb57600080fd5b80633f4ba83a116100d35780633f4ba83a1461015657806346a589ca1461015e5780634d798de51461017157806354b83dee1461018457600080fd5b8063107046bd146100fa5780632e1a7d4d1461012a57806336fbad261461013f575b600080fd5b61010d61010836600461120e565b610268565b604051610121989796959493929190611277565b60405180910390f35b61013d61013836600461120e565b6103c7565b005b61014860035481565b604051908152602001610121565b61013d61052a565b61013d61016c36600461139c565b61053d565b61013d61017f36600461120e565b61074a565b61013d61019236600461142c565b610977565b60005460ff166040519015158152602001610121565b6004546101c0906001600160a01b031681565b6040516001600160a01b039091168152602001610121565b61013d6101e63660046114c7565b610acc565b61013d610b4b565b61013d6102013660046114e9565b610b5c565b61020e610e18565b6040516001600160e01b03199091168152602001610121565b60005461010090046001600160a01b03166101c0565b61014861024b36600461150b565b600560209081526000928352604080842090915290825290205481565b60026020526000908152604090208054819061028390611537565b80601f01602080910402602001604051908101604052809291908181526020018280546102af90611537565b80156102fc5780601f106102d1576101008083540402835291602001916102fc565b820191906000526020600020905b8154815290600101906020018083116102df57829003601f168201915b50505050509080600101805461031190611537565b80601f016020809104026020016040519081016040528092919081815260200182805461033d90611537565b801561038a5780601f1061035f5761010080835404028352916020019161038a565b820191906000526020600020905b81548152906001019060200180831161036d57829003601f168201915b50505060028401546003850154600486015460058701546006880154600790980154969793969295509093506001600160a01b0316919060ff1688565b6103d4335b600036610e3c565b6000818152600260205260409020600781015460ff161561043c5760405162461bcd60e51b815260206004820152601760248201527f50726f6a656374206973207374696c6c2061637469766500000000000000000060448201526064015b60405180910390fd5b8060020154816006015410156104945760405162461bcd60e51b815260206004820152601860248201527f46756e64696e6720676f616c206e6f74207265616368656400000000000000006044820152606401610433565b600681018054600091829055600583015460405191926001600160a01b039091169183156108fc0291849190818181858888f193505050501580156104dd573d6000803e3d6000fd5b5060058201546040518281526001600160a01b039091169084907fcf7d23a3cbe4e8b36ff82fd1b05b1b17373dc7804b4ebbd6e2356716ef202372906020015b60405180910390a3505050565b610533336103cc565b61053b610f56565b565b610546336103cc565b428310156105965760405162461bcd60e51b815260206004820181905260248201527f53746172742074696d65206d75737420626520696e20746865206675747572656044820152606401610433565b8282116105b55760405162461bcd60e51b815260040161043390611571565b6001600160a01b0381166105db5760405162461bcd60e51b8152600401610433906115b2565b6003546040805161012081018252888152602080820189905281830188905260608201879052608082018690526001600160a01b03851660a0830152600060c08301819052600160e084015283518181528083018552610100840152848152600290915291909120815181906106519082611643565b50602082015160018201906106669082611643565b5060408201516002820155606082015160038201556080820151600482015560a08201516005820180546001600160a01b0319166001600160a01b0390921691909117905560c0820151600682015560e082015160078201805460ff191691151591909117905561010082015180516106e9916008840191602090910190611194565b505060038054915060006106fc83611719565b9190505550807f455b97076700251d35232573cec64b8a84c7d7fa278933a253941267d439cf048887878787604051610739959493929190611732565b60405180910390a250505050505050565b610753336103cc565b6000818152600260205260409020600781015460ff166107ad5760405162461bcd60e51b815260206004820152601560248201527450726f6a656374206973206e6f742061637469766560581b6044820152606401610433565b806004015442116108005760405162461bcd60e51b815260206004820152601960248201527f50726f6a65637420686173206e6f7420656e64656420796574000000000000006044820152606401610433565b60078101805460ff19169055600281015460068201541080159061086e57600682018054600091829055600584015460405191926001600160a01b039091169183156108fc0291849190818181858888f19350505050158015610867573d6000803e3d6000fd5b5050610936565b60005b600883015481101561093457600083600801828154811061089457610894611772565b60009182526020808320909101548783526005825260408084206001600160a01b0390921680855291909252912054909150156109215760008581526005602090815260408083206001600160a01b0385168085529252808320805490849055905190926108fc841502918491818181858888f1935050505015801561091e573d6000803e3d6000fd5b50505b508061092c81611719565b915050610871565b505b827ff41ceb4b589a15c81895351360c60f19679907fa4852557cbeb5559605ab45068260405161096a911515815260200190565b60405180910390a2505050565b610980336103cc565b60035487106109c65760405162461bcd60e51b8152602060048201526012602482015271125b9d985b1a59081c1c9bda9958dd08125160721b6044820152606401610433565b6000878152600260205260409020806109df8882611643565b50600181016109ee8782611643565b506002810185905560038101849055600481018390556005810180546001600160a01b0319166001600160a01b03841617905542841015610a715760405162461bcd60e51b815260206004820181905260248201527f53746172742074696d65206d75737420626520696e20746865206675747572656044820152606401610433565b8060030154816004015411610a985760405162461bcd60e51b815260040161043390611571565b60058101546001600160a01b0316610ac25760405162461bcd60e51b8152600401610433906115b2565b5050505050505050565b600054339061010090046001600160a01b03168114610b085760405162d1953b60e31b81526001600160a01b0382166004820152602401610433565b816001600160a01b03163b600003610b3e576040516361798f2f60e11b81526001600160a01b0383166004820152602401610433565b610b4782610fa8565b5050565b610b54336103cc565b61053b611004565b610b64611041565b6000828152600260205260409020600781015460ff16610bbe5760405162461bcd60e51b815260206004820152601560248201527450726f6a656374206973206e6f742061637469766560581b6044820152606401610433565b8060030154421015610c125760405162461bcd60e51b815260206004820152601b60248201527f50726f6a65637420686173206e6f7420737461727465642079657400000000006044820152606401610433565b8060040154421115610c5a5760405162461bcd60e51b8152602060048201526011602482015270141c9bda9958dd081a185cc8195b991959607a1b6044820152606401610433565b60008211610caa5760405162461bcd60e51b815260206004820152601d60248201527f416d6f756e74206d7573742062652067726561746572207468616e20300000006044820152606401610433565b600480546040516323b872dd60e01b81523392810192909252306024830152604482018490526001600160a01b0316906323b872dd906064016020604051808303816000875af1158015610d02573d6000803e3d6000fd5b505050506040513d601f19601f82011682018060405250810190610d269190611798565b5081816006016000828254610d3b91906117b3565b9091555050600083815260056020908152604080832033845290915281208054849290610d699084906117b3565b909155505060088101541580610db75750600881018054339190610d8f906001906117cc565b81548110610d9f57610d9f611772565b6000918252602090912001546001600160a01b031614155b15610de457600881018054600181018255600091825260209091200180546001600160a01b031916331790555b604051828152339084907fb2ed2e021651f85a4754a44651fc09ac5141bc0329ce4dfe8dd712a5d04a8b399060200161051d565b60008054600160a81b900460ff16610e305750600090565b50638fb3603760e01b90565b600080610e78610e5a6000546001600160a01b036101009091041690565b8630610e6a60046000898b6117df565b610e7391611809565b611065565b9150915081610f4f5763ffffffff811615610f2c576000805460ff60a81b1916600160a81b179055610eb86000546001600160a01b036101009091041690565b6001600160a01b03166394c7d7ee8686866040518463ffffffff1660e01b8152600401610ee793929190611839565b600060405180830381600087803b158015610f0157600080fd5b505af1158015610f15573d6000803e3d6000fd5b50506000805460ff60a81b1916905550610f4f9050565b60405162d1953b60e31b81526001600160a01b0386166004820152602401610433565b5050505050565b610f5e611171565b6000805460ff191690557f5db9ee0a495bf2e6ff9c91a7834c1ba4fdd244a5e8aa4e537bd38aeae4b073aa335b6040516001600160a01b03909116815260200160405180910390a1565b60008054610100600160a81b0319166101006001600160a01b038416908102919091179091556040519081527f2f658b440c35314f52658ea8a740e05b284cdc84dc9ae01e891f21b8933e7cad9060200160405180910390a150565b61100c611041565b6000805460ff191660011790557f62e78cea01bee320cd4e420270b5ea74000d11b0c9f74754ebdbfc544b05a258610f8b3390565b60005460ff161561053b5760405163d93c066560e01b815260040160405180910390fd5b6040516001600160a01b03848116602483015283811660448301526001600160e01b03198316606483015260009182918291829189169060840160408051601f198184030181529181526020820180516001600160e01b031663b700961360e01b179052516110d49190611879565b600060405180830381855afa9150503d806000811461110f576040519150601f19603f3d011682016040523d82523d6000602084013e611114565b606091505b50915091508115611166576040815110611146578080602001905181019061113c9190611895565b9094509250611166565b602081511061116657808060200190518101906111639190611798565b93505b505094509492505050565b60005460ff1661053b57604051638dfc202b60e01b815260040160405180910390fd5b8280548282559060005260206000209081019282156111e9579160200282015b828111156111e957825182546001600160a01b0319166001600160a01b039091161782556020909201916001909101906111b4565b506111f59291506111f9565b5090565b5b808211156111f557600081556001016111fa565b60006020828403121561122057600080fd5b5035919050565b60005b8381101561124257818101518382015260200161122a565b50506000910152565b60008151808452611263816020860160208601611227565b601f01601f19169290920160200192915050565b600061010080835261128b8184018c61124b565b9050828103602084015261129f818b61124b565b60408401999099525050606081019590955260808501939093526001600160a01b039190911660a084015260c0830152151560e09091015292915050565b634e487b7160e01b600052604160045260246000fd5b600082601f83011261130457600080fd5b813567ffffffffffffffff8082111561131f5761131f6112dd565b604051601f8301601f19908116603f01168101908282118183101715611347576113476112dd565b8160405283815286602085880101111561136057600080fd5b836020870160208301376000602085830101528094505050505092915050565b80356001600160a01b038116811461139757600080fd5b919050565b60008060008060008060c087890312156113b557600080fd5b863567ffffffffffffffff808211156113cd57600080fd5b6113d98a838b016112f3565b975060208901359150808211156113ef57600080fd5b506113fc89828a016112f3565b95505060408701359350606087013592506080870135915061142060a08801611380565b90509295509295509295565b600080600080600080600060e0888a03121561144757600080fd5b87359650602088013567ffffffffffffffff8082111561146657600080fd5b6114728b838c016112f3565b975060408a013591508082111561148857600080fd5b506114958a828b016112f3565b955050606088013593506080880135925060a088013591506114b960c08901611380565b905092959891949750929550565b6000602082840312156114d957600080fd5b6114e282611380565b9392505050565b600080604083850312156114fc57600080fd5b50508035926020909101359150565b6000806040838503121561151e57600080fd5b8235915061152e60208401611380565b90509250929050565b600181811c9082168061154b57607f821691505b60208210810361156b57634e487b7160e01b600052602260045260246000fd5b50919050565b60208082526021908201527f456e642074696d65206d7573742062652061667465722073746172742074696d6040820152606560f81b606082015260800190565b60208082526022908201527f5465616d2077616c6c65742063616e6e6f74206265207a65726f206164647265604082015261737360f01b606082015260800190565b601f82111561163e57600081815260208120601f850160051c8101602086101561161b5750805b601f850160051c820191505b8181101561163a57828155600101611627565b5050505b505050565b815167ffffffffffffffff81111561165d5761165d6112dd565b6116718161166b8454611537565b846115f4565b602080601f8311600181146116a6576000841561168e5750858301515b600019600386901b1c1916600185901b17855561163a565b600085815260208120601f198616915b828110156116d5578886015182559484019460019091019084016116b6565b50858210156116f35787850151600019600388901b60f8161c191681555b5050505050600190811b01905550565b634e487b7160e01b600052601160045260246000fd5b60006001820161172b5761172b611703565b5060010190565b60a08152600061174560a083018861124b565b602083019690965250604081019390935260608301919091526001600160a01b0316608090910152919050565b634e487b7160e01b600052603260045260246000fd5b8051801515811461139757600080fd5b6000602082840312156117aa57600080fd5b6114e282611788565b808201808211156117c6576117c6611703565b92915050565b818103818111156117c6576117c6611703565b600080858511156117ef57600080fd5b838611156117fc57600080fd5b5050820193919092039150565b6001600160e01b031981358181169160048510156118315780818660040360031b1b83161692505b505092915050565b6001600160a01b03841681526040602082018190528101829052818360608301376000818301606090810191909152601f909201601f1916010192915050565b6000825161188b818460208701611227565b9190910192915050565b600080604083850312156118a857600080fd5b6118b183611788565b9150602083015163ffffffff811681146118ca57600080fd5b80915050925092905056fea2646970667358221220c1a99d6359e5f6cd119e6f1875cb87d52391adaaf54692b86594b58887d703d964736f6c63430008140033",
  "devdoc": {
    "errors": {
      "EnforcedPause()": [
        {
          "details": "The operation failed because the contract is paused."
        }
      ],
      "ExpectedPause()": [
        {
          "details": "The operation failed because the contract is not paused."
        }
      ],
      "ReentrancyGuardReentrantCall()": [
        {
          "details": "Unauthorized reentrant call."
        }
      ]
    },
    "events": {
      "AuthorityUpdated(address)": {
        "details": "Authority that manages this contract was updated."
      },
      "Paused(address)": {
        "details": "Emitted when the pause is triggered by `account`."
      },
      "Unpaused(address)": {
        "details": "Emitted when the pause is lifted by `account`."
      }
    },
    "kind": "dev",
    "methods": {
      "authority()": {
        "details": "Returns the current authority."
      },
      "isConsumingScheduledOp()": {
        "details": "Returns true only in the context of a delayed restricted call, at the moment that the scheduled operation is being consumed. Prevents denial of service for delayed restricted calls in the case that the contract performs attacker controlled calls."
      },
      "paused()": {
        "details": "Returns true if the contract is paused, and false otherwise."
      },
      "setAuthority(address)": {
        "details": "Transfers control to a new authority. The caller must be the current authority."
      }
    },
    "version": 1
  },
  "userdoc": {
    "kind": "user",
    "methods": {},
    "version": 1
  },
  "storageLayout": {
    "storage": [
      {
        "astId": 877,
        "contract": "contracts/LaunchPad.sol:LaunchPad",
        "label": "_paused",
        "offset": 0,
        "slot": "0",
        "type": "t_bool"
      },
      {
        "astId": 18,
        "contract": "contracts/LaunchPad.sol:LaunchPad",
        "label": "_authority",
        "offset": 1,
        "slot": "0",
        "type": "t_address"
      },
      {
        "astId": 20,
        "contract": "contracts/LaunchPad.sol:LaunchPad",
        "label": "_consumingSchedule",
        "offset": 21,
        "slot": "0",
        "type": "t_bool"
      },
      {
        "astId": 996,
        "contract": "contracts/LaunchPad.sol:LaunchPad",
        "label": "_status",
        "offset": 0,
        "slot": "1",
        "type": "t_uint256"
      },
      {
        "astId": 4175,
        "contract": "contracts/LaunchPad.sol:LaunchPad",
        "label": "projects",
        "offset": 0,
        "slot": "2",
        "type": "t_mapping(t_uint256,t_struct(Project)4170_storage)"
      },
      {
        "astId": 4177,
        "contract": "contracts/LaunchPad.sol:LaunchPad",
        "label": "projectCount",
        "offset": 0,
        "slot": "3",
        "type": "t_uint256"
      },
      {
        "astId": 4180,
        "contract": "contracts/LaunchPad.sol:LaunchPad",
        "label": "fundingToken",
        "offset": 0,
        "slot": "4",
        "type": "t_contract(IERC20)838"
      },
      {
        "astId": 4186,
        "contract": "contracts/LaunchPad.sol:LaunchPad",
        "label": "projectInvestments",
        "offset": 0,
        "slot": "5",
        "type": "t_mapping(t_uint256,t_mapping(t_address,t_uint256))"
      }
    ],
    "types": {
      "t_address": {
        "encoding": "inplace",
        "label": "address",
        "numberOfBytes": "20"
      },
      "t_array(t_address)dyn_storage": {
        "base": "t_address",
        "encoding": "dynamic_array",
        "label": "address[]",
        "numberOfBytes": "32"
      },
      "t_bool": {
        "encoding": "inplace",
        "label": "bool",
        "numberOfBytes": "1"
      },
      "t_contract(IERC20)838": {
        "encoding": "inplace",
        "label": "contract IERC20",
        "numberOfBytes": "20"
      },
      "t_mapping(t_address,t_uint256)": {
        "encoding": "mapping",
        "key": "t_address",
        "label": "mapping(address => uint256)",
        "numberOfBytes": "32",
        "value": "t_uint256"
      },
      "t_mapping(t_uint256,t_mapping(t_address,t_uint256))": {
        "encoding": "mapping",
        "key": "t_uint256",
        "label": "mapping(uint256 => mapping(address => uint256))",
        "numberOfBytes": "32",
        "value": "t_mapping(t_address,t_uint256)"
      },
      "t_mapping(t_uint256,t_struct(Project)4170_storage)": {
        "encoding": "mapping",
        "key": "t_uint256",
        "label": "mapping(uint256 => struct LaunchPad.Project)",
        "numberOfBytes": "32",
        "value": "t_struct(Project)4170_storage"
      },
      "t_string_storage": {
        "encoding": "bytes",
        "label": "string",
        "numberOfBytes": "32"
      },
      "t_struct(Project)4170_storage": {
        "encoding": "inplace",
        "label": "struct LaunchPad.Project",
        "members": [
          {
            "astId": 4152,
            "contract": "contracts/LaunchPad.sol:LaunchPad",
            "label": "name",
            "offset": 0,
            "slot": "0",
            "type": "t_string_storage"
          },
          {
            "astId": 4154,
            "contract": "contracts/LaunchPad.sol:LaunchPad",
            "label": "description",
            "offset": 0,
            "slot": "1",
            "type": "t_string_storage"
          },
          {
            "astId": 4156,
            "contract": "contracts/LaunchPad.sol:LaunchPad",
            "label": "fundingGoal",
            "offset": 0,
            "slot": "2",
            "type": "t_uint256"
          },
          {
            "astId": 4158,
            "contract": "contracts/LaunchPad.sol:LaunchPad",
            "label": "startTime",
            "offset": 0,
            "slot": "3",
            "type": "t_uint256"
          },
          {
            "astId": 4160,
            "contract": "contracts/LaunchPad.sol:LaunchPad",
            "label": "endTime",
            "offset": 0,
            "slot": "4",
            "type": "t_uint256"
          },
          {
            "astId": 4162,
            "contract": "contracts/LaunchPad.sol:LaunchPad",
            "label": "teamWallet",
            "offset": 0,
            "slot": "5",
            "type": "t_address"
          },
          {
            "astId": 4164,
            "contract": "contracts/LaunchPad.sol:LaunchPad",
            "label": "totalFunded",
            "offset": 0,
            "slot": "6",
            "type": "t_uint256"
          },
          {
            "astId": 4166,
            "contract": "contracts/LaunchPad.sol:LaunchPad",
            "label": "isActive",
            "offset": 0,
            "slot": "7",
            "type": "t_bool"
          },
          {
            "astId": 4169,
            "contract": "contracts/LaunchPad.sol:LaunchPad",
            "label": "contributors",
            "offset": 0,
            "slot": "8",
            "type": "t_array(t_address)dyn_storage"
          }
        ],
        "numberOfBytes": "288"
      },
      "t_uint256": {
        "encoding": "inplace",
        "label": "uint256",
        "numberOfBytes": "32"
      }
    }
  }
}