{
  "address": "0x5143e817751F90b23Ebf4c4E21ccCa7b8BBe582a",
  "abi": [
    {
      "inputs": [],
      "stateMutability": "nonpayable",
      "type": "constructor"
    },
    {
      "inputs": [],
      "name": "ERC721EnumerableForbiddenBatchMint",
      "type": "error"
    },
    {
      "inputs": [
        {
          "internalType": "address",
          "name": "sender",
          "type": "address"
        },
        {
          "internalType": "uint256",
          "name": "tokenId",
          "type": "uint256"
        },
        {
          "internalType": "address",
          "name": "owner",
          "type": "address"
        }
      ],
      "name": "ERC721IncorrectOwner",
      "type": "error"
    },
    {
      "inputs": [
        {
          "internalType": "address",
          "name": "operator",
          "type": "address"
        },
        {
          "internalType": "uint256",
          "name": "tokenId",
          "type": "uint256"
        }
      ],
      "name": "ERC721InsufficientApproval",
      "type": "error"
    },
    {
      "inputs": [
        {
          "internalType": "address",
          "name": "approver",
          "type": "address"
        }
      ],
      "name": "ERC721InvalidApprover",
      "type": "error"
    },
    {
      "inputs": [
        {
          "internalType": "address",
          "name": "operator",
          "type": "address"
        }
      ],
      "name": "ERC721InvalidOperator",
      "type": "error"
    },
    {
      "inputs": [
        {
          "internalType": "address",
          "name": "owner",
          "type": "address"
        }
      ],
      "name": "ERC721InvalidOwner",
      "type": "error"
    },
    {
      "inputs": [
        {
          "internalType": "address",
          "name": "receiver",
          "type": "address"
        }
      ],
      "name": "ERC721InvalidReceiver",
      "type": "error"
    },
    {
      "inputs": [
        {
          "internalType": "address",
          "name": "sender",
          "type": "address"
        }
      ],
      "name": "ERC721InvalidSender",
      "type": "error"
    },
    {
      "inputs": [
        {
          "internalType": "uint256",
          "name": "tokenId",
          "type": "uint256"
        }
      ],
      "name": "ERC721NonexistentToken",
      "type": "error"
    },
    {
      "inputs": [
        {
          "internalType": "address",
          "name": "owner",
          "type": "address"
        },
        {
          "internalType": "uint256",
          "name": "index",
          "type": "uint256"
        }
      ],
      "name": "ERC721OutOfBoundsIndex",
      "type": "error"
    },
    {
      "inputs": [],
      "name": "EnforcedPause",
      "type": "error"
    },
    {
      "inputs": [],
      "name": "ExpectedPause",
      "type": "error"
    },
    {
      "inputs": [],
      "name": "InvalidInitialization",
      "type": "error"
    },
    {
      "inputs": [],
      "name": "NotInitializing",
      "type": "error"
    },
    {
      "inputs": [
        {
          "internalType": "address",
          "name": "owner",
          "type": "address"
        }
      ],
      "name": "OwnableInvalidOwner",
      "type": "error"
    },
    {
      "inputs": [
        {
          "internalType": "address",
          "name": "account",
          "type": "address"
        }
      ],
      "name": "OwnableUnauthorizedAccount",
      "type": "error"
    },
    {
      "anonymous": false,
      "inputs": [
        {
          "indexed": true,
          "internalType": "address",
          "name": "owner",
          "type": "address"
        },
        {
          "indexed": true,
          "internalType": "address",
          "name": "approved",
          "type": "address"
        },
        {
          "indexed": true,
          "internalType": "uint256",
          "name": "tokenId",
          "type": "uint256"
        }
      ],
      "name": "Approval",
      "type": "event"
    },
    {
      "anonymous": false,
      "inputs": [
        {
          "indexed": true,
          "internalType": "address",
          "name": "owner",
          "type": "address"
        },
        {
          "indexed": true,
          "internalType": "address",
          "name": "operator",
          "type": "address"
        },
        {
          "indexed": false,
          "internalType": "bool",
          "name": "approved",
          "type": "bool"
        }
      ],
      "name": "ApprovalForAll",
      "type": "event"
    },
    {
      "anonymous": false,
      "inputs": [
        {
          "indexed": false,
          "internalType": "uint64",
          "name": "version",
          "type": "uint64"
        }
      ],
      "name": "Initialized",
      "type": "event"
    },
    {
      "anonymous": false,
      "inputs": [
        {
          "indexed": true,
          "internalType": "address",
          "name": "previousOwner",
          "type": "address"
        },
        {
          "indexed": true,
          "internalType": "address",
          "name": "newOwner",
          "type": "address"
        }
      ],
      "name": "OwnershipTransferred",
      "type": "event"
    },
    {
      "anonymous": false,
      "inputs": [
        {
          "indexed": false,
          "internalType": "address",
          "name": "account",
          "type": "address"
        }
      ],
      "name": "Paused",
      "type": "event"
    },
    {
      "anonymous": false,
      "inputs": [
        {
          "indexed": true,
          "internalType": "address",
          "name": "from",
          "type": "address"
        },
        {
          "indexed": true,
          "internalType": "address",
          "name": "to",
          "type": "address"
        },
        {
          "indexed": true,
          "internalType": "uint256",
          "name": "tokenId",
          "type": "uint256"
        }
      ],
      "name": "Transfer",
      "type": "event"
    },
    {
      "anonymous": false,
      "inputs": [
        {
          "indexed": false,
          "internalType": "address",
          "name": "account",
          "type": "address"
        }
      ],
      "name": "Unpaused",
      "type": "event"
    },
    {
      "inputs": [
        {
          "internalType": "address",
          "name": "to",
          "type": "address"
        },
        {
          "internalType": "uint256",
          "name": "tokenId",
          "type": "uint256"
        }
      ],
      "name": "approve",
      "outputs": [],
      "stateMutability": "nonpayable",
      "type": "function"
    },
    {
      "inputs": [
        {
          "internalType": "address",
          "name": "owner",
          "type": "address"
        }
      ],
      "name": "balanceOf",
      "outputs": [
        {
          "internalType": "uint256",
          "name": "",
          "type": "uint256"
        }
      ],
      "stateMutability": "view",
      "type": "function"
    },
    {
      "inputs": [
        {
          "internalType": "uint256",
          "name": "tokenId",
          "type": "uint256"
        }
      ],
      "name": "getApproved",
      "outputs": [
        {
          "internalType": "address",
          "name": "",
          "type": "address"
        }
      ],
      "stateMutability": "view",
      "type": "function"
    },
    {
      "inputs": [
        {
          "internalType": "address",
          "name": "initialOwner",
          "type": "address"
        },
        {
          "internalType": "string",
          "name": "_name",
          "type": "string"
        },
        {
          "internalType": "string",
          "name": "_symbol",
          "type": "string"
        },
        {
          "internalType": "uint256",
          "name": "_price",
          "type": "uint256"
        }
      ],
      "name": "initialize",
      "outputs": [],
      "stateMutability": "nonpayable",
      "type": "function"
    },
    {
      "inputs": [
        {
          "internalType": "address",
          "name": "owner",
          "type": "address"
        },
        {
          "internalType": "address",
          "name": "operator",
          "type": "address"
        }
      ],
      "name": "isApprovedForAll",
      "outputs": [
        {
          "internalType": "bool",
          "name": "",
          "type": "bool"
        }
      ],
      "stateMutability": "view",
      "type": "function"
    },
    {
      "inputs": [],
      "name": "name",
      "outputs": [
        {
          "internalType": "string",
          "name": "",
          "type": "string"
        }
      ],
      "stateMutability": "view",
      "type": "function"
    },
    {
      "inputs": [],
      "name": "owner",
      "outputs": [
        {
          "internalType": "address",
          "name": "",
          "type": "address"
        }
      ],
      "stateMutability": "view",
      "type": "function"
    },
    {
      "inputs": [
        {
          "internalType": "uint256",
          "name": "tokenId",
          "type": "uint256"
        }
      ],
      "name": "ownerOf",
      "outputs": [
        {
          "internalType": "address",
          "name": "",
          "type": "address"
        }
      ],
      "stateMutability": "view",
      "type": "function"
    },
    {
      "inputs": [],
      "name": "pause",
      "outputs": [],
      "stateMutability": "nonpayable",
      "type": "function"
    },
    {
      "inputs": [],
      "name": "paused",
      "outputs": [
        {
          "internalType": "bool",
          "name": "",
          "type": "bool"
        }
      ],
      "stateMutability": "view",
      "type": "function"
    },
    {
      "inputs": [],
      "name": "price",
      "outputs": [
        {
          "internalType": "uint256",
          "name": "",
          "type": "uint256"
        }
      ],
      "stateMutability": "view",
      "type": "function"
    },
    {
      "inputs": [],
      "name": "renounceOwnership",
      "outputs": [],
      "stateMutability": "nonpayable",
      "type": "function"
    },
    {
      "inputs": [
        {
          "internalType": "address",
          "name": "to",
          "type": "address"
        }
      ],
      "name": "safeMint",
      "outputs": [],
      "stateMutability": "payable",
      "type": "function"
    },
    {
      "inputs": [
        {
          "internalType": "address",
          "name": "from",
          "type": "address"
        },
        {
          "internalType": "address",
          "name": "to",
          "type": "address"
        },
        {
          "internalType": "uint256",
          "name": "tokenId",
          "type": "uint256"
        }
      ],
      "name": "safeTransferFrom",
      "outputs": [],
      "stateMutability": "nonpayable",
      "type": "function"
    },
    {
      "inputs": [
        {
          "internalType": "address",
          "name": "from",
          "type": "address"
        },
        {
          "internalType": "address",
          "name": "to",
          "type": "address"
        },
        {
          "internalType": "uint256",
          "name": "tokenId",
          "type": "uint256"
        },
        {
          "internalType": "bytes",
          "name": "data",
          "type": "bytes"
        }
      ],
      "name": "safeTransferFrom",
      "outputs": [],
      "stateMutability": "nonpayable",
      "type": "function"
    },
    {
      "inputs": [
        {
          "internalType": "address",
          "name": "operator",
          "type": "address"
        },
        {
          "internalType": "bool",
          "name": "approved",
          "type": "bool"
        }
      ],
      "name": "setApprovalForAll",
      "outputs": [],
      "stateMutability": "nonpayable",
      "type": "function"
    },
    {
      "inputs": [
        {
          "internalType": "uint256",
          "name": "_newPrice",
          "type": "uint256"
        }
      ],
      "name": "setPrice",
      "outputs": [],
      "stateMutability": "nonpayable",
      "type": "function"
    },
    {
      "inputs": [
        {
          "internalType": "bytes4",
          "name": "interfaceId",
          "type": "bytes4"
        }
      ],
      "name": "supportsInterface",
      "outputs": [
        {
          "internalType": "bool",
          "name": "",
          "type": "bool"
        }
      ],
      "stateMutability": "view",
      "type": "function"
    },
    {
      "inputs": [],
      "name": "symbol",
      "outputs": [
        {
          "internalType": "string",
          "name": "",
          "type": "string"
        }
      ],
      "stateMutability": "view",
      "type": "function"
    },
    {
      "inputs": [
        {
          "internalType": "uint256",
          "name": "index",
          "type": "uint256"
        }
      ],
      "name": "tokenByIndex",
      "outputs": [
        {
          "internalType": "uint256",
          "name": "",
          "type": "uint256"
        }
      ],
      "stateMutability": "view",
      "type": "function"
    },
    {
      "inputs": [
        {
          "internalType": "address",
          "name": "owner",
          "type": "address"
        },
        {
          "internalType": "uint256",
          "name": "index",
          "type": "uint256"
        }
      ],
      "name": "tokenOfOwnerByIndex",
      "outputs": [
        {
          "internalType": "uint256",
          "name": "",
          "type": "uint256"
        }
      ],
      "stateMutability": "view",
      "type": "function"
    },
    {
      "inputs": [
        {
          "internalType": "uint256",
          "name": "tokenId",
          "type": "uint256"
        }
      ],
      "name": "tokenURI",
      "outputs": [
        {
          "internalType": "string",
          "name": "",
          "type": "string"
        }
      ],
      "stateMutability": "view",
      "type": "function"
    },
    {
      "inputs": [],
      "name": "totalSupply",
      "outputs": [
        {
          "internalType": "uint256",
          "name": "",
          "type": "uint256"
        }
      ],
      "stateMutability": "view",
      "type": "function"
    },
    {
      "inputs": [
        {
          "internalType": "address",
          "name": "from",
          "type": "address"
        },
        {
          "internalType": "address",
          "name": "to",
          "type": "address"
        },
        {
          "internalType": "uint256",
          "name": "tokenId",
          "type": "uint256"
        }
      ],
      "name": "transferFrom",
      "outputs": [],
      "stateMutability": "nonpayable",
      "type": "function"
    },
    {
      "inputs": [
        {
          "internalType": "address",
          "name": "newOwner",
          "type": "address"
        }
      ],
      "name": "transferOwnership",
      "outputs": [],
      "stateMutability": "nonpayable",
      "type": "function"
    },
    {
      "inputs": [],
      "name": "unpause",
      "outputs": [],
      "stateMutability": "nonpayable",
      "type": "function"
    }
  ],
  "transactionHash": "0xd8cedbdd419e0d6c76aacc745e7afb8c692faf885c356403f91f69114c8791d7",
  "args": [],
  "numDeployments": 1,
  "solcInputHash": "7ecb9f75ac9d2afd906f1440db208927",
  "bytecode": "0x608080604052346100b8577ff0c57e16840df040f15088dc2f81fe391c3923bec73e23a9662efc9c229c6a009081549060ff8260401c166100a957506001600160401b036002600160401b031982821601610064575b604051611cf990816100be8239f35b6001600160401b031990911681179091556040519081527fc7f505b2f371ae2175ee4913f4499e1f2633a7b5936321eed1cdaeb6115181d290602090a1388080610055565b63f92ee8a960e01b8152600490fd5b600080fdfe60806040908082526004918236101561001757600080fd5b600092833560e01c92836301ffc9a7146112b75750826306fdde03146111ed578263081812fc146111a2578263095ea7b3146110bf57826318160ddd1461109357826323b872dd1461107b5782632f745c5914610fea5782633f4ba83a14610f7157826340d097c314610b3057826342842e0e14610b015782634d12d4b61461066b5782634f6ccce7146106085782635c975abb146105d75782636352211e146105a657826370a0823114610579578263715018a61461050f5782638456cb59146104a75782638da5cb5b1461047157826391b7f5ed1461044f57826395d89b4114610347578263a035b1fe14610328578263a22cb46514610285578263b88d4fde14610216578263c87b56dd146101c457508163e985e9c514610174575063f2fde38b1461014557600080fd5b346101715760203660031901126101715761016e61016161137c565b6101696114a7565b6114e0565b80f35b80fd5b9050346101c057806003193601126101c05760ff8160209361019461137c565b6101a561019f611397565b9161158d565b6001600160a01b039091168252855220549151911615158152f35b5080fd5b8382346101c05760203660031901126101c0576101e461021293356119a0565b508181516101f1816113e2565b528051916101fe836113e2565b82525191829160208352602083019061133c565b0390f35b8390346101c05760803660031901126101c05761023161137c565b610239611397565b6044359060643567ffffffffffffffff811161028157366023820112156102815761016e9481602461027093369301359101611452565b9261027c838383611635565b6119fa565b8580fd5b91503461032457806003193601126103245761029f61137c565b9060243591821515809303610320576001600160a01b031692831561030b57506102c83361158d565b83855260205280842060ff1981541660ff8416179055519081527f17307eab39ab6107e8899845ad3d59bd9653f200f220920489ca2b5937696c3160203392a380f35b836024925191630b61174360e31b8352820152fd5b8480fd5b8280fd5b8382346101c057816003193601126101c0576020906001549051908152f35b8382346101c057816003193601126101c057805190827f80bb2b638cc20bc4d0a60d66940f3ab4a00c1d7b313497ca82fb0b4ab00793019081549061038b826115fb565b8086529260019280841690811561042457506001146103c8575b61021286866103b6828b0383611414565b5191829160208352602083019061133c565b815294507ff4bad0a69248f59680a4f2b3000328cec71a413447c96781cfe5996daa8c456e5b82861061040c575050506103b68260206102129582010194866103a5565b805460208787018101919091529095019481016103ee565b90506102129750869350602092506103b694915060ff191682840152151560051b82010194866103a5565b8390346101c05760203660031901126101c05761046a6114a7565b3560015580f35b8382346101c057816003193601126101c057600080516020611c448339815191525490516001600160a01b039091168152602090f35b8382346101c057816003193601126101c05760207f62e78cea01bee320cd4e420270b5ea74000d11b0c9f74754ebdbfc544b05a258916104e56114a7565b6104ed611bd8565b600080516020611c84833981519152805460ff1916600117905551338152a180f35b83346101715780600319360112610171576105286114a7565b600080516020611c4483398151915280546001600160a01b0319811690915581906001600160a01b03167f8be0079c531659141344cd1fd0a4f28419497f9722a3daafe3b4186f6b6457e08280a380f35b8382346101c05760203660031901126101c05760209061059f61059a61137c565b6115c6565b9051908152f35b90833461017157602036600319011261017157506105c6602092356119a0565b90516001600160a01b039091168152f35b8382346101c057816003193601126101c05760209060ff600080516020611c84833981519152541690519015158152f35b9091503461032457602036600319011261032457803592600080516020611c64833981519152548410156106505760208361064286611b3e565b91905490519160031b1c8152f35b6044939192519263295f44f760e21b84528301526024820152fd5b909150346103245760803660031901126103245761068761137c565b67ffffffffffffffff9190602435838111610281576106a99036908401611489565b90604435848111610afd576106c19036908501611489565b7ff0c57e16840df040f15088dc2f81fe391c3923bec73e23a9662efc9c229c6a009485549460ff86891c16159482871696871580610af6575b60018099149081610aec575b159081610ae3575b50610ad35767ffffffffffffffff1981168817895586610ab4575b50610732611b97565b61073a611b97565b8051838111610aa157807f80bb2b638cc20bc4d0a60d66940f3ab4a00c1d7b313497ca82fb0b4ab00793009261077084546115fb565b601f8111610a2f575b506020908d601f84116001146109b257926109a7575b5050600019600383901b1c191690881b1790555b825191821161099457507f80bb2b638cc20bc4d0a60d66940f3ab4a00c1d7b313497ca82fb0b4ab0079301916107d983546115fb565b601f811161092f575b50602090601f83116001146108ac57610853949392918a91836108a1575b5050600019600383901b1c191690861b1790555b61081c611b97565b610824611b97565b61082c611b97565b600080516020611c84833981519152805460ff1916905561084b611b97565b610169611b97565b6064358255610860578380f35b7fc7f505b2f371ae2175ee4913f4499e1f2633a7b5936321eed1cdaeb6115181d29260209268ff000000000000000019815416905551908152a13880808380f35b015190503880610800565b838a5293929186917ff4bad0a69248f59680a4f2b3000328cec71a413447c96781cfe5996daa8c456e90601f1983168c5b8181106109175750968361085398106108fe575b505050811b019055610814565b015160001960f88460031b161c191690553880806108f1565b8289015184558a9590930192602092830192016108dd565b838a527ff4bad0a69248f59680a4f2b3000328cec71a413447c96781cfe5996daa8c456e601f840160051c8101916020851061098a575b601f0160051c019087905b82811061097f5750506107e2565b8b8155018790610971565b9091508190610966565b634e487b7160e01b895260419052602488fd5b01519050388061078f565b91908b9450601f1984168684527f37c58c799b6609234b945e882912ee9ad34948a1dfaa20a97485e1a7752bbf81935b818110610a17575084116109fe575b505050811b0190556107a3565b015160001960f88460031b161c191690553880806109f1565b8284015185558d9690940193602093840193016109e2565b909150838d527f37c58c799b6609234b945e882912ee9ad34948a1dfaa20a97485e1a7752bbf81601f840160051c81019160208510610a97575b8e85949392601f8e930160051c0192905b838210610a8957505050610779565b81558594508c91018f610a7a565b9091508190610a69565b634e487b7160e01b8b526041835260248bfd5b68ffffffffffffffffff19166801000000000000000117885538610729565b895163f92ee8a960e01b81528390fd5b9050153861070e565b303b159150610706565b50866106fa565b8680fd5b8382346101c05761016e90610b15366113ad565b91925192610b22846113e2565b85845261027c838383611635565b602092509036600319018313610dc357610b4861137c565b90610b516114a7565b845460001992838214610f5e57600182018755825190610b70826113e2565b8782526001600160a01b0381811695908615610f4757907fddf252ad1be2c89b69c2b068fc378daa952ba7f163c4a11628f55a4df523b3ef878a9387828e610bb6611bd8565b8281527f80bb2b638cc20bc4d0a60d66940f3ab4a00c1d7b313497ca82fb0b4ab0079302938489528c8220541695869182159586159a8b610f0a575b610bfb8d611554565b80546001019055868352528d812080546001600160a01b0319168517905580a415610e5d5750600080516020611c648339815191528054878d527f645e039705490088daad89bae25049a34f4a9072d398537b1ab2425f24cbed038c52888d2081905590600160401b821015610e4a5787610c8183610c9a9360018e9796019055611b3e565b90919082549060031b91821b91600019901b1916179055565b03610de5575b50610dce573b610cae578680f35b85610ceb918495969798945180938192630a85bd0160e11b96878452338c850152886024850152604484015260806064840152608483019061133c565b038186895af1839181610d8a575b50610d545750503d15610d4c573d610d1081611436565b90610d1d84519283611414565b81528091863d92013e5b80519485610d4657505051633250574960e11b81529182015260249150fd5b85925001fd5b506060610d27565b9195506001600160e01b031990911603610d75575050503880808080808680f35b51633250574960e11b81529182015260249150fd5b9091508781813d8311610dc7575b610da28183611414565b81010312610dc357516001600160e01b031981168103610dc3579038610cf9565b8380fd5b503d610d98565b83516339e3563760e11b8152808701899052602490fd5b610dee836115c6565b908101908111610e3757868a52600080516020611c248339815191528952858a20818b52895284868b2055848a52600080516020611c048339815191528952858a205538610ca0565b634e487b7160e01b8a526011885260248afd5b634e487b7160e01b8d5260418b5260248dfd5b90808214610c9a578b8b89610e71846115c6565b928a8152600080516020611c048339815191528084528282205493858503610ec7575b50509050899150528c89812055818d52600080516020611c248339815191528c52888d20908d528b528b88812055610c9a565b868352600080516020611c2483398151915280825284842087855282528484205490888552825284842086855282528085852055835252205538898e828f610e94565b6000878152600080516020611ca48339815191526020526040902080546001600160a01b0319169055610f3c85611554565b8b8154019055610bf2565b8551633250574960e11b81528089018b9052602490fd5b634e487b7160e01b875260118552602487fd5b90915034610324578260031936011261032457610f8c6114a7565b600080516020611c848339815191529081549060ff821615610fdc575060ff19169055513381527f5db9ee0a495bf2e6ff9c91a7834c1ba4fdd244a5e8aa4e537bd38aeae4b073aa90602090a180f35b8351638dfc202b60e01b8152fd5b90833461017157816003193601126101715761100461137c565b9260243590611012856115c6565b82101561104f57506001600160a01b039093168152600080516020611c248339815191526020908152828220938252928352819020549051908152f35b925163295f44f760e21b81526001600160a01b0390941692840192835260208301525081906040010390fd5b83346101715761016e61108d366113ad565b91611635565b8382346101c057816003193601126101c057602090600080516020611c64833981519152549051908152f35b9150346103245780600319360112610324576110d961137c565b91602435906110e7826119a0565b903315158061118f575b80611172575b61115b57506001600160a01b039384169382918591167f8c5be1e5ebec7d5bd14f71427d1e84f3dd0314c0f7b2291e5b200ac8c7c3b9258780a48352600080516020611ca4833981519152602052822080546001600160a01b031916909117905580f35b60249084519063a9fbf51f60e01b82523390820152fd5b5061117c8261158d565b33875260205260ff8487205416156110f7565b506001600160a01b0382163314156110f1565b909150346103245760203660031901126103245791602092356111c4816119a0565b508152600080516020611ca483398151915283528190205490516001600160a01b039091168152f35b8382346101c057816003193601126101c057805190827f80bb2b638cc20bc4d0a60d66940f3ab4a00c1d7b313497ca82fb0b4ab007930090815490611231826115fb565b80865292600192808416908115610424575060011461125b5761021286866103b6828b0383611414565b815294507f37c58c799b6609234b945e882912ee9ad34948a1dfaa20a97485e1a7752bbf815b82861061129f575050506103b68260206102129582010194866103a5565b80546020878701810191909152909501948101611281565b849134610324576020366003190112610324573563ffffffff60e01b8116809103610324576020925063780e9d6360e01b81149081156112f9575b5015158152f35b6380ac58cd60e01b81149150811561132b575b811561131a575b50836112f2565b6301ffc9a760e01b14905083611313565b635b5e139f60e01b8114915061130c565b919082519283825260005b848110611368575050826000602080949584010152601f8019910116010190565b602081830181015184830182015201611347565b600435906001600160a01b038216820361139257565b600080fd5b602435906001600160a01b038216820361139257565b6060906003190112611392576001600160a01b0390600435828116810361139257916024359081168103611392579060443590565b6020810190811067ffffffffffffffff8211176113fe57604052565b634e487b7160e01b600052604160045260246000fd5b90601f8019910116810190811067ffffffffffffffff8211176113fe57604052565b67ffffffffffffffff81116113fe57601f01601f191660200190565b92919261145e82611436565b9161146c6040519384611414565b829481845281830111611392578281602093846000960137010152565b9080601f83011215611392578160206114a493359101611452565b90565b600080516020611c44833981519152546001600160a01b031633036114c857565b60405163118cdaa760e01b8152336004820152602490fd5b6001600160a01b0390811690811561153b57600080516020611c4483398151915280546001600160a01b031981168417909155167f8be0079c531659141344cd1fd0a4f28419497f9722a3daafe3b4186f6b6457e0600080a3565b604051631e4fbdf760e01b815260006004820152602490fd5b6001600160a01b031660009081527f80bb2b638cc20bc4d0a60d66940f3ab4a00c1d7b313497ca82fb0b4ab00793036020526040902090565b6001600160a01b031660009081527f80bb2b638cc20bc4d0a60d66940f3ab4a00c1d7b313497ca82fb0b4ab00793056020526040902090565b6001600160a01b038116156115e2576115de90611554565b5490565b6040516322718ad960e21b815260006004820152602490fd5b90600182811c9216801561162b575b602083101461161557565b634e487b7160e01b600052602260045260246000fd5b91607f169161160a565b90916001600160a01b0380841692831561198757611651611bd8565b6000938385527f80bb2b638cc20bc4d0a60d66940f3ab4a00c1d7b313497ca82fb0b4ab007930294602086815260409785898420541697331515806118ed575b5088159081156118ae575b6116a583611554565b80546001019055888552835289842080546001600160a01b0319168617905587858a7fddf252ad1be2c89b69c2b068fc378daa952ba7f163c4a11628f55a4df523b3ef8780a41561180957600080516020611c648339815191528054908885527f645e039705490088daad89bae25049a34f4a9072d398537b1ab2425f24cbed038452818b862055600160401b8210156117f557610c81828a92600161174d95019055611b3e565b838803611789575b5050505016928383036117685750505050565b6064945051926364283d7b60e01b8452600484015260248301526044820152fd5b611792906115c6565b6000198101939084116117e1578291600080516020611c04833981519152918a9452600080516020611c2483398151915281528383208584528152878484205587835252205538808080611755565b634e487b7160e01b83526011600452602483fd5b634e487b7160e01b85526041600452602485fd5b87841461174d57611819886115c6565b878452600080516020611c048339815191528084528a8520549082820361186b575b5050878452838a812055888452600080516020611c2483398151915283528984209084528252828981205561174d565b8a8652600080516020611c248339815191528086528c872084885286528c872054908c885286528c87208388528652808d882055865284528a852055388061183b565b6000898152600080516020611ca48339815191526020526040902080546001600160a01b03191690556118e08a611554565b805460001901905561169c565b8061193a575b156118fe5738611691565b89888a61191b576024915190637e27328960e01b82526004820152fd5b905163177e802f60e01b81523360048201526024810191909152604490fd5b50338914801561196c575b806118f35750878452600080516020611ca4833981519152835233878b86205416146118f3565b506119768961158d565b338552835260ff8a85205416611945565b604051633250574960e11b815260006004820152602490fd5b60008181527f80bb2b638cc20bc4d0a60d66940f3ab4a00c1d7b313497ca82fb0b4ab007930260205260409020546001600160a01b03169081156119e2575090565b60249060405190637e27328960e01b82526004820152fd5b813b611a07575b50505050565b604051630a85bd0160e11b8082523360048301526001600160a01b03928316602483015260448201949094526080606482015260209592909116939092908390611a5590608483019061133c565b039285816000958187895af1849181611afe575b50611ac9575050503d600014611ac1573d611a8381611436565b90611a916040519283611414565b81528091843d92013e5b80519283611abc57604051633250574960e11b815260048101849052602490fd5b019050fd5b506060611a9b565b919450915063ffffffff60e01b1603611ae6575038808080611a01565b60249060405190633250574960e11b82526004820152fd5b9091508681813d8311611b37575b611b168183611414565b8101031261032057516001600160e01b031981168103610320579038611a69565b503d611b0c565b600080516020611c648339815191528054821015611b81576000527fa42f15e5d656f8155fd7419d740a6073999f19cd6e061449ce4a257150545bf20190600090565b634e487b7160e01b600052603260045260246000fd5b60ff7ff0c57e16840df040f15088dc2f81fe391c3923bec73e23a9662efc9c229c6a005460401c1615611bc657565b604051631afcd79f60e31b8152600490fd5b60ff600080516020611c848339815191525416611bf157565b60405163d93c066560e01b8152600490fdfe645e039705490088daad89bae25049a34f4a9072d398537b1ab2425f24cbed01645e039705490088daad89bae25049a34f4a9072d398537b1ab2425f24cbed009016d09d72d40fdae2fd8ceac6b6234c7706214fd39c1cd1e609a0528c199300645e039705490088daad89bae25049a34f4a9072d398537b1ab2425f24cbed02cd5ed15c6e187e77e9aee88184c21f4f2182ab5827cb3b7e07fbedcd63f0330080bb2b638cc20bc4d0a60d66940f3ab4a00c1d7b313497ca82fb0b4ab0079304a26469706673582212204b8560c476c1adb80e4b3c75586ee64707c4d342120f12b0863945b772fd1fc264736f6c63430008140033",
  "devdoc": {
    "errors": {
      "ERC721EnumerableForbiddenBatchMint()": [
        {
          "details": "Batch mint is not allowed."
        }
      ],
      "ERC721IncorrectOwner(address,uint256,address)": [
        {
          "details": "Indicates an error related to the ownership over a particular token. Used in transfers.",
          "params": {
            "owner": "Address of the current owner of a token.",
            "sender": "Address whose tokens are being transferred.",
            "tokenId": "Identifier number of a token."
          }
        }
      ],
      "ERC721InsufficientApproval(address,uint256)": [
        {
          "details": "Indicates a failure with the `operator`s approval. Used in transfers.",
          "params": {
            "operator": "Address that may be allowed to operate on tokens without being their owner.",
            "tokenId": "Identifier number of a token."
          }
        }
      ],
      "ERC721InvalidApprover(address)": [
        {
          "details": "Indicates a failure with the `approver` of a token to be approved. Used in approvals.",
          "params": {
            "approver": "Address initiating an approval operation."
          }
        }
      ],
      "ERC721InvalidOperator(address)": [
        {
          "details": "Indicates a failure with the `operator` to be approved. Used in approvals.",
          "params": {
            "operator": "Address that may be allowed to operate on tokens without being their owner."
          }
        }
      ],
      "ERC721InvalidOwner(address)": [
        {
          "details": "Indicates that an address can't be an owner. For example, `address(0)` is a forbidden owner in EIP-20. Used in balance queries.",
          "params": {
            "owner": "Address of the current owner of a token."
          }
        }
      ],
      "ERC721InvalidReceiver(address)": [
        {
          "details": "Indicates a failure with the token `receiver`. Used in transfers.",
          "params": {
            "receiver": "Address to which tokens are being transferred."
          }
        }
      ],
      "ERC721InvalidSender(address)": [
        {
          "details": "Indicates a failure with the token `sender`. Used in transfers.",
          "params": {
            "sender": "Address whose tokens are being transferred."
          }
        }
      ],
      "ERC721NonexistentToken(uint256)": [
        {
          "details": "Indicates a `tokenId` whose `owner` is the zero address.",
          "params": {
            "tokenId": "Identifier number of a token."
          }
        }
      ],
      "ERC721OutOfBoundsIndex(address,uint256)": [
        {
          "details": "An `owner`'s token query was out of bounds for `index`. NOTE: The owner being `address(0)` indicates a global out of bounds index."
        }
      ],
      "EnforcedPause()": [
        {
          "details": "The operation failed because the contract is paused."
        }
      ],
      "ExpectedPause()": [
        {
          "details": "The operation failed because the contract is not paused."
        }
      ],
      "InvalidInitialization()": [
        {
          "details": "The contract is already initialized."
        }
      ],
      "NotInitializing()": [
        {
          "details": "The contract is not initializing."
        }
      ],
      "OwnableInvalidOwner(address)": [
        {
          "details": "The owner is not a valid owner account. (eg. `address(0)`)"
        }
      ],
      "OwnableUnauthorizedAccount(address)": [
        {
          "details": "The caller account is not authorized to perform an operation."
        }
      ]
    },
    "events": {
      "Approval(address,address,uint256)": {
        "details": "Emitted when `owner` enables `approved` to manage the `tokenId` token."
      },
      "ApprovalForAll(address,address,bool)": {
        "details": "Emitted when `owner` enables or disables (`approved`) `operator` to manage all of its assets."
      },
      "Initialized(uint64)": {
        "details": "Triggered when the contract has been initialized or reinitialized."
      },
      "Paused(address)": {
        "details": "Emitted when the pause is triggered by `account`."
      },
      "Transfer(address,address,uint256)": {
        "details": "Emitted when `tokenId` token is transferred from `from` to `to`."
      },
      "Unpaused(address)": {
        "details": "Emitted when the pause is lifted by `account`."
      }
    },
    "kind": "dev",
    "methods": {
      "approve(address,uint256)": {
        "details": "See {IERC721-approve}."
      },
      "balanceOf(address)": {
        "details": "See {IERC721-balanceOf}."
      },
      "constructor": {
        "custom:oz-upgrades-unsafe-allow": "constructor"
      },
      "getApproved(uint256)": {
        "details": "See {IERC721-getApproved}."
      },
      "isApprovedForAll(address,address)": {
        "details": "See {IERC721-isApprovedForAll}."
      },
      "name()": {
        "details": "See {IERC721Metadata-name}."
      },
      "owner()": {
        "details": "Returns the address of the current owner."
      },
      "ownerOf(uint256)": {
        "details": "See {IERC721-ownerOf}."
      },
      "paused()": {
        "details": "Returns true if the contract is paused, and false otherwise."
      },
      "renounceOwnership()": {
        "details": "Leaves the contract without owner. It will not be possible to call `onlyOwner` functions. Can only be called by the current owner. NOTE: Renouncing ownership will leave the contract without an owner, thereby disabling any functionality that is only available to the owner."
      },
      "safeTransferFrom(address,address,uint256)": {
        "details": "See {IERC721-safeTransferFrom}."
      },
      "safeTransferFrom(address,address,uint256,bytes)": {
        "details": "See {IERC721-safeTransferFrom}."
      },
      "setApprovalForAll(address,bool)": {
        "details": "See {IERC721-setApprovalForAll}."
      },
      "symbol()": {
        "details": "See {IERC721Metadata-symbol}."
      },
      "tokenByIndex(uint256)": {
        "details": "See {IERC721Enumerable-tokenByIndex}."
      },
      "tokenOfOwnerByIndex(address,uint256)": {
        "details": "See {IERC721Enumerable-tokenOfOwnerByIndex}."
      },
      "tokenURI(uint256)": {
        "details": "See {IERC721Metadata-tokenURI}."
      },
      "totalSupply()": {
        "details": "See {IERC721Enumerable-totalSupply}."
      },
      "transferFrom(address,address,uint256)": {
        "details": "See {IERC721-transferFrom}."
      },
      "transferOwnership(address)": {
        "details": "Transfers ownership of the contract to a new account (`newOwner`). Can only be called by the current owner."
      }
    },
    "version": 1
  },
  "userdoc": {
    "kind": "user",
    "methods": {},
    "version": 1
  },
  "storageLayout": {
    "storage": [
      {
        "astId": 20094,
        "contract": "contracts/MasterTicket.sol:MasterTicket",
        "label": "_nextTokenId",
        "offset": 0,
        "slot": "0",
        "type": "t_uint256"
      },
      {
        "astId": 20096,
        "contract": "contracts/MasterTicket.sol:MasterTicket",
        "label": "price",
        "offset": 0,
        "slot": "1",
        "type": "t_uint256"
      }
    ],
    "types": {
      "t_uint256": {
        "encoding": "inplace",
        "label": "uint256",
        "numberOfBytes": "32"
      }
    }
  }
}