{
  "address": "0xffFb4a070aBa4aA69c5DA15f6C88E45e7f936B9a",
  "abi": [
    {
      "inputs": [
        {
          "internalType": "address",
          "name": "_ticketImplementation",
          "type": "address"
        },
        {
          "internalType": "address",
          "name": "launchPadAddress",
          "type": "address"
        },
        {
          "internalType": "address",
          "name": "_crowdFlixVaultAddress",
          "type": "address"
        }
      ],
      "stateMutability": "nonpayable",
      "type": "constructor"
    },
    {
      "inputs": [],
      "name": "AccessControlBadConfirmation",
      "type": "error"
    },
    {
      "inputs": [
        {
          "internalType": "address",
          "name": "account",
          "type": "address"
        },
        {
          "internalType": "bytes32",
          "name": "neededRole",
          "type": "bytes32"
        }
      ],
      "name": "AccessControlUnauthorizedAccount",
      "type": "error"
    },
    {
      "inputs": [],
      "name": "ERC1167FailedCreateClone",
      "type": "error"
    },
    {
      "inputs": [],
      "name": "EnforcedPause",
      "type": "error"
    },
    {
      "inputs": [],
      "name": "ExpectedPause",
      "type": "error"
    },
    {
      "inputs": [],
      "name": "ReentrancyGuardReentrantCall",
      "type": "error"
    },
    {
      "anonymous": false,
      "inputs": [
        {
          "indexed": false,
          "internalType": "address",
          "name": "account",
          "type": "address"
        }
      ],
      "name": "Paused",
      "type": "event"
    },
    {
      "anonymous": false,
      "inputs": [
        {
          "indexed": true,
          "internalType": "bytes32",
          "name": "role",
          "type": "bytes32"
        },
        {
          "indexed": true,
          "internalType": "bytes32",
          "name": "previousAdminRole",
          "type": "bytes32"
        },
        {
          "indexed": true,
          "internalType": "bytes32",
          "name": "newAdminRole",
          "type": "bytes32"
        }
      ],
      "name": "RoleAdminChanged",
      "type": "event"
    },
    {
      "anonymous": false,
      "inputs": [
        {
          "indexed": true,
          "internalType": "bytes32",
          "name": "role",
          "type": "bytes32"
        },
        {
          "indexed": true,
          "internalType": "address",
          "name": "account",
          "type": "address"
        },
        {
          "indexed": true,
          "internalType": "address",
          "name": "sender",
          "type": "address"
        }
      ],
      "name": "RoleGranted",
      "type": "event"
    },
    {
      "anonymous": false,
      "inputs": [
        {
          "indexed": true,
          "internalType": "bytes32",
          "name": "role",
          "type": "bytes32"
        },
        {
          "indexed": true,
          "internalType": "address",
          "name": "account",
          "type": "address"
        },
        {
          "indexed": true,
          "internalType": "address",
          "name": "sender",
          "type": "address"
        }
      ],
      "name": "RoleRevoked",
      "type": "event"
    },
    {
      "anonymous": false,
      "inputs": [
        {
          "indexed": true,
          "internalType": "uint256",
          "name": "projectId",
          "type": "uint256"
        },
        {
          "indexed": true,
          "internalType": "address",
          "name": "ticketContract",
          "type": "address"
        },
        {
          "indexed": false,
          "internalType": "uint256",
          "name": "price",
          "type": "uint256"
        }
      ],
      "name": "TicketCollectionCreated",
      "type": "event"
    },
    {
      "anonymous": false,
      "inputs": [
        {
          "indexed": false,
          "internalType": "address",
          "name": "account",
          "type": "address"
        }
      ],
      "name": "Unpaused",
      "type": "event"
    },
    {
      "inputs": [],
      "name": "DEFAULT_ADMIN_ROLE",
      "outputs": [
        {
          "internalType": "bytes32",
          "name": "",
          "type": "bytes32"
        }
      ],
      "stateMutability": "view",
      "type": "function"
    },
    {
      "inputs": [],
      "name": "LAUNCHPAD_ROLE",
      "outputs": [
        {
          "internalType": "bytes32",
          "name": "",
          "type": "bytes32"
        }
      ],
      "stateMutability": "view",
      "type": "function"
    },
    {
      "inputs": [],
      "name": "PAUSER_ROLE",
      "outputs": [
        {
          "internalType": "bytes32",
          "name": "",
          "type": "bytes32"
        }
      ],
      "stateMutability": "view",
      "type": "function"
    },
    {
      "inputs": [
        {
          "internalType": "uint256",
          "name": "_projectId",
          "type": "uint256"
        }
      ],
      "name": "buyTicket",
      "outputs": [],
      "stateMutability": "payable",
      "type": "function"
    },
    {
      "inputs": [
        {
          "internalType": "uint256",
          "name": "",
          "type": "uint256"
        }
      ],
      "name": "collectionAddresses",
      "outputs": [
        {
          "internalType": "address",
          "name": "",
          "type": "address"
        }
      ],
      "stateMutability": "view",
      "type": "function"
    },
    {
      "inputs": [],
      "name": "collectionCount",
      "outputs": [
        {
          "internalType": "uint256",
          "name": "",
          "type": "uint256"
        }
      ],
      "stateMutability": "view",
      "type": "function"
    },
    {
      "inputs": [
        {
          "internalType": "uint256",
          "name": "_projectId",
          "type": "uint256"
        },
        {
          "internalType": "string",
          "name": "_name",
          "type": "string"
        },
        {
          "internalType": "string",
          "name": "_symbol",
          "type": "string"
        },
        {
          "internalType": "uint256",
          "name": "_price",
          "type": "uint256"
        },
        {
          "internalType": "string",
          "name": "_category",
          "type": "string"
        },
        {
          "internalType": "string",
          "name": "_title",
          "type": "string"
        },
        {
          "internalType": "address[]",
          "name": "_investors",
          "type": "address[]"
        },
        {
          "internalType": "uint256[]",
          "name": "_investmentAmounts",
          "type": "uint256[]"
        },
        {
          "internalType": "uint256",
          "name": "_fundingGoal",
          "type": "uint256"
        },
        {
          "internalType": "uint256",
          "name": "_profitSharePercentage",
          "type": "uint256"
        },
        {
          "internalType": "address",
          "name": "_creator",
          "type": "address"
        }
      ],
      "name": "createTicketCollection",
      "outputs": [
        {
          "internalType": "address",
          "name": "",
          "type": "address"
        }
      ],
      "stateMutability": "nonpayable",
      "type": "function"
    },
    {
      "inputs": [],
      "name": "crowdFlixVault",
      "outputs": [
        {
          "internalType": "contract ICrowdFlixVault",
          "name": "",
          "type": "address"
        }
      ],
      "stateMutability": "view",
      "type": "function"
    },
    {
      "inputs": [],
      "name": "getCollections",
      "outputs": [
        {
          "components": [
            {
              "internalType": "address",
              "name": "ticketContract",
              "type": "address"
            },
            {
              "internalType": "uint256",
              "name": "projectId",
              "type": "uint256"
            },
            {
              "internalType": "uint256",
              "name": "price",
              "type": "uint256"
            },
            {
              "internalType": "string",
              "name": "category",
              "type": "string"
            },
            {
              "internalType": "string",
              "name": "title",
              "type": "string"
            },
            {
              "internalType": "uint256",
              "name": "ticketsSold",
              "type": "uint256"
            }
          ],
          "internalType": "struct TicketManager.TicketCollection[]",
          "name": "",
          "type": "tuple[]"
        }
      ],
      "stateMutability": "view",
      "type": "function"
    },
    {
      "inputs": [
        {
          "internalType": "string",
          "name": "_category",
          "type": "string"
        }
      ],
      "name": "getCollectionsByCategory",
      "outputs": [
        {
          "components": [
            {
              "internalType": "address",
              "name": "ticketContract",
              "type": "address"
            },
            {
              "internalType": "uint256",
              "name": "projectId",
              "type": "uint256"
            },
            {
              "internalType": "uint256",
              "name": "price",
              "type": "uint256"
            },
            {
              "internalType": "string",
              "name": "category",
              "type": "string"
            },
            {
              "internalType": "string",
              "name": "title",
              "type": "string"
            },
            {
              "internalType": "uint256",
              "name": "ticketsSold",
              "type": "uint256"
            }
          ],
          "internalType": "struct TicketManager.TicketCollection[]",
          "name": "",
          "type": "tuple[]"
        }
      ],
      "stateMutability": "view",
      "type": "function"
    },
    {
      "inputs": [
        {
          "internalType": "bytes32",
          "name": "role",
          "type": "bytes32"
        }
      ],
      "name": "getRoleAdmin",
      "outputs": [
        {
          "internalType": "bytes32",
          "name": "",
          "type": "bytes32"
        }
      ],
      "stateMutability": "view",
      "type": "function"
    },
    {
      "inputs": [
        {
          "internalType": "uint256",
          "name": "_projectId",
          "type": "uint256"
        }
      ],
      "name": "getTicketCollectionPrice",
      "outputs": [
        {
          "internalType": "uint256",
          "name": "",
          "type": "uint256"
        }
      ],
      "stateMutability": "view",
      "type": "function"
    },
    {
      "inputs": [
        {
          "internalType": "uint256",
          "name": "_projectId",
          "type": "uint256"
        }
      ],
      "name": "getTicketContractAddress",
      "outputs": [
        {
          "internalType": "address",
          "name": "",
          "type": "address"
        }
      ],
      "stateMutability": "view",
      "type": "function"
    },
    {
      "inputs": [
        {
          "internalType": "uint256",
          "name": "_projectId",
          "type": "uint256"
        }
      ],
      "name": "getTicketsSold",
      "outputs": [
        {
          "internalType": "uint256",
          "name": "",
          "type": "uint256"
        }
      ],
      "stateMutability": "view",
      "type": "function"
    },
    {
      "inputs": [
        {
          "internalType": "bytes32",
          "name": "role",
          "type": "bytes32"
        },
        {
          "internalType": "address",
          "name": "account",
          "type": "address"
        }
      ],
      "name": "grantRole",
      "outputs": [],
      "stateMutability": "nonpayable",
      "type": "function"
    },
    {
      "inputs": [
        {
          "internalType": "bytes32",
          "name": "role",
          "type": "bytes32"
        },
        {
          "internalType": "address",
          "name": "account",
          "type": "address"
        }
      ],
      "name": "hasRole",
      "outputs": [
        {
          "internalType": "bool",
          "name": "",
          "type": "bool"
        }
      ],
      "stateMutability": "view",
      "type": "function"
    },
    {
      "inputs": [],
      "name": "isPaused",
      "outputs": [
        {
          "internalType": "bool",
          "name": "",
          "type": "bool"
        }
      ],
      "stateMutability": "view",
      "type": "function"
    },
    {
      "inputs": [],
      "name": "pause",
      "outputs": [],
      "stateMutability": "nonpayable",
      "type": "function"
    },
    {
      "inputs": [],
      "name": "paused",
      "outputs": [
        {
          "internalType": "bool",
          "name": "",
          "type": "bool"
        }
      ],
      "stateMutability": "view",
      "type": "function"
    },
    {
      "inputs": [
        {
          "internalType": "bytes32",
          "name": "role",
          "type": "bytes32"
        },
        {
          "internalType": "address",
          "name": "callerConfirmation",
          "type": "address"
        }
      ],
      "name": "renounceRole",
      "outputs": [],
      "stateMutability": "nonpayable",
      "type": "function"
    },
    {
      "inputs": [
        {
          "internalType": "bytes32",
          "name": "role",
          "type": "bytes32"
        },
        {
          "internalType": "address",
          "name": "account",
          "type": "address"
        }
      ],
      "name": "revokeRole",
      "outputs": [],
      "stateMutability": "nonpayable",
      "type": "function"
    },
    {
      "inputs": [
        {
          "internalType": "bytes4",
          "name": "interfaceId",
          "type": "bytes4"
        }
      ],
      "name": "supportsInterface",
      "outputs": [
        {
          "internalType": "bool",
          "name": "",
          "type": "bool"
        }
      ],
      "stateMutability": "view",
      "type": "function"
    },
    {
      "inputs": [],
      "name": "ticketImplementation",
      "outputs": [
        {
          "internalType": "address",
          "name": "",
          "type": "address"
        }
      ],
      "stateMutability": "view",
      "type": "function"
    },
    {
      "inputs": [],
      "name": "totalTicketsSold",
      "outputs": [
        {
          "internalType": "uint256",
          "name": "",
          "type": "uint256"
        }
      ],
      "stateMutability": "view",
      "type": "function"
    },
    {
      "inputs": [],
      "name": "unpause",
      "outputs": [],
      "stateMutability": "nonpayable",
      "type": "function"
    },
    {
      "stateMutability": "payable",
      "type": "receive"
    }
  ],
  "transactionHash": "0x857a8ffeba897d223b39d3c7763d86054d7d4a0f4f4e76c991f7082123abd8da",
  "args": [
    "0x2EccB86E3B2e2294940bEb3cbC04FA051731300a",
    "0x2fDf419C0bd097E8b1E834B1dE5e846D2971c8f6",
    "0x5F88BC7535eEe75882ed656Bb10801Dd8b948132"
  ],
  "numDeployments": 1,
  "solcInputHash": "8cdd01dc4a151f4d633ec63fe4f9cf43",
  "bytecode": "0x60a034620000e157601f62001a1438819003918201601f19168301916001600160401b03831184841017620000e657808492606094604052833981010312620000e1578062000052620000b492620000fc565b6200006e60406200006660208501620000fc565b9301620000fc565b6000805460ff191690556001600255608091909152600480546001600160a01b0319166001600160a01b03909216919091179055620000ad3362000111565b5062000192565b50620000c03362000235565b506040516117209081620002d4823960805181818161066701526110310152f35b600080fd5b634e487b7160e01b600052604160045260246000fd5b51906001600160a01b0382168203620000e157565b6001600160a01b031660008181527fa6eef7e35abe7026729641147f7915573c7e97b47efa546f5f6e3230263bcb49602052604081205490919060ff166200018e5781805260016020526040822081835260205260408220600160ff198254161790553391600080516020620019f48339815191528180a4600190565b5090565b6001600160a01b031660008181527f7de4f4f049e37d4d78a9cd0f5a62542e489386ac22f4b1a5a7f2afc0fbba84a860205260408120549091907f2a0dbeec47712a2e50a8e5671dd8686a1155c1a2bde69f9e20b2f79a0ace557d9060ff16620002305780835260016020526040832082845260205260408320600160ff19825416179055600080516020620019f4833981519152339380a4600190565b505090565b6001600160a01b031660008181527fb9cbbae02fe941283ec0eefd7b121e3bc7f89fae077b27bdd75a7fd4cf1543a860205260408120549091907f65d7a28e3265b37a6474929f336521b332c1681b933f6cb9f3376673440d862a9060ff16620002305780835260016020526040832082845260205260408320600160ff19825416179055600080516020620019f4833981519152339380a460019056fe60a080604052600436101561001d575b50361561001b57600080fd5b005b600060805260003560e01c90816301ffc9a71461113957508063248a9ca3146111085780632f2ff15d146110c757806334701db8146110a757806336568abe146110605780633a72eeab146110195780633f4ba83a14610fa757806341a5500214610f7c57806346e6358614610eaa5780635889298f14610e795780635c975abb146103e357806367dd74ca14610d545780636f43b35114610d235780638456cb5914610cc257806391d1485414610c73578063941a0a8b1461049d57806399deea5b14610467578063a217fddf14610449578063abae977f14610407578063b187bd26146103e3578063d547741f1461039b578063d57f966b1461037b578063d6b5188f1461033e578063e5f9c372146101885763e63ab1e914610142573861000f565b34610182576080518060031936011261017f5760206040517f65d7a28e3265b37a6474929f336521b332c1681b933f6cb9f3376673440d862a8152f35b80fd5b60805180fd5b3461018257602080600319360112610182576004356001600160401b038111610182576101b99036906004016112f9565b906080519081926005805493838301955b8581106102e857506101db906115c7565b9460805192835b8681106101fb57604051806101f78a826111e2565b0390f35b8060805152600380875261021f610226826040608051200160405192838092611654565b03826112d8565b8781519101208351852014610245575b5061024090611584565b6101e2565b81956102e19161024093608051528089528660406080512061021f6102a16040519461027086611294565b83546001600160a01b0316865260018401548e87015260028401546040808801919091525192839182908601611654565b60608401526040516102ba8161021f8160048601611654565b6080840152015460a08201526102d0828c611640565b526102db818b611640565b50611584565b9490610236565b806080515261021f61030b60038088526040608051200160405192838092611654565b8581519101208451882014610329575b61032490611584565b6101ca565b9061033661032491611584565b91905061031b565b34610182576080518060031936011261017f5760206040517f2a0dbeec47712a2e50a8e5671dd8686a1155c1a2bde69f9e20b2f79a0ace557d8152f35b34610182576080518060031936011261017f576020600554604051908152f35b34610182576040366003190112610182576103dc6004356103ba61118c565b90806080515260016020526103d76001604060805120015461142d565b6114d3565b5060805180f35b34610182576080518060031936011261017f5760ff60209154166040519015158152f35b346101825760203660031901126101825760043560065481101561018257610430602091611366565b905460405160039290921b1c6001600160a01b03168152f35b34610182576080518060031936011261017f57602090604051908152f35b3461018257602036600319011261018257600435608051526003602052602060018060a01b036040608051205416604051908152f35b3461018257610160366003190112610182576024356001600160401b038111610182576104ce9036906004016112f9565b6044356001600160401b038111610182576104ed9036906004016112f9565b6084356001600160401b0381116101825761050c9036906004016112f9565b60a4356001600160401b0381116101825761052b9036906004016112f9565b9160c435916001600160401b03831161018257366023840112156101825782600401356105578161134f565b9361056560405195866112d8565b81855260208501906024829360051b8201019036821161018257602401915b818310610c51575050506001600160401b0360e435116101825736602360e4350112156101825760e43560040135956105bc8761134f565b936105ca60405195866112d8565b8785526020850197883660248360051b60e43501011161018257602460e43501905b60248360051b60e43501018210610c41575050610144359490506001600160a01b0385168503610c3c573360009081527f7de4f4f049e37d4d78a9cd0f5a62542e489386ac22f4b1a5a7f2afc0fbba84a8602052604090205460ff1615610bfe576106556115a9565b6e5af43d82803e903d91602b57fd5bf37f0000000000000000000000000000000000000000000000000000000000000000763d602d80600a3d3981f3363d3d373d3d3d363d7300000062ffffff8260881c16176080515260781b1760205260018060a01b0360376009608051f016978815610bec57604051906106d782611294565b8982526004356020830152606435604083015260608201928352608082015260805160a0820152600435608051526003602052608051604081209260018060a01b038351166bffffffffffffffffffffffff60a01b8554161784556020830151600185015560408301516002850155518051916001600160401b038311610bd557508190610768600386015461154a565b601f8111610b7e575b5060805190602091601f8411600114610b0c575060805192610b01575b50508160011b916000199060031b1c19161760038301555b60808101518051906001600160401b038211610a0a576107c9600485015461154a565b601f8111610ab7575b5060805190602091601f8411600114610a42575091806005949260a09460805192610a37575b50508160011b916000199060031b1c19161760048501555b0151910155863b156101825761085a90610848604051936326896a5b60e11b85523060048601526080602486015260848501906111a2565b838103600319016044850152906111a2565b60643560648301528180608051920381838a5af180156109c857610a22575b50610885600554611584565b60055560065468010000000000000000811015610a0a578060016108ac9201600655611366565b81546001600160a01b0360039290921b82811b199091169088901b179091556004541692833b15610182576040516342bc157360e01b8152600480359082015260c06024820152945160c4860181905260805160e487019391905b8181106109eb5750505060209060031986840301604487015251918281520195906080515b8181106109d5575050506101043560648401526101243560848401526001600160a01b031660a483015260805190829081860390829084905af180156109c8576109ac575b6020828060405160643581527ff126dce65689cbae608ee1c0972aab04bf04b212230f4ca7a981ac5886d46d928460043592a3604051908152f35b6109b5906112c5565b60805190816109c45790610971565b5080fd5b6040513d608051823e3d90fd5b825188526020978801979092019160010161092c565b82516001600160a01b0316855260209485019490920191600101610907565b634e487b7160e01b6080515260416004526024608051fd5b610a2b906112c5565b60805180156108795780fd5b015190508e806107f8565b600486019052608051602081209291905b601f1985168110610a9f5750926005949260019260a09583601f19811610610a86575b505050811b016004850155610810565b015160001960f88460031b161c191690558e8080610a76565b91926020600181928685015181550194019201610a53565b600485016080515260805160208120601f850160051c810160208610610afa575b601f840160051c82018110610aef575050506107d2565b828155600101610ad8565b5080610ad8565b015190508c8061078e565b6003870190526080516020812090945091905b601f1984168510610b63576001945083601f19811610610b4a575b505050811b0160038301556107a6565b015160001960f88460031b161c191690558c8080610b3a565b81810151835560209485019460019093019290910190610b1f565b909150600385016080515260805160208120601f850160051c810160208610610bce575b9085949392915b601f840160051c82018110610bc057505050610771565b828155869550600101610ba9565b5080610ba2565b634e487b7160e01b90526041600452608051602490fd5b6040516330be1a3d60e21b8152600490fd5b60405163e2517d3f60e01b81523360048201527f2a0dbeec47712a2e50a8e5671dd8686a1155c1a2bde69f9e20b2f79a0ace557d6024820152604490fd5b600080fd5b81358152602091820191016105ec565b82356001600160a01b0381169003610c3c578235815260209283019201610584565b3461018257604036600319011261018257610c8c61118c565b6004356080515260016020526040608051209060018060a01b0316600052602052602060ff604060002054166040519015158152f35b34610182576080518060031936011261017f57610cdd6113b3565b610ce56115a9565b608051600160ff198254161790557f62e78cea01bee320cd4e420270b5ea74000d11b0c9f74754ebdbfc544b05a2586020604051338152a160805180f35b3461018257602036600319011261018257600435608051526003602052602060026040608051200154604051908152f35b6020366003190112610182576004358060805152600360205260406080512060028101543403610e3d5780546001600160a01b039190821690813b1561018257604051916340d097c360e01b83523360048401528260248160805180945af19182156109c857600592610e2e575b5001610dce8154611584565b9055610ddb600754611584565b60075560045416803b1561018257604051916309e368d960e21b83526004830152816024816080519334905af180156109c857610e19575b60805180f35b610e22906112c5565b6080518015610e135780fd5b610e37906112c5565b84610dc2565b60405162461bcd60e51b8152602060048201526014602482015273125b9cdd59999a58da595b9d081c185e5b595b9d60621b6044820152606490fd5b3461018257602036600319011261018257600435608051526003602052602060056040608051200154604051908152f35b34610182576080518060031936011261017f5760058054610eca816115c7565b916080515b828110610ee457604051806101f786826111e2565b80610f77916080515260038360209180835261021f610f3d6040608051209260405195610f1087611294565b60018060a01b03855416875260018501549087015260028401546040870152604051928380928601611654565b6060840152604051610f568161021f8160048601611654565b6080840152015460a0820152610f6c8287611640565b526102db8186611640565b610ecf565b34610182576080518060031936011261017f576004546040516001600160a01b039091168152602090f35b34610182576080518060031936011261017f57610fc26113b3565b6080515460ff8116156110075760ff1916608051557f5db9ee0a495bf2e6ff9c91a7834c1ba4fdd244a5e8aa4e537bd38aeae4b073aa6020604051338152a160805180f35b604051638dfc202b60e01b8152600490fd5b34610182576080518060031936011261017f576040517f00000000000000000000000000000000000000000000000000000000000000006001600160a01b03168152602090f35b346101825760403660031901126101825761107961118c565b336001600160a01b03821603611095576103dc906004356114d3565b60405163334bd91960e11b8152600490fd5b34610182576080518060031936011261017f576020600754604051908152f35b34610182576040366003190112610182576103dc6004356110e661118c565b90806080515260016020526111036001604060805120015461142d565b611453565b3461018257602036600319011261018257600435608051526001602052602060016040608051200154604051908152f35b34610c3c576020366003190112610c3c576004359063ffffffff60e01b8216809203610c3c57602091637965db0b60e01b811490811561117b575b5015158152f35b6301ffc9a760e01b14905083611174565b602435906001600160a01b0382168203610c3c57565b919082519283825260005b8481106111ce575050826000602080949584010152601f8019910116010190565b6020818301810151848301820152016111ad565b602080820190808352835180925260409283810182858560051b8401019601946000925b858410611217575050505050505090565b909192939495968580600192603f198582030187528a5190848060a01b038251168152828201518382015286820151878201526112796112666060808501519060c080918601528401906111a2565b60808085015190848303908501526111a2565b9160a080910151910152990194019401929594939190611206565b60c081019081106001600160401b038211176112af57604052565b634e487b7160e01b600052604160045260246000fd5b6001600160401b0381116112af57604052565b90601f801991011681019081106001600160401b038211176112af57604052565b81601f82011215610c3c578035906001600160401b0382116112af576040519261132d601f8401601f1916602001856112d8565b82845260208383010111610c3c57816000926020809301838601378301015290565b6001600160401b0381116112af5760051b60200190565b60065481101561139d5760066000527ff652222313e28459528d920b65115c16c04f3efc82aaedc97be59f3f377c0d3f0190600090565b634e487b7160e01b600052603260045260246000fd5b3360009081527fb9cbbae02fe941283ec0eefd7b121e3bc7f89fae077b27bdd75a7fd4cf1543a860205260409020547f65d7a28e3265b37a6474929f336521b332c1681b933f6cb9f3376673440d862a9060ff161561140f5750565b6044906040519063e2517d3f60e01b82523360048301526024820152fd5b80600052600160205260406000203360005260205260ff604060002054161561140f5750565b906000918083526001602052604083209160018060a01b03169182845260205260ff604084205416156000146114ce5780835260016020526040832082845260205260408320600160ff198254161790557f2f8788117e7eff1d82e926ec794901d17c78024a50270940304540a733656f0d339380a4600190565b505090565b906000918083526001602052604083209160018060a01b03169182845260205260ff6040842054166000146114ce578083526001602052604083208284526020526040832060ff1981541690557ff6391f5c32d9c69d2a47ea670b442974b53935d1edc7fd64eb21e047a839171b339380a4600190565b90600182811c9216801561157a575b602083101461156457565b634e487b7160e01b600052602260045260246000fd5b91607f1691611559565b60001981146115935760010190565b634e487b7160e01b600052601160045260246000fd5b60ff600054166115b557565b60405163d93c066560e01b8152600490fd5b906115d18261134f565b6040906115e0825191826112d8565b83815280936115f1601f199161134f565b019160005b8381106116035750505050565b602090825161161181611294565b6000815282600081830152600085830152606080808401526080830152600060a08301528286010152016115f6565b805182101561139d5760209160051b010190565b90600092918054916116658361154a565b9182825260019384811690816000146116c75750600114611687575b50505050565b90919394506000526020928360002092846000945b8386106116b3575050505001019038808080611681565b80548587018301529401938590820161169c565b9294505050602093945060ff191683830152151560051b0101903880808061168156fea264697066735822122063fded44bd276dca69297973223a68a087037d7a44f3033541680c72d4d21cfb64736f6c634300081400332f8788117e7eff1d82e926ec794901d17c78024a50270940304540a733656f0d",
  "devdoc": {
    "errors": {
      "AccessControlBadConfirmation()": [
        {
          "details": "The caller of a function is not the expected one. NOTE: Don't confuse with {AccessControlUnauthorizedAccount}."
        }
      ],
      "AccessControlUnauthorizedAccount(address,bytes32)": [
        {
          "details": "The `account` is missing a role."
        }
      ],
      "ERC1167FailedCreateClone()": [
        {
          "details": "A clone instance deployment failed."
        }
      ],
      "EnforcedPause()": [
        {
          "details": "The operation failed because the contract is paused."
        }
      ],
      "ExpectedPause()": [
        {
          "details": "The operation failed because the contract is not paused."
        }
      ],
      "ReentrancyGuardReentrantCall()": [
        {
          "details": "Unauthorized reentrant call."
        }
      ]
    },
    "events": {
      "Paused(address)": {
        "details": "Emitted when the pause is triggered by `account`."
      },
      "RoleAdminChanged(bytes32,bytes32,bytes32)": {
        "details": "Emitted when `newAdminRole` is set as ``role``'s admin role, replacing `previousAdminRole` `DEFAULT_ADMIN_ROLE` is the starting admin for all roles, despite {RoleAdminChanged} not being emitted signaling this."
      },
      "RoleGranted(bytes32,address,address)": {
        "details": "Emitted when `account` is granted `role`. `sender` is the account that originated the contract call, an admin role bearer except when using {AccessControl-_setupRole}."
      },
      "RoleRevoked(bytes32,address,address)": {
        "details": "Emitted when `account` is revoked `role`. `sender` is the account that originated the contract call:   - if using `revokeRole`, it is the admin role bearer   - if using `renounceRole`, it is the role bearer (i.e. `account`)"
      },
      "Unpaused(address)": {
        "details": "Emitted when the pause is lifted by `account`."
      }
    },
    "kind": "dev",
    "methods": {
      "getRoleAdmin(bytes32)": {
        "details": "Returns the admin role that controls `role`. See {grantRole} and {revokeRole}. To change a role's admin, use {_setRoleAdmin}."
      },
      "grantRole(bytes32,address)": {
        "details": "Grants `role` to `account`. If `account` had not been already granted `role`, emits a {RoleGranted} event. Requirements: - the caller must have ``role``'s admin role. May emit a {RoleGranted} event."
      },
      "hasRole(bytes32,address)": {
        "details": "Returns `true` if `account` has been granted `role`."
      },
      "paused()": {
        "details": "Returns true if the contract is paused, and false otherwise."
      },
      "renounceRole(bytes32,address)": {
        "details": "Revokes `role` from the calling account. Roles are often managed via {grantRole} and {revokeRole}: this function's purpose is to provide a mechanism for accounts to lose their privileges if they are compromised (such as when a trusted device is misplaced). If the calling account had been revoked `role`, emits a {RoleRevoked} event. Requirements: - the caller must be `callerConfirmation`. May emit a {RoleRevoked} event."
      },
      "revokeRole(bytes32,address)": {
        "details": "Revokes `role` from `account`. If `account` had been granted `role`, emits a {RoleRevoked} event. Requirements: - the caller must have ``role``'s admin role. May emit a {RoleRevoked} event."
      },
      "supportsInterface(bytes4)": {
        "details": "See {IERC165-supportsInterface}."
      }
    },
    "version": 1
  },
  "userdoc": {
    "kind": "user",
    "methods": {},
    "version": 1
  },
  "storageLayout": {
    "storage": [
      {
        "astId": 3294,
        "contract": "contracts/TicketManager.sol:TicketManager",
        "label": "_paused",
        "offset": 0,
        "slot": "0",
        "type": "t_bool"
      },
      {
        "astId": 2408,
        "contract": "contracts/TicketManager.sol:TicketManager",
        "label": "_roles",
        "offset": 0,
        "slot": "1",
        "type": "t_mapping(t_bytes32,t_struct(RoleData)2403_storage)"
      },
      {
        "astId": 3413,
        "contract": "contracts/TicketManager.sol:TicketManager",
        "label": "_status",
        "offset": 0,
        "slot": "2",
        "type": "t_uint256"
      },
      {
        "astId": 7857,
        "contract": "contracts/TicketManager.sol:TicketManager",
        "label": "ticketCollections",
        "offset": 0,
        "slot": "3",
        "type": "t_mapping(t_uint256,t_struct(TicketCollection)7852_storage)"
      },
      {
        "astId": 7862,
        "contract": "contracts/TicketManager.sol:TicketManager",
        "label": "crowdFlixVault",
        "offset": 0,
        "slot": "4",
        "type": "t_contract(ICrowdFlixVault)5670"
      },
      {
        "astId": 7864,
        "contract": "contracts/TicketManager.sol:TicketManager",
        "label": "collectionCount",
        "offset": 0,
        "slot": "5",
        "type": "t_uint256"
      },
      {
        "astId": 7867,
        "contract": "contracts/TicketManager.sol:TicketManager",
        "label": "collectionAddresses",
        "offset": 0,
        "slot": "6",
        "type": "t_array(t_address)dyn_storage"
      },
      {
        "astId": 7869,
        "contract": "contracts/TicketManager.sol:TicketManager",
        "label": "totalTicketsSold",
        "offset": 0,
        "slot": "7",
        "type": "t_uint256"
      }
    ],
    "types": {
      "t_address": {
        "encoding": "inplace",
        "label": "address",
        "numberOfBytes": "20"
      },
      "t_array(t_address)dyn_storage": {
        "base": "t_address",
        "encoding": "dynamic_array",
        "label": "address[]",
        "numberOfBytes": "32"
      },
      "t_bool": {
        "encoding": "inplace",
        "label": "bool",
        "numberOfBytes": "1"
      },
      "t_bytes32": {
        "encoding": "inplace",
        "label": "bytes32",
        "numberOfBytes": "32"
      },
      "t_contract(ICrowdFlixVault)5670": {
        "encoding": "inplace",
        "label": "contract ICrowdFlixVault",
        "numberOfBytes": "20"
      },
      "t_mapping(t_address,t_bool)": {
        "encoding": "mapping",
        "key": "t_address",
        "label": "mapping(address => bool)",
        "numberOfBytes": "32",
        "value": "t_bool"
      },
      "t_mapping(t_bytes32,t_struct(RoleData)2403_storage)": {
        "encoding": "mapping",
        "key": "t_bytes32",
        "label": "mapping(bytes32 => struct AccessControl.RoleData)",
        "numberOfBytes": "32",
        "value": "t_struct(RoleData)2403_storage"
      },
      "t_mapping(t_uint256,t_struct(TicketCollection)7852_storage)": {
        "encoding": "mapping",
        "key": "t_uint256",
        "label": "mapping(uint256 => struct TicketManager.TicketCollection)",
        "numberOfBytes": "32",
        "value": "t_struct(TicketCollection)7852_storage"
      },
      "t_string_storage": {
        "encoding": "bytes",
        "label": "string",
        "numberOfBytes": "32"
      },
      "t_struct(RoleData)2403_storage": {
        "encoding": "inplace",
        "label": "struct AccessControl.RoleData",
        "members": [
          {
            "astId": 2400,
            "contract": "contracts/TicketManager.sol:TicketManager",
            "label": "hasRole",
            "offset": 0,
            "slot": "0",
            "type": "t_mapping(t_address,t_bool)"
          },
          {
            "astId": 2402,
            "contract": "contracts/TicketManager.sol:TicketManager",
            "label": "adminRole",
            "offset": 0,
            "slot": "1",
            "type": "t_bytes32"
          }
        ],
        "numberOfBytes": "64"
      },
      "t_struct(TicketCollection)7852_storage": {
        "encoding": "inplace",
        "label": "struct TicketManager.TicketCollection",
        "members": [
          {
            "astId": 7841,
            "contract": "contracts/TicketManager.sol:TicketManager",
            "label": "ticketContract",
            "offset": 0,
            "slot": "0",
            "type": "t_address"
          },
          {
            "astId": 7843,
            "contract": "contracts/TicketManager.sol:TicketManager",
            "label": "projectId",
            "offset": 0,
            "slot": "1",
            "type": "t_uint256"
          },
          {
            "astId": 7845,
            "contract": "contracts/TicketManager.sol:TicketManager",
            "label": "price",
            "offset": 0,
            "slot": "2",
            "type": "t_uint256"
          },
          {
            "astId": 7847,
            "contract": "contracts/TicketManager.sol:TicketManager",
            "label": "category",
            "offset": 0,
            "slot": "3",
            "type": "t_string_storage"
          },
          {
            "astId": 7849,
            "contract": "contracts/TicketManager.sol:TicketManager",
            "label": "title",
            "offset": 0,
            "slot": "4",
            "type": "t_string_storage"
          },
          {
            "astId": 7851,
            "contract": "contracts/TicketManager.sol:TicketManager",
            "label": "ticketsSold",
            "offset": 0,
            "slot": "5",
            "type": "t_uint256"
          }
        ],
        "numberOfBytes": "192"
      },
      "t_uint256": {
        "encoding": "inplace",
        "label": "uint256",
        "numberOfBytes": "32"
      }
    }
  }
}