{
  "address": "0x2f3D8A88cBc99397Aa15a2f7a32DD7257C23E2B8",
  "abi": [
    {
      "inputs": [
        {
          "internalType": "address",
          "name": "_ticketImplementation",
          "type": "address"
        },
        {
          "internalType": "address",
          "name": "launchPadAddress",
          "type": "address"
        },
        {
          "internalType": "address",
          "name": "_crowdFlixVaultAddress",
          "type": "address"
        }
      ],
      "stateMutability": "nonpayable",
      "type": "constructor"
    },
    {
      "inputs": [],
      "name": "AccessControlBadConfirmation",
      "type": "error"
    },
    {
      "inputs": [
        {
          "internalType": "address",
          "name": "account",
          "type": "address"
        },
        {
          "internalType": "bytes32",
          "name": "neededRole",
          "type": "bytes32"
        }
      ],
      "name": "AccessControlUnauthorizedAccount",
      "type": "error"
    },
    {
      "inputs": [],
      "name": "ERC1167FailedCreateClone",
      "type": "error"
    },
    {
      "inputs": [],
      "name": "EnforcedPause",
      "type": "error"
    },
    {
      "inputs": [],
      "name": "ExpectedPause",
      "type": "error"
    },
    {
      "inputs": [],
      "name": "ReentrancyGuardReentrantCall",
      "type": "error"
    },
    {
      "anonymous": false,
      "inputs": [
        {
          "indexed": false,
          "internalType": "address",
          "name": "account",
          "type": "address"
        }
      ],
      "name": "Paused",
      "type": "event"
    },
    {
      "anonymous": false,
      "inputs": [
        {
          "indexed": true,
          "internalType": "bytes32",
          "name": "role",
          "type": "bytes32"
        },
        {
          "indexed": true,
          "internalType": "bytes32",
          "name": "previousAdminRole",
          "type": "bytes32"
        },
        {
          "indexed": true,
          "internalType": "bytes32",
          "name": "newAdminRole",
          "type": "bytes32"
        }
      ],
      "name": "RoleAdminChanged",
      "type": "event"
    },
    {
      "anonymous": false,
      "inputs": [
        {
          "indexed": true,
          "internalType": "bytes32",
          "name": "role",
          "type": "bytes32"
        },
        {
          "indexed": true,
          "internalType": "address",
          "name": "account",
          "type": "address"
        },
        {
          "indexed": true,
          "internalType": "address",
          "name": "sender",
          "type": "address"
        }
      ],
      "name": "RoleGranted",
      "type": "event"
    },
    {
      "anonymous": false,
      "inputs": [
        {
          "indexed": true,
          "internalType": "bytes32",
          "name": "role",
          "type": "bytes32"
        },
        {
          "indexed": true,
          "internalType": "address",
          "name": "account",
          "type": "address"
        },
        {
          "indexed": true,
          "internalType": "address",
          "name": "sender",
          "type": "address"
        }
      ],
      "name": "RoleRevoked",
      "type": "event"
    },
    {
      "anonymous": false,
      "inputs": [
        {
          "indexed": true,
          "internalType": "uint256",
          "name": "projectId",
          "type": "uint256"
        },
        {
          "indexed": true,
          "internalType": "address",
          "name": "ticketContract",
          "type": "address"
        },
        {
          "indexed": false,
          "internalType": "uint256",
          "name": "price",
          "type": "uint256"
        }
      ],
      "name": "TicketCollectionCreated",
      "type": "event"
    },
    {
      "anonymous": false,
      "inputs": [
        {
          "indexed": false,
          "internalType": "address",
          "name": "account",
          "type": "address"
        }
      ],
      "name": "Unpaused",
      "type": "event"
    },
    {
      "anonymous": false,
      "inputs": [
        {
          "indexed": true,
          "internalType": "uint256",
          "name": "projectId",
          "type": "uint256"
        },
        {
          "indexed": false,
          "internalType": "string",
          "name": "videoURL",
          "type": "string"
        }
      ],
      "name": "VideoURLSet",
      "type": "event"
    },
    {
      "inputs": [],
      "name": "DEFAULT_ADMIN_ROLE",
      "outputs": [
        {
          "internalType": "bytes32",
          "name": "",
          "type": "bytes32"
        }
      ],
      "stateMutability": "view",
      "type": "function"
    },
    {
      "inputs": [],
      "name": "LAUNCHPAD_ROLE",
      "outputs": [
        {
          "internalType": "bytes32",
          "name": "",
          "type": "bytes32"
        }
      ],
      "stateMutability": "view",
      "type": "function"
    },
    {
      "inputs": [],
      "name": "PAUSER_ROLE",
      "outputs": [
        {
          "internalType": "bytes32",
          "name": "",
          "type": "bytes32"
        }
      ],
      "stateMutability": "view",
      "type": "function"
    },
    {
      "inputs": [
        {
          "internalType": "uint256",
          "name": "_projectId",
          "type": "uint256"
        }
      ],
      "name": "buyTicket",
      "outputs": [],
      "stateMutability": "payable",
      "type": "function"
    },
    {
      "inputs": [
        {
          "internalType": "uint256",
          "name": "",
          "type": "uint256"
        }
      ],
      "name": "collectionAddresses",
      "outputs": [
        {
          "internalType": "address",
          "name": "",
          "type": "address"
        }
      ],
      "stateMutability": "view",
      "type": "function"
    },
    {
      "inputs": [],
      "name": "collectionCount",
      "outputs": [
        {
          "internalType": "uint256",
          "name": "",
          "type": "uint256"
        }
      ],
      "stateMutability": "view",
      "type": "function"
    },
    {
      "inputs": [
        {
          "internalType": "uint256",
          "name": "_projectId",
          "type": "uint256"
        },
        {
          "internalType": "string",
          "name": "_name",
          "type": "string"
        },
        {
          "internalType": "string",
          "name": "_symbol",
          "type": "string"
        },
        {
          "internalType": "uint256",
          "name": "_price",
          "type": "uint256"
        },
        {
          "internalType": "string",
          "name": "_category",
          "type": "string"
        },
        {
          "internalType": "string",
          "name": "_title",
          "type": "string"
        },
        {
          "internalType": "address[]",
          "name": "_investors",
          "type": "address[]"
        },
        {
          "internalType": "uint256[]",
          "name": "_investmentAmounts",
          "type": "uint256[]"
        },
        {
          "internalType": "uint256",
          "name": "_fundingGoal",
          "type": "uint256"
        },
        {
          "internalType": "uint256",
          "name": "_profitSharePercentage",
          "type": "uint256"
        },
        {
          "internalType": "address",
          "name": "_creator",
          "type": "address"
        }
      ],
      "name": "createTicketCollection",
      "outputs": [
        {
          "internalType": "address",
          "name": "",
          "type": "address"
        }
      ],
      "stateMutability": "nonpayable",
      "type": "function"
    },
    {
      "inputs": [],
      "name": "crowdFlixVault",
      "outputs": [
        {
          "internalType": "contract ICrowdFlixVault",
          "name": "",
          "type": "address"
        }
      ],
      "stateMutability": "view",
      "type": "function"
    },
    {
      "inputs": [],
      "name": "getCollections",
      "outputs": [
        {
          "components": [
            {
              "internalType": "address",
              "name": "ticketContract",
              "type": "address"
            },
            {
              "internalType": "uint256",
              "name": "projectId",
              "type": "uint256"
            },
            {
              "internalType": "uint256",
              "name": "price",
              "type": "uint256"
            },
            {
              "internalType": "string",
              "name": "category",
              "type": "string"
            },
            {
              "internalType": "string",
              "name": "title",
              "type": "string"
            },
            {
              "internalType": "uint256",
              "name": "ticketsSold",
              "type": "uint256"
            },
            {
              "internalType": "string",
              "name": "videoID",
              "type": "string"
            }
          ],
          "internalType": "struct TicketManager.TicketCollection[]",
          "name": "",
          "type": "tuple[]"
        }
      ],
      "stateMutability": "view",
      "type": "function"
    },
    {
      "inputs": [
        {
          "internalType": "string",
          "name": "_category",
          "type": "string"
        }
      ],
      "name": "getCollectionsByCategory",
      "outputs": [
        {
          "components": [
            {
              "internalType": "address",
              "name": "ticketContract",
              "type": "address"
            },
            {
              "internalType": "uint256",
              "name": "projectId",
              "type": "uint256"
            },
            {
              "internalType": "uint256",
              "name": "price",
              "type": "uint256"
            },
            {
              "internalType": "string",
              "name": "category",
              "type": "string"
            },
            {
              "internalType": "string",
              "name": "title",
              "type": "string"
            },
            {
              "internalType": "uint256",
              "name": "ticketsSold",
              "type": "uint256"
            },
            {
              "internalType": "string",
              "name": "videoID",
              "type": "string"
            }
          ],
          "internalType": "struct TicketManager.TicketCollection[]",
          "name": "",
          "type": "tuple[]"
        }
      ],
      "stateMutability": "view",
      "type": "function"
    },
    {
      "inputs": [
        {
          "internalType": "bytes32",
          "name": "role",
          "type": "bytes32"
        }
      ],
      "name": "getRoleAdmin",
      "outputs": [
        {
          "internalType": "bytes32",
          "name": "",
          "type": "bytes32"
        }
      ],
      "stateMutability": "view",
      "type": "function"
    },
    {
      "inputs": [
        {
          "internalType": "uint256",
          "name": "_projectId",
          "type": "uint256"
        }
      ],
      "name": "getTicketCollectionPrice",
      "outputs": [
        {
          "internalType": "uint256",
          "name": "",
          "type": "uint256"
        }
      ],
      "stateMutability": "view",
      "type": "function"
    },
    {
      "inputs": [
        {
          "internalType": "uint256",
          "name": "_projectId",
          "type": "uint256"
        }
      ],
      "name": "getTicketContractAddress",
      "outputs": [
        {
          "internalType": "address",
          "name": "",
          "type": "address"
        }
      ],
      "stateMutability": "view",
      "type": "function"
    },
    {
      "inputs": [
        {
          "internalType": "uint256",
          "name": "_projectId",
          "type": "uint256"
        }
      ],
      "name": "getTicketsSold",
      "outputs": [
        {
          "internalType": "uint256",
          "name": "",
          "type": "uint256"
        }
      ],
      "stateMutability": "view",
      "type": "function"
    },
    {
      "inputs": [
        {
          "internalType": "uint256",
          "name": "_projectId",
          "type": "uint256"
        }
      ],
      "name": "getVideoURL",
      "outputs": [
        {
          "internalType": "string",
          "name": "",
          "type": "string"
        }
      ],
      "stateMutability": "view",
      "type": "function"
    },
    {
      "inputs": [
        {
          "internalType": "bytes32",
          "name": "role",
          "type": "bytes32"
        },
        {
          "internalType": "address",
          "name": "account",
          "type": "address"
        }
      ],
      "name": "grantRole",
      "outputs": [],
      "stateMutability": "nonpayable",
      "type": "function"
    },
    {
      "inputs": [
        {
          "internalType": "bytes32",
          "name": "role",
          "type": "bytes32"
        },
        {
          "internalType": "address",
          "name": "account",
          "type": "address"
        }
      ],
      "name": "hasRole",
      "outputs": [
        {
          "internalType": "bool",
          "name": "",
          "type": "bool"
        }
      ],
      "stateMutability": "view",
      "type": "function"
    },
    {
      "inputs": [],
      "name": "isPaused",
      "outputs": [
        {
          "internalType": "bool",
          "name": "",
          "type": "bool"
        }
      ],
      "stateMutability": "view",
      "type": "function"
    },
    {
      "inputs": [],
      "name": "pause",
      "outputs": [],
      "stateMutability": "nonpayable",
      "type": "function"
    },
    {
      "inputs": [],
      "name": "paused",
      "outputs": [
        {
          "internalType": "bool",
          "name": "",
          "type": "bool"
        }
      ],
      "stateMutability": "view",
      "type": "function"
    },
    {
      "inputs": [
        {
          "internalType": "bytes32",
          "name": "role",
          "type": "bytes32"
        },
        {
          "internalType": "address",
          "name": "callerConfirmation",
          "type": "address"
        }
      ],
      "name": "renounceRole",
      "outputs": [],
      "stateMutability": "nonpayable",
      "type": "function"
    },
    {
      "inputs": [
        {
          "internalType": "bytes32",
          "name": "role",
          "type": "bytes32"
        },
        {
          "internalType": "address",
          "name": "account",
          "type": "address"
        }
      ],
      "name": "revokeRole",
      "outputs": [],
      "stateMutability": "nonpayable",
      "type": "function"
    },
    {
      "inputs": [
        {
          "internalType": "uint256",
          "name": "_projectId",
          "type": "uint256"
        },
        {
          "internalType": "string",
          "name": "_videoURL",
          "type": "string"
        }
      ],
      "name": "setVideoURL",
      "outputs": [],
      "stateMutability": "nonpayable",
      "type": "function"
    },
    {
      "inputs": [
        {
          "internalType": "bytes4",
          "name": "interfaceId",
          "type": "bytes4"
        }
      ],
      "name": "supportsInterface",
      "outputs": [
        {
          "internalType": "bool",
          "name": "",
          "type": "bool"
        }
      ],
      "stateMutability": "view",
      "type": "function"
    },
    {
      "inputs": [],
      "name": "ticketImplementation",
      "outputs": [
        {
          "internalType": "address",
          "name": "",
          "type": "address"
        }
      ],
      "stateMutability": "view",
      "type": "function"
    },
    {
      "inputs": [],
      "name": "totalTicketsSold",
      "outputs": [
        {
          "internalType": "uint256",
          "name": "",
          "type": "uint256"
        }
      ],
      "stateMutability": "view",
      "type": "function"
    },
    {
      "inputs": [],
      "name": "unpause",
      "outputs": [],
      "stateMutability": "nonpayable",
      "type": "function"
    },
    {
      "stateMutability": "payable",
      "type": "receive"
    }
  ],
  "transactionHash": "0x25d218dc595777f3bbeaf55b8649bdcfba527e07306bb94093f6f65ad5b948ca",
  "args": [
    "0x5143e817751F90b23Ebf4c4E21ccCa7b8BBe582a",
    "0xB0C0775A8aE52938302345401902b661fd2F9F82",
    "0xD132fdDbAD74De8bE3fE054190a4A87179c83d3f"
  ],
  "numDeployments": 1,
  "solcInputHash": "7e09fa76bf03e61b22027b3b5631ce24",
  "bytecode": "0x60a034620000e157601f62001dd838819003918201601f19168301916001600160401b03831184841017620000e657808492606094604052833981010312620000e1578062000052620000b492620000fc565b6200006e60406200006660208501620000fc565b9301620000fc565b6000805460ff191690556001600255608091909152600480546001600160a01b0319166001600160a01b03909216919091179055620000ad3362000111565b5062000192565b50620000c03362000235565b50604051611ae49081620002d4823960805181818161066401526113450152f35b600080fd5b634e487b7160e01b600052604160045260246000fd5b51906001600160a01b0382168203620000e157565b6001600160a01b031660008181527fa6eef7e35abe7026729641147f7915573c7e97b47efa546f5f6e3230263bcb49602052604081205490919060ff166200018e5781805260016020526040822081835260205260408220600160ff19825416179055339160008051602062001db88339815191528180a4600190565b5090565b6001600160a01b031660008181527f7de4f4f049e37d4d78a9cd0f5a62542e489386ac22f4b1a5a7f2afc0fbba84a860205260408120549091907f2a0dbeec47712a2e50a8e5671dd8686a1155c1a2bde69f9e20b2f79a0ace557d9060ff16620002305780835260016020526040832082845260205260408320600160ff1982541617905560008051602062001db8833981519152339380a4600190565b505090565b6001600160a01b031660008181527fb9cbbae02fe941283ec0eefd7b121e3bc7f89fae077b27bdd75a7fd4cf1543a860205260408120549091907f65d7a28e3265b37a6474929f336521b332c1681b933f6cb9f3376673440d862a9060ff16620002305780835260016020526040832082845260205260408320600160ff1982541617905560008051602062001db8833981519152339380a460019056fe60a080604052600436101561001d575b50361561001b57600080fd5b005b600060805260003560e01c90816301ffc9a71461149c57508063023735aa1461144d578063248a9ca31461141c5780632f2ff15d146113db57806334701db8146113bb57806336568abe146113745780633a72eeab1461132d5780633f4ba83a146112bb57806341a550021461129057806343580ea71461109357806346e6358614610fd35780635889298f14610fa25780635c975abb1461041857806367dd74ca14610e7d5780636f43b35114610e4c5780638456cb5914610deb57806391d1485414610d9c578063941a0a8b146104d257806399deea5b1461049c578063a217fddf1461047e578063abae977f1461043c578063b187bd2614610418578063d547741f146103d0578063d57f966b146103b0578063d6b5188f14610373578063e5f9c3721461019e5763e63ab1e914610158573861000f565b3461019857608051806003193601126101955760206040517f65d7a28e3265b37a6474929f336521b332c1681b933f6cb9f3376673440d862a8152f35b80fd5b60805180fd5b3461019857602080600319360112610198576004356001600160401b038111610198576101cf903690600401611594565b90608051908192600593845493838301915b85811061031d57506101f290611a1b565b9460805192835b868110610212576040518061020e8a826115ea565b0390f35b806080515285600380825261023761023e826040608051200160405192838092611985565b0382611573565b828151910120845187201461025e575b505061025990611942565b6101f9565b956103139160066102f3859961025996608051528084526102376102bc604060805120926040519661028f88611545565b60018060a01b03855416885260018501549088015260028401546040880152604051928380928601611985565b60608501526040516102d5816102378160048601611985565b60808501528881015460a08501526102376040518094819301611985565b60c0820152610302828c611a9a565b5261030d818b611a9a565b50611942565b949050858961024e565b806080515261023761034060038088526040608051200160405192838092611985565b858151910120845184201461035e575b61035990611942565b6101e1565b9061036b61035991611942565b919050610350565b3461019857608051806003193601126101955760206040517f2a0dbeec47712a2e50a8e5671dd8686a1155c1a2bde69f9e20b2f79a0ace557d8152f35b346101985760805180600319360112610195576020600554604051908152f35b34610198576040366003190112610198576104116004356103ef61152f565b908060805152600160205261040c600160406080512001546117eb565b611891565b5060805180f35b3461019857608051806003193601126101955760ff60209154166040519015158152f35b3461019857602036600319011261019857600435600654811015610198576104656020916116c8565b905460405160039290921b1c6001600160a01b03168152f35b34610198576080518060031936011261019557602090604051908152f35b3461019857602036600319011261019857600435608051526003602052602060018060a01b036040608051205416604051908152f35b3461019857610160366003190112610198576024356001600160401b03811161019857610503903690600401611594565b6044356001600160401b03811161019857610522903690600401611594565b6084356001600160401b03811161019857610541903690600401611594565b60a4356001600160401b03811161019857610560903690600401611594565b9160c435916001600160401b038311610198573660238401121561019857826004013561058c816116b1565b9361059a6040519586611573565b81855260208501906024829360051b8201019036821161019857602401915b818310610d7a575050506001600160401b0360e435116101985736602360e4350112156101985760e43560040135956105f1876116b1565b936105ff6040519586611573565b878552602085016024819960051b60e43501019036821161019857602460e43501905b828210610d6a575050610144359490506001600160a01b0385168503610d655761064a61178f565b610652611967565b6e5af43d82803e903d91602b57fd5bf37f0000000000000000000000000000000000000000000000000000000000000000763d602d80600a3d3981f3363d3d373d3d3d363d7300000062ffffff8260881c16176080515260781b1760205260018060a01b0360376009608051f016978815610d5357604051916106d483611545565b898352600435602084015260643560408401526060830152608082015260805160a08201526040518060208101106001600160401b03602083011117610d3d5760208101604052608051815260c082015260043560805152600360205260805190604082209160018060a01b038251166bffffffffffffffffffffffff60a01b845416178355602082015160018401556040820151600284015560608201518051916001600160401b038311610d26575081906107946003860154611908565b601f8111610ccf575b5060805190602091601f8411600114610c5d575060805192610c52575b50508160011b916000199060031b1c19161760038301555b60808101519081516001600160401b038111610a95576107f56004850154611908565b601f8111610c08575b50608051602090601f8311600114610b925750819060c09460805192610b87575b50508160011b916000199060031b1c19161760048401555b60a08101516005840155015180516001600160401b038111610a95576108606006840154611908565b601f8111610b3d575b50608051602090601f8311600114610acd5750819060069360805192610ac2575b50508160011b916000199060031b1c1916179101555b863b15610198576108e5906108d3604051936326896a5b60e11b85523060048601526080602486015260848501906114ef565b838103600319016044850152906114ef565b60643560648301528180608051920381838a5af18015610a5357610aad575b50610910600554611942565b60055560065468010000000000000000811015610a955780600161093792016006556116c8565b81546001600160a01b0360039290921b82811b199091169088901b179091556004541692833b15610198576040516342bc157360e01b8152600480359082015260c06024820152945160c4860181905260805160e487019391905b818110610a765750505060209060031986840301604487015251918281520195906080515b818110610a60575050506101043560648401526101243560848401526001600160a01b031660a483015260805190829081860390829084905af18015610a5357610a37575b6020828060405160643581527ff126dce65689cbae608ee1c0972aab04bf04b212230f4ca7a981ac5886d46d928460043592a3604051908152f35b610a4090611560565b6080519081610a4f57906109fc565b5080fd5b6040513d608051823e3d90fd5b82518852602097880197909201916001016109b7565b82516001600160a01b0316855260209485019490920191600101610992565b634e487b7160e01b6080515260416004526024608051fd5b610ab690611560565b60805180156109045780fd5b015190508c8061088a565b600685019052608051602081209293905b601f1985168110610b255750918391600193600695601f19811610610b0c575b505050811b019101556108a0565b015160001960f88460031b161c191690558c8080610afe565b91926020600181928685015181550194019201610ade565b600684016080515260805160208120601f840160051c810160208510610b80575b601f840160051c82018110610b7557505050610869565b828155600101610b5e565b5080610b5e565b015190508d8061081f565b600486959394950190526080519160208320925b601f1985168110610bf0575091839160019360c09695601f19811610610bd7575b505050811b016004840155610837565b015160001960f88460031b161c191690558d8080610bc7565b91926020600181928685015181550194019201610ba6565b600485016080515260805160208120601f840160051c810160208510610c4b575b601f840160051c82018110610c40575050506107fe565b828155600101610c29565b5080610c29565b015190508c806107ba565b6003870190526080516020812090945091905b601f1984168510610cb4576001945083601f19811610610c9b575b505050811b0160038301556107d2565b015160001960f88460031b161c191690558c8080610c8b565b81810151835560209485019460019093019290910190610c70565b909150600385016080515260805160208120601f850160051c810160208610610d1f575b9085949392915b601f840160051c82018110610d115750505061079d565b828155869550600101610cfa565b5080610cf3565b634e487b7160e01b90526041600452608051602490fd5b634e487b7160e01b600052604160045260246000fd5b6040516330be1a3d60e21b8152600490fd5b600080fd5b8135815260209182019101610622565b82356001600160a01b0381169003610d655782358152602092830192016105b9565b3461019857604036600319011261019857610db561152f565b6004356080515260016020526040608051209060018060a01b0316600052602052602060ff604060002054166040519015158152f35b34610198576080518060031936011261019557610e06611715565b610e0e611967565b608051600160ff198254161790557f62e78cea01bee320cd4e420270b5ea74000d11b0c9f74754ebdbfc544b05a2586020604051338152a160805180f35b3461019857602036600319011261019857600435608051526003602052602060026040608051200154604051908152f35b6020366003190112610198576004358060805152600360205260406080512060028101543403610f665780546001600160a01b039190821690813b1561019857604051916340d097c360e01b83523360048401528260248160805180945af1918215610a5357600592610f57575b5001610ef78154611942565b9055610f04600754611942565b60075560045416803b1561019857604051916309e368d960e21b83526004830152816024816080519334905af18015610a5357610f42575b60805180f35b610f4b90611560565b6080518015610f3c5780fd5b610f6090611560565b84610eeb565b60405162461bcd60e51b8152602060048201526014602482015273125b9cdd59999a58da595b9d081c185e5b595b9d60621b6044820152606490fd5b3461019857602036600319011261019857600435608051526003602052602060056040608051200154604051908152f35b3461019857608051806003193601126101955760058054610ff381611a1b565b916080515b82811061100d576040518061020e86826115ea565b8061108e91608051526003600661107460209280845261023761103d604060805120926040519661028f88611545565b6060850152604051611056816102378160048601611985565b60808501528681015460a08501526102376040518094819301611985565b60c08201526110838287611a9a565b5261030d8186611a9a565b610ff8565b34610198576040366003190112610198576001600160401b03600435602435828111610198576110c7903690600401611594565b6110cf61178f565b60055482101561125657816080515260206003815260805160066040822001908351958611610d2657506111038154611908565b601f811161120d575b506080518290601f8711600114611188575094807fd4bad898c994bc2661af05d7e86fb1917e8aa8d07f43d779391498c066adffc595966080519161117d575b508160011b916000199060031b1c19161790555b6111746040519282849384528301906114ef565b0390a260805180f35b90508401518761114c565b8290526080518381209190601f198816905b8181106111f657509187917fd4bad898c994bc2661af05d7e86fb1917e8aa8d07f43d779391498c066adffc59798600194106111dd575b5050811b019055611160565b86015160001960f88460031b161c1916905587806111d1565b91928560018192868a01518155019401920161119a565b8160805152608051838120601f880160051c81019285891061124c575b601f0160051c01915b82811061124157505061110c565b818155600101611233565b909250829061122a565b60405162461bcd60e51b8152602060048201526012602482015271125b9d985b1a59081c1c9bda9958dd08125160721b6044820152606490fd5b346101985760805180600319360112610195576004546040516001600160a01b039091168152602090f35b346101985760805180600319360112610195576112d6611715565b6080515460ff81161561131b5760ff1916608051557f5db9ee0a495bf2e6ff9c91a7834c1ba4fdd244a5e8aa4e537bd38aeae4b073aa6020604051338152a160805180f35b604051638dfc202b60e01b8152600490fd5b346101985760805180600319360112610195576040517f00000000000000000000000000000000000000000000000000000000000000006001600160a01b03168152602090f35b346101985760403660031901126101985761138d61152f565b336001600160a01b038216036113a95761041190600435611891565b60405163334bd91960e11b8152600490fd5b346101985760805180600319360112610195576020600754604051908152f35b34610198576040366003190112610198576104116004356113fa61152f565b9080608051526001602052611417600160406080512001546117eb565b611811565b3461019857602036600319011261019857600435608051526001602052602060016040608051200154604051908152f35b346101985760203660031901126101985760043560805152600360205261020e61023761148860066040608051200160405192838092611985565b6040519182916020835260208301906114ef565b34610d65576020366003190112610d65576004359063ffffffff60e01b8216809203610d6557602091637965db0b60e01b81149081156114de575b5015158152f35b6301ffc9a760e01b149050836114d7565b919082519283825260005b84811061151b575050826000602080949584010152601f8019910116010190565b6020818301810151848301820152016114fa565b602435906001600160a01b0382168203610d6557565b60e081019081106001600160401b03821117610d3d57604052565b6001600160401b038111610d3d57604052565b90601f801991011681019081106001600160401b03821117610d3d57604052565b81601f82011215610d65578035906001600160401b038211610d3d57604051926115c8601f8401601f191660200185611573565b82845260208383010111610d6557816000926020809301838601378301015290565b602080820190808352835180925260409283810182858560051b8401019601946000925b85841061161f575050505050505090565b9091929394959685806116a0600193603f198682030188528b51858060a01b038151168252838101518483015287810151888301526116836116706060808401519060e080918701528501906114ef565b60808084015190858303908601526114ef565b9160a0808301519082015260c080920151918184039101526114ef565b99019401940192959493919061160e565b6001600160401b038111610d3d5760051b60200190565b6006548110156116ff5760066000527ff652222313e28459528d920b65115c16c04f3efc82aaedc97be59f3f377c0d3f0190600090565b634e487b7160e01b600052603260045260246000fd5b3360009081527fb9cbbae02fe941283ec0eefd7b121e3bc7f89fae077b27bdd75a7fd4cf1543a860205260409020547f65d7a28e3265b37a6474929f336521b332c1681b933f6cb9f3376673440d862a9060ff16156117715750565b6044906040519063e2517d3f60e01b82523360048301526024820152fd5b3360009081527f7de4f4f049e37d4d78a9cd0f5a62542e489386ac22f4b1a5a7f2afc0fbba84a860205260409020547f2a0dbeec47712a2e50a8e5671dd8686a1155c1a2bde69f9e20b2f79a0ace557d9060ff16156117715750565b80600052600160205260406000203360005260205260ff60406000205416156117715750565b906000918083526001602052604083209160018060a01b03169182845260205260ff6040842054161560001461188c5780835260016020526040832082845260205260408320600160ff198254161790557f2f8788117e7eff1d82e926ec794901d17c78024a50270940304540a733656f0d339380a4600190565b505090565b906000918083526001602052604083209160018060a01b03169182845260205260ff60408420541660001461188c578083526001602052604083208284526020526040832060ff1981541690557ff6391f5c32d9c69d2a47ea670b442974b53935d1edc7fd64eb21e047a839171b339380a4600190565b90600182811c92168015611938575b602083101461192257565b634e487b7160e01b600052602260045260246000fd5b91607f1691611917565b60001981146119515760010190565b634e487b7160e01b600052601160045260246000fd5b60ff6000541661197357565b60405163d93c066560e01b8152600490fd5b906000929180549161199683611908565b9182825260019384811690816000146119f857506001146119b8575b50505050565b90919394506000526020928360002092846000945b8386106119e45750505050010190388080806119b2565b8054858701830152940193859082016119cd565b9294505050602093945060ff191683830152151560051b010190388080806119b2565b90611a25826116b1565b604090611a3482519182611573565b8381528093611a45601f19916116b1565b019160005b838110611a575750505050565b6020908251611a6581611545565b600081528260008183015260008583015260608080840152806080840152600060a084015260c0830152828601015201611a4a565b80518210156116ff5760209160051b01019056fea2646970667358221220bd74be58c3fd7497c206bd9cc98d8f1c3bd25dcdd90d61fb06dc8cd77350c3c064736f6c634300081400332f8788117e7eff1d82e926ec794901d17c78024a50270940304540a733656f0d",
  "devdoc": {
    "errors": {
      "AccessControlBadConfirmation()": [
        {
          "details": "The caller of a function is not the expected one. NOTE: Don't confuse with {AccessControlUnauthorizedAccount}."
        }
      ],
      "AccessControlUnauthorizedAccount(address,bytes32)": [
        {
          "details": "The `account` is missing a role."
        }
      ],
      "ERC1167FailedCreateClone()": [
        {
          "details": "A clone instance deployment failed."
        }
      ],
      "EnforcedPause()": [
        {
          "details": "The operation failed because the contract is paused."
        }
      ],
      "ExpectedPause()": [
        {
          "details": "The operation failed because the contract is not paused."
        }
      ],
      "ReentrancyGuardReentrantCall()": [
        {
          "details": "Unauthorized reentrant call."
        }
      ]
    },
    "events": {
      "Paused(address)": {
        "details": "Emitted when the pause is triggered by `account`."
      },
      "RoleAdminChanged(bytes32,bytes32,bytes32)": {
        "details": "Emitted when `newAdminRole` is set as ``role``'s admin role, replacing `previousAdminRole` `DEFAULT_ADMIN_ROLE` is the starting admin for all roles, despite {RoleAdminChanged} not being emitted signaling this."
      },
      "RoleGranted(bytes32,address,address)": {
        "details": "Emitted when `account` is granted `role`. `sender` is the account that originated the contract call, an admin role bearer except when using {AccessControl-_setupRole}."
      },
      "RoleRevoked(bytes32,address,address)": {
        "details": "Emitted when `account` is revoked `role`. `sender` is the account that originated the contract call:   - if using `revokeRole`, it is the admin role bearer   - if using `renounceRole`, it is the role bearer (i.e. `account`)"
      },
      "Unpaused(address)": {
        "details": "Emitted when the pause is lifted by `account`."
      }
    },
    "kind": "dev",
    "methods": {
      "getRoleAdmin(bytes32)": {
        "details": "Returns the admin role that controls `role`. See {grantRole} and {revokeRole}. To change a role's admin, use {_setRoleAdmin}."
      },
      "grantRole(bytes32,address)": {
        "details": "Grants `role` to `account`. If `account` had not been already granted `role`, emits a {RoleGranted} event. Requirements: - the caller must have ``role``'s admin role. May emit a {RoleGranted} event."
      },
      "hasRole(bytes32,address)": {
        "details": "Returns `true` if `account` has been granted `role`."
      },
      "paused()": {
        "details": "Returns true if the contract is paused, and false otherwise."
      },
      "renounceRole(bytes32,address)": {
        "details": "Revokes `role` from the calling account. Roles are often managed via {grantRole} and {revokeRole}: this function's purpose is to provide a mechanism for accounts to lose their privileges if they are compromised (such as when a trusted device is misplaced). If the calling account had been revoked `role`, emits a {RoleRevoked} event. Requirements: - the caller must be `callerConfirmation`. May emit a {RoleRevoked} event."
      },
      "revokeRole(bytes32,address)": {
        "details": "Revokes `role` from `account`. If `account` had been granted `role`, emits a {RoleRevoked} event. Requirements: - the caller must have ``role``'s admin role. May emit a {RoleRevoked} event."
      },
      "supportsInterface(bytes4)": {
        "details": "See {IERC165-supportsInterface}."
      }
    },
    "version": 1
  },
  "userdoc": {
    "kind": "user",
    "methods": {},
    "version": 1
  },
  "storageLayout": {
    "storage": [
      {
        "astId": 3216,
        "contract": "contracts/TicketManager.sol:TicketManager",
        "label": "_paused",
        "offset": 0,
        "slot": "0",
        "type": "t_bool"
      },
      {
        "astId": 2408,
        "contract": "contracts/TicketManager.sol:TicketManager",
        "label": "_roles",
        "offset": 0,
        "slot": "1",
        "type": "t_mapping(t_bytes32,t_struct(RoleData)2403_storage)"
      },
      {
        "astId": 3335,
        "contract": "contracts/TicketManager.sol:TicketManager",
        "label": "_status",
        "offset": 0,
        "slot": "2",
        "type": "t_uint256"
      },
      {
        "astId": 5077,
        "contract": "contracts/TicketManager.sol:TicketManager",
        "label": "ticketCollections",
        "offset": 0,
        "slot": "3",
        "type": "t_mapping(t_uint256,t_struct(TicketCollection)5072_storage)"
      },
      {
        "astId": 5082,
        "contract": "contracts/TicketManager.sol:TicketManager",
        "label": "crowdFlixVault",
        "offset": 0,
        "slot": "4",
        "type": "t_contract(ICrowdFlixVault)4868"
      },
      {
        "astId": 5084,
        "contract": "contracts/TicketManager.sol:TicketManager",
        "label": "collectionCount",
        "offset": 0,
        "slot": "5",
        "type": "t_uint256"
      },
      {
        "astId": 5087,
        "contract": "contracts/TicketManager.sol:TicketManager",
        "label": "collectionAddresses",
        "offset": 0,
        "slot": "6",
        "type": "t_array(t_address)dyn_storage"
      },
      {
        "astId": 5089,
        "contract": "contracts/TicketManager.sol:TicketManager",
        "label": "totalTicketsSold",
        "offset": 0,
        "slot": "7",
        "type": "t_uint256"
      }
    ],
    "types": {
      "t_address": {
        "encoding": "inplace",
        "label": "address",
        "numberOfBytes": "20"
      },
      "t_array(t_address)dyn_storage": {
        "base": "t_address",
        "encoding": "dynamic_array",
        "label": "address[]",
        "numberOfBytes": "32"
      },
      "t_bool": {
        "encoding": "inplace",
        "label": "bool",
        "numberOfBytes": "1"
      },
      "t_bytes32": {
        "encoding": "inplace",
        "label": "bytes32",
        "numberOfBytes": "32"
      },
      "t_contract(ICrowdFlixVault)4868": {
        "encoding": "inplace",
        "label": "contract ICrowdFlixVault",
        "numberOfBytes": "20"
      },
      "t_mapping(t_address,t_bool)": {
        "encoding": "mapping",
        "key": "t_address",
        "label": "mapping(address => bool)",
        "numberOfBytes": "32",
        "value": "t_bool"
      },
      "t_mapping(t_bytes32,t_struct(RoleData)2403_storage)": {
        "encoding": "mapping",
        "key": "t_bytes32",
        "label": "mapping(bytes32 => struct AccessControl.RoleData)",
        "numberOfBytes": "32",
        "value": "t_struct(RoleData)2403_storage"
      },
      "t_mapping(t_uint256,t_struct(TicketCollection)5072_storage)": {
        "encoding": "mapping",
        "key": "t_uint256",
        "label": "mapping(uint256 => struct TicketManager.TicketCollection)",
        "numberOfBytes": "32",
        "value": "t_struct(TicketCollection)5072_storage"
      },
      "t_string_storage": {
        "encoding": "bytes",
        "label": "string",
        "numberOfBytes": "32"
      },
      "t_struct(RoleData)2403_storage": {
        "encoding": "inplace",
        "label": "struct AccessControl.RoleData",
        "members": [
          {
            "astId": 2400,
            "contract": "contracts/TicketManager.sol:TicketManager",
            "label": "hasRole",
            "offset": 0,
            "slot": "0",
            "type": "t_mapping(t_address,t_bool)"
          },
          {
            "astId": 2402,
            "contract": "contracts/TicketManager.sol:TicketManager",
            "label": "adminRole",
            "offset": 0,
            "slot": "1",
            "type": "t_bytes32"
          }
        ],
        "numberOfBytes": "64"
      },
      "t_struct(TicketCollection)5072_storage": {
        "encoding": "inplace",
        "label": "struct TicketManager.TicketCollection",
        "members": [
          {
            "astId": 5059,
            "contract": "contracts/TicketManager.sol:TicketManager",
            "label": "ticketContract",
            "offset": 0,
            "slot": "0",
            "type": "t_address"
          },
          {
            "astId": 5061,
            "contract": "contracts/TicketManager.sol:TicketManager",
            "label": "projectId",
            "offset": 0,
            "slot": "1",
            "type": "t_uint256"
          },
          {
            "astId": 5063,
            "contract": "contracts/TicketManager.sol:TicketManager",
            "label": "price",
            "offset": 0,
            "slot": "2",
            "type": "t_uint256"
          },
          {
            "astId": 5065,
            "contract": "contracts/TicketManager.sol:TicketManager",
            "label": "category",
            "offset": 0,
            "slot": "3",
            "type": "t_string_storage"
          },
          {
            "astId": 5067,
            "contract": "contracts/TicketManager.sol:TicketManager",
            "label": "title",
            "offset": 0,
            "slot": "4",
            "type": "t_string_storage"
          },
          {
            "astId": 5069,
            "contract": "contracts/TicketManager.sol:TicketManager",
            "label": "ticketsSold",
            "offset": 0,
            "slot": "5",
            "type": "t_uint256"
          },
          {
            "astId": 5071,
            "contract": "contracts/TicketManager.sol:TicketManager",
            "label": "videoID",
            "offset": 0,
            "slot": "6",
            "type": "t_string_storage"
          }
        ],
        "numberOfBytes": "224"
      },
      "t_uint256": {
        "encoding": "inplace",
        "label": "uint256",
        "numberOfBytes": "32"
      }
    }
  }
}