{
  "address": "0xAE519FC2Ba8e6fFE6473195c092bF1BAe986ff90",
  "abi": [
    {
      "inputs": [
        {
          "internalType": "address",
          "name": "initialAdmin",
          "type": "address"
        }
      ],
      "stateMutability": "nonpayable",
      "type": "constructor"
    },
    {
      "inputs": [
        {
          "internalType": "bytes32",
          "name": "operationId",
          "type": "bytes32"
        }
      ],
      "name": "AccessManagerAlreadyScheduled",
      "type": "error"
    },
    {
      "inputs": [],
      "name": "AccessManagerBadConfirmation",
      "type": "error"
    },
    {
      "inputs": [
        {
          "internalType": "bytes32",
          "name": "operationId",
          "type": "bytes32"
        }
      ],
      "name": "AccessManagerExpired",
      "type": "error"
    },
    {
      "inputs": [
        {
          "internalType": "address",
          "name": "initialAdmin",
          "type": "address"
        }
      ],
      "name": "AccessManagerInvalidInitialAdmin",
      "type": "error"
    },
    {
      "inputs": [
        {
          "internalType": "address",
          "name": "account",
          "type": "address"
        }
      ],
      "name": "AccessManagerLockedAccount",
      "type": "error"
    },
    {
      "inputs": [
        {
          "internalType": "uint64",
          "name": "roleId",
          "type": "uint64"
        }
      ],
      "name": "AccessManagerLockedRole",
      "type": "error"
    },
    {
      "inputs": [
        {
          "internalType": "bytes32",
          "name": "operationId",
          "type": "bytes32"
        }
      ],
      "name": "AccessManagerNotReady",
      "type": "error"
    },
    {
      "inputs": [
        {
          "internalType": "bytes32",
          "name": "operationId",
          "type": "bytes32"
        }
      ],
      "name": "AccessManagerNotScheduled",
      "type": "error"
    },
    {
      "inputs": [
        {
          "internalType": "address",
          "name": "msgsender",
          "type": "address"
        },
        {
          "internalType": "uint64",
          "name": "roleId",
          "type": "uint64"
        }
      ],
      "name": "AccessManagerUnauthorizedAccount",
      "type": "error"
    },
    {
      "inputs": [
        {
          "internalType": "address",
          "name": "caller",
          "type": "address"
        },
        {
          "internalType": "address",
          "name": "target",
          "type": "address"
        },
        {
          "internalType": "bytes4",
          "name": "selector",
          "type": "bytes4"
        }
      ],
      "name": "AccessManagerUnauthorizedCall",
      "type": "error"
    },
    {
      "inputs": [
        {
          "internalType": "address",
          "name": "msgsender",
          "type": "address"
        },
        {
          "internalType": "address",
          "name": "caller",
          "type": "address"
        },
        {
          "internalType": "address",
          "name": "target",
          "type": "address"
        },
        {
          "internalType": "bytes4",
          "name": "selector",
          "type": "bytes4"
        }
      ],
      "name": "AccessManagerUnauthorizedCancel",
      "type": "error"
    },
    {
      "inputs": [
        {
          "internalType": "address",
          "name": "target",
          "type": "address"
        }
      ],
      "name": "AccessManagerUnauthorizedConsume",
      "type": "error"
    },
    {
      "inputs": [
        {
          "internalType": "address",
          "name": "target",
          "type": "address"
        }
      ],
      "name": "AddressEmptyCode",
      "type": "error"
    },
    {
      "inputs": [
        {
          "internalType": "address",
          "name": "account",
          "type": "address"
        }
      ],
      "name": "AddressInsufficientBalance",
      "type": "error"
    },
    {
      "inputs": [],
      "name": "FailedInnerCall",
      "type": "error"
    },
    {
      "inputs": [
        {
          "internalType": "uint8",
          "name": "bits",
          "type": "uint8"
        },
        {
          "internalType": "uint256",
          "name": "value",
          "type": "uint256"
        }
      ],
      "name": "SafeCastOverflowedUintDowncast",
      "type": "error"
    },
    {
      "anonymous": false,
      "inputs": [
        {
          "indexed": true,
          "internalType": "bytes32",
          "name": "operationId",
          "type": "bytes32"
        },
        {
          "indexed": true,
          "internalType": "uint32",
          "name": "nonce",
          "type": "uint32"
        }
      ],
      "name": "OperationCanceled",
      "type": "event"
    },
    {
      "anonymous": false,
      "inputs": [
        {
          "indexed": true,
          "internalType": "bytes32",
          "name": "operationId",
          "type": "bytes32"
        },
        {
          "indexed": true,
          "internalType": "uint32",
          "name": "nonce",
          "type": "uint32"
        }
      ],
      "name": "OperationExecuted",
      "type": "event"
    },
    {
      "anonymous": false,
      "inputs": [
        {
          "indexed": true,
          "internalType": "bytes32",
          "name": "operationId",
          "type": "bytes32"
        },
        {
          "indexed": true,
          "internalType": "uint32",
          "name": "nonce",
          "type": "uint32"
        },
        {
          "indexed": false,
          "internalType": "uint48",
          "name": "schedule",
          "type": "uint48"
        },
        {
          "indexed": false,
          "internalType": "address",
          "name": "caller",
          "type": "address"
        },
        {
          "indexed": false,
          "internalType": "address",
          "name": "target",
          "type": "address"
        },
        {
          "indexed": false,
          "internalType": "bytes",
          "name": "data",
          "type": "bytes"
        }
      ],
      "name": "OperationScheduled",
      "type": "event"
    },
    {
      "anonymous": false,
      "inputs": [
        {
          "indexed": true,
          "internalType": "uint64",
          "name": "roleId",
          "type": "uint64"
        },
        {
          "indexed": true,
          "internalType": "uint64",
          "name": "admin",
          "type": "uint64"
        }
      ],
      "name": "RoleAdminChanged",
      "type": "event"
    },
    {
      "anonymous": false,
      "inputs": [
        {
          "indexed": true,
          "internalType": "uint64",
          "name": "roleId",
          "type": "uint64"
        },
        {
          "indexed": false,
          "internalType": "uint32",
          "name": "delay",
          "type": "uint32"
        },
        {
          "indexed": false,
          "internalType": "uint48",
          "name": "since",
          "type": "uint48"
        }
      ],
      "name": "RoleGrantDelayChanged",
      "type": "event"
    },
    {
      "anonymous": false,
      "inputs": [
        {
          "indexed": true,
          "internalType": "uint64",
          "name": "roleId",
          "type": "uint64"
        },
        {
          "indexed": true,
          "internalType": "address",
          "name": "account",
          "type": "address"
        },
        {
          "indexed": false,
          "internalType": "uint32",
          "name": "delay",
          "type": "uint32"
        },
        {
          "indexed": false,
          "internalType": "uint48",
          "name": "since",
          "type": "uint48"
        },
        {
          "indexed": false,
          "internalType": "bool",
          "name": "newMember",
          "type": "bool"
        }
      ],
      "name": "RoleGranted",
      "type": "event"
    },
    {
      "anonymous": false,
      "inputs": [
        {
          "indexed": true,
          "internalType": "uint64",
          "name": "roleId",
          "type": "uint64"
        },
        {
          "indexed": true,
          "internalType": "uint64",
          "name": "guardian",
          "type": "uint64"
        }
      ],
      "name": "RoleGuardianChanged",
      "type": "event"
    },
    {
      "anonymous": false,
      "inputs": [
        {
          "indexed": true,
          "internalType": "uint64",
          "name": "roleId",
          "type": "uint64"
        },
        {
          "indexed": false,
          "internalType": "string",
          "name": "label",
          "type": "string"
        }
      ],
      "name": "RoleLabel",
      "type": "event"
    },
    {
      "anonymous": false,
      "inputs": [
        {
          "indexed": true,
          "internalType": "uint64",
          "name": "roleId",
          "type": "uint64"
        },
        {
          "indexed": true,
          "internalType": "address",
          "name": "account",
          "type": "address"
        }
      ],
      "name": "RoleRevoked",
      "type": "event"
    },
    {
      "anonymous": false,
      "inputs": [
        {
          "indexed": true,
          "internalType": "address",
          "name": "target",
          "type": "address"
        },
        {
          "indexed": false,
          "internalType": "uint32",
          "name": "delay",
          "type": "uint32"
        },
        {
          "indexed": false,
          "internalType": "uint48",
          "name": "since",
          "type": "uint48"
        }
      ],
      "name": "TargetAdminDelayUpdated",
      "type": "event"
    },
    {
      "anonymous": false,
      "inputs": [
        {
          "indexed": true,
          "internalType": "address",
          "name": "target",
          "type": "address"
        },
        {
          "indexed": false,
          "internalType": "bool",
          "name": "closed",
          "type": "bool"
        }
      ],
      "name": "TargetClosed",
      "type": "event"
    },
    {
      "anonymous": false,
      "inputs": [
        {
          "indexed": true,
          "internalType": "address",
          "name": "target",
          "type": "address"
        },
        {
          "indexed": false,
          "internalType": "bytes4",
          "name": "selector",
          "type": "bytes4"
        },
        {
          "indexed": true,
          "internalType": "uint64",
          "name": "roleId",
          "type": "uint64"
        }
      ],
      "name": "TargetFunctionRoleUpdated",
      "type": "event"
    },
    {
      "inputs": [],
      "name": "ADMIN_ROLE",
      "outputs": [
        {
          "internalType": "uint64",
          "name": "",
          "type": "uint64"
        }
      ],
      "stateMutability": "view",
      "type": "function"
    },
    {
      "inputs": [],
      "name": "PUBLIC_ROLE",
      "outputs": [
        {
          "internalType": "uint64",
          "name": "",
          "type": "uint64"
        }
      ],
      "stateMutability": "view",
      "type": "function"
    },
    {
      "inputs": [
        {
          "internalType": "address",
          "name": "caller",
          "type": "address"
        },
        {
          "internalType": "address",
          "name": "target",
          "type": "address"
        },
        {
          "internalType": "bytes4",
          "name": "selector",
          "type": "bytes4"
        }
      ],
      "name": "canCall",
      "outputs": [
        {
          "internalType": "bool",
          "name": "immediate",
          "type": "bool"
        },
        {
          "internalType": "uint32",
          "name": "delay",
          "type": "uint32"
        }
      ],
      "stateMutability": "view",
      "type": "function"
    },
    {
      "inputs": [
        {
          "internalType": "address",
          "name": "caller",
          "type": "address"
        },
        {
          "internalType": "address",
          "name": "target",
          "type": "address"
        },
        {
          "internalType": "bytes",
          "name": "data",
          "type": "bytes"
        }
      ],
      "name": "cancel",
      "outputs": [
        {
          "internalType": "uint32",
          "name": "",
          "type": "uint32"
        }
      ],
      "stateMutability": "nonpayable",
      "type": "function"
    },
    {
      "inputs": [
        {
          "internalType": "address",
          "name": "caller",
          "type": "address"
        },
        {
          "internalType": "bytes",
          "name": "data",
          "type": "bytes"
        }
      ],
      "name": "consumeScheduledOp",
      "outputs": [],
      "stateMutability": "nonpayable",
      "type": "function"
    },
    {
      "inputs": [
        {
          "internalType": "address",
          "name": "target",
          "type": "address"
        },
        {
          "internalType": "bytes",
          "name": "data",
          "type": "bytes"
        }
      ],
      "name": "execute",
      "outputs": [
        {
          "internalType": "uint32",
          "name": "",
          "type": "uint32"
        }
      ],
      "stateMutability": "payable",
      "type": "function"
    },
    {
      "inputs": [],
      "name": "expiration",
      "outputs": [
        {
          "internalType": "uint32",
          "name": "",
          "type": "uint32"
        }
      ],
      "stateMutability": "view",
      "type": "function"
    },
    {
      "inputs": [
        {
          "internalType": "uint64",
          "name": "roleId",
          "type": "uint64"
        },
        {
          "internalType": "address",
          "name": "account",
          "type": "address"
        }
      ],
      "name": "getAccess",
      "outputs": [
        {
          "internalType": "uint48",
          "name": "since",
          "type": "uint48"
        },
        {
          "internalType": "uint32",
          "name": "currentDelay",
          "type": "uint32"
        },
        {
          "internalType": "uint32",
          "name": "pendingDelay",
          "type": "uint32"
        },
        {
          "internalType": "uint48",
          "name": "effect",
          "type": "uint48"
        }
      ],
      "stateMutability": "view",
      "type": "function"
    },
    {
      "inputs": [
        {
          "internalType": "bytes32",
          "name": "id",
          "type": "bytes32"
        }
      ],
      "name": "getNonce",
      "outputs": [
        {
          "internalType": "uint32",
          "name": "",
          "type": "uint32"
        }
      ],
      "stateMutability": "view",
      "type": "function"
    },
    {
      "inputs": [
        {
          "internalType": "uint64",
          "name": "roleId",
          "type": "uint64"
        }
      ],
      "name": "getRoleAdmin",
      "outputs": [
        {
          "internalType": "uint64",
          "name": "",
          "type": "uint64"
        }
      ],
      "stateMutability": "view",
      "type": "function"
    },
    {
      "inputs": [
        {
          "internalType": "uint64",
          "name": "roleId",
          "type": "uint64"
        }
      ],
      "name": "getRoleGrantDelay",
      "outputs": [
        {
          "internalType": "uint32",
          "name": "",
          "type": "uint32"
        }
      ],
      "stateMutability": "view",
      "type": "function"
    },
    {
      "inputs": [
        {
          "internalType": "uint64",
          "name": "roleId",
          "type": "uint64"
        }
      ],
      "name": "getRoleGuardian",
      "outputs": [
        {
          "internalType": "uint64",
          "name": "",
          "type": "uint64"
        }
      ],
      "stateMutability": "view",
      "type": "function"
    },
    {
      "inputs": [
        {
          "internalType": "bytes32",
          "name": "id",
          "type": "bytes32"
        }
      ],
      "name": "getSchedule",
      "outputs": [
        {
          "internalType": "uint48",
          "name": "",
          "type": "uint48"
        }
      ],
      "stateMutability": "view",
      "type": "function"
    },
    {
      "inputs": [
        {
          "internalType": "address",
          "name": "target",
          "type": "address"
        }
      ],
      "name": "getTargetAdminDelay",
      "outputs": [
        {
          "internalType": "uint32",
          "name": "",
          "type": "uint32"
        }
      ],
      "stateMutability": "view",
      "type": "function"
    },
    {
      "inputs": [
        {
          "internalType": "address",
          "name": "target",
          "type": "address"
        },
        {
          "internalType": "bytes4",
          "name": "selector",
          "type": "bytes4"
        }
      ],
      "name": "getTargetFunctionRole",
      "outputs": [
        {
          "internalType": "uint64",
          "name": "",
          "type": "uint64"
        }
      ],
      "stateMutability": "view",
      "type": "function"
    },
    {
      "inputs": [
        {
          "internalType": "uint64",
          "name": "roleId",
          "type": "uint64"
        },
        {
          "internalType": "address",
          "name": "account",
          "type": "address"
        },
        {
          "internalType": "uint32",
          "name": "executionDelay",
          "type": "uint32"
        }
      ],
      "name": "grantRole",
      "outputs": [],
      "stateMutability": "nonpayable",
      "type": "function"
    },
    {
      "inputs": [
        {
          "internalType": "uint64",
          "name": "roleId",
          "type": "uint64"
        },
        {
          "internalType": "address",
          "name": "account",
          "type": "address"
        }
      ],
      "name": "hasRole",
      "outputs": [
        {
          "internalType": "bool",
          "name": "isMember",
          "type": "bool"
        },
        {
          "internalType": "uint32",
          "name": "executionDelay",
          "type": "uint32"
        }
      ],
      "stateMutability": "view",
      "type": "function"
    },
    {
      "inputs": [
        {
          "internalType": "address",
          "name": "caller",
          "type": "address"
        },
        {
          "internalType": "address",
          "name": "target",
          "type": "address"
        },
        {
          "internalType": "bytes",
          "name": "data",
          "type": "bytes"
        }
      ],
      "name": "hashOperation",
      "outputs": [
        {
          "internalType": "bytes32",
          "name": "",
          "type": "bytes32"
        }
      ],
      "stateMutability": "view",
      "type": "function"
    },
    {
      "inputs": [
        {
          "internalType": "address",
          "name": "target",
          "type": "address"
        }
      ],
      "name": "isTargetClosed",
      "outputs": [
        {
          "internalType": "bool",
          "name": "",
          "type": "bool"
        }
      ],
      "stateMutability": "view",
      "type": "function"
    },
    {
      "inputs": [
        {
          "internalType": "uint64",
          "name": "roleId",
          "type": "uint64"
        },
        {
          "internalType": "string",
          "name": "label",
          "type": "string"
        }
      ],
      "name": "labelRole",
      "outputs": [],
      "stateMutability": "nonpayable",
      "type": "function"
    },
    {
      "inputs": [],
      "name": "minSetback",
      "outputs": [
        {
          "internalType": "uint32",
          "name": "",
          "type": "uint32"
        }
      ],
      "stateMutability": "view",
      "type": "function"
    },
    {
      "inputs": [
        {
          "internalType": "bytes[]",
          "name": "data",
          "type": "bytes[]"
        }
      ],
      "name": "multicall",
      "outputs": [
        {
          "internalType": "bytes[]",
          "name": "results",
          "type": "bytes[]"
        }
      ],
      "stateMutability": "nonpayable",
      "type": "function"
    },
    {
      "inputs": [
        {
          "internalType": "uint64",
          "name": "roleId",
          "type": "uint64"
        },
        {
          "internalType": "address",
          "name": "callerConfirmation",
          "type": "address"
        }
      ],
      "name": "renounceRole",
      "outputs": [],
      "stateMutability": "nonpayable",
      "type": "function"
    },
    {
      "inputs": [
        {
          "internalType": "uint64",
          "name": "roleId",
          "type": "uint64"
        },
        {
          "internalType": "address",
          "name": "account",
          "type": "address"
        }
      ],
      "name": "revokeRole",
      "outputs": [],
      "stateMutability": "nonpayable",
      "type": "function"
    },
    {
      "inputs": [
        {
          "internalType": "address",
          "name": "target",
          "type": "address"
        },
        {
          "internalType": "bytes",
          "name": "data",
          "type": "bytes"
        },
        {
          "internalType": "uint48",
          "name": "when",
          "type": "uint48"
        }
      ],
      "name": "schedule",
      "outputs": [
        {
          "internalType": "bytes32",
          "name": "operationId",
          "type": "bytes32"
        },
        {
          "internalType": "uint32",
          "name": "nonce",
          "type": "uint32"
        }
      ],
      "stateMutability": "nonpayable",
      "type": "function"
    },
    {
      "inputs": [
        {
          "internalType": "uint64",
          "name": "roleId",
          "type": "uint64"
        },
        {
          "internalType": "uint32",
          "name": "newDelay",
          "type": "uint32"
        }
      ],
      "name": "setGrantDelay",
      "outputs": [],
      "stateMutability": "nonpayable",
      "type": "function"
    },
    {
      "inputs": [
        {
          "internalType": "uint64",
          "name": "roleId",
          "type": "uint64"
        },
        {
          "internalType": "uint64",
          "name": "admin",
          "type": "uint64"
        }
      ],
      "name": "setRoleAdmin",
      "outputs": [],
      "stateMutability": "nonpayable",
      "type": "function"
    },
    {
      "inputs": [
        {
          "internalType": "uint64",
          "name": "roleId",
          "type": "uint64"
        },
        {
          "internalType": "uint64",
          "name": "guardian",
          "type": "uint64"
        }
      ],
      "name": "setRoleGuardian",
      "outputs": [],
      "stateMutability": "nonpayable",
      "type": "function"
    },
    {
      "inputs": [
        {
          "internalType": "address",
          "name": "target",
          "type": "address"
        },
        {
          "internalType": "uint32",
          "name": "newDelay",
          "type": "uint32"
        }
      ],
      "name": "setTargetAdminDelay",
      "outputs": [],
      "stateMutability": "nonpayable",
      "type": "function"
    },
    {
      "inputs": [
        {
          "internalType": "address",
          "name": "target",
          "type": "address"
        },
        {
          "internalType": "bool",
          "name": "closed",
          "type": "bool"
        }
      ],
      "name": "setTargetClosed",
      "outputs": [],
      "stateMutability": "nonpayable",
      "type": "function"
    },
    {
      "inputs": [
        {
          "internalType": "address",
          "name": "target",
          "type": "address"
        },
        {
          "internalType": "bytes4[]",
          "name": "selectors",
          "type": "bytes4[]"
        },
        {
          "internalType": "uint64",
          "name": "roleId",
          "type": "uint64"
        }
      ],
      "name": "setTargetFunctionRole",
      "outputs": [],
      "stateMutability": "nonpayable",
      "type": "function"
    },
    {
      "inputs": [
        {
          "internalType": "address",
          "name": "target",
          "type": "address"
        },
        {
          "internalType": "address",
          "name": "newAuthority",
          "type": "address"
        }
      ],
      "name": "updateAuthority",
      "outputs": [],
      "stateMutability": "nonpayable",
      "type": "function"
    }
  ],
  "transactionHash": "0x630aefa31793b8be52f7df269ede356ba42be871df3c8987633734e5eedd0cbb",
  "args": [
    "0x19E7E376E7C213B7E7e7e46cc70A5dD086DAff2A"
  ],
  "numDeployments": 1,
  "solcInputHash": "6e00ed4e5ddc677f6b8dfefd789b9588",
  "bytecode": "0x60806040523480156200001157600080fd5b5060405162002e9d38038062002e9d83398101604081905262000034916200048f565b6001600160a01b0381166200006457604051630409d6d160e11b8152600060048201526024015b60405180910390fd5b6200007360008281806200007b565b505062000519565b60006002600160401b03196001600160401b03861601620000bb5760405163061c6a4360e21b81526001600160401b03861660048201526024016200005b565b6001600160401b03851660009081526001602090815260408083206001600160a01b038816845290915281205465ffffffffffff1615908115620001ba5763ffffffff85166200010a620002d2565b620001169190620004d0565b905060405180604001604052808265ffffffffffff168152602001620001488663ffffffff16620002e460201b60201c565b6001600160701b039081169091526001600160401b03891660009081526001602090815260408083206001600160a01b038c16845282529091208351815494909201519092166601000000000000026001600160a01b031990931665ffffffffffff9091161791909117905562000264565b6001600160401b03871660009081526001602090815260408083206001600160a01b038a168452909152812054620002099166010000000000009091046001600160701b0316908690620002ed565b6001600160401b03891660009081526001602090815260408083206001600160a01b038c168452909152902080546001600160701b03909316660100000000000002600160301b600160a01b03199093169290921790915590505b6040805163ffffffff8616815265ffffffffffff831660208201528315158183015290516001600160a01b038816916001600160401b038a16917ff98448b987f1428e0e230e1f3c6e2ce15b5693eaf31827fbd0b1ec4b424ae7cf9181900360600190a35095945050505050565b6000620002df42620003a2565b905090565b63ffffffff1690565b60008080620003056001600160701b038716620003db565b90506000620003488563ffffffff168763ffffffff168463ffffffff1611620003305760006200033c565b6200033c8885620004f9565b63ffffffff16620003fc565b905063ffffffff81166200035b620002d2565b620003679190620004d0565b925063ffffffff8616602083901b67ffffffff0000000016604085901b6dffffffffffff000000000000000016171793505050935093915050565b600065ffffffffffff821115620003d7576040516306dfcc6560e41b815260306004820152602481018390526044016200005b565b5090565b600080620003f26001600160701b03841662000416565b5090949350505050565b60008183116200040d57816200040f565b825b9392505050565b600080806200042f8462000429620002d2565b6200043c565b9250925092509193909250565b600080806001600160501b03602086901c166001600160701b03861665ffffffffffff604088901c81169087168111156200047a578282826200047f565b816000805b9550955095505050509250925092565b600060208284031215620004a257600080fd5b81516001600160a01b03811681146200040f57600080fd5b634e487b7160e01b600052601160045260246000fd5b65ffffffffffff818116838216019080821115620004f257620004f2620004ba565b5092915050565b63ffffffff828116828216039080821115620004f257620004f2620004ba565b61297480620005296000396000f3fe6080604052600436106101e35760003560e01c80636d5115bd11610102578063b700961311610095578063d22b598911610064578063d22b598914610681578063d6bb62c6146106a1578063f801a698146106c1578063fe0776f5146106fb57600080fd5b8063b7009613146105ef578063b7d2b1621461062b578063cc1b6c811461064b578063d1f856ee1461066157600080fd5b8063a166aa89116100d1578063a166aa8914610521578063a64d95ce14610574578063abd9bd2a14610594578063ac9650d8146105c257600080fd5b80636d5115bd146104ac57806375b238fc146104cc578063853551b8146104e157806394c7d7ee1461050157600080fd5b806330cae1871161017a5780634665096d116101495780634665096d146104195780634c1da1e21461042f578063529629521461044f578063530dd4561461046f57600080fd5b806330cae1871461036d5780633adc277a1461038d5780633ca7c02a146103c45780634136a33c146103df57600080fd5b806318ff183c116101b657806318ff183c146102c05780631cff79cd146102e057806325c471a0146102f35780633078f1141461031357600080fd5b806308d6122d146101e85780630b0a93ba1461020a57806312be87271461026b578063167bd395146102a0575b600080fd5b3480156101f457600080fd5b506102086102033660046121c3565b61071b565b005b34801561021657600080fd5b5061024e610225366004612229565b6001600160401b0390811660009081526001602081905260409091200154600160401b90041690565b6040516001600160401b0390911681526020015b60405180910390f35b34801561027757600080fd5b5061028b610286366004612229565b610776565b60405163ffffffff9091168152602001610262565b3480156102ac57600080fd5b506102086102bb366004612244565b6107b1565b3480156102cc57600080fd5b506102086102db366004612282565b6107c7565b61028b6102ee3660046122f1565b61082e565b3480156102ff57600080fd5b5061020861030e366004612359565b61095e565b34801561031f57600080fd5b5061033361032e36600461239e565b610980565b604051610262949392919065ffffffffffff948516815263ffffffff93841660208201529190921660408201529116606082015260800190565b34801561037957600080fd5b506102086103883660046123ba565b6109e5565b34801561039957600080fd5b506103ad6103a83660046123ed565b6109f7565b60405165ffffffffffff9091168152602001610262565b3480156103d057600080fd5b5061024e6001600160401b0381565b3480156103eb57600080fd5b5061028b6103fa3660046123ed565b600090815260026020526040902054600160301b900463ffffffff1690565b34801561042557600080fd5b5062093a8061028b565b34801561043b57600080fd5b5061028b61044a366004612406565b610a2a565b34801561045b57600080fd5b5061020861046a3660046123ba565b610a58565b34801561047b57600080fd5b5061024e61048a366004612229565b6001600160401b03908116600090815260016020819052604090912001541690565b3480156104b857600080fd5b5061024e6104c7366004612439565b610a6a565b3480156104d857600080fd5b5061024e600081565b3480156104ed57600080fd5b506102086104fc366004612467565b610aa5565b34801561050d57600080fd5b5061020861051c3660046122f1565b610b3c565b34801561052d57600080fd5b5061056461053c366004612406565b6001600160a01b0316600090815260208190526040902060010154600160701b900460ff1690565b6040519015158152602001610262565b34801561058057600080fd5b5061020861058f366004612485565b610be8565b3480156105a057600080fd5b506105b46105af3660046124af565b610bfa565b604051908152602001610262565b3480156105ce57600080fd5b506105e26105dd366004612513565b610c33565b6040516102629190612578565b3480156105fb57600080fd5b5061060f61060a3660046125f2565b610d25565b60408051921515835263ffffffff909116602083015201610262565b34801561063757600080fd5b5061020861064636600461239e565b610dc8565b34801561065757600080fd5b506206978061028b565b34801561066d57600080fd5b5061060f61067c36600461239e565b610ddf565b34801561068d57600080fd5b5061020861069c36600461263d565b610e5c565b3480156106ad57600080fd5b5061028b6106bc3660046124af565b610e6e565b3480156106cd57600080fd5b506106e16106dc36600461265b565b610fc8565b6040805192835263ffffffff909116602083015201610262565b34801561070757600080fd5b5061020861071636600461239e565b61110d565b610723611136565b60005b8281101561076f5761075f85858584818110610744576107446126cd565b905060200201602081019061075991906126e3565b846111b1565b61076881612716565b9050610726565b5050505050565b6001600160401b0381166000908152600160208190526040822001546107ab90600160801b90046001600160701b0316611233565b92915050565b6107b9611136565b6107c38282611252565b5050565b6107cf611136565b604051637a9e5e4b60e01b81526001600160a01b038281166004830152831690637a9e5e4b90602401600060405180830381600087803b15801561081257600080fd5b505af1158015610826573d6000803e3d6000fd5b505050505050565b600033818061083f838888886112f8565b9150915081158015610855575063ffffffff8116155b156108a8578287610866888861134b565b6040516381c6f24b60e01b81526001600160a01b0393841660048201529290911660248301526001600160e01b03191660448201526064015b60405180910390fd5b60006108b684898989610bfa565b9050600063ffffffff83161515806108dd57506108d2826109f7565b65ffffffffffff1615155b156108ee576108eb82611363565b90505b6003546109048a6108ff8b8b61134b565b611463565b60038190555061094c8a8a8a8080601f0160208091040260200160405190810160405280939291908181526020018383808284376000920191909152503492506114a5915050565b506003559450505050505b9392505050565b610966611136565b61097a838361097486610776565b84611542565b50505050565b6001600160401b03821660009081526001602090815260408083206001600160a01b03851684529091528120805465ffffffffffff8116929182918291906109d790600160301b90046001600160701b031661178d565b969991985096509350505050565b6109ed611136565b6107c382826117b0565b60008181526002602052604081205465ffffffffffff16610a1781611854565b610a215780610957565b60009392505050565b6001600160a01b0381166000908152602081905260408120600101546107ab906001600160701b0316611233565b610a60611136565b6107c38282611883565b6001600160a01b0382166000908152602081815260408083206001600160e01b0319851684529091529020546001600160401b031692915050565b610aad611136565b6001600160401b0383161580610acb57506001600160401b03838116145b15610af45760405163061c6a4360e21b81526001600160401b038416600482015260240161089f565b826001600160401b03167f1256f5b5ecb89caec12db449738f2fbcd1ba5806cf38f35413f4e5c15bf6a4508383604051610b2f929190612758565b60405180910390a2505050565b60408051638fb3603760e01b80825291513392918391638fb36037916004808201926020929091908290030181865afa158015610b7d573d6000803e3d6000fd5b505050506040513d601f19601f82011682018060405250810190610ba19190612774565b6001600160e01b03191614610bd457604051630641fee960e31b81526001600160a01b038216600482015260240161089f565b61076f610be385838686610bfa565b611363565b610bf0611136565b6107c38282611935565b600084848484604051602001610c139493929190612791565b604051602081830303815290604052805190602001209050949350505050565b604080516000815260208101909152606090826001600160401b03811115610c5d57610c5d6127e8565b604051908082528060200260200182016040528015610c9057816020015b6060815260200190600190039081610c7b5790505b50915060005b83811015610d1d57610ced30868684818110610cb457610cb46126cd565b9050602002810190610cc691906127fe565b85604051602001610cd993929190612844565b604051602081830303815290604052611a46565b838281518110610cff57610cff6126cd565b60200260200101819052508080610d1590612716565b915050610c96565b505092915050565b6001600160a01b0382166000908152602081905260408120600101548190600160701b900460ff1615610d5d57506000905080610dc0565b306001600160a01b03861603610d8257610d778484611abc565b600091509150610dc0565b6000610d8e8585610a6a565b9050600080610d9d8389610ddf565b9150915081610dae57600080610db8565b63ffffffff811615815b945094505050505b935093915050565b610dd0611136565b610dda8282611ad3565b505050565b60008067fffffffffffffffe196001600160401b03851601610e075750600190506000610e55565b600080610e148686610980565b5050915091508165ffffffffffff16600014158015610e4a5750610e36611bc0565b65ffffffffffff168265ffffffffffff1611155b93509150610e559050565b9250929050565b610e64611136565b6107c38282611bd0565b60003381610e7c858561134b565b90506000610e8c88888888610bfa565b60008181526002602052604081205491925065ffffffffffff9091169003610eca5760405163060a299b60e41b81526004810182905260240161089f565b826001600160a01b0316886001600160a01b031614610f66576000610ef0600085610ddf565b5090506000610f0b610f056102258b87610a6a565b86610ddf565b50905081158015610f1a575080155b15610f6357604051630ff89d4760e21b81526001600160a01b038087166004830152808c1660248301528a1660448201526001600160e01b03198516606482015260840161089f565b50505b600081815260026020526040808220805465ffffffffffff1916908190559051600160301b90910463ffffffff1691829184917fbd9ac67a6e2f6463b80927326310338bcbb4bdb7936ce1365ea3e01067e7b9f791a398975050505050505050565b6000803381610fd9828989896112f8565b91505060008163ffffffff16610fed611bc0565b610ff7919061286b565b905063ffffffff8216158061102e575060008665ffffffffffff1611801561102e57508065ffffffffffff168665ffffffffffff16105b1561103f5782896108668a8a61134b565b6110598665ffffffffffff168265ffffffffffff16611c8d565b9550611067838a8a8a610bfa565b945061107285611ca3565b60008581526002602052604090819020805465ffffffffffff891669ffffffffffffffffffff19821617600160301b9182900463ffffffff90811660010190811692830291909117909255915190955086907f82a2da5dee54ea8021c6545b4444620291e07ee83be6dd57edb175062715f3b4906110f9908a9088908f908f908f90612891565b60405180910390a350505094509492505050565b6001600160a01b0381163314610dd057604051635f159e6360e01b815260040160405180910390fd5b33600080611145838236611cf0565b9150915081610dda578063ffffffff166000036111a15760006111688136611da8565b5060405163f07e038f60e01b81526001600160a01b03871660048201526001600160401b0382166024820152909250604401905061089f565b61097a610be38430600036610bfa565b6001600160a01b0383166000818152602081815260408083206001600160e01b0319871680855290835292819020805467ffffffffffffffff19166001600160401b038716908117909155905192835292917f9ea6790c7dadfd01c9f8b9762b3682607af2c7e79e05a9f9fdf5580dde949151910160405180910390a3505050565b600080611248836001600160701b031661178d565b5090949350505050565b306001600160a01b0383160361128657604051630b40d17960e31b81526001600160a01b038316600482015260240161089f565b6001600160a01b038216600081815260208190526040908190206001018054841515600160701b0260ff60701b19909116179055517f90d4e7bb7e5d933792b3562e1741306f8be94837e1348dacef9b6f1df56eb138906112ec90841515815260200190565b60405180910390a25050565b600080306001600160a01b0386160361131f57611316868585611cf0565b91509150611342565b6004831061133b57611336868661060a878761134b565b611316565b5060009050805b94509492505050565b600061135a60048284866127be565b610957916128d7565b60008181526002602052604081205465ffffffffffff811690600160301b900463ffffffff168183036113ac5760405163060a299b60e41b81526004810185905260240161089f565b6113b4611bc0565b65ffffffffffff168265ffffffffffff1611156113e757604051630c65b5bd60e11b81526004810185905260240161089f565b6113f082611854565b1561141157604051631e2975b960e21b81526004810185905260240161089f565b600084815260026020526040808220805465ffffffffffff191690555163ffffffff83169186917f76a2a46953689d4861a5d3f6ed883ad7e6af674a21f8e162707159fc9dde614d9190a39392505050565b604080516001600160a01b03939093166020808501919091526001600160e01b0319929092168382015280518084038201815260609093019052815191012090565b6060814710156114ca5760405163cd78605960e01b815230600482015260240161089f565b600080856001600160a01b031684866040516114e69190612905565b60006040518083038185875af1925050503d8060008114611523576040519150601f19603f3d011682016040523d82523d6000602084013e611528565b606091505b5091509150611538868383611f91565b9695505050505050565b600067fffffffffffffffe196001600160401b038616016115815760405163061c6a4360e21b81526001600160401b038616600482015260240161089f565b6001600160401b03851660009081526001602090815260408083206001600160a01b038816845290915281205465ffffffffffff1615908115611673578463ffffffff166115cd611bc0565b6115d7919061286b565b905060405180604001604052808265ffffffffffff1681526020016116058663ffffffff1663ffffffff1690565b6001600160701b039081169091526001600160401b03891660009081526001602090815260408083206001600160a01b038c1684528252909120835181549490920151909216600160301b026001600160a01b031990931665ffffffffffff9091161791909117905561171f565b6001600160401b03871660009081526001602090815260408083206001600160a01b038a1684529091528120546116bd91600160301b9091046001600160701b0316908690611fed565b6001600160401b03891660009081526001602090815260408083206001600160a01b038c168452909152902080546001600160701b03909316600160301b0273ffffffffffffffffffffffffffff000000000000199093169290921790915590505b6040805163ffffffff8616815265ffffffffffff831660208201528315158183015290516001600160a01b038816916001600160401b038a16917ff98448b987f1428e0e230e1f3c6e2ce15b5693eaf31827fbd0b1ec4b424ae7cf9181900360600190a35095945050505050565b60008060006117a38461179e611bc0565b612097565b9250925092509193909250565b6001600160401b03821615806117ce57506001600160401b03828116145b156117f75760405163061c6a4360e21b81526001600160401b038316600482015260240161089f565b6001600160401b038281166000818152600160208190526040808320909101805467ffffffffffffffff19169486169485179055517f1fd6dd7631312dfac2205b52913f99de03b4d7e381d5d27d3dbfe0713e6e63409190a35050565b600061185e611bc0565b65ffffffffffff1661187362093a808461286b565b65ffffffffffff16111592915050565b6001600160401b03821615806118a157506001600160401b03828116145b156118ca5760405163061c6a4360e21b81526001600160401b038316600482015260240161089f565b6001600160401b03828116600081815260016020819052604080832090910180546fffffffffffffffff00000000000000001916600160401b958716958602179055517f7a8059630b897b5de4c08ade69f8b90c3ead1f8596d62d10b6c4d14a0afb4ae29190a35050565b67fffffffffffffffe196001600160401b038316016119725760405163061c6a4360e21b81526001600160401b038316600482015260240161089f565b6001600160401b0382166000908152600160208190526040822001546119ac90600160801b90046001600160701b03168362069780611fed565b6001600160401b0385166000818152600160208190526040918290200180546001600160701b03909516600160801b026dffffffffffffffffffffffffffff60801b199095169490941790935591519092507ffeb69018ee8b8fd50ea86348f1267d07673379f72cffdeccec63853ee8ce8b4890610b2f908590859063ffffffff92909216825265ffffffffffff16602082015260400190565b6060600080846001600160a01b031684604051611a639190612905565b600060405180830381855af49150503d8060008114611a9e576040519150601f19603f3d011682016040523d82523d6000602084013e611aa3565b606091505b5091509150611ab3858383611f91565b95945050505050565b6000611ac88383611463565b600354149392505050565b600067fffffffffffffffe196001600160401b03841601611b125760405163061c6a4360e21b81526001600160401b038416600482015260240161089f565b6001600160401b03831660009081526001602090815260408083206001600160a01b038616845290915281205465ffffffffffff169003611b55575060006107ab565b6001600160401b03831660008181526001602090815260408083206001600160a01b038716808552925280832080546001600160a01b0319169055519092917ff229baa593af28c41b1d16b748cd7688f0c83aaf92d4be41c44005defe84c16691a350600192915050565b6000611bcb426120eb565b905090565b6001600160a01b038216600090815260208190526040812060010154611c03906001600160701b03168362069780611fed565b6001600160a01b0385166000818152602081815260409182902060010180546dffffffffffffffffffffffffffff19166001600160701b039690961695909517909455805163ffffffff8716815265ffffffffffff841694810194909452919350917fa56b76017453f399ec2327ba00375dbfb1fd070ff854341ad6191e6a2e2de19c9101610b2f565b6000818311611c9c5781610957565b5090919050565b60008181526002602052604090205465ffffffffffff168015801590611ccf5750611ccd81611854565b155b156107c35760405163813e945960e01b81526004810183905260240161089f565b6000806004831015611d0757506000905080610dc0565b306001600160a01b03861603611d2a57610d7730611d25868661134b565b611abc565b6000806000611d398787611da8565b92509250925082611d535760008094509450505050610dc0565b600080611d60848b610ddf565b9150915081611d7a57600080965096505050505050610dc0565b611d908363ffffffff168263ffffffff16611c8d565b63ffffffff8116159b909a5098505050505050505050565b600080806004841015611dc357506000915081905080611f8a565b6000611dcf868661134b565b90506001600160e01b031981166310a6aa3760e31b1480611e0057506001600160e01b031981166330cae18760e01b145b80611e1b57506001600160e01b0319811663294b14a960e11b145b80611e3657506001600160e01b03198116635326cae760e11b145b80611e5157506001600160e01b0319811663d22b598960e01b145b15611e6757600160008093509350935050611f8a565b6001600160e01b0319811663063fc60f60e21b1480611e9657506001600160e01b0319811663167bd39560e01b145b80611eb157506001600160e01b031981166308d6122d60e01b145b15611ef3576000611ec660246004888a6127be565b810190611ed39190612406565b90506000611ee082610a2a565b60019650600095509350611f8a92505050565b6001600160e01b0319811663012e238d60e51b1480611f2257506001600160e01b03198116635be958b160e11b145b15611f7d576000611f3760246004888a6127be565b810190611f449190612229565b90506001611f6e826001600160401b03908116600090815260016020819052604090912001541690565b60009450945094505050611f8a565b6000806000935093509350505b9250925092565b606082611fa657611fa182612122565b610957565b8151158015611fbd57506001600160a01b0384163b155b15611fe657604051639996b31560e01b81526001600160a01b038516600482015260240161089f565b5080610957565b6000806000612004866001600160701b0316611233565b905060006120418563ffffffff168763ffffffff168463ffffffff161161202c576000612036565b6120368885612921565b63ffffffff16611c8d565b90508063ffffffff16612052611bc0565b61205c919061286b565b925063ffffffff8616602083901b67ffffffff0000000016604085901b6dffffffffffff000000000000000016171793505050935093915050565b6000808069ffffffffffffffffffff602086901c166001600160701b03861665ffffffffffff604088901c81169087168111156120d6578282826120db565b816000805b9550955095505050509250925092565b600065ffffffffffff82111561211e576040516306dfcc6560e41b8152603060048201526024810183905260440161089f565b5090565b8051156121325780518082602001fd5b604051630a12f52160e11b815260040160405180910390fd5b50565b6001600160a01b038116811461214b57600080fd5b60008083601f84011261217557600080fd5b5081356001600160401b0381111561218c57600080fd5b6020830191508360208260051b8501011115610e5557600080fd5b80356001600160401b03811681146121be57600080fd5b919050565b600080600080606085870312156121d957600080fd5b84356121e48161214e565b935060208501356001600160401b038111156121ff57600080fd5b61220b87828801612163565b909450925061221e9050604086016121a7565b905092959194509250565b60006020828403121561223b57600080fd5b610957826121a7565b6000806040838503121561225757600080fd5b82356122628161214e565b91506020830135801515811461227757600080fd5b809150509250929050565b6000806040838503121561229557600080fd5b82356122a08161214e565b915060208301356122778161214e565b60008083601f8401126122c257600080fd5b5081356001600160401b038111156122d957600080fd5b602083019150836020828501011115610e5557600080fd5b60008060006040848603121561230657600080fd5b83356123118161214e565b925060208401356001600160401b0381111561232c57600080fd5b612338868287016122b0565b9497909650939450505050565b803563ffffffff811681146121be57600080fd5b60008060006060848603121561236e57600080fd5b612377846121a7565b925060208401356123878161214e565b915061239560408501612345565b90509250925092565b600080604083850312156123b157600080fd5b6122a0836121a7565b600080604083850312156123cd57600080fd5b6123d6836121a7565b91506123e4602084016121a7565b90509250929050565b6000602082840312156123ff57600080fd5b5035919050565b60006020828403121561241857600080fd5b81356109578161214e565b6001600160e01b03198116811461214b57600080fd5b6000806040838503121561244c57600080fd5b82356124578161214e565b9150602083013561227781612423565b60008060006040848603121561247c57600080fd5b612311846121a7565b6000806040838503121561249857600080fd5b6124a1836121a7565b91506123e460208401612345565b600080600080606085870312156124c557600080fd5b84356124d08161214e565b935060208501356124e08161214e565b925060408501356001600160401b038111156124fb57600080fd5b612507878288016122b0565b95989497509550505050565b6000806020838503121561252657600080fd5b82356001600160401b0381111561253c57600080fd5b61254885828601612163565b90969095509350505050565b60005b8381101561256f578181015183820152602001612557565b50506000910152565b6000602080830181845280855180835260408601915060408160051b870101925083870160005b828110156125e557878503603f19018452815180518087526125c6818989018a8501612554565b601f01601f19169590950186019450928501929085019060010161259f565b5092979650505050505050565b60008060006060848603121561260757600080fd5b83356126128161214e565b925060208401356126228161214e565b9150604084013561263281612423565b809150509250925092565b6000806040838503121561265057600080fd5b82356124a18161214e565b6000806000806060858703121561267157600080fd5b843561267c8161214e565b935060208501356001600160401b0381111561269757600080fd5b6126a3878288016122b0565b909450925050604085013565ffffffffffff811681146126c257600080fd5b939692955090935050565b634e487b7160e01b600052603260045260246000fd5b6000602082840312156126f557600080fd5b813561095781612423565b634e487b7160e01b600052601160045260246000fd5b60006001820161272857612728612700565b5060010190565b81835281816020850137506000828201602090810191909152601f909101601f19169091010190565b60208152600061276c60208301848661272f565b949350505050565b60006020828403121561278657600080fd5b815161095781612423565b6001600160a01b03858116825284166020820152606060408201819052600090611538908301848661272f565b600080858511156127ce57600080fd5b838611156127db57600080fd5b5050820193919092039150565b634e487b7160e01b600052604160045260246000fd5b6000808335601e1984360301811261281557600080fd5b8301803591506001600160401b0382111561282f57600080fd5b602001915036819003821315610e5557600080fd5b828482376000838201600081528351612861818360208801612554565b0195945050505050565b65ffffffffffff81811683821601908082111561288a5761288a612700565b5092915050565b65ffffffffffff861681526001600160a01b038581166020830152841660408201526080606082018190526000906128cc908301848661272f565b979650505050505050565b6001600160e01b03198135818116916004851015610d1d5760049490940360031b84901b1690921692915050565b60008251612917818460208701612554565b9190910192915050565b63ffffffff82811682821603908082111561288a5761288a61270056fea2646970667358221220e90f5cc0885191fc3689c69dd81da0fc2ee8b204f5746e761da34af741f7827764736f6c63430008140033",
  "devdoc": {
    "details": "AccessManager is a central contract to store the permissions of a system. A smart contract under the control of an AccessManager instance is known as a target, and will inherit from the {AccessManaged} contract, be connected to this contract as its manager and implement the {AccessManaged-restricted} modifier on a set of functions selected to be permissioned. Note that any function without this setup won't be effectively restricted. The restriction rules for such functions are defined in terms of \"roles\" identified by an `uint64` and scoped by target (`address`) and function selectors (`bytes4`). These roles are stored in this contract and can be configured by admins (`ADMIN_ROLE` members) after a delay (see {getTargetAdminDelay}). For each target contract, admins can configure the following without any delay: * The target's {AccessManaged-authority} via {updateAuthority}. * Close or open a target via {setTargetClosed} keeping the permissions intact. * The roles that are allowed (or disallowed) to call a given function (identified by its selector) through {setTargetFunctionRole}. By default every address is member of the `PUBLIC_ROLE` and every target function is restricted to the `ADMIN_ROLE` until configured otherwise. Additionally, each role has the following configuration options restricted to this manager's admins: * A role's admin role via {setRoleAdmin} who can grant or revoke roles. * A role's guardian role via {setRoleGuardian} who's allowed to cancel operations. * A delay in which a role takes effect after being granted through {setGrantDelay}. * A delay of any target's admin action via {setTargetAdminDelay}. * A role label for discoverability purposes with {labelRole}. Any account can be added and removed into any number of these roles by using the {grantRole} and {revokeRole} functions restricted to each role's admin (see {getRoleAdmin}). Since all the permissions of the managed system can be modified by the admins of this instance, it is expected that they will be highly secured (e.g., a multisig or a well-configured DAO). NOTE: This contract implements a form of the {IAuthority} interface, but {canCall} has additional return data so it doesn't inherit `IAuthority`. It is however compatible with the `IAuthority` interface since the first 32 bytes of the return data are a boolean as expected by that interface. NOTE: Systems that implement other access control mechanisms (for example using {Ownable}) can be paired with an {AccessManager} by transferring permissions (ownership in the case of {Ownable}) directly to the {AccessManager}. Users will be able to interact with these contracts through the {execute} function, following the access rules registered in the {AccessManager}. Keep in mind that in that context, the msg.sender seen by restricted functions will be {AccessManager} itself. WARNING: When granting permissions over an {Ownable} or {AccessControl} contract to an {AccessManager}, be very mindful of the danger associated with functions such as {{Ownable-renounceOwnership}} or {{AccessControl-renounceRole}}.",
    "errors": {
      "AddressEmptyCode(address)": [
        {
          "details": "There's no code at `target` (it is not a contract)."
        }
      ],
      "AddressInsufficientBalance(address)": [
        {
          "details": "The ETH balance of the account is not enough to perform the operation."
        }
      ],
      "FailedInnerCall()": [
        {
          "details": "A call to an address target failed. The target may have reverted."
        }
      ],
      "SafeCastOverflowedUintDowncast(uint8,uint256)": [
        {
          "details": "Value doesn't fit in an uint of `bits` size."
        }
      ]
    },
    "events": {
      "OperationCanceled(bytes32,uint32)": {
        "details": "A scheduled operation was canceled."
      },
      "OperationExecuted(bytes32,uint32)": {
        "details": "A scheduled operation was executed."
      },
      "OperationScheduled(bytes32,uint32,uint48,address,address,bytes)": {
        "details": "A delayed operation was scheduled."
      },
      "RoleAdminChanged(uint64,uint64)": {
        "details": "Role acting as admin over a given `roleId` is updated."
      },
      "RoleGrantDelayChanged(uint64,uint32,uint48)": {
        "details": "Grant delay for a given `roleId` will be updated to `delay` when `since` is reached."
      },
      "RoleGranted(uint64,address,uint32,uint48,bool)": {
        "details": "Emitted when `account` is granted `roleId`. NOTE: The meaning of the `since` argument depends on the `newMember` argument. If the role is granted to a new member, the `since` argument indicates when the account becomes a member of the role, otherwise it indicates the execution delay for this account and roleId is updated."
      },
      "RoleGuardianChanged(uint64,uint64)": {
        "details": "Role acting as guardian over a given `roleId` is updated."
      },
      "RoleLabel(uint64,string)": {
        "details": "Informational labelling for a roleId."
      },
      "RoleRevoked(uint64,address)": {
        "details": "Emitted when `account` membership or `roleId` is revoked. Unlike granting, revoking is instantaneous."
      },
      "TargetAdminDelayUpdated(address,uint32,uint48)": {
        "details": "Admin delay for a given `target` will be updated to `delay` when `since` is reached."
      },
      "TargetClosed(address,bool)": {
        "details": "Target mode is updated (true = closed, false = open)."
      },
      "TargetFunctionRoleUpdated(address,bytes4,uint64)": {
        "details": "Role required to invoke `selector` on `target` is updated to `roleId`."
      }
    },
    "kind": "dev",
    "methods": {
      "canCall(address,address,bytes4)": {
        "details": "Check if an address (`caller`) is authorised to call a given function on a given contract directly (with no restriction). Additionally, it returns the delay needed to perform the call indirectly through the {schedule} & {execute} workflow. This function is usually called by the targeted contract to control immediate execution of restricted functions. Therefore we only return true if the call can be performed without any delay. If the call is subject to a previously set delay (not zero), then the function should return false and the caller should schedule the operation for future execution. If `immediate` is true, the delay can be disregarded and the operation can be immediately executed, otherwise the operation can be executed if and only if delay is greater than 0. NOTE: The IAuthority interface does not include the `uint32` delay. This is an extension of that interface that is backward compatible. Some contracts may thus ignore the second return argument. In that case they will fail to identify the indirect workflow, and will consider calls that require a delay to be forbidden. NOTE: This function does not report the permissions of this manager itself. These are defined by the {_canCallSelf} function instead."
      },
      "cancel(address,address,bytes)": {
        "details": "Cancel a scheduled (delayed) operation. Returns the nonce that identifies the previously scheduled operation that is cancelled. Requirements: - the caller must be the proposer, a guardian of the targeted function, or a global admin Emits a {OperationCanceled} event."
      },
      "consumeScheduledOp(address,bytes)": {
        "details": "Consume a scheduled operation targeting the caller. If such an operation exists, mark it as consumed (emit an {OperationExecuted} event and clean the state). Otherwise, throw an error. This is useful for contract that want to enforce that calls targeting them were scheduled on the manager, with all the verifications that it implies. Emit a {OperationExecuted} event."
      },
      "execute(address,bytes)": {
        "details": "Execute a function that is delay restricted, provided it was properly scheduled beforehand, or the execution delay is 0. Returns the nonce that identifies the previously scheduled operation that is executed, or 0 if the operation wasn't previously scheduled (if the caller doesn't have an execution delay). Emits an {OperationExecuted} event only if the call was scheduled and delayed."
      },
      "expiration()": {
        "details": "Expiration delay for scheduled proposals. Defaults to 1 week. IMPORTANT: Avoid overriding the expiration with 0. Otherwise every contract proposal will be expired immediately, disabling any scheduling usage."
      },
      "getAccess(uint64,address)": {
        "details": "Get the access details for a given account for a given role. These details include the timepoint at which membership becomes active, and the delay applied to all operation by this user that requires this permission level. Returns: [0] Timestamp at which the account membership becomes valid. 0 means role is not granted. [1] Current execution delay for the account. [2] Pending execution delay for the account. [3] Timestamp at which the pending execution delay will become active. 0 means no delay update is scheduled."
      },
      "getNonce(bytes32)": {
        "details": "Return the nonce for the latest scheduled operation with a given id. Returns 0 if the operation has never been scheduled."
      },
      "getRoleAdmin(uint64)": {
        "details": "Get the id of the role that acts as an admin for the given role. The admin permission is required to grant the role, revoke the role and update the execution delay to execute an operation that is restricted to this role."
      },
      "getRoleGrantDelay(uint64)": {
        "details": "Get the role current grant delay. Its value may change at any point without an event emitted following a call to {setGrantDelay}. Changes to this value, including effect timepoint are notified in advance by the {RoleGrantDelayChanged} event."
      },
      "getRoleGuardian(uint64)": {
        "details": "Get the role that acts as a guardian for a given role. The guardian permission allows canceling operations that have been scheduled under the role."
      },
      "getSchedule(bytes32)": {
        "details": "Return the timepoint at which a scheduled operation will be ready for execution. This returns 0 if the operation is not yet scheduled, has expired, was executed, or was canceled."
      },
      "getTargetAdminDelay(address)": {
        "details": "Get the admin delay for a target contract. Changes to contract configuration are subject to this delay."
      },
      "getTargetFunctionRole(address,bytes4)": {
        "details": "Get the role required to call a function."
      },
      "grantRole(uint64,address,uint32)": {
        "details": "Add `account` to `roleId`, or change its execution delay. This gives the account the authorization to call any function that is restricted to this role. An optional execution delay (in seconds) can be set. If that delay is non 0, the user is required to schedule any operation that is restricted to members of this role. The user will only be able to execute the operation after the delay has passed, before it has expired. During this period, admin and guardians can cancel the operation (see {cancel}). If the account has already been granted this role, the execution delay will be updated. This update is not immediate and follows the delay rules. For example, if a user currently has a delay of 3 hours, and this is called to reduce that delay to 1 hour, the new delay will take some time to take effect, enforcing that any operation executed in the 3 hours that follows this update was indeed scheduled before this update. Requirements: - the caller must be an admin for the role (see {getRoleAdmin}) - granted role must not be the `PUBLIC_ROLE` Emits a {RoleGranted} event."
      },
      "hasRole(uint64,address)": {
        "details": "Check if a given account currently has the permission level corresponding to a given role. Note that this permission might be associated with an execution delay. {getAccess} can provide more details."
      },
      "hashOperation(address,address,bytes)": {
        "details": "Hashing function for delayed operations."
      },
      "isTargetClosed(address)": {
        "details": "Get whether the contract is closed disabling any access. Otherwise role permissions are applied."
      },
      "labelRole(uint64,string)": {
        "details": "Give a label to a role, for improved role discoverability by UIs. Requirements: - the caller must be a global admin Emits a {RoleLabel} event."
      },
      "minSetback()": {
        "details": "Minimum setback for all delay updates, with the exception of execution delays. It can be increased without setback (and reset via {revokeRole} in the case event of an accidental increase). Defaults to 5 days."
      },
      "multicall(bytes[])": {
        "custom:oz-upgrades-unsafe-allow-reachable": "delegatecall",
        "details": "Receives and executes a batch of function calls on this contract."
      },
      "renounceRole(uint64,address)": {
        "details": "Renounce role permissions for the calling account with immediate effect. If the sender is not in the role this call has no effect. Requirements: - the caller must be `callerConfirmation`. Emits a {RoleRevoked} event if the account had the role."
      },
      "revokeRole(uint64,address)": {
        "details": "Remove an account from a role, with immediate effect. If the account does not have the role, this call has no effect. Requirements: - the caller must be an admin for the role (see {getRoleAdmin}) - revoked role must not be the `PUBLIC_ROLE` Emits a {RoleRevoked} event if the account had the role."
      },
      "schedule(address,bytes,uint48)": {
        "details": "Schedule a delayed operation for future execution, and return the operation identifier. It is possible to choose the timestamp at which the operation becomes executable as long as it satisfies the execution delays required for the caller. The special value zero will automatically set the earliest possible time. Returns the `operationId` that was scheduled. Since this value is a hash of the parameters, it can reoccur when the same parameters are used; if this is relevant, the returned `nonce` can be used to uniquely identify this scheduled operation from other occurrences of the same `operationId` in invocations of {execute} and {cancel}. Emits a {OperationScheduled} event. NOTE: It is not possible to concurrently schedule more than one operation with the same `target` and `data`. If this is necessary, a random byte can be appended to `data` to act as a salt that will be ignored by the target contract if it is using standard Solidity ABI encoding."
      },
      "setGrantDelay(uint64,uint32)": {
        "details": "Update the delay for granting a `roleId`. Requirements: - the caller must be a global admin Emits a {RoleGrantDelayChanged} event."
      },
      "setRoleAdmin(uint64,uint64)": {
        "details": "Change admin role for a given role. Requirements: - the caller must be a global admin Emits a {RoleAdminChanged} event"
      },
      "setRoleGuardian(uint64,uint64)": {
        "details": "Change guardian role for a given role. Requirements: - the caller must be a global admin Emits a {RoleGuardianChanged} event"
      },
      "setTargetAdminDelay(address,uint32)": {
        "details": "Set the delay for changing the configuration of a given target contract. Requirements: - the caller must be a global admin Emits a {TargetAdminDelayUpdated} event."
      },
      "setTargetClosed(address,bool)": {
        "details": "Set the closed flag for a contract. Requirements: - the caller must be a global admin Emits a {TargetClosed} event."
      },
      "setTargetFunctionRole(address,bytes4[],uint64)": {
        "details": "Set the role required to call functions identified by the `selectors` in the `target` contract. Requirements: - the caller must be a global admin Emits a {TargetFunctionRoleUpdated} event per selector."
      },
      "updateAuthority(address,address)": {
        "details": "Changes the authority of a target managed by this manager instance. Requirements: - the caller must be a global admin"
      }
    },
    "version": 1
  },
  "userdoc": {
    "kind": "user",
    "methods": {},
    "version": 1
  },
  "storageLayout": {
    "storage": [
      {
        "astId": 641,
        "contract": "@openzeppelin/contracts/access/manager/AccessManager.sol:AccessManager",
        "label": "_targets",
        "offset": 0,
        "slot": "0",
        "type": "t_mapping(t_address,t_struct(TargetConfig)598_storage)"
      },
      {
        "astId": 646,
        "contract": "@openzeppelin/contracts/access/manager/AccessManager.sol:AccessManager",
        "label": "_roles",
        "offset": 0,
        "slot": "1",
        "type": "t_mapping(t_uint64,t_struct(Role)617_storage)"
      },
      {
        "astId": 651,
        "contract": "@openzeppelin/contracts/access/manager/AccessManager.sol:AccessManager",
        "label": "_schedules",
        "offset": 0,
        "slot": "2",
        "type": "t_mapping(t_bytes32,t_struct(Schedule)622_storage)"
      },
      {
        "astId": 653,
        "contract": "@openzeppelin/contracts/access/manager/AccessManager.sol:AccessManager",
        "label": "_executionId",
        "offset": 0,
        "slot": "3",
        "type": "t_bytes32"
      }
    ],
    "types": {
      "t_address": {
        "encoding": "inplace",
        "label": "address",
        "numberOfBytes": "20"
      },
      "t_bool": {
        "encoding": "inplace",
        "label": "bool",
        "numberOfBytes": "1"
      },
      "t_bytes32": {
        "encoding": "inplace",
        "label": "bytes32",
        "numberOfBytes": "32"
      },
      "t_bytes4": {
        "encoding": "inplace",
        "label": "bytes4",
        "numberOfBytes": "4"
      },
      "t_mapping(t_address,t_struct(Access)604_storage)": {
        "encoding": "mapping",
        "key": "t_address",
        "label": "mapping(address => struct AccessManager.Access)",
        "numberOfBytes": "32",
        "value": "t_struct(Access)604_storage"
      },
      "t_mapping(t_address,t_struct(TargetConfig)598_storage)": {
        "encoding": "mapping",
        "key": "t_address",
        "label": "mapping(address => struct AccessManager.TargetConfig)",
        "numberOfBytes": "32",
        "value": "t_struct(TargetConfig)598_storage"
      },
      "t_mapping(t_bytes32,t_struct(Schedule)622_storage)": {
        "encoding": "mapping",
        "key": "t_bytes32",
        "label": "mapping(bytes32 => struct AccessManager.Schedule)",
        "numberOfBytes": "32",
        "value": "t_struct(Schedule)622_storage"
      },
      "t_mapping(t_bytes4,t_uint64)": {
        "encoding": "mapping",
        "key": "t_bytes4",
        "label": "mapping(bytes4 => uint64)",
        "numberOfBytes": "32",
        "value": "t_uint64"
      },
      "t_mapping(t_uint64,t_struct(Role)617_storage)": {
        "encoding": "mapping",
        "key": "t_uint64",
        "label": "mapping(uint64 => struct AccessManager.Role)",
        "numberOfBytes": "32",
        "value": "t_struct(Role)617_storage"
      },
      "t_struct(Access)604_storage": {
        "encoding": "inplace",
        "label": "struct AccessManager.Access",
        "members": [
          {
            "astId": 600,
            "contract": "@openzeppelin/contracts/access/manager/AccessManager.sol:AccessManager",
            "label": "since",
            "offset": 0,
            "slot": "0",
            "type": "t_uint48"
          },
          {
            "astId": 603,
            "contract": "@openzeppelin/contracts/access/manager/AccessManager.sol:AccessManager",
            "label": "delay",
            "offset": 6,
            "slot": "0",
            "type": "t_userDefinedValueType(Delay)16442"
          }
        ],
        "numberOfBytes": "32"
      },
      "t_struct(Role)617_storage": {
        "encoding": "inplace",
        "label": "struct AccessManager.Role",
        "members": [
          {
            "astId": 609,
            "contract": "@openzeppelin/contracts/access/manager/AccessManager.sol:AccessManager",
            "label": "members",
            "offset": 0,
            "slot": "0",
            "type": "t_mapping(t_address,t_struct(Access)604_storage)"
          },
          {
            "astId": 611,
            "contract": "@openzeppelin/contracts/access/manager/AccessManager.sol:AccessManager",
            "label": "admin",
            "offset": 0,
            "slot": "1",
            "type": "t_uint64"
          },
          {
            "astId": 613,
            "contract": "@openzeppelin/contracts/access/manager/AccessManager.sol:AccessManager",
            "label": "guardian",
            "offset": 8,
            "slot": "1",
            "type": "t_uint64"
          },
          {
            "astId": 616,
            "contract": "@openzeppelin/contracts/access/manager/AccessManager.sol:AccessManager",
            "label": "grantDelay",
            "offset": 16,
            "slot": "1",
            "type": "t_userDefinedValueType(Delay)16442"
          }
        ],
        "numberOfBytes": "64"
      },
      "t_struct(Schedule)622_storage": {
        "encoding": "inplace",
        "label": "struct AccessManager.Schedule",
        "members": [
          {
            "astId": 619,
            "contract": "@openzeppelin/contracts/access/manager/AccessManager.sol:AccessManager",
            "label": "timepoint",
            "offset": 0,
            "slot": "0",
            "type": "t_uint48"
          },
          {
            "astId": 621,
            "contract": "@openzeppelin/contracts/access/manager/AccessManager.sol:AccessManager",
            "label": "nonce",
            "offset": 6,
            "slot": "0",
            "type": "t_uint32"
          }
        ],
        "numberOfBytes": "32"
      },
      "t_struct(TargetConfig)598_storage": {
        "encoding": "inplace",
        "label": "struct AccessManager.TargetConfig",
        "members": [
          {
            "astId": 592,
            "contract": "@openzeppelin/contracts/access/manager/AccessManager.sol:AccessManager",
            "label": "allowedRoles",
            "offset": 0,
            "slot": "0",
            "type": "t_mapping(t_bytes4,t_uint64)"
          },
          {
            "astId": 595,
            "contract": "@openzeppelin/contracts/access/manager/AccessManager.sol:AccessManager",
            "label": "adminDelay",
            "offset": 0,
            "slot": "1",
            "type": "t_userDefinedValueType(Delay)16442"
          },
          {
            "astId": 597,
            "contract": "@openzeppelin/contracts/access/manager/AccessManager.sol:AccessManager",
            "label": "closed",
            "offset": 14,
            "slot": "1",
            "type": "t_bool"
          }
        ],
        "numberOfBytes": "64"
      },
      "t_uint32": {
        "encoding": "inplace",
        "label": "uint32",
        "numberOfBytes": "4"
      },
      "t_uint48": {
        "encoding": "inplace",
        "label": "uint48",
        "numberOfBytes": "6"
      },
      "t_uint64": {
        "encoding": "inplace",
        "label": "uint64",
        "numberOfBytes": "8"
      },
      "t_userDefinedValueType(Delay)16442": {
        "encoding": "inplace",
        "label": "Time.Delay",
        "numberOfBytes": "14"
      }
    }
  }
}